{
  "_format": "hh-sol-artifact-1",
  "contractName": "PackageQueue",
  "sourceName": "@bnb-chain/greenfield-contracts/contracts/middle-layer/resource-mirror/storage/PackageQueue.sol",
  "abi": [
    {
      "anonymous": false,
      "inputs": [
        {
          "indexed": true,
          "internalType": "address",
          "name": "appAddress",
          "type": "address"
        },
        {
          "indexed": false,
          "internalType": "bytes32",
          "name": "pkgHash",
          "type": "bytes32"
        },
        {
          "indexed": false,
          "internalType": "bytes",
          "name": "failReason",
          "type": "bytes"
        }
      ],
      "name": "AppHandleAckPkgFailed",
      "type": "event"
    },
    {
      "anonymous": false,
      "inputs": [
        {
          "indexed": true,
          "internalType": "address",
          "name": "appAddress",
          "type": "address"
        },
        {
          "indexed": false,
          "internalType": "bytes32",
          "name": "pkgHash",
          "type": "bytes32"
        },
        {
          "indexed": false,
          "internalType": "bytes",
          "name": "failReason",
          "type": "bytes"
        }
      ],
      "name": "AppHandleFailAckPkgFailed",
      "type": "event"
    },
    {
      "inputs": [
        {
          "internalType": "bytes32",
          "name": "",
          "type": "bytes32"
        }
      ],
      "name": "packageMap",
      "outputs": [
        {
          "internalType": "address",
          "name": "appAddress",
          "type": "address"
        },
        {
          "internalType": "uint32",
          "name": "status",
          "type": "uint32"
        },
        {
          "internalType": "uint8",
          "name": "operationType",
          "type": "uint8"
        },
        {
          "internalType": "uint256",
          "name": "resourceId",
          "type": "uint256"
        },
        {
          "internalType": "bytes",
          "name": "callbackData",
          "type": "bytes"
        },
        {
          "internalType": "bytes",
          "name": "failReason",
          "type": "bytes"
        }
      ],
      "stateMutability": "view",
      "type": "function"
    },
    {
      "inputs": [
        {
          "internalType": "address",
          "name": "",
          "type": "address"
        }
      ],
      "name": "retryQueue",
      "outputs": [
        {
          "internalType": "int128",
          "name": "_begin",
          "type": "int128"
        },
        {
          "internalType": "int128",
          "name": "_end",
          "type": "int128"
        }
      ],
      "stateMutability": "view",
      "type": "function"
    }
  ],
  "bytecode": "0x608060405234801561001057600080fd5b5061036b806100206000396000f3fe608060405234801561001057600080fd5b50600436106100365760003560e01c80631c60450d1461003b5780634eee776714610069575b600080fd5b61004e610049366004610211565b6100b2565b60405161006096959493929190610270565b60405180910390f35b6100986100773660046102cb565b600060208190529081526040902054600f81810b91600160801b9004900b82565b60408051600f93840b81529190920b602082015201610060565b60016020819052600091825260409091208054918101546002820180546001600160a01b03851694600160a01b810463ffffffff1694600160c01b90910460ff1693929091610100906102fb565b80601f016020809104026020016040519081016040528092919081815260200182805461012c906102fb565b80156101795780601f1061014e57610100808354040283529160200191610179565b820191906000526020600020905b81548152906001019060200180831161015c57829003601f168201915b50505050509080600301805461018e906102fb565b80601f01602080910402602001604051908101604052809291908181526020018280546101ba906102fb565b80156102075780601f106101dc57610100808354040283529160200191610207565b820191906000526020600020905b8154815290600101906020018083116101ea57829003601f168201915b5050505050905086565b60006020828403121561022357600080fd5b5035919050565b6000815180845260005b8181101561025057602081850181015186830182015201610234565b506000602082860101526020601f19601f83011685010191505092915050565b60018060a01b038716815263ffffffff8616602082015260ff8516604082015283606082015260c0608082015260006102ac60c083018561022a565b82810360a08401526102be818561022a565b9998505050505050505050565b6000602082840312156102dd57600080fd5b81356001600160a01b03811681146102f457600080fd5b9392505050565b600181811c9082168061030f57607f821691505b60208210810361032f57634e487b7160e01b600052602260045260246000fd5b5091905056fea2646970667358221220810152698aaf8f346c50cf8f25f9e8d101447be4786ba9bab7d8009f21716c9e64736f6c63430008140033",
  "linkReferences": {},
  "deployedLinkReferences": {}
}