{"contracts/Blufield.sol":{"Blufield":{"abi":[{"anonymous":false,"inputs":[{"indexed":true,"internalType":"address","name":"appAddress","type":"address"},{"indexed":false,"internalType":"bytes32","name":"pkgHash","type":"bytes32"},{"indexed":false,"internalType":"bytes","name":"failReason","type":"bytes"}],"name":"AppHandleAckPkgFailed","type":"event"},{"anonymous":false,"inputs":[{"indexed":true,"internalType":"address","name":"appAddress","type":"address"},{"indexed":false,"internalType":"bytes32","name":"pkgHash","type":"bytes32"},{"indexed":false,"internalType":"bytes","name":"failReason","type":"bytes"}],"name":"AppHandleFailAckPkgFailed","type":"event"},{"anonymous":false,"inputs":[{"indexed":true,"internalType":"address","name":"creator","type":"address"},{"indexed":true,"internalType":"uint256","name":"id","type":"uint256"}],"name":"CreateFailed","type":"event"},{"anonymous":false,"inputs":[{"indexed":false,"internalType":"uint32","name":"status","type":"uint32"},{"indexed":false,"internalType":"bytes","name":"groupName","type":"bytes"}],"name":"CreateGroupFailed","type":"event"},{"anonymous":false,"inputs":[{"indexed":false,"internalType":"bytes","name":"groupName","type":"bytes"},{"indexed":true,"internalType":"uint256","name":"tokenId","type":"uint256"}],"name":"CreateGroupSuccess","type":"event"},{"anonymous":false,"inputs":[{"indexed":true,"internalType":"address","name":"owner","type":"address"},{"indexed":true,"internalType":"address","name":"operator","type":"address"},{"indexed":false,"internalType":"string","name":"name","type":"string"}],"name":"CreateSubmitted","type":"event"},{"anonymous":false,"inputs":[{"indexed":true,"internalType":"address","name":"creator","type":"address"},{"indexed":true,"internalType":"uint256","name":"id","type":"uint256"}],"name":"CreateSuccess","type":"event"},{"anonymous":false,"inputs":[{"indexed":true,"internalType":"uint256","name":"id","type":"uint256"}],"name":"DeleteFailed","type":"event"},{"anonymous":false,"inputs":[{"indexed":false,"internalType":"uint32","name":"status","type":"uint32"},{"indexed":true,"internalType":"uint256","name":"tokenId","type":"uint256"}],"name":"DeleteGroupFailed","type":"event"},{"anonymous":false,"inputs":[{"indexed":true,"internalType":"uint256","name":"tokenId","type":"uint256"}],"name":"DeleteGroupSuccess","type":"event"},{"anonymous":false,"inputs":[{"indexed":true,"internalType":"address","name":"owner","type":"address"},{"indexed":true,"internalType":"address","name":"operator","type":"address"},{"indexed":true,"internalType":"uint256","name":"id","type":"uint256"}],"name":"DeleteSubmitted","type":"event"},{"anonymous":false,"inputs":[{"indexed":true,"internalType":"uint256","name":"id","type":"uint256"}],"name":"DeleteSuccess","type":"event"},{"anonymous":false,"inputs":[{"indexed":true,"internalType":"uint8","name":"channelId","type":"uint8"},{"indexed":false,"internalType":"bytes","name":"msgBytes","type":"bytes"}],"name":"FailAckPkgReceived","type":"event"},{"anonymous":false,"inputs":[{"indexed":false,"internalType":"uint8","name":"version","type":"uint8"}],"name":"Initialized","type":"event"},{"anonymous":false,"inputs":[{"indexed":true,"internalType":"uint256","name":"id","type":"uint256"},{"indexed":true,"internalType":"address","name":"owner","type":"address"},{"indexed":false,"internalType":"bytes","name":"failReason","type":"bytes"}],"name":"MirrorFailed","type":"event"},{"anonymous":false,"inputs":[{"indexed":true,"internalType":"uint256","name":"id","type":"uint256"},{"indexed":true,"internalType":"address","name":"owner","type":"address"}],"name":"MirrorSuccess","type":"event"},{"anonymous":false,"inputs":[{"indexed":false,"internalType":"string","name":"key","type":"string"},{"indexed":false,"internalType":"bytes","name":"value","type":"bytes"}],"name":"ParamChange","type":"event"},{"anonymous":false,"inputs":[{"indexed":true,"internalType":"uint8","name":"channelId","type":"uint8"},{"indexed":false,"internalType":"bytes","name":"msgBytes","type":"bytes"}],"name":"UnexpectedPackage","type":"event"},{"anonymous":false,"inputs":[{"indexed":true,"internalType":"address","name":"operator","type":"address"},{"indexed":true,"internalType":"uint256","name":"id","type":"uint256"},{"indexed":false,"internalType":"uint8","name":"opType","type":"uint8"}],"name":"UpdateFailed","type":"event"},{"anonymous":false,"inputs":[{"indexed":false,"internalType":"uint32","name":"status","type":"uint32"},{"indexed":true,"internalType":"uint256","name":"tokenId","type":"uint256"}],"name":"UpdateGroupFailed","type":"event"},{"anonymous":false,"inputs":[{"indexed":true,"internalType":"uint256","name":"tokenId","type":"uint256"}],"name":"UpdateGroupSuccess","type":"event"},{"anonymous":false,"inputs":[{"indexed":false,"internalType":"address","name":"owner","type":"address"},{"indexed":false,"internalType":"address","name":"operator","type":"address"},{"indexed":false,"internalType":"uint256","name":"id","type":"uint256"},{"indexed":false,"internalType":"uint8","name":"opType","type":"uint8"},{"indexed":false,"internalType":"address[]","name":"members","type":"address[]"}],"name":"UpdateSubmitted","type":"event"},{"anonymous":false,"inputs":[{"indexed":true,"internalType":"address","name":"operator","type":"address"},{"indexed":true,"internalType":"uint256","name":"id","type":"uint256"},{"indexed":false,"internalType":"uint8","name":"opType","type":"uint8"}],"name":"UpdateSuccess","type":"event"},{"inputs":[],"name":"AUTH_CODE_CREATE","outputs":[{"internalType":"uint32","name":"","type":"uint32"}],"stateMutability":"view","type":"function"},{"inputs":[],"name":"AUTH_CODE_DELETE","outputs":[{"internalType":"uint32","name":"","type":"uint32"}],"stateMutability":"view","type":"function"},{"inputs":[],"name":"AUTH_CODE_UPDATE","outputs":[{"internalType":"uint32","name":"","type":"uint32"}],"stateMutability":"view","type":"function"},{"inputs":[],"name":"BUCKET_CHANNEL_ID","outputs":[{"internalType":"uint8","name":"","type":"uint8"}],"stateMutability":"view","type":"function"},{"inputs":[],"name":"BUCKET_HUB","outputs":[{"internalType":"address","name":"","type":"address"}],"stateMutability":"view","type":"function"},{"inputs":[],"name":"CROSS_CHAIN","outputs":[{"internalType":"address","name":"","type":"address"}],"stateMutability":"view","type":"function"},{"inputs":[],"name":"EMERGENCY_OPERATOR","outputs":[{"internalType":"address","name":"","type":"address"}],"stateMutability":"view","type":"function"},{"inputs":[],"name":"EMERGENCY_UPGRADE_OPERATOR","outputs":[{"internalType":"address","name":"","type":"address"}],"stateMutability":"view","type":"function"},{"inputs":[],"name":"ERC1155Token","outputs":[{"internalType":"address","name":"","type":"address"}],"stateMutability":"view","type":"function"},{"inputs":[],"name":"ERC721Token","outputs":[{"internalType":"address","name":"","type":"address"}],"stateMutability":"view","type":"function"},{"inputs":[],"name":"ERROR_INSUFFICIENT_VALUE","outputs":[{"internalType":"string","name":"","type":"string"}],"stateMutability":"view","type":"function"},{"inputs":[],"name":"ERROR_INVALID_CALLER","outputs":[{"internalType":"string","name":"","type":"string"}],"stateMutability":"view","type":"function"},{"inputs":[],"name":"ERROR_INVALID_OPERATION","outputs":[{"internalType":"string","name":"","type":"string"}],"stateMutability":"view","type":"function"},{"inputs":[],"name":"ERROR_INVALID_RESOURCE","outputs":[{"internalType":"string","name":"","type":"string"}],"stateMutability":"view","type":"function"},{"inputs":[],"name":"GOV_CHANNEL_ID","outputs":[{"internalType":"uint8","name":"","type":"uint8"}],"stateMutability":"view","type":"function"},{"inputs":[],"name":"GOV_HUB","outputs":[{"internalType":"address","name":"","type":"address"}],"stateMutability":"view","type":"function"},{"inputs":[],"name":"GROUP_CHANNEL_ID","outputs":[{"internalType":"uint8","name":"","type":"uint8"}],"stateMutability":"view","type":"function"},{"inputs":[],"name":"GROUP_HUB","outputs":[{"internalType":"address","name":"","type":"address"}],"stateMutability":"view","type":"function"},{"inputs":[],"name":"GROUP_TOKEN","outputs":[{"internalType":"contract IERC721NonTransferable","name":"","type":"address"}],"stateMutability":"view","type":"function"},{"inputs":[],"name":"INIT_MAX_CALLBACK_DATA_LENGTH","outputs":[{"internalType":"uint256","name":"","type":"uint256"}],"stateMutability":"view","type":"function"},{"inputs":[],"name":"LIGHT_CLIENT","outputs":[{"internalType":"address","name":"","type":"address"}],"stateMutability":"view","type":"function"},{"inputs":[],"name":"MAX_CALLBACK_GAS_LIMIT","outputs":[{"internalType":"uint256","name":"","type":"uint256"}],"stateMutability":"view","type":"function"},{"inputs":[],"name":"MEMBER_TOKEN","outputs":[{"internalType":"contract IERC1155NonTransferable","name":"","type":"address"}],"stateMutability":"view","type":"function"},{"inputs":[],"name":"OBJECT_CHANNEL_ID","outputs":[{"internalType":"uint8","name":"","type":"uint8"}],"stateMutability":"view","type":"function"},{"inputs":[],"name":"OBJECT_HUB","outputs":[{"internalType":"address","name":"","type":"address"}],"stateMutability":"view","type":"function"},{"inputs":[],"name":"PROXY_ADMIN","outputs":[{"internalType":"address","name":"","type":"address"}],"stateMutability":"view","type":"function"},{"inputs":[],"name":"RELAYER_HUB","outputs":[{"internalType":"address","name":"","type":"address"}],"stateMutability":"view","type":"function"},{"inputs":[],"name":"RESOURCE_GROUP","outputs":[{"internalType":"uint8","name":"","type":"uint8"}],"stateMutability":"view","type":"function"},{"inputs":[],"name":"ROLE_CREATE","outputs":[{"internalType":"bytes32","name":"","type":"bytes32"}],"stateMutability":"view","type":"function"},{"inputs":[],"name":"ROLE_DELETE","outputs":[{"internalType":"bytes32","name":"","type":"bytes32"}],"stateMutability":"view","type":"function"},{"inputs":[],"name":"ROLE_UPDATE","outputs":[{"internalType":"bytes32","name":"","type":"bytes32"}],"stateMutability":"view","type":"function"},{"inputs":[],"name":"STATUS_FAILED","outputs":[{"internalType":"uint32","name":"","type":"uint32"}],"stateMutability":"view","type":"function"},{"inputs":[],"name":"STATUS_SUCCESS","outputs":[{"internalType":"uint32","name":"","type":"uint32"}],"stateMutability":"view","type":"function"},{"inputs":[],"name":"STATUS_UNEXPECTED","outputs":[{"internalType":"uint32","name":"","type":"uint32"}],"stateMutability":"view","type":"function"},{"inputs":[],"name":"TOKEN_HUB","outputs":[{"internalType":"address","name":"","type":"address"}],"stateMutability":"view","type":"function"},{"inputs":[],"name":"TRANSFER_IN_CHANNEL_ID","outputs":[{"internalType":"uint8","name":"","type":"uint8"}],"stateMutability":"view","type":"function"},{"inputs":[],"name":"TRANSFER_OUT_CHANNEL_ID","outputs":[{"internalType":"uint8","name":"","type":"uint8"}],"stateMutability":"view","type":"function"},{"inputs":[],"name":"TYPE_CREATE","outputs":[{"internalType":"uint8","name":"","type":"uint8"}],"stateMutability":"view","type":"function"},{"inputs":[],"name":"TYPE_DELETE","outputs":[{"internalType":"uint8","name":"","type":"uint8"}],"stateMutability":"view","type":"function"},{"inputs":[],"name":"TYPE_MIRROR","outputs":[{"internalType":"uint8","name":"","type":"uint8"}],"stateMutability":"view","type":"function"},{"inputs":[],"name":"TYPE_UPDATE","outputs":[{"internalType":"uint8","name":"","type":"uint8"}],"stateMutability":"view","type":"function"},{"inputs":[],"name":"additional","outputs":[{"internalType":"address","name":"","type":"address"}],"stateMutability":"view","type":"function"},{"inputs":[],"name":"callbackGasLimit","outputs":[{"internalType":"uint256","name":"","type":"uint256"}],"stateMutability":"view","type":"function"},{"inputs":[],"name":"channelId","outputs":[{"internalType":"uint8","name":"","type":"uint8"}],"stateMutability":"view","type":"function"},{"inputs":[],"name":"crossChain","outputs":[{"internalType":"address","name":"","type":"address"}],"stateMutability":"view","type":"function"},{"inputs":[{"internalType":"address","name":"","type":"address"},{"internalType":"uint256","name":"","type":"uint256"}],"name":"expirationOfUserSubscription","outputs":[{"internalType":"uint64","name":"","type":"uint64"}],"stateMutability":"view","type":"function"},{"inputs":[],"name":"failureHandleStrategy","outputs":[{"internalType":"enum PackageQueue.FailureHandleStrategy","name":"","type":"uint8"}],"stateMutability":"view","type":"function"},{"inputs":[{"internalType":"address","name":"","type":"address"}],"name":"fieldIdOfUser","outputs":[{"internalType":"uint256","name":"","type":"uint256"}],"stateMutability":"view","type":"function"},{"inputs":[{"internalType":"uint256","name":"","type":"uint256"}],"name":"fieldIdToName","outputs":[{"internalType":"string","name":"","type":"string"}],"stateMutability":"view","type":"function"},{"inputs":[{"internalType":"string","name":"","type":"string"}],"name":"fieldNameToId","outputs":[{"internalType":"uint256","name":"","type":"uint256"}],"stateMutability":"view","type":"function"},{"inputs":[{"internalType":"string","name":"name","type":"string"}],"name":"getFeeByName","outputs":[{"internalType":"uint256","name":"","type":"uint256"}],"stateMutability":"view","type":"function"},{"inputs":[{"internalType":"uint32","name":"status","type":"uint32"},{"internalType":"uint8","name":"resourceType","type":"uint8"},{"internalType":"uint8","name":"operationType","type":"uint8"},{"internalType":"uint256","name":"resourceId","type":"uint256"},{"internalType":"bytes","name":"callbackData","type":"bytes"}],"name":"greenfieldCall","outputs":[],"stateMutability":"nonpayable","type":"function"},{"inputs":[],"name":"groupHub","outputs":[{"internalType":"address","name":"","type":"address"}],"stateMutability":"view","type":"function"},{"inputs":[{"internalType":"address","name":"_groupHub","type":"address"},{"internalType":"address","name":"_crossChain","type":"address"},{"internalType":"uint256","name":"_callbackGasLimit","type":"uint256"},{"internalType":"uint8","name":"_failureHandleStrategy","type":"uint8"}],"name":"initialize","outputs":[],"stateMutability":"nonpayable","type":"function"},{"inputs":[{"internalType":"address","name":"user","type":"address"},{"internalType":"string","name":"name","type":"string"}],"name":"isSubscribed","outputs":[{"internalType":"bool","name":"","type":"bool"}],"stateMutability":"view","type":"function"},{"inputs":[],"name":"maxCallbackDataLength","outputs":[{"internalType":"uint256","name":"","type":"uint256"}],"stateMutability":"view","type":"function"},{"inputs":[{"internalType":"bytes32","name":"","type":"bytes32"}],"name":"packageMap","outputs":[{"internalType":"address","name":"appAddress","type":"address"},{"internalType":"uint32","name":"status","type":"uint32"},{"internalType":"uint8","name":"operationType","type":"uint8"},{"internalType":"uint256","name":"resourceId","type":"uint256"},{"internalType":"bytes","name":"callbackData","type":"bytes"},{"internalType":"bytes","name":"failReason","type":"bytes"}],"stateMutability":"view","type":"function"},{"inputs":[{"internalType":"string","name":"name","type":"string"},{"internalType":"uint256","name":"groupId","type":"uint256"},{"internalType":"uint256","name":"price","type":"uint256"}],"name":"registerField","outputs":[],"stateMutability":"nonpayable","type":"function"},{"inputs":[{"internalType":"uint8","name":"resourceType","type":"uint8"}],"name":"retryPackage","outputs":[],"stateMutability":"nonpayable","type":"function"},{"inputs":[{"internalType":"address","name":"","type":"address"}],"name":"retryQueue","outputs":[{"internalType":"int128","name":"_begin","type":"int128"},{"internalType":"int128","name":"_end","type":"int128"}],"stateMutability":"view","type":"function"},{"inputs":[{"internalType":"uint8","name":"resourceType","type":"uint8"}],"name":"skipPackage","outputs":[],"stateMutability":"nonpayable","type":"function"},{"inputs":[{"internalType":"string","name":"fieldName","type":"string"}],"name":"subscribeField","outputs":[],"stateMutability":"payable","type":"function"},{"inputs":[{"internalType":"uint256","name":"","type":"uint256"}],"name":"subscriptionFee","outputs":[{"internalType":"uint256","name":"","type":"uint256"}],"stateMutability":"view","type":"function"},{"inputs":[{"internalType":"address","name":"","type":"address"}],"name":"userField","outputs":[{"internalType":"string","name":"","type":"string"}],"stateMutability":"view","type":"function"},{"inputs":[{"internalType":"address","name":"user","type":"address"}],"name":"userSubscriptions","outputs":[{"internalType":"string[]","name":"","type":"string[]"}],"stateMutability":"view","type":"function"},{"inputs":[],"name":"versionInfo","outputs":[{"internalType":"uint256","name":"version","type":"uint256"},{"internalType":"string","name":"name","type":"string"},{"internalType":"string","name":"description","type":"string"}],"stateMutability":"pure","type":"function"}],"evm":{"bytecode":{"linkReferences":{},"object":"608060405234801561001057600080fd5b506129b1806100206000396000f3fe6080604052600436106103d95760003560e01c806381d91480116101fd578063cc65cc4a11610118578063e613ae00116100ab578063ed9bc82a1161007a578063ed9bc82a1461062a578063edabb0a314610717578063f2223c0214610702578063fdd562b814610a41578063feb3a68a14610ad757600080fd5b8063e613ae001461062a578063e844911614610806578063e8ea79c014610aa2578063eac78b3314610ac257600080fd5b8063d271250e116100e7578063d271250e14610a13578063e02e86b014610a41578063e2cee54414610a56578063e52a671814610a7557600080fd5b8063cc65cc4a14610927578063ce1ddb6c14610999578063cf14b9e4146109c6578063d18e12a6146109f357600080fd5b8063b32f787b11610190578063c64ca0201161015f578063c64ca02014610945578063c71f64e414610965578063c8b01e6f146105e0578063cc12eabc1461044a57600080fd5b8063b32f787b14610762578063b4627d3514610927578063b8e43b331461062a578063b9d869131461062a57600080fd5b80639142d7fb116101cc5780639142d7fb1461089f578063a21d1354146108c0578063a29be1fa14610907578063a9dae71c1461062a57600080fd5b806381d91480146108065780638855e0921461081b5780638c3cb902146108305780638f8ea3841461084557600080fd5b806346ab84e5116102f857806361bbd6dd1161028b578063778afbb71161025a578063778afbb71461077757806377a714ae146107b05780637a1a14f5146107d65780637afffdd21461062a5780637d2e30841461062a57600080fd5b806361bbd6dd1461072c5780636d3358a11461062a57806373ee45081461074257806373f1e3c31461076257600080fd5b8063557cf477116102c7578063557cf4771461062a5780635bb58b17146106e25780635d83a5aa14610702578063618d569c1461071757600080fd5b806346ab84e51461062a5780634917db661461063f5780634eee77671461065f57806350704a50146106b557600080fd5b806324f746971161037057806339c332151161033f57806339c33215146105c85780633a0f4bf8146105e0578063459af3aa1461060a57806346934fc81461062a57600080fd5b806324f74697146105485780632751cc931461055e57806333a89c401461057357806339a25290146105a157600080fd5b8063142c2f44116103ac578063142c2f44146104a5578063189e8102146104bb5780631a12138f146104f55780631c60450d1461051657600080fd5b8063012927c0146103de57806304ade8e11461041c57806309d1be191461044a57806312629faf14610471575b600080fd5b3480156103ea57600080fd5b50610169546103ff906001600160a01b031681565b6040516001600160a01b0390911681526020015b60405180910390f35b34801561042857600080fd5b5061043c6104373660046120c5565b610b0b565b604051908152602001610413565b34801561045657600080fd5b5061045f600181565b60405160ff9091168152602001610413565b34801561047d57600080fd5b5061043c7fa7a925e56b0f4627a3e4910a6e10d23a82143f84f9d73d587c9ef425941ace8e81565b3480156104b157600080fd5b5061043c60695481565b3480156104c757600080fd5b506104e8604051806040016040528060018152602001601960f91b81525081565b6040516104139190612156565b34801561050157600080fd5b50610168546103ff906001600160a01b031681565b34801561052257600080fd5b50610536610531366004612169565b610b5d565b60405161041396959493929190612182565b34801561055457600080fd5b5061043c609c5481565b61057161056c3660046120c5565b610cb9565b005b34801561057f57600080fd5b5061043c61058e366004612169565b61016e6020526000908152604090205481565b3480156105ad57600080fd5b50609d546105bb9060ff1681565b6040516104139190612211565b3480156105d457600080fd5b5061043c6301312d0081565b3480156105ec57600080fd5b506105f5600181565b60405163ffffffff9091168152602001610413565b34801561061657600080fd5b5061057161062536600461223a565b611240565b34801561063657600080fd5b506103ff600081565b34801561064b57600080fd5b50609b546103ff906001600160a01b031681565b34801561066b57600080fd5b5061069b61067a3660046122d8565b603360205260009081526040902054600f81810b91600160801b9004900b82565b60408051600f93840b81529190920b602082015201610413565b3480156106c157600080fd5b506104e8604051806040016040528060018152602001603160f81b81525081565b3480156106ee57600080fd5b506104e86106fd366004612169565b61131e565b34801561070e57600080fd5b506105f5600281565b34801561072357600080fd5b5061045f600281565b34801561073857600080fd5b5061043c61040081565b34801561074e57600080fd5b5060d0546103ff906001600160a01b031681565b34801561076e57600080fd5b5061045f600481565b34801561078357600080fd5b5061043c61079236600461230b565b805160208183018101805161016b8252928201919093012091525481565b3480156107bc57600080fd5b506067546103ff906201000090046001600160a01b031681565b3480156107e257600080fd5b506107f66107f13660046123bb565b6113b9565b6040519015158152602001610413565b34801561081257600080fd5b5061045f600381565b34801561082757600080fd5b506105f5600081565b34801561083c57600080fd5b506105f5600481565b34801561085157600080fd5b5061088761086036600461240f565b61016f6020908152600092835260408084209091529082529020546001600160401b031681565b6040516001600160401b039091168152602001610413565b3480156108ab57600080fd5b50610103546103ff906001600160a01b031681565b3480156108cc57600080fd5b506040805180820182526006815265436f6e66696760d01b60208083019190915282519081018352600080825292516104139392919061243b565b34801561091357600080fd5b50610571610922366004612470565b61142d565b34801561093357600080fd5b506105716109423660046124c0565b50565b34801561095157600080fd5b506105716109603660046124db565b6116e5565b34801561097157600080fd5b5061043c7fe52b0c82d70862ecc57dd0fa972f308948292049a31fa59a5b152ce07497fded81565b3480156109a557600080fd5b506104e8604051806040016040528060018152602001603360f81b81525081565b3480156109d257600080fd5b506109e66109e13660046122d8565b611912565b604051610413919061252c565b3480156109ff57600080fd5b506104e8610a0e3660046122d8565b611af5565b348015610a1f57600080fd5b5061043c610a2e3660046122d8565b61016a6020526000908152604090205481565b348015610a4d57600080fd5b5061045f600681565b348015610a6257600080fd5b5060675461045f90610100900460ff1681565b348015610a8157600080fd5b506104e8604051806040016040528060018152602001600360fc1b81525081565b348015610aae57600080fd5b506068546103ff906001600160a01b031681565b348015610ace57600080fd5b5061045f600581565b348015610ae357600080fd5b5061043c7f757d0265d5de9ff03394896c4c44c92950e6e9565f35923c097aed8e1128e4cb81565b60008061016b8484604051610b2192919061258e565b908152602001604051809103902054905080600003610b44576000915050610b57565b600090815261016e602052604090205490505b92915050565b6034602052600090815260409020805460018201546002830180546001600160a01b03841694600160a01b850463ffffffff1694600160c01b900460ff1693929091610ba89061259e565b80601f0160208091040260200160405190810160405280929190818152602001828054610bd49061259e565b8015610c215780601f10610bf657610100808354040283529160200191610c21565b820191906000526020600020905b815481529060010190602001808311610c0457829003601f168201915b505050505090806003018054610c369061259e565b80601f0160208091040260200160405190810160405280929190818152602001828054610c629061259e565b8015610caf5780601f10610c8457610100808354040283529160200191610caf565b820191906000526020600020905b815481529060010190602001808311610c9257829003601f168201915b5050505050905086565b610cc1611b0f565b600061016b8383604051610cd692919061258e565b908152602001604051809103902054905080600003610d3c5760405162461bcd60e51b815260206004820152601e60248201527f426c756669656c643a206669656c64206e6f742072656769737465726564000060448201526064015b60405180910390fd5b600081815261016c602052604081208054610d569061259e565b905011610da55760405162461bcd60e51b815260206004820152601e60248201527f426c756669656c643a206669656c64206e6f74207265676973746572656400006044820152606401610d33565b610168546040516331a9108f60e11b8152600481018390526000916001600160a01b031690636352211e90602401602060405180830381865afa158015610df0573d6000803e3d6000fd5b505050506040513d601f19601f82011682018060405250810190610e1491906125d8565b90506001600160a01b038116610e7c5760405162461bcd60e51b815260206004820152602760248201527f426c756669656c643a2063616e6e6f742073756273637269626520746f206f776044820152661b88199a595b1960ca1b6064820152608401610d33565b610103546040516347884b1b60e11b81527f757d0265d5de9ff03394896c4c44c92950e6e9565f35923c097aed8e1128e4cb60048201526001600160a01b03838116602483015230604483015290911690638f10963690606401602060405180830381865afa158015610ef3573d6000803e3d6000fd5b505050506040513d601f19601f82011682018060405250810190610f1791906125f5565b610f635760405162461bcd60e51b815260206004820152601a60248201527f426c756669656c643a20726f6c65206e6f74206772616e7465640000000000006044820152606401610d33565b600082815261016e602052604081205490610f7c611b6a565b9050610f88818361262d565b341015610fd75760405162461bcd60e51b815260206004820152601e60248201527f426c756669656c643a20696e73756666696369656e74207061796d656e7400006044820152606401610d33565b61016954604051627eeac760e11b815233600482015260248101869052600091829182916001600160a01b03169062fdd58e90604401602060405180830381865afa15801561102a573d6000803e3d6000fd5b505050506040513d601f19601f8201168201806040525081019061104e9190612640565b905080600003611070576110654262278d0061262d565b9250600091506110ec565b33600090815261016f602090815260408083208a8452909152902054426001600160401b0390911611156110d75733600090815261016f602090815260408083208a84529091529020546110d0906001600160401b031662278d00612659565b92506110e7565b6110e44262278d0061262d565b92505b600291505b604080516001808252818301909252600091602080830190803683375050604080516001808252818301909252929350600092915060208083019080368337019050509050338260008151811061114557611145612680565b60200260200101906001600160a01b031690816001600160a01b031681525050848160008151811061117957611179612680565b6001600160401b03909216602092830291909101909101526111a8888a8685856111a38d34612696565b611c92565b6040516001600160a01b0389169088156108fc029089906000818181858888f193505050501580156111de573d6000803e3d6000fd5b5033600081815261016f602090815260408083208d84528252808320805467ffffffffffffffff19166001600160401b038b16179055928252610170905220611227908a611dd5565b5050505050505050505061123c600161013655565b5050565b6101035460408051808201825260018152600360fc1b60208083019190915291516001600160a01b0390931633149261127992016126a9565b604051602081830303815290604052906112a65760405162461bcd60e51b8152600401610d339190612156565b50600660ff168560ff1614604051806040016040528060018152602001603160f81b8152506040516020016112db91906126a9565b604051602081830303815290604052906113085760405162461bcd60e51b8152600401610d339190612156565b506113168685858585611de1565b505050505050565b61016c60205260009081526040902080546113389061259e565b80601f01602080910402602001604051908101604052809291908181526020018280546113649061259e565b80156113b15780601f10611386576101008083540402835291602001916113b1565b820191906000526020600020905b81548152906001019060200180831161139457829003601f168201915b505050505081565b60008061016b84846040516113cf92919061258e565b9081526020016040518091039020549050806000036113f2576000915050611426565b6001600160a01b038516600090815261016f602090815260408083209383529290522054426001600160401b039091161190505b9392505050565b611435611b0f565b610168546040516331a9108f60e11b81526004810184905233916001600160a01b031690636352211e90602401602060405180830381865afa15801561147f573d6000803e3d6000fd5b505050506040513d601f19601f820116820180604052508101906114a391906125d8565b6001600160a01b0316146114ef5760405162461bcd60e51b815260206004820152601360248201527221363ab334b2b6321d103737ba1037bbb732b960691b6044820152606401610d33565b8261153c5760405162461bcd60e51b815260206004820152601760248201527f426c756669656c643a206e616d6520697320656d7074790000000000000000006044820152606401610d33565b33600090815261016a60205260409020541561159a5760405162461bcd60e51b815260206004820152601c60248201527f426c756669656c643a20616c72656164792072656769737465726564000000006044820152606401610d33565b61016b84846040516115ad92919061258e565b90815260200160405180910390205460001461160b5760405162461bcd60e51b815260206004820152601c60248201527f426c756669656c643a206e616d6520616c72656164792074616b656e000000006044820152606401610d33565b6000811161165b5760405162461bcd60e51b815260206004820152601760248201527f426c756669656c643a207072696365206973207a65726f0000000000000000006044820152606401610d33565b33600090815261016a6020908152604080832085905584835261016c9091529020611687848683612721565b5033600090815261016d602052604090206116a3848683612721565b508161016b85856040516116b892919061258e565b908152604080516020928190038301902092909255600093845261016e9052909120555050600161013655565b600054610100900460ff16158080156117055750600054600160ff909116105b8061171f5750303b15801561171f575060005460ff166001145b6117825760405162461bcd60e51b815260206004820152602e60248201527f496e697469616c697a61626c653a20636f6e747261637420697320616c72656160448201526d191e481a5b9a5d1a585b1a5e995960921b6064820152608401610d33565b6000805460ff1916600117905580156117a5576000805461ff0019166101001790555b846001600160a01b03166377a714ae6040518163ffffffff1660e01b8152600401602060405180830381865afa1580156117e3573d6000803e3d6000fd5b505050506040513d601f19601f8201168201806040525081019061180791906125d8565b61016860006101000a8154816001600160a01b0302191690836001600160a01b03160217905550846001600160a01b03166373ee45086040518163ffffffff1660e01b8152600401602060405180830381865afa15801561186c573d6000803e3d6000fd5b505050506040513d601f19601f8201168201806040525081019061189091906125d8565b61016980546001600160a01b0319166001600160a01b03929092169190911790556118bc848484611f1d565b6118c585611f9f565b801561190b576000805461ff0019169055604051600181527f7f26b83ff96e1f2b6a682f133852f6798a09c465da95921460cefb38474024989060200160405180910390a15b5050505050565b6001600160a01b0381166000908152610170602052604081206060919061193890611fe9565b90506000816001600160401b03811115611954576119546122f5565b60405190808252806020026020018201604052801561198757816020015b60608152602001906001900390816119725790505b50905060005b82811015611aed576001600160a01b0385166000908152610170602052604081206119b89083611ff3565b6001600160a01b038716600090815261016f60209081526040808320848452909152902054909150426001600160401b039091161115611aac57600081815261016c602052604090208054611a0c9061259e565b80601f0160208091040260200160405190810160405280929190818152602001828054611a389061259e565b8015611a855780601f10611a5a57610100808354040283529160200191611a85565b820191906000526020600020905b815481529060010190602001808311611a6857829003601f168201915b5050505050838381518110611a9c57611a9c612680565b6020026020010181905250611ada565b60405180602001604052806000815250838381518110611ace57611ace612680565b60200260200101819052505b5080611ae5816127e0565b91505061198d565b509392505050565b61016d60205260009081526040902080546113389061259e565b60026101365403611b625760405162461bcd60e51b815260206004820152601f60248201527f5265656e7472616e637947756172643a207265656e7472616e742063616c6c006044820152606401610d33565b600261013655565b6000806000609b60009054906101000a90046001600160a01b03166001600160a01b03166354912a976040518163ffffffff1660e01b815260040160408051808303816000875af1158015611bc3573d6000803e3d6000fd5b505050506040513d601f19601f82011682018060405250810190611be791906127f9565b915091506000609b60009054906101000a90046001600160a01b03166001600160a01b031663bf9032476040518163ffffffff1660e01b81526004016020604051808303816000875af1158015611c42573d6000803e3d6000fd5b505050506040513d601f19601f82011682018060405250810190611c669190612640565b905080609c54611c76919061281d565b611c80838561262d565b611c8a919061262d565b935050505090565b60006040518060c00160405280886001600160a01b03168152602001878152602001866002811115611cc657611cc66121dd565b81526020018581526020016040518060200160405280600081525081526020018481525090506000611cf6611b6a565b905080341015604051806040016040528060018152602001603360f81b815250604051602001611d2691906126a9565b60405160208183030381529060405290611d535760405162461bcd60e51b8152600401610d339190612156565b50610103546040516302041bbf60e51b81526001600160a01b039091169063408377e0908590611d87908690600401612878565b60206040518083038185885af1158015611da5573d6000803e3d6000fd5b50505050506040513d601f19601f82011682018060405250810190611dca91906125f5565b505050505050505050565b60006114268383611fff565b60011960ff851601611e3357611e2e858484848080601f01602080910402602001604051908101604052809392919081815260200183838082843760009201919091525061204e92505050565b61190b565b60021960ff851601611e8057611e2e858484848080601f01602080910402602001604051908101604052809392919081815260200183838082843760009201919091525061204e92505050565b60031960ff851601611ecd57611e2e858484848080601f01602080910402602001604051908101604052809392919081815260200183838082843760009201919091525061204e92505050565b604051806040016040528060018152602001601960f91b815250604051602001611ef791906126a9565b60408051601f198184030181529082905262461bcd60e51b8252610d3391600401612156565b600054610100900460ff16611f445760405162461bcd60e51b8152600401610d3390612930565b609b80546001600160a01b0319166001600160a01b038516179055609c82905560ff81166002811115611f7957611f796121dd565b609d805460ff19166001836002811115611f9557611f956121dd565b0217905550505050565b600054610100900460ff16611fc65760405162461bcd60e51b8152600401610d3390612930565b61010380546001600160a01b0319166001600160a01b0392909216919091179055565b6000610b57825490565b60006114268383612053565b600081815260018301602052604081205461204657508154600181810184556000848152602080822090930184905584548482528286019093526040902091909155610b57565b506000610b57565b505050565b600082600001828154811061206a5761206a612680565b9060005260206000200154905092915050565b60008083601f84011261208f57600080fd5b5081356001600160401b038111156120a657600080fd5b6020830191508360208285010111156120be57600080fd5b9250929050565b600080602083850312156120d857600080fd5b82356001600160401b038111156120ee57600080fd5b6120fa8582860161207d565b90969095509350505050565b60005b83811015612121578181015183820152602001612109565b50506000910152565b60008151808452612142816020860160208601612106565b601f01601f19169290920160200192915050565b602081526000611426602083018461212a565b60006020828403121561217b57600080fd5b5035919050565b60018060a01b038716815263ffffffff8616602082015260ff8516604082015283606082015260c0608082015260006121be60c083018561212a565b82810360a08401526121d0818561212a565b9998505050505050505050565b634e487b7160e01b600052602160045260246000fd5b6003811061094257634e487b7160e01b600052602160045260246000fd5b6020810161221e836121f3565b91905290565b803560ff8116811461223557600080fd5b919050565b60008060008060008060a0878903121561225357600080fd5b863563ffffffff8116811461226757600080fd5b955061227560208801612224565b945061228360408801612224565b93506060870135925060808701356001600160401b038111156122a557600080fd5b6122b189828a0161207d565b979a9699509497509295939492505050565b6001600160a01b038116811461094257600080fd5b6000602082840312156122ea57600080fd5b8135611426816122c3565b634e487b7160e01b600052604160045260246000fd5b60006020828403121561231d57600080fd5b81356001600160401b038082111561233457600080fd5b818401915084601f83011261234857600080fd5b81358181111561235a5761235a6122f5565b604051601f8201601f19908116603f01168101908382118183101715612382576123826122f5565b8160405282815287602084870101111561239b57600080fd5b826020860160208301376000928101602001929092525095945050505050565b6000806000604084860312156123d057600080fd5b83356123db816122c3565b925060208401356001600160401b038111156123f657600080fd5b6124028682870161207d565b9497909650939450505050565b6000806040838503121561242257600080fd5b823561242d816122c3565b946020939093013593505050565b838152606060208201526000612454606083018561212a565b8281036040840152612466818561212a565b9695505050505050565b6000806000806060858703121561248657600080fd5b84356001600160401b0381111561249c57600080fd5b6124a88782880161207d565b90989097506020870135966040013595509350505050565b6000602082840312156124d257600080fd5b61142682612224565b600080600080608085870312156124f157600080fd5b84356124fc816122c3565b9350602085013561250c816122c3565b92506040850135915061252160608601612224565b905092959194509250565b6000602080830181845280855180835260408601915060408160051b870101925083870160005b8281101561258157603f1988860301845261256f85835161212a565b94509285019290850190600101612553565b5092979650505050505050565b8183823760009101908152919050565b600181811c908216806125b257607f821691505b6020821081036125d257634e487b7160e01b600052602260045260246000fd5b50919050565b6000602082840312156125ea57600080fd5b8151611426816122c3565b60006020828403121561260757600080fd5b8151801515811461142657600080fd5b634e487b7160e01b600052601160045260246000fd5b80820180821115610b5757610b57612617565b60006020828403121561265257600080fd5b5051919050565b6001600160401b0381811683821601908082111561267957612679612617565b5092915050565b634e487b7160e01b600052603260045260246000fd5b81810381811115610b5757610b57612617565b69023b937bab820b8381d160b51b8152600082516126ce81600a850160208701612106565b91909101600a0192915050565b601f82111561204e57600081815260208120601f850160051c810160208610156127025750805b601f850160051c820191505b818110156113165782815560010161270e565b6001600160401b03831115612738576127386122f5565b61274c83612746835461259e565b836126db565b6000601f84116001811461278057600085156127685750838201355b600019600387901b1c1916600186901b17835561190b565b600083815260209020601f19861690835b828110156127b15786850135825560209485019460019092019101612791565b50868210156127ce5760001960f88860031b161c19848701351681555b505060018560011b0183555050505050565b6000600182016127f2576127f2612617565b5060010190565b6000806040838503121561280c57600080fd5b505080516020909101519092909150565b8082028115828204841417610b5757610b57612617565b600081518084526020808501945080840160005b8381101561286d5781516001600160401b031687529582019590820190600101612848565b509495945050505050565b6000602080835260e0830160018060a01b03808651168386015282860151604086015260408601516128a9816121f3565b60608681019190915286015160c060808701528051928390528301916000906101008701905b808310156128f1578451841682529385019360019290920191908501906128cf565b5060808801519450601f199350838782030160a0880152612912818661212a565b945050505060a0850151818584030160c08601526124668382612834565b6020808252602b908201527f496e697469616c697a61626c653a20636f6e7472616374206973206e6f74206960408201526a6e697469616c697a696e6760a81b60608201526080019056fea26469706673582212205e31d082a87e37cb3504cee1d56568b75f2e0417c01e5335809b42ac181749db64736f6c63430008140033","opcodes":"PUSH1 0x80 PUSH1 0x40 MSTORE CALLVALUE DUP1 ISZERO PUSH2 0x10 JUMPI PUSH1 0x0 DUP1 REVERT JUMPDEST POP PUSH2 0x29B1 DUP1 PUSH2 0x20 PUSH1 0x0 CODECOPY PUSH1 0x0 RETURN INVALID PUSH1 0x80 PUSH1 0x40 MSTORE PUSH1 0x4 CALLDATASIZE LT PUSH2 0x3D9 JUMPI PUSH1 0x0 CALLDATALOAD PUSH1 0xE0 SHR DUP1 PUSH4 0x81D91480 GT PUSH2 0x1FD JUMPI DUP1 PUSH4 0xCC65CC4A GT PUSH2 0x118 JUMPI DUP1 PUSH4 0xE613AE00 GT PUSH2 0xAB JUMPI DUP1 PUSH4 0xED9BC82A GT PUSH2 0x7A JUMPI DUP1 PUSH4 0xED9BC82A EQ PUSH2 0x62A JUMPI DUP1 PUSH4 0xEDABB0A3 EQ PUSH2 0x717 JUMPI DUP1 PUSH4 0xF2223C02 EQ PUSH2 0x702 JUMPI DUP1 PUSH4 0xFDD562B8 EQ PUSH2 0xA41 JUMPI DUP1 PUSH4 0xFEB3A68A EQ PUSH2 0xAD7 JUMPI PUSH1 0x0 DUP1 REVERT JUMPDEST DUP1 PUSH4 0xE613AE00 EQ PUSH2 0x62A JUMPI DUP1 PUSH4 0xE8449116 EQ PUSH2 0x806 JUMPI DUP1 PUSH4 0xE8EA79C0 EQ PUSH2 0xAA2 JUMPI DUP1 PUSH4 0xEAC78B33 EQ PUSH2 0xAC2 JUMPI PUSH1 0x0 DUP1 REVERT JUMPDEST DUP1 PUSH4 0xD271250E GT PUSH2 0xE7 JUMPI DUP1 PUSH4 0xD271250E EQ PUSH2 0xA13 JUMPI DUP1 PUSH4 0xE02E86B0 EQ PUSH2 0xA41 JUMPI DUP1 PUSH4 0xE2CEE544 EQ PUSH2 0xA56 JUMPI DUP1 PUSH4 0xE52A6718 EQ PUSH2 0xA75 JUMPI PUSH1 0x0 DUP1 REVERT JUMPDEST DUP1 PUSH4 0xCC65CC4A EQ PUSH2 0x927 JUMPI DUP1 PUSH4 0xCE1DDB6C EQ PUSH2 0x999 JUMPI DUP1 PUSH4 0xCF14B9E4 EQ PUSH2 0x9C6 JUMPI DUP1 PUSH4 0xD18E12A6 EQ PUSH2 0x9F3 JUMPI PUSH1 0x0 DUP1 REVERT JUMPDEST DUP1 PUSH4 0xB32F787B GT PUSH2 0x190 JUMPI DUP1 PUSH4 0xC64CA020 GT PUSH2 0x15F JUMPI DUP1 PUSH4 0xC64CA020 EQ PUSH2 0x945 JUMPI DUP1 PUSH4 0xC71F64E4 EQ PUSH2 0x965 JUMPI DUP1 PUSH4 0xC8B01E6F EQ PUSH2 0x5E0 JUMPI DUP1 PUSH4 0xCC12EABC EQ PUSH2 0x44A JUMPI PUSH1 0x0 DUP1 REVERT JUMPDEST DUP1 PUSH4 0xB32F787B EQ PUSH2 0x762 JUMPI DUP1 PUSH4 0xB4627D35 EQ PUSH2 0x927 JUMPI DUP1 PUSH4 0xB8E43B33 EQ PUSH2 0x62A JUMPI DUP1 PUSH4 0xB9D86913 EQ PUSH2 0x62A JUMPI PUSH1 0x0 DUP1 REVERT JUMPDEST DUP1 PUSH4 0x9142D7FB GT PUSH2 0x1CC JUMPI DUP1 PUSH4 0x9142D7FB EQ PUSH2 0x89F JUMPI DUP1 PUSH4 0xA21D1354 EQ PUSH2 0x8C0 JUMPI DUP1 PUSH4 0xA29BE1FA EQ PUSH2 0x907 JUMPI DUP1 PUSH4 0xA9DAE71C EQ PUSH2 0x62A JUMPI PUSH1 0x0 DUP1 REVERT JUMPDEST DUP1 PUSH4 0x81D91480 EQ PUSH2 0x806 JUMPI DUP1 PUSH4 0x8855E092 EQ PUSH2 0x81B JUMPI DUP1 PUSH4 0x8C3CB902 EQ PUSH2 0x830 JUMPI DUP1 PUSH4 0x8F8EA384 EQ PUSH2 0x845 JUMPI PUSH1 0x0 DUP1 REVERT JUMPDEST DUP1 PUSH4 0x46AB84E5 GT PUSH2 0x2F8 JUMPI DUP1 PUSH4 0x61BBD6DD GT PUSH2 0x28B JUMPI DUP1 PUSH4 0x778AFBB7 GT PUSH2 0x25A JUMPI DUP1 PUSH4 0x778AFBB7 EQ PUSH2 0x777 JUMPI DUP1 PUSH4 0x77A714AE EQ PUSH2 0x7B0 JUMPI DUP1 PUSH4 0x7A1A14F5 EQ PUSH2 0x7D6 JUMPI DUP1 PUSH4 0x7AFFFDD2 EQ PUSH2 0x62A JUMPI DUP1 PUSH4 0x7D2E3084 EQ PUSH2 0x62A JUMPI PUSH1 0x0 DUP1 REVERT JUMPDEST DUP1 PUSH4 0x61BBD6DD EQ PUSH2 0x72C JUMPI DUP1 PUSH4 0x6D3358A1 EQ PUSH2 0x62A JUMPI DUP1 PUSH4 0x73EE4508 EQ PUSH2 0x742 JUMPI DUP1 PUSH4 0x73F1E3C3 EQ PUSH2 0x762 JUMPI PUSH1 0x0 DUP1 REVERT JUMPDEST DUP1 PUSH4 0x557CF477 GT PUSH2 0x2C7 JUMPI DUP1 PUSH4 0x557CF477 EQ PUSH2 0x62A JUMPI DUP1 PUSH4 0x5BB58B17 EQ PUSH2 0x6E2 JUMPI DUP1 PUSH4 0x5D83A5AA EQ PUSH2 0x702 JUMPI DUP1 PUSH4 0x618D569C EQ PUSH2 0x717 JUMPI PUSH1 0x0 DUP1 REVERT JUMPDEST DUP1 PUSH4 0x46AB84E5 EQ PUSH2 0x62A JUMPI DUP1 PUSH4 0x4917DB66 EQ PUSH2 0x63F JUMPI DUP1 PUSH4 0x4EEE7767 EQ PUSH2 0x65F JUMPI DUP1 PUSH4 0x50704A50 EQ PUSH2 0x6B5 JUMPI PUSH1 0x0 DUP1 REVERT JUMPDEST DUP1 PUSH4 0x24F74697 GT PUSH2 0x370 JUMPI DUP1 PUSH4 0x39C33215 GT PUSH2 0x33F JUMPI DUP1 PUSH4 0x39C33215 EQ PUSH2 0x5C8 JUMPI DUP1 PUSH4 0x3A0F4BF8 EQ PUSH2 0x5E0 JUMPI DUP1 PUSH4 0x459AF3AA EQ PUSH2 0x60A JUMPI DUP1 PUSH4 0x46934FC8 EQ PUSH2 0x62A JUMPI PUSH1 0x0 DUP1 REVERT JUMPDEST DUP1 PUSH4 0x24F74697 EQ PUSH2 0x548 JUMPI DUP1 PUSH4 0x2751CC93 EQ PUSH2 0x55E JUMPI DUP1 PUSH4 0x33A89C40 EQ PUSH2 0x573 JUMPI DUP1 PUSH4 0x39A25290 EQ PUSH2 0x5A1 JUMPI PUSH1 0x0 DUP1 REVERT JUMPDEST DUP1 PUSH4 0x142C2F44 GT PUSH2 0x3AC JUMPI DUP1 PUSH4 0x142C2F44 EQ PUSH2 0x4A5 JUMPI DUP1 PUSH4 0x189E8102 EQ PUSH2 0x4BB JUMPI DUP1 PUSH4 0x1A12138F EQ PUSH2 0x4F5 JUMPI DUP1 PUSH4 0x1C60450D EQ PUSH2 0x516 JUMPI PUSH1 0x0 DUP1 REVERT JUMPDEST DUP1 PUSH4 0x12927C0 EQ PUSH2 0x3DE JUMPI DUP1 PUSH4 0x4ADE8E1 EQ PUSH2 0x41C JUMPI DUP1 PUSH4 0x9D1BE19 EQ PUSH2 0x44A JUMPI DUP1 PUSH4 0x12629FAF EQ PUSH2 0x471 JUMPI JUMPDEST PUSH1 0x0 DUP1 REVERT JUMPDEST CALLVALUE DUP1 ISZERO PUSH2 0x3EA JUMPI PUSH1 0x0 DUP1 REVERT JUMPDEST POP PUSH2 0x169 SLOAD PUSH2 0x3FF SWAP1 PUSH1 0x1 PUSH1 0x1 PUSH1 0xA0 SHL SUB AND DUP2 JUMP JUMPDEST PUSH1 0x40 MLOAD PUSH1 0x1 PUSH1 0x1 PUSH1 0xA0 SHL SUB SWAP1 SWAP2 AND DUP2 MSTORE PUSH1 0x20 ADD JUMPDEST PUSH1 0x40 MLOAD DUP1 SWAP2 SUB SWAP1 RETURN JUMPDEST CALLVALUE DUP1 ISZERO PUSH2 0x428 JUMPI PUSH1 0x0 DUP1 REVERT JUMPDEST POP PUSH2 0x43C PUSH2 0x437 CALLDATASIZE PUSH1 0x4 PUSH2 0x20C5 JUMP JUMPDEST PUSH2 0xB0B JUMP JUMPDEST PUSH1 0x40 MLOAD SWAP1 DUP2 MSTORE PUSH1 0x20 ADD PUSH2 0x413 JUMP JUMPDEST CALLVALUE DUP1 ISZERO PUSH2 0x456 JUMPI PUSH1 0x0 DUP1 REVERT JUMPDEST POP PUSH2 0x45F PUSH1 0x1 DUP2 JUMP JUMPDEST PUSH1 0x40 MLOAD PUSH1 0xFF SWAP1 SWAP2 AND DUP2 MSTORE PUSH1 0x20 ADD PUSH2 0x413 JUMP JUMPDEST CALLVALUE DUP1 ISZERO PUSH2 0x47D JUMPI PUSH1 0x0 DUP1 REVERT JUMPDEST POP PUSH2 0x43C PUSH32 0xA7A925E56B0F4627A3E4910A6E10D23A82143F84F9D73D587C9EF425941ACE8E DUP2 JUMP JUMPDEST CALLVALUE DUP1 ISZERO PUSH2 0x4B1 JUMPI PUSH1 0x0 DUP1 REVERT JUMPDEST POP PUSH2 0x43C PUSH1 0x69 SLOAD DUP2 JUMP JUMPDEST CALLVALUE DUP1 ISZERO PUSH2 0x4C7 JUMPI PUSH1 0x0 DUP1 REVERT JUMPDEST POP PUSH2 0x4E8 PUSH1 0x40 MLOAD DUP1 PUSH1 0x40 ADD PUSH1 0x40 MSTORE DUP1 PUSH1 0x1 DUP2 MSTORE PUSH1 0x20 ADD PUSH1 0x19 PUSH1 0xF9 SHL DUP2 MSTORE POP DUP2 JUMP JUMPDEST PUSH1 0x40 MLOAD PUSH2 0x413 SWAP2 SWAP1 PUSH2 0x2156 JUMP JUMPDEST CALLVALUE DUP1 ISZERO PUSH2 0x501 JUMPI PUSH1 0x0 DUP1 REVERT JUMPDEST POP PUSH2 0x168 SLOAD PUSH2 0x3FF SWAP1 PUSH1 0x1 PUSH1 0x1 PUSH1 0xA0 SHL SUB AND DUP2 JUMP JUMPDEST CALLVALUE DUP1 ISZERO PUSH2 0x522 JUMPI PUSH1 0x0 DUP1 REVERT JUMPDEST POP PUSH2 0x536 PUSH2 0x531 CALLDATASIZE PUSH1 0x4 PUSH2 0x2169 JUMP JUMPDEST PUSH2 0xB5D JUMP JUMPDEST PUSH1 0x40 MLOAD PUSH2 0x413 SWAP7 SWAP6 SWAP5 SWAP4 SWAP3 SWAP2 SWAP1 PUSH2 0x2182 JUMP JUMPDEST CALLVALUE DUP1 ISZERO PUSH2 0x554 JUMPI PUSH1 0x0 DUP1 REVERT JUMPDEST POP PUSH2 0x43C PUSH1 0x9C SLOAD DUP2 JUMP JUMPDEST PUSH2 0x571 PUSH2 0x56C CALLDATASIZE PUSH1 0x4 PUSH2 0x20C5 JUMP JUMPDEST PUSH2 0xCB9 JUMP JUMPDEST STOP JUMPDEST CALLVALUE DUP1 ISZERO PUSH2 0x57F JUMPI PUSH1 0x0 DUP1 REVERT JUMPDEST POP PUSH2 0x43C PUSH2 0x58E CALLDATASIZE PUSH1 0x4 PUSH2 0x2169 JUMP JUMPDEST PUSH2 0x16E PUSH1 0x20 MSTORE PUSH1 0x0 SWAP1 DUP2 MSTORE PUSH1 0x40 SWAP1 KECCAK256 SLOAD DUP2 JUMP JUMPDEST CALLVALUE DUP1 ISZERO PUSH2 0x5AD JUMPI PUSH1 0x0 DUP1 REVERT JUMPDEST POP PUSH1 0x9D SLOAD PUSH2 0x5BB SWAP1 PUSH1 0xFF AND DUP2 JUMP JUMPDEST PUSH1 0x40 MLOAD PUSH2 0x413 SWAP2 SWAP1 PUSH2 0x2211 JUMP JUMPDEST CALLVALUE DUP1 ISZERO PUSH2 0x5D4 JUMPI PUSH1 0x0 DUP1 REVERT JUMPDEST POP PUSH2 0x43C PUSH4 0x1312D00 DUP2 JUMP JUMPDEST CALLVALUE DUP1 ISZERO PUSH2 0x5EC JUMPI PUSH1 0x0 DUP1 REVERT JUMPDEST POP PUSH2 0x5F5 PUSH1 0x1 DUP2 JUMP JUMPDEST PUSH1 0x40 MLOAD PUSH4 0xFFFFFFFF SWAP1 SWAP2 AND DUP2 MSTORE PUSH1 0x20 ADD PUSH2 0x413 JUMP JUMPDEST CALLVALUE DUP1 ISZERO PUSH2 0x616 JUMPI PUSH1 0x0 DUP1 REVERT JUMPDEST POP PUSH2 0x571 PUSH2 0x625 CALLDATASIZE PUSH1 0x4 PUSH2 0x223A JUMP JUMPDEST PUSH2 0x1240 JUMP JUMPDEST CALLVALUE DUP1 ISZERO PUSH2 0x636 JUMPI PUSH1 0x0 DUP1 REVERT JUMPDEST POP PUSH2 0x3FF PUSH1 0x0 DUP2 JUMP JUMPDEST CALLVALUE DUP1 ISZERO PUSH2 0x64B JUMPI PUSH1 0x0 DUP1 REVERT JUMPDEST POP PUSH1 0x9B SLOAD PUSH2 0x3FF SWAP1 PUSH1 0x1 PUSH1 0x1 PUSH1 0xA0 SHL SUB AND DUP2 JUMP JUMPDEST CALLVALUE DUP1 ISZERO PUSH2 0x66B JUMPI PUSH1 0x0 DUP1 REVERT JUMPDEST POP PUSH2 0x69B PUSH2 0x67A CALLDATASIZE PUSH1 0x4 PUSH2 0x22D8 JUMP JUMPDEST PUSH1 0x33 PUSH1 0x20 MSTORE PUSH1 0x0 SWAP1 DUP2 MSTORE PUSH1 0x40 SWAP1 KECCAK256 SLOAD PUSH1 0xF DUP2 DUP2 SIGNEXTEND SWAP2 PUSH1 0x1 PUSH1 0x80 SHL SWAP1 DIV SWAP1 SIGNEXTEND DUP3 JUMP JUMPDEST PUSH1 0x40 DUP1 MLOAD PUSH1 0xF SWAP4 DUP5 SIGNEXTEND DUP2 MSTORE SWAP2 SWAP1 SWAP3 SIGNEXTEND PUSH1 0x20 DUP3 ADD MSTORE ADD PUSH2 0x413 JUMP JUMPDEST CALLVALUE DUP1 ISZERO PUSH2 0x6C1 JUMPI PUSH1 0x0 DUP1 REVERT JUMPDEST POP PUSH2 0x4E8 PUSH1 0x40 MLOAD DUP1 PUSH1 0x40 ADD PUSH1 0x40 MSTORE DUP1 PUSH1 0x1 DUP2 MSTORE PUSH1 0x20 ADD PUSH1 0x31 PUSH1 0xF8 SHL DUP2 MSTORE POP DUP2 JUMP JUMPDEST CALLVALUE DUP1 ISZERO PUSH2 0x6EE JUMPI PUSH1 0x0 DUP1 REVERT JUMPDEST POP PUSH2 0x4E8 PUSH2 0x6FD CALLDATASIZE PUSH1 0x4 PUSH2 0x2169 JUMP JUMPDEST PUSH2 0x131E JUMP JUMPDEST CALLVALUE DUP1 ISZERO PUSH2 0x70E JUMPI PUSH1 0x0 DUP1 REVERT JUMPDEST POP PUSH2 0x5F5 PUSH1 0x2 DUP2 JUMP JUMPDEST CALLVALUE DUP1 ISZERO PUSH2 0x723 JUMPI PUSH1 0x0 DUP1 REVERT JUMPDEST POP PUSH2 0x45F PUSH1 0x2 DUP2 JUMP JUMPDEST CALLVALUE DUP1 ISZERO PUSH2 0x738 JUMPI PUSH1 0x0 DUP1 REVERT JUMPDEST POP PUSH2 0x43C PUSH2 0x400 DUP2 JUMP JUMPDEST CALLVALUE DUP1 ISZERO PUSH2 0x74E JUMPI PUSH1 0x0 DUP1 REVERT JUMPDEST POP PUSH1 0xD0 SLOAD PUSH2 0x3FF SWAP1 PUSH1 0x1 PUSH1 0x1 PUSH1 0xA0 SHL SUB AND DUP2 JUMP JUMPDEST CALLVALUE DUP1 ISZERO PUSH2 0x76E JUMPI PUSH1 0x0 DUP1 REVERT JUMPDEST POP PUSH2 0x45F PUSH1 0x4 DUP2 JUMP JUMPDEST CALLVALUE DUP1 ISZERO PUSH2 0x783 JUMPI PUSH1 0x0 DUP1 REVERT JUMPDEST POP PUSH2 0x43C PUSH2 0x792 CALLDATASIZE PUSH1 0x4 PUSH2 0x230B JUMP JUMPDEST DUP1 MLOAD PUSH1 0x20 DUP2 DUP4 ADD DUP2 ADD DUP1 MLOAD PUSH2 0x16B DUP3 MSTORE SWAP3 DUP3 ADD SWAP2 SWAP1 SWAP4 ADD KECCAK256 SWAP2 MSTORE SLOAD DUP2 JUMP JUMPDEST CALLVALUE DUP1 ISZERO PUSH2 0x7BC JUMPI PUSH1 0x0 DUP1 REVERT JUMPDEST POP PUSH1 0x67 SLOAD PUSH2 0x3FF SWAP1 PUSH3 0x10000 SWAP1 DIV PUSH1 0x1 PUSH1 0x1 PUSH1 0xA0 SHL SUB AND DUP2 JUMP JUMPDEST CALLVALUE DUP1 ISZERO PUSH2 0x7E2 JUMPI PUSH1 0x0 DUP1 REVERT JUMPDEST POP PUSH2 0x7F6 PUSH2 0x7F1 CALLDATASIZE PUSH1 0x4 PUSH2 0x23BB JUMP JUMPDEST PUSH2 0x13B9 JUMP JUMPDEST PUSH1 0x40 MLOAD SWAP1 ISZERO ISZERO DUP2 MSTORE PUSH1 0x20 ADD PUSH2 0x413 JUMP JUMPDEST CALLVALUE DUP1 ISZERO PUSH2 0x812 JUMPI PUSH1 0x0 DUP1 REVERT JUMPDEST POP PUSH2 0x45F PUSH1 0x3 DUP2 JUMP JUMPDEST CALLVALUE DUP1 ISZERO PUSH2 0x827 JUMPI PUSH1 0x0 DUP1 REVERT JUMPDEST POP PUSH2 0x5F5 PUSH1 0x0 DUP2 JUMP JUMPDEST CALLVALUE DUP1 ISZERO PUSH2 0x83C JUMPI PUSH1 0x0 DUP1 REVERT JUMPDEST POP PUSH2 0x5F5 PUSH1 0x4 DUP2 JUMP JUMPDEST CALLVALUE DUP1 ISZERO PUSH2 0x851 JUMPI PUSH1 0x0 DUP1 REVERT JUMPDEST POP PUSH2 0x887 PUSH2 0x860 CALLDATASIZE PUSH1 0x4 PUSH2 0x240F JUMP JUMPDEST PUSH2 0x16F PUSH1 0x20 SWAP1 DUP2 MSTORE PUSH1 0x0 SWAP3 DUP4 MSTORE PUSH1 0x40 DUP1 DUP5 KECCAK256 SWAP1 SWAP2 MSTORE SWAP1 DUP3 MSTORE SWAP1 KECCAK256 SLOAD PUSH1 0x1 PUSH1 0x1 PUSH1 0x40 SHL SUB AND DUP2 JUMP JUMPDEST PUSH1 0x40 MLOAD PUSH1 0x1 PUSH1 0x1 PUSH1 0x40 SHL SUB SWAP1 SWAP2 AND DUP2 MSTORE PUSH1 0x20 ADD PUSH2 0x413 JUMP JUMPDEST CALLVALUE DUP1 ISZERO PUSH2 0x8AB JUMPI PUSH1 0x0 DUP1 REVERT JUMPDEST POP PUSH2 0x103 SLOAD PUSH2 0x3FF SWAP1 PUSH1 0x1 PUSH1 0x1 PUSH1 0xA0 SHL SUB AND DUP2 JUMP JUMPDEST CALLVALUE DUP1 ISZERO PUSH2 0x8CC JUMPI PUSH1 0x0 DUP1 REVERT JUMPDEST POP PUSH1 0x40 DUP1 MLOAD DUP1 DUP3 ADD DUP3 MSTORE PUSH1 0x6 DUP2 MSTORE PUSH6 0x436F6E666967 PUSH1 0xD0 SHL PUSH1 0x20 DUP1 DUP4 ADD SWAP2 SWAP1 SWAP2 MSTORE DUP3 MLOAD SWAP1 DUP2 ADD DUP4 MSTORE PUSH1 0x0 DUP1 DUP3 MSTORE SWAP3 MLOAD PUSH2 0x413 SWAP4 SWAP3 SWAP2 SWAP1 PUSH2 0x243B JUMP JUMPDEST CALLVALUE DUP1 ISZERO PUSH2 0x913 JUMPI PUSH1 0x0 DUP1 REVERT JUMPDEST POP PUSH2 0x571 PUSH2 0x922 CALLDATASIZE PUSH1 0x4 PUSH2 0x2470 JUMP JUMPDEST PUSH2 0x142D JUMP JUMPDEST CALLVALUE DUP1 ISZERO PUSH2 0x933 JUMPI PUSH1 0x0 DUP1 REVERT JUMPDEST POP PUSH2 0x571 PUSH2 0x942 CALLDATASIZE PUSH1 0x4 PUSH2 0x24C0 JUMP JUMPDEST POP JUMP JUMPDEST CALLVALUE DUP1 ISZERO PUSH2 0x951 JUMPI PUSH1 0x0 DUP1 REVERT JUMPDEST POP PUSH2 0x571 PUSH2 0x960 CALLDATASIZE PUSH1 0x4 PUSH2 0x24DB JUMP JUMPDEST PUSH2 0x16E5 JUMP JUMPDEST CALLVALUE DUP1 ISZERO PUSH2 0x971 JUMPI PUSH1 0x0 DUP1 REVERT JUMPDEST POP PUSH2 0x43C PUSH32 0xE52B0C82D70862ECC57DD0FA972F308948292049A31FA59A5B152CE07497FDED DUP2 JUMP JUMPDEST CALLVALUE DUP1 ISZERO PUSH2 0x9A5 JUMPI PUSH1 0x0 DUP1 REVERT JUMPDEST POP PUSH2 0x4E8 PUSH1 0x40 MLOAD DUP1 PUSH1 0x40 ADD PUSH1 0x40 MSTORE DUP1 PUSH1 0x1 DUP2 MSTORE PUSH1 0x20 ADD PUSH1 0x33 PUSH1 0xF8 SHL DUP2 MSTORE POP DUP2 JUMP JUMPDEST CALLVALUE DUP1 ISZERO PUSH2 0x9D2 JUMPI PUSH1 0x0 DUP1 REVERT JUMPDEST POP PUSH2 0x9E6 PUSH2 0x9E1 CALLDATASIZE PUSH1 0x4 PUSH2 0x22D8 JUMP JUMPDEST PUSH2 0x1912 JUMP JUMPDEST PUSH1 0x40 MLOAD PUSH2 0x413 SWAP2 SWAP1 PUSH2 0x252C JUMP JUMPDEST CALLVALUE DUP1 ISZERO PUSH2 0x9FF JUMPI PUSH1 0x0 DUP1 REVERT JUMPDEST POP PUSH2 0x4E8 PUSH2 0xA0E CALLDATASIZE PUSH1 0x4 PUSH2 0x22D8 JUMP JUMPDEST PUSH2 0x1AF5 JUMP JUMPDEST CALLVALUE DUP1 ISZERO PUSH2 0xA1F JUMPI PUSH1 0x0 DUP1 REVERT JUMPDEST POP PUSH2 0x43C PUSH2 0xA2E CALLDATASIZE PUSH1 0x4 PUSH2 0x22D8 JUMP JUMPDEST PUSH2 0x16A PUSH1 0x20 MSTORE PUSH1 0x0 SWAP1 DUP2 MSTORE PUSH1 0x40 SWAP1 KECCAK256 SLOAD DUP2 JUMP JUMPDEST CALLVALUE DUP1 ISZERO PUSH2 0xA4D JUMPI PUSH1 0x0 DUP1 REVERT JUMPDEST POP PUSH2 0x45F PUSH1 0x6 DUP2 JUMP JUMPDEST CALLVALUE DUP1 ISZERO PUSH2 0xA62 JUMPI PUSH1 0x0 DUP1 REVERT JUMPDEST POP PUSH1 0x67 SLOAD PUSH2 0x45F SWAP1 PUSH2 0x100 SWAP1 DIV PUSH1 0xFF AND DUP2 JUMP JUMPDEST CALLVALUE DUP1 ISZERO PUSH2 0xA81 JUMPI PUSH1 0x0 DUP1 REVERT JUMPDEST POP PUSH2 0x4E8 PUSH1 0x40 MLOAD DUP1 PUSH1 0x40 ADD PUSH1 0x40 MSTORE DUP1 PUSH1 0x1 DUP2 MSTORE PUSH1 0x20 ADD PUSH1 0x3 PUSH1 0xFC SHL DUP2 MSTORE POP DUP2 JUMP JUMPDEST CALLVALUE DUP1 ISZERO PUSH2 0xAAE JUMPI PUSH1 0x0 DUP1 REVERT JUMPDEST POP PUSH1 0x68 SLOAD PUSH2 0x3FF SWAP1 PUSH1 0x1 PUSH1 0x1 PUSH1 0xA0 SHL SUB AND DUP2 JUMP JUMPDEST CALLVALUE DUP1 ISZERO PUSH2 0xACE JUMPI PUSH1 0x0 DUP1 REVERT JUMPDEST POP PUSH2 0x45F PUSH1 0x5 DUP2 JUMP JUMPDEST CALLVALUE DUP1 ISZERO PUSH2 0xAE3 JUMPI PUSH1 0x0 DUP1 REVERT JUMPDEST POP PUSH2 0x43C PUSH32 0x757D0265D5DE9FF03394896C4C44C92950E6E9565F35923C097AED8E1128E4CB DUP2 JUMP JUMPDEST PUSH1 0x0 DUP1 PUSH2 0x16B DUP5 DUP5 PUSH1 0x40 MLOAD PUSH2 0xB21 SWAP3 SWAP2 SWAP1 PUSH2 0x258E JUMP JUMPDEST SWAP1 DUP2 MSTORE PUSH1 0x20 ADD PUSH1 0x40 MLOAD DUP1 SWAP2 SUB SWAP1 KECCAK256 SLOAD SWAP1 POP DUP1 PUSH1 0x0 SUB PUSH2 0xB44 JUMPI PUSH1 0x0 SWAP2 POP POP PUSH2 0xB57 JUMP JUMPDEST PUSH1 0x0 SWAP1 DUP2 MSTORE PUSH2 0x16E PUSH1 0x20 MSTORE PUSH1 0x40 SWAP1 KECCAK256 SLOAD SWAP1 POP JUMPDEST SWAP3 SWAP2 POP POP JUMP JUMPDEST PUSH1 0x34 PUSH1 0x20 MSTORE PUSH1 0x0 SWAP1 DUP2 MSTORE PUSH1 0x40 SWAP1 KECCAK256 DUP1 SLOAD PUSH1 0x1 DUP3 ADD SLOAD PUSH1 0x2 DUP4 ADD DUP1 SLOAD PUSH1 0x1 PUSH1 0x1 PUSH1 0xA0 SHL SUB DUP5 AND SWAP5 PUSH1 0x1 PUSH1 0xA0 SHL DUP6 DIV PUSH4 0xFFFFFFFF AND SWAP5 PUSH1 0x1 PUSH1 0xC0 SHL SWAP1 DIV PUSH1 0xFF AND SWAP4 SWAP3 SWAP1 SWAP2 PUSH2 0xBA8 SWAP1 PUSH2 0x259E JUMP JUMPDEST DUP1 PUSH1 0x1F ADD PUSH1 0x20 DUP1 SWAP2 DIV MUL PUSH1 0x20 ADD PUSH1 0x40 MLOAD SWAP1 DUP2 ADD PUSH1 0x40 MSTORE DUP1 SWAP3 SWAP2 SWAP1 DUP2 DUP2 MSTORE PUSH1 0x20 ADD DUP3 DUP1 SLOAD PUSH2 0xBD4 SWAP1 PUSH2 0x259E JUMP JUMPDEST DUP1 ISZERO PUSH2 0xC21 JUMPI DUP1 PUSH1 0x1F LT PUSH2 0xBF6 JUMPI PUSH2 0x100 DUP1 DUP4 SLOAD DIV MUL DUP4 MSTORE SWAP2 PUSH1 0x20 ADD SWAP2 PUSH2 0xC21 JUMP JUMPDEST DUP3 ADD SWAP2 SWAP1 PUSH1 0x0 MSTORE PUSH1 0x20 PUSH1 0x0 KECCAK256 SWAP1 JUMPDEST DUP2 SLOAD DUP2 MSTORE SWAP1 PUSH1 0x1 ADD SWAP1 PUSH1 0x20 ADD DUP1 DUP4 GT PUSH2 0xC04 JUMPI DUP3 SWAP1 SUB PUSH1 0x1F AND DUP3 ADD SWAP2 JUMPDEST POP POP POP POP POP SWAP1 DUP1 PUSH1 0x3 ADD DUP1 SLOAD PUSH2 0xC36 SWAP1 PUSH2 0x259E JUMP JUMPDEST DUP1 PUSH1 0x1F ADD PUSH1 0x20 DUP1 SWAP2 DIV MUL PUSH1 0x20 ADD PUSH1 0x40 MLOAD SWAP1 DUP2 ADD PUSH1 0x40 MSTORE DUP1 SWAP3 SWAP2 SWAP1 DUP2 DUP2 MSTORE PUSH1 0x20 ADD DUP3 DUP1 SLOAD PUSH2 0xC62 SWAP1 PUSH2 0x259E JUMP JUMPDEST DUP1 ISZERO PUSH2 0xCAF JUMPI DUP1 PUSH1 0x1F LT PUSH2 0xC84 JUMPI PUSH2 0x100 DUP1 DUP4 SLOAD DIV MUL DUP4 MSTORE SWAP2 PUSH1 0x20 ADD SWAP2 PUSH2 0xCAF JUMP JUMPDEST DUP3 ADD SWAP2 SWAP1 PUSH1 0x0 MSTORE PUSH1 0x20 PUSH1 0x0 KECCAK256 SWAP1 JUMPDEST DUP2 SLOAD DUP2 MSTORE SWAP1 PUSH1 0x1 ADD SWAP1 PUSH1 0x20 ADD DUP1 DUP4 GT PUSH2 0xC92 JUMPI DUP3 SWAP1 SUB PUSH1 0x1F AND DUP3 ADD SWAP2 JUMPDEST POP POP POP POP POP SWAP1 POP DUP7 JUMP JUMPDEST PUSH2 0xCC1 PUSH2 0x1B0F JUMP JUMPDEST PUSH1 0x0 PUSH2 0x16B DUP4 DUP4 PUSH1 0x40 MLOAD PUSH2 0xCD6 SWAP3 SWAP2 SWAP1 PUSH2 0x258E JUMP JUMPDEST SWAP1 DUP2 MSTORE PUSH1 0x20 ADD PUSH1 0x40 MLOAD DUP1 SWAP2 SUB SWAP1 KECCAK256 SLOAD SWAP1 POP DUP1 PUSH1 0x0 SUB PUSH2 0xD3C JUMPI PUSH1 0x40 MLOAD PUSH3 0x461BCD PUSH1 0xE5 SHL DUP2 MSTORE PUSH1 0x20 PUSH1 0x4 DUP3 ADD MSTORE PUSH1 0x1E PUSH1 0x24 DUP3 ADD MSTORE PUSH32 0x426C756669656C643A206669656C64206E6F7420726567697374657265640000 PUSH1 0x44 DUP3 ADD MSTORE PUSH1 0x64 ADD JUMPDEST PUSH1 0x40 MLOAD DUP1 SWAP2 SUB SWAP1 REVERT JUMPDEST PUSH1 0x0 DUP2 DUP2 MSTORE PUSH2 0x16C PUSH1 0x20 MSTORE PUSH1 0x40 DUP2 KECCAK256 DUP1 SLOAD PUSH2 0xD56 SWAP1 PUSH2 0x259E JUMP JUMPDEST SWAP1 POP GT PUSH2 0xDA5 JUMPI PUSH1 0x40 MLOAD PUSH3 0x461BCD PUSH1 0xE5 SHL DUP2 MSTORE PUSH1 0x20 PUSH1 0x4 DUP3 ADD MSTORE PUSH1 0x1E PUSH1 0x24 DUP3 ADD MSTORE PUSH32 0x426C756669656C643A206669656C64206E6F7420726567697374657265640000 PUSH1 0x44 DUP3 ADD MSTORE PUSH1 0x64 ADD PUSH2 0xD33 JUMP JUMPDEST PUSH2 0x168 SLOAD PUSH1 0x40 MLOAD PUSH4 0x31A9108F PUSH1 0xE1 SHL DUP2 MSTORE PUSH1 0x4 DUP2 ADD DUP4 SWAP1 MSTORE PUSH1 0x0 SWAP2 PUSH1 0x1 PUSH1 0x1 PUSH1 0xA0 SHL SUB AND SWAP1 PUSH4 0x6352211E SWAP1 PUSH1 0x24 ADD PUSH1 0x20 PUSH1 0x40 MLOAD DUP1 DUP4 SUB DUP2 DUP7 GAS STATICCALL ISZERO DUP1 ISZERO PUSH2 0xDF0 JUMPI RETURNDATASIZE PUSH1 0x0 DUP1 RETURNDATACOPY RETURNDATASIZE PUSH1 0x0 REVERT JUMPDEST POP POP POP POP PUSH1 0x40 MLOAD RETURNDATASIZE PUSH1 0x1F NOT PUSH1 0x1F DUP3 ADD AND DUP3 ADD DUP1 PUSH1 0x40 MSTORE POP DUP2 ADD SWAP1 PUSH2 0xE14 SWAP2 SWAP1 PUSH2 0x25D8 JUMP JUMPDEST SWAP1 POP PUSH1 0x1 PUSH1 0x1 PUSH1 0xA0 SHL SUB DUP2 AND PUSH2 0xE7C JUMPI PUSH1 0x40 MLOAD PUSH3 0x461BCD PUSH1 0xE5 SHL DUP2 MSTORE PUSH1 0x20 PUSH1 0x4 DUP3 ADD MSTORE PUSH1 0x27 PUSH1 0x24 DUP3 ADD MSTORE PUSH32 0x426C756669656C643A2063616E6E6F742073756273637269626520746F206F77 PUSH1 0x44 DUP3 ADD MSTORE PUSH7 0x1B88199A595B19 PUSH1 0xCA SHL PUSH1 0x64 DUP3 ADD MSTORE PUSH1 0x84 ADD PUSH2 0xD33 JUMP JUMPDEST PUSH2 0x103 SLOAD PUSH1 0x40 MLOAD PUSH4 0x47884B1B PUSH1 0xE1 SHL DUP2 MSTORE PUSH32 0x757D0265D5DE9FF03394896C4C44C92950E6E9565F35923C097AED8E1128E4CB PUSH1 0x4 DUP3 ADD MSTORE PUSH1 0x1 PUSH1 0x1 PUSH1 0xA0 SHL SUB DUP4 DUP2 AND PUSH1 0x24 DUP4 ADD MSTORE ADDRESS PUSH1 0x44 DUP4 ADD MSTORE SWAP1 SWAP2 AND SWAP1 PUSH4 0x8F109636 SWAP1 PUSH1 0x64 ADD PUSH1 0x20 PUSH1 0x40 MLOAD DUP1 DUP4 SUB DUP2 DUP7 GAS STATICCALL ISZERO DUP1 ISZERO PUSH2 0xEF3 JUMPI RETURNDATASIZE PUSH1 0x0 DUP1 RETURNDATACOPY RETURNDATASIZE PUSH1 0x0 REVERT JUMPDEST POP POP POP POP PUSH1 0x40 MLOAD RETURNDATASIZE PUSH1 0x1F NOT PUSH1 0x1F DUP3 ADD AND DUP3 ADD DUP1 PUSH1 0x40 MSTORE POP DUP2 ADD SWAP1 PUSH2 0xF17 SWAP2 SWAP1 PUSH2 0x25F5 JUMP JUMPDEST PUSH2 0xF63 JUMPI PUSH1 0x40 MLOAD PUSH3 0x461BCD PUSH1 0xE5 SHL DUP2 MSTORE PUSH1 0x20 PUSH1 0x4 DUP3 ADD MSTORE PUSH1 0x1A PUSH1 0x24 DUP3 ADD MSTORE PUSH32 0x426C756669656C643A20726F6C65206E6F74206772616E746564000000000000 PUSH1 0x44 DUP3 ADD MSTORE PUSH1 0x64 ADD PUSH2 0xD33 JUMP JUMPDEST PUSH1 0x0 DUP3 DUP2 MSTORE PUSH2 0x16E PUSH1 0x20 MSTORE PUSH1 0x40 DUP2 KECCAK256 SLOAD SWAP1 PUSH2 0xF7C PUSH2 0x1B6A JUMP JUMPDEST SWAP1 POP PUSH2 0xF88 DUP2 DUP4 PUSH2 0x262D JUMP JUMPDEST CALLVALUE LT ISZERO PUSH2 0xFD7 JUMPI PUSH1 0x40 MLOAD PUSH3 0x461BCD PUSH1 0xE5 SHL DUP2 MSTORE PUSH1 0x20 PUSH1 0x4 DUP3 ADD MSTORE PUSH1 0x1E PUSH1 0x24 DUP3 ADD MSTORE PUSH32 0x426C756669656C643A20696E73756666696369656E74207061796D656E740000 PUSH1 0x44 DUP3 ADD MSTORE PUSH1 0x64 ADD PUSH2 0xD33 JUMP JUMPDEST PUSH2 0x169 SLOAD PUSH1 0x40 MLOAD PUSH3 0x7EEAC7 PUSH1 0xE1 SHL DUP2 MSTORE CALLER PUSH1 0x4 DUP3 ADD MSTORE PUSH1 0x24 DUP2 ADD DUP7 SWAP1 MSTORE PUSH1 0x0 SWAP2 DUP3 SWAP2 DUP3 SWAP2 PUSH1 0x1 PUSH1 0x1 PUSH1 0xA0 SHL SUB AND SWAP1 PUSH3 0xFDD58E SWAP1 PUSH1 0x44 ADD PUSH1 0x20 PUSH1 0x40 MLOAD DUP1 DUP4 SUB DUP2 DUP7 GAS STATICCALL ISZERO DUP1 ISZERO PUSH2 0x102A JUMPI RETURNDATASIZE PUSH1 0x0 DUP1 RETURNDATACOPY RETURNDATASIZE PUSH1 0x0 REVERT JUMPDEST POP POP POP POP PUSH1 0x40 MLOAD RETURNDATASIZE PUSH1 0x1F NOT PUSH1 0x1F DUP3 ADD AND DUP3 ADD DUP1 PUSH1 0x40 MSTORE POP DUP2 ADD SWAP1 PUSH2 0x104E SWAP2 SWAP1 PUSH2 0x2640 JUMP JUMPDEST SWAP1 POP DUP1 PUSH1 0x0 SUB PUSH2 0x1070 JUMPI PUSH2 0x1065 TIMESTAMP PUSH3 0x278D00 PUSH2 0x262D JUMP JUMPDEST SWAP3 POP PUSH1 0x0 SWAP2 POP PUSH2 0x10EC JUMP JUMPDEST CALLER PUSH1 0x0 SWAP1 DUP2 MSTORE PUSH2 0x16F PUSH1 0x20 SWAP1 DUP2 MSTORE PUSH1 0x40 DUP1 DUP4 KECCAK256 DUP11 DUP5 MSTORE SWAP1 SWAP2 MSTORE SWAP1 KECCAK256 SLOAD TIMESTAMP PUSH1 0x1 PUSH1 0x1 PUSH1 0x40 SHL SUB SWAP1 SWAP2 AND GT ISZERO PUSH2 0x10D7 JUMPI CALLER PUSH1 0x0 SWAP1 DUP2 MSTORE PUSH2 0x16F PUSH1 0x20 SWAP1 DUP2 MSTORE PUSH1 0x40 DUP1 DUP4 KECCAK256 DUP11 DUP5 MSTORE SWAP1 SWAP2 MSTORE SWAP1 KECCAK256 SLOAD PUSH2 0x10D0 SWAP1 PUSH1 0x1 PUSH1 0x1 PUSH1 0x40 SHL SUB AND PUSH3 0x278D00 PUSH2 0x2659 JUMP JUMPDEST SWAP3 POP PUSH2 0x10E7 JUMP JUMPDEST PUSH2 0x10E4 TIMESTAMP PUSH3 0x278D00 PUSH2 0x262D JUMP JUMPDEST SWAP3 POP JUMPDEST PUSH1 0x2 SWAP2 POP JUMPDEST PUSH1 0x40 DUP1 MLOAD PUSH1 0x1 DUP1 DUP3 MSTORE DUP2 DUP4 ADD SWAP1 SWAP3 MSTORE PUSH1 0x0 SWAP2 PUSH1 0x20 DUP1 DUP4 ADD SWAP1 DUP1 CALLDATASIZE DUP4 CALLDATACOPY POP POP PUSH1 0x40 DUP1 MLOAD PUSH1 0x1 DUP1 DUP3 MSTORE DUP2 DUP4 ADD SWAP1 SWAP3 MSTORE SWAP3 SWAP4 POP PUSH1 0x0 SWAP3 SWAP2 POP PUSH1 0x20 DUP1 DUP4 ADD SWAP1 DUP1 CALLDATASIZE DUP4 CALLDATACOPY ADD SWAP1 POP POP SWAP1 POP CALLER DUP3 PUSH1 0x0 DUP2 MLOAD DUP2 LT PUSH2 0x1145 JUMPI PUSH2 0x1145 PUSH2 0x2680 JUMP JUMPDEST PUSH1 0x20 MUL PUSH1 0x20 ADD ADD SWAP1 PUSH1 0x1 PUSH1 0x1 PUSH1 0xA0 SHL SUB AND SWAP1 DUP2 PUSH1 0x1 PUSH1 0x1 PUSH1 0xA0 SHL SUB AND DUP2 MSTORE POP POP DUP5 DUP2 PUSH1 0x0 DUP2 MLOAD DUP2 LT PUSH2 0x1179 JUMPI PUSH2 0x1179 PUSH2 0x2680 JUMP JUMPDEST PUSH1 0x1 PUSH1 0x1 PUSH1 0x40 SHL SUB SWAP1 SWAP3 AND PUSH1 0x20 SWAP3 DUP4 MUL SWAP2 SWAP1 SWAP2 ADD SWAP1 SWAP2 ADD MSTORE PUSH2 0x11A8 DUP9 DUP11 DUP7 DUP6 DUP6 PUSH2 0x11A3 DUP14 CALLVALUE PUSH2 0x2696 JUMP JUMPDEST PUSH2 0x1C92 JUMP JUMPDEST PUSH1 0x40 MLOAD PUSH1 0x1 PUSH1 0x1 PUSH1 0xA0 SHL SUB DUP10 AND SWAP1 DUP9 ISZERO PUSH2 0x8FC MUL SWAP1 DUP10 SWAP1 PUSH1 0x0 DUP2 DUP2 DUP2 DUP6 DUP9 DUP9 CALL SWAP4 POP POP POP POP ISZERO DUP1 ISZERO PUSH2 0x11DE JUMPI RETURNDATASIZE PUSH1 0x0 DUP1 RETURNDATACOPY RETURNDATASIZE PUSH1 0x0 REVERT JUMPDEST POP CALLER PUSH1 0x0 DUP2 DUP2 MSTORE PUSH2 0x16F PUSH1 0x20 SWAP1 DUP2 MSTORE PUSH1 0x40 DUP1 DUP4 KECCAK256 DUP14 DUP5 MSTORE DUP3 MSTORE DUP1 DUP4 KECCAK256 DUP1 SLOAD PUSH8 0xFFFFFFFFFFFFFFFF NOT AND PUSH1 0x1 PUSH1 0x1 PUSH1 0x40 SHL SUB DUP12 AND OR SWAP1 SSTORE SWAP3 DUP3 MSTORE PUSH2 0x170 SWAP1 MSTORE KECCAK256 PUSH2 0x1227 SWAP1 DUP11 PUSH2 0x1DD5 JUMP JUMPDEST POP POP POP POP POP POP POP POP POP POP PUSH2 0x123C PUSH1 0x1 PUSH2 0x136 SSTORE JUMP JUMPDEST POP POP JUMP JUMPDEST PUSH2 0x103 SLOAD PUSH1 0x40 DUP1 MLOAD DUP1 DUP3 ADD DUP3 MSTORE PUSH1 0x1 DUP2 MSTORE PUSH1 0x3 PUSH1 0xFC SHL PUSH1 0x20 DUP1 DUP4 ADD SWAP2 SWAP1 SWAP2 MSTORE SWAP2 MLOAD PUSH1 0x1 PUSH1 0x1 PUSH1 0xA0 SHL SUB SWAP1 SWAP4 AND CALLER EQ SWAP3 PUSH2 0x1279 SWAP3 ADD PUSH2 0x26A9 JUMP JUMPDEST PUSH1 0x40 MLOAD PUSH1 0x20 DUP2 DUP4 SUB SUB DUP2 MSTORE SWAP1 PUSH1 0x40 MSTORE SWAP1 PUSH2 0x12A6 JUMPI PUSH1 0x40 MLOAD PUSH3 0x461BCD PUSH1 0xE5 SHL DUP2 MSTORE PUSH1 0x4 ADD PUSH2 0xD33 SWAP2 SWAP1 PUSH2 0x2156 JUMP JUMPDEST POP PUSH1 0x6 PUSH1 0xFF AND DUP6 PUSH1 0xFF AND EQ PUSH1 0x40 MLOAD DUP1 PUSH1 0x40 ADD PUSH1 0x40 MSTORE DUP1 PUSH1 0x1 DUP2 MSTORE PUSH1 0x20 ADD PUSH1 0x31 PUSH1 0xF8 SHL DUP2 MSTORE POP PUSH1 0x40 MLOAD PUSH1 0x20 ADD PUSH2 0x12DB SWAP2 SWAP1 PUSH2 0x26A9 JUMP JUMPDEST PUSH1 0x40 MLOAD PUSH1 0x20 DUP2 DUP4 SUB SUB DUP2 MSTORE SWAP1 PUSH1 0x40 MSTORE SWAP1 PUSH2 0x1308 JUMPI PUSH1 0x40 MLOAD PUSH3 0x461BCD PUSH1 0xE5 SHL DUP2 MSTORE PUSH1 0x4 ADD PUSH2 0xD33 SWAP2 SWAP1 PUSH2 0x2156 JUMP JUMPDEST POP PUSH2 0x1316 DUP7 DUP6 DUP6 DUP6 DUP6 PUSH2 0x1DE1 JUMP JUMPDEST POP POP POP POP POP POP JUMP JUMPDEST PUSH2 0x16C PUSH1 0x20 MSTORE PUSH1 0x0 SWAP1 DUP2 MSTORE PUSH1 0x40 SWAP1 KECCAK256 DUP1 SLOAD PUSH2 0x1338 SWAP1 PUSH2 0x259E JUMP JUMPDEST DUP1 PUSH1 0x1F ADD PUSH1 0x20 DUP1 SWAP2 DIV MUL PUSH1 0x20 ADD PUSH1 0x40 MLOAD SWAP1 DUP2 ADD PUSH1 0x40 MSTORE DUP1 SWAP3 SWAP2 SWAP1 DUP2 DUP2 MSTORE PUSH1 0x20 ADD DUP3 DUP1 SLOAD PUSH2 0x1364 SWAP1 PUSH2 0x259E JUMP JUMPDEST DUP1 ISZERO PUSH2 0x13B1 JUMPI DUP1 PUSH1 0x1F LT PUSH2 0x1386 JUMPI PUSH2 0x100 DUP1 DUP4 SLOAD DIV MUL DUP4 MSTORE SWAP2 PUSH1 0x20 ADD SWAP2 PUSH2 0x13B1 JUMP JUMPDEST DUP3 ADD SWAP2 SWAP1 PUSH1 0x0 MSTORE PUSH1 0x20 PUSH1 0x0 KECCAK256 SWAP1 JUMPDEST DUP2 SLOAD DUP2 MSTORE SWAP1 PUSH1 0x1 ADD SWAP1 PUSH1 0x20 ADD DUP1 DUP4 GT PUSH2 0x1394 JUMPI DUP3 SWAP1 SUB PUSH1 0x1F AND DUP3 ADD SWAP2 JUMPDEST POP POP POP POP POP DUP2 JUMP JUMPDEST PUSH1 0x0 DUP1 PUSH2 0x16B DUP5 DUP5 PUSH1 0x40 MLOAD PUSH2 0x13CF SWAP3 SWAP2 SWAP1 PUSH2 0x258E JUMP JUMPDEST SWAP1 DUP2 MSTORE PUSH1 0x20 ADD PUSH1 0x40 MLOAD DUP1 SWAP2 SUB SWAP1 KECCAK256 SLOAD SWAP1 POP DUP1 PUSH1 0x0 SUB PUSH2 0x13F2 JUMPI PUSH1 0x0 SWAP2 POP POP PUSH2 0x1426 JUMP JUMPDEST PUSH1 0x1 PUSH1 0x1 PUSH1 0xA0 SHL SUB DUP6 AND PUSH1 0x0 SWAP1 DUP2 MSTORE PUSH2 0x16F PUSH1 0x20 SWAP1 DUP2 MSTORE PUSH1 0x40 DUP1 DUP4 KECCAK256 SWAP4 DUP4 MSTORE SWAP3 SWAP1 MSTORE KECCAK256 SLOAD TIMESTAMP PUSH1 0x1 PUSH1 0x1 PUSH1 0x40 SHL SUB SWAP1 SWAP2 AND GT SWAP1 POP JUMPDEST SWAP4 SWAP3 POP POP POP JUMP JUMPDEST PUSH2 0x1435 PUSH2 0x1B0F JUMP JUMPDEST PUSH2 0x168 SLOAD PUSH1 0x40 MLOAD PUSH4 0x31A9108F PUSH1 0xE1 SHL DUP2 MSTORE PUSH1 0x4 DUP2 ADD DUP5 SWAP1 MSTORE CALLER SWAP2 PUSH1 0x1 PUSH1 0x1 PUSH1 0xA0 SHL SUB AND SWAP1 PUSH4 0x6352211E SWAP1 PUSH1 0x24 ADD PUSH1 0x20 PUSH1 0x40 MLOAD DUP1 DUP4 SUB DUP2 DUP7 GAS STATICCALL ISZERO DUP1 ISZERO PUSH2 0x147F JUMPI RETURNDATASIZE PUSH1 0x0 DUP1 RETURNDATACOPY RETURNDATASIZE PUSH1 0x0 REVERT JUMPDEST POP POP POP POP PUSH1 0x40 MLOAD RETURNDATASIZE PUSH1 0x1F NOT PUSH1 0x1F DUP3 ADD AND DUP3 ADD DUP1 PUSH1 0x40 MSTORE POP DUP2 ADD SWAP1 PUSH2 0x14A3 SWAP2 SWAP1 PUSH2 0x25D8 JUMP JUMPDEST PUSH1 0x1 PUSH1 0x1 PUSH1 0xA0 SHL SUB AND EQ PUSH2 0x14EF JUMPI PUSH1 0x40 MLOAD PUSH3 0x461BCD PUSH1 0xE5 SHL DUP2 MSTORE PUSH1 0x20 PUSH1 0x4 DUP3 ADD MSTORE PUSH1 0x13 PUSH1 0x24 DUP3 ADD MSTORE PUSH19 0x21363AB334B2B6321D103737BA1037BBB732B9 PUSH1 0x69 SHL PUSH1 0x44 DUP3 ADD MSTORE PUSH1 0x64 ADD PUSH2 0xD33 JUMP JUMPDEST DUP3 PUSH2 0x153C JUMPI PUSH1 0x40 MLOAD PUSH3 0x461BCD PUSH1 0xE5 SHL DUP2 MSTORE PUSH1 0x20 PUSH1 0x4 DUP3 ADD MSTORE PUSH1 0x17 PUSH1 0x24 DUP3 ADD MSTORE PUSH32 0x426C756669656C643A206E616D6520697320656D707479000000000000000000 PUSH1 0x44 DUP3 ADD MSTORE PUSH1 0x64 ADD PUSH2 0xD33 JUMP JUMPDEST CALLER PUSH1 0x0 SWAP1 DUP2 MSTORE PUSH2 0x16A PUSH1 0x20 MSTORE PUSH1 0x40 SWAP1 KECCAK256 SLOAD ISZERO PUSH2 0x159A JUMPI PUSH1 0x40 MLOAD PUSH3 0x461BCD PUSH1 0xE5 SHL DUP2 MSTORE PUSH1 0x20 PUSH1 0x4 DUP3 ADD MSTORE PUSH1 0x1C PUSH1 0x24 DUP3 ADD MSTORE PUSH32 0x426C756669656C643A20616C7265616479207265676973746572656400000000 PUSH1 0x44 DUP3 ADD MSTORE PUSH1 0x64 ADD PUSH2 0xD33 JUMP JUMPDEST PUSH2 0x16B DUP5 DUP5 PUSH1 0x40 MLOAD PUSH2 0x15AD SWAP3 SWAP2 SWAP1 PUSH2 0x258E JUMP JUMPDEST SWAP1 DUP2 MSTORE PUSH1 0x20 ADD PUSH1 0x40 MLOAD DUP1 SWAP2 SUB SWAP1 KECCAK256 SLOAD PUSH1 0x0 EQ PUSH2 0x160B JUMPI PUSH1 0x40 MLOAD PUSH3 0x461BCD PUSH1 0xE5 SHL DUP2 MSTORE PUSH1 0x20 PUSH1 0x4 DUP3 ADD MSTORE PUSH1 0x1C PUSH1 0x24 DUP3 ADD MSTORE PUSH32 0x426C756669656C643A206E616D6520616C72656164792074616B656E00000000 PUSH1 0x44 DUP3 ADD MSTORE PUSH1 0x64 ADD PUSH2 0xD33 JUMP JUMPDEST PUSH1 0x0 DUP2 GT PUSH2 0x165B JUMPI PUSH1 0x40 MLOAD PUSH3 0x461BCD PUSH1 0xE5 SHL DUP2 MSTORE PUSH1 0x20 PUSH1 0x4 DUP3 ADD MSTORE PUSH1 0x17 PUSH1 0x24 DUP3 ADD MSTORE PUSH32 0x426C756669656C643A207072696365206973207A65726F000000000000000000 PUSH1 0x44 DUP3 ADD MSTORE PUSH1 0x64 ADD PUSH2 0xD33 JUMP JUMPDEST CALLER PUSH1 0x0 SWAP1 DUP2 MSTORE PUSH2 0x16A PUSH1 0x20 SWAP1 DUP2 MSTORE PUSH1 0x40 DUP1 DUP4 KECCAK256 DUP6 SWAP1 SSTORE DUP5 DUP4 MSTORE PUSH2 0x16C SWAP1 SWAP2 MSTORE SWAP1 KECCAK256 PUSH2 0x1687 DUP5 DUP7 DUP4 PUSH2 0x2721 JUMP JUMPDEST POP CALLER PUSH1 0x0 SWAP1 DUP2 MSTORE PUSH2 0x16D PUSH1 0x20 MSTORE PUSH1 0x40 SWAP1 KECCAK256 PUSH2 0x16A3 DUP5 DUP7 DUP4 PUSH2 0x2721 JUMP JUMPDEST POP DUP2 PUSH2 0x16B DUP6 DUP6 PUSH1 0x40 MLOAD PUSH2 0x16B8 SWAP3 SWAP2 SWAP1 PUSH2 0x258E JUMP JUMPDEST SWAP1 DUP2 MSTORE PUSH1 0x40 DUP1 MLOAD PUSH1 0x20 SWAP3 DUP2 SWAP1 SUB DUP4 ADD SWAP1 KECCAK256 SWAP3 SWAP1 SWAP3 SSTORE PUSH1 0x0 SWAP4 DUP5 MSTORE PUSH2 0x16E SWAP1 MSTORE SWAP1 SWAP2 KECCAK256 SSTORE POP POP PUSH1 0x1 PUSH2 0x136 SSTORE JUMP JUMPDEST PUSH1 0x0 SLOAD PUSH2 0x100 SWAP1 DIV PUSH1 0xFF AND ISZERO DUP1 DUP1 ISZERO PUSH2 0x1705 JUMPI POP PUSH1 0x0 SLOAD PUSH1 0x1 PUSH1 0xFF SWAP1 SWAP2 AND LT JUMPDEST DUP1 PUSH2 0x171F JUMPI POP ADDRESS EXTCODESIZE ISZERO DUP1 ISZERO PUSH2 0x171F JUMPI POP PUSH1 0x0 SLOAD PUSH1 0xFF AND PUSH1 0x1 EQ JUMPDEST PUSH2 0x1782 JUMPI PUSH1 0x40 MLOAD PUSH3 0x461BCD PUSH1 0xE5 SHL DUP2 MSTORE PUSH1 0x20 PUSH1 0x4 DUP3 ADD MSTORE PUSH1 0x2E PUSH1 0x24 DUP3 ADD MSTORE PUSH32 0x496E697469616C697A61626C653A20636F6E747261637420697320616C726561 PUSH1 0x44 DUP3 ADD MSTORE PUSH14 0x191E481A5B9A5D1A585B1A5E9959 PUSH1 0x92 SHL PUSH1 0x64 DUP3 ADD MSTORE PUSH1 0x84 ADD PUSH2 0xD33 JUMP JUMPDEST PUSH1 0x0 DUP1 SLOAD PUSH1 0xFF NOT AND PUSH1 0x1 OR SWAP1 SSTORE DUP1 ISZERO PUSH2 0x17A5 JUMPI PUSH1 0x0 DUP1 SLOAD PUSH2 0xFF00 NOT AND PUSH2 0x100 OR SWAP1 SSTORE JUMPDEST DUP5 PUSH1 0x1 PUSH1 0x1 PUSH1 0xA0 SHL SUB AND PUSH4 0x77A714AE PUSH1 0x40 MLOAD DUP2 PUSH4 0xFFFFFFFF AND PUSH1 0xE0 SHL DUP2 MSTORE PUSH1 0x4 ADD PUSH1 0x20 PUSH1 0x40 MLOAD DUP1 DUP4 SUB DUP2 DUP7 GAS STATICCALL ISZERO DUP1 ISZERO PUSH2 0x17E3 JUMPI RETURNDATASIZE PUSH1 0x0 DUP1 RETURNDATACOPY RETURNDATASIZE PUSH1 0x0 REVERT JUMPDEST POP POP POP POP PUSH1 0x40 MLOAD RETURNDATASIZE PUSH1 0x1F NOT PUSH1 0x1F DUP3 ADD AND DUP3 ADD DUP1 PUSH1 0x40 MSTORE POP DUP2 ADD SWAP1 PUSH2 0x1807 SWAP2 SWAP1 PUSH2 0x25D8 JUMP JUMPDEST PUSH2 0x168 PUSH1 0x0 PUSH2 0x100 EXP DUP2 SLOAD DUP2 PUSH1 0x1 PUSH1 0x1 PUSH1 0xA0 SHL SUB MUL NOT AND SWAP1 DUP4 PUSH1 0x1 PUSH1 0x1 PUSH1 0xA0 SHL SUB AND MUL OR SWAP1 SSTORE POP DUP5 PUSH1 0x1 PUSH1 0x1 PUSH1 0xA0 SHL SUB AND PUSH4 0x73EE4508 PUSH1 0x40 MLOAD DUP2 PUSH4 0xFFFFFFFF AND PUSH1 0xE0 SHL DUP2 MSTORE PUSH1 0x4 ADD PUSH1 0x20 PUSH1 0x40 MLOAD DUP1 DUP4 SUB DUP2 DUP7 GAS STATICCALL ISZERO DUP1 ISZERO PUSH2 0x186C JUMPI RETURNDATASIZE PUSH1 0x0 DUP1 RETURNDATACOPY RETURNDATASIZE PUSH1 0x0 REVERT JUMPDEST POP POP POP POP PUSH1 0x40 MLOAD RETURNDATASIZE PUSH1 0x1F NOT PUSH1 0x1F DUP3 ADD AND DUP3 ADD DUP1 PUSH1 0x40 MSTORE POP DUP2 ADD SWAP1 PUSH2 0x1890 SWAP2 SWAP1 PUSH2 0x25D8 JUMP JUMPDEST PUSH2 0x169 DUP1 SLOAD PUSH1 0x1 PUSH1 0x1 PUSH1 0xA0 SHL SUB NOT AND PUSH1 0x1 PUSH1 0x1 PUSH1 0xA0 SHL SUB SWAP3 SWAP1 SWAP3 AND SWAP2 SWAP1 SWAP2 OR SWAP1 SSTORE PUSH2 0x18BC DUP5 DUP5 DUP5 PUSH2 0x1F1D JUMP JUMPDEST PUSH2 0x18C5 DUP6 PUSH2 0x1F9F JUMP JUMPDEST DUP1 ISZERO PUSH2 0x190B JUMPI PUSH1 0x0 DUP1 SLOAD PUSH2 0xFF00 NOT AND SWAP1 SSTORE PUSH1 0x40 MLOAD PUSH1 0x1 DUP2 MSTORE PUSH32 0x7F26B83FF96E1F2B6A682F133852F6798A09C465DA95921460CEFB3847402498 SWAP1 PUSH1 0x20 ADD PUSH1 0x40 MLOAD DUP1 SWAP2 SUB SWAP1 LOG1 JUMPDEST POP POP POP POP POP JUMP JUMPDEST PUSH1 0x1 PUSH1 0x1 PUSH1 0xA0 SHL SUB DUP2 AND PUSH1 0x0 SWAP1 DUP2 MSTORE PUSH2 0x170 PUSH1 0x20 MSTORE PUSH1 0x40 DUP2 KECCAK256 PUSH1 0x60 SWAP2 SWAP1 PUSH2 0x1938 SWAP1 PUSH2 0x1FE9 JUMP JUMPDEST SWAP1 POP PUSH1 0x0 DUP2 PUSH1 0x1 PUSH1 0x1 PUSH1 0x40 SHL SUB DUP2 GT ISZERO PUSH2 0x1954 JUMPI PUSH2 0x1954 PUSH2 0x22F5 JUMP JUMPDEST PUSH1 0x40 MLOAD SWAP1 DUP1 DUP3 MSTORE DUP1 PUSH1 0x20 MUL PUSH1 0x20 ADD DUP3 ADD PUSH1 0x40 MSTORE DUP1 ISZERO PUSH2 0x1987 JUMPI DUP2 PUSH1 0x20 ADD JUMPDEST PUSH1 0x60 DUP2 MSTORE PUSH1 0x20 ADD SWAP1 PUSH1 0x1 SWAP1 SUB SWAP1 DUP2 PUSH2 0x1972 JUMPI SWAP1 POP JUMPDEST POP SWAP1 POP PUSH1 0x0 JUMPDEST DUP3 DUP2 LT ISZERO PUSH2 0x1AED JUMPI PUSH1 0x1 PUSH1 0x1 PUSH1 0xA0 SHL SUB DUP6 AND PUSH1 0x0 SWAP1 DUP2 MSTORE PUSH2 0x170 PUSH1 0x20 MSTORE PUSH1 0x40 DUP2 KECCAK256 PUSH2 0x19B8 SWAP1 DUP4 PUSH2 0x1FF3 JUMP JUMPDEST PUSH1 0x1 PUSH1 0x1 PUSH1 0xA0 SHL SUB DUP8 AND PUSH1 0x0 SWAP1 DUP2 MSTORE PUSH2 0x16F PUSH1 0x20 SWAP1 DUP2 MSTORE PUSH1 0x40 DUP1 DUP4 KECCAK256 DUP5 DUP5 MSTORE SWAP1 SWAP2 MSTORE SWAP1 KECCAK256 SLOAD SWAP1 SWAP2 POP TIMESTAMP PUSH1 0x1 PUSH1 0x1 PUSH1 0x40 SHL SUB SWAP1 SWAP2 AND GT ISZERO PUSH2 0x1AAC JUMPI PUSH1 0x0 DUP2 DUP2 MSTORE PUSH2 0x16C PUSH1 0x20 MSTORE PUSH1 0x40 SWAP1 KECCAK256 DUP1 SLOAD PUSH2 0x1A0C SWAP1 PUSH2 0x259E JUMP JUMPDEST DUP1 PUSH1 0x1F ADD PUSH1 0x20 DUP1 SWAP2 DIV MUL PUSH1 0x20 ADD PUSH1 0x40 MLOAD SWAP1 DUP2 ADD PUSH1 0x40 MSTORE DUP1 SWAP3 SWAP2 SWAP1 DUP2 DUP2 MSTORE PUSH1 0x20 ADD DUP3 DUP1 SLOAD PUSH2 0x1A38 SWAP1 PUSH2 0x259E JUMP JUMPDEST DUP1 ISZERO PUSH2 0x1A85 JUMPI DUP1 PUSH1 0x1F LT PUSH2 0x1A5A JUMPI PUSH2 0x100 DUP1 DUP4 SLOAD DIV MUL DUP4 MSTORE SWAP2 PUSH1 0x20 ADD SWAP2 PUSH2 0x1A85 JUMP JUMPDEST DUP3 ADD SWAP2 SWAP1 PUSH1 0x0 MSTORE PUSH1 0x20 PUSH1 0x0 KECCAK256 SWAP1 JUMPDEST DUP2 SLOAD DUP2 MSTORE SWAP1 PUSH1 0x1 ADD SWAP1 PUSH1 0x20 ADD DUP1 DUP4 GT PUSH2 0x1A68 JUMPI DUP3 SWAP1 SUB PUSH1 0x1F AND DUP3 ADD SWAP2 JUMPDEST POP POP POP POP POP DUP4 DUP4 DUP2 MLOAD DUP2 LT PUSH2 0x1A9C JUMPI PUSH2 0x1A9C PUSH2 0x2680 JUMP JUMPDEST PUSH1 0x20 MUL PUSH1 0x20 ADD ADD DUP2 SWAP1 MSTORE POP PUSH2 0x1ADA JUMP JUMPDEST PUSH1 0x40 MLOAD DUP1 PUSH1 0x20 ADD PUSH1 0x40 MSTORE DUP1 PUSH1 0x0 DUP2 MSTORE POP DUP4 DUP4 DUP2 MLOAD DUP2 LT PUSH2 0x1ACE JUMPI PUSH2 0x1ACE PUSH2 0x2680 JUMP JUMPDEST PUSH1 0x20 MUL PUSH1 0x20 ADD ADD DUP2 SWAP1 MSTORE POP JUMPDEST POP DUP1 PUSH2 0x1AE5 DUP2 PUSH2 0x27E0 JUMP JUMPDEST SWAP2 POP POP PUSH2 0x198D JUMP JUMPDEST POP SWAP4 SWAP3 POP POP POP JUMP JUMPDEST PUSH2 0x16D PUSH1 0x20 MSTORE PUSH1 0x0 SWAP1 DUP2 MSTORE PUSH1 0x40 SWAP1 KECCAK256 DUP1 SLOAD PUSH2 0x1338 SWAP1 PUSH2 0x259E JUMP JUMPDEST PUSH1 0x2 PUSH2 0x136 SLOAD SUB PUSH2 0x1B62 JUMPI PUSH1 0x40 MLOAD PUSH3 0x461BCD PUSH1 0xE5 SHL DUP2 MSTORE PUSH1 0x20 PUSH1 0x4 DUP3 ADD MSTORE PUSH1 0x1F PUSH1 0x24 DUP3 ADD MSTORE PUSH32 0x5265656E7472616E637947756172643A207265656E7472616E742063616C6C00 PUSH1 0x44 DUP3 ADD MSTORE PUSH1 0x64 ADD PUSH2 0xD33 JUMP JUMPDEST PUSH1 0x2 PUSH2 0x136 SSTORE JUMP JUMPDEST PUSH1 0x0 DUP1 PUSH1 0x0 PUSH1 0x9B PUSH1 0x0 SWAP1 SLOAD SWAP1 PUSH2 0x100 EXP SWAP1 DIV PUSH1 0x1 PUSH1 0x1 PUSH1 0xA0 SHL SUB AND PUSH1 0x1 PUSH1 0x1 PUSH1 0xA0 SHL SUB AND PUSH4 0x54912A97 PUSH1 0x40 MLOAD DUP2 PUSH4 0xFFFFFFFF AND PUSH1 0xE0 SHL DUP2 MSTORE PUSH1 0x4 ADD PUSH1 0x40 DUP1 MLOAD DUP1 DUP4 SUB DUP2 PUSH1 0x0 DUP8 GAS CALL ISZERO DUP1 ISZERO PUSH2 0x1BC3 JUMPI RETURNDATASIZE PUSH1 0x0 DUP1 RETURNDATACOPY RETURNDATASIZE PUSH1 0x0 REVERT JUMPDEST POP POP POP POP PUSH1 0x40 MLOAD RETURNDATASIZE PUSH1 0x1F NOT PUSH1 0x1F DUP3 ADD AND DUP3 ADD DUP1 PUSH1 0x40 MSTORE POP DUP2 ADD SWAP1 PUSH2 0x1BE7 SWAP2 SWAP1 PUSH2 0x27F9 JUMP JUMPDEST SWAP2 POP SWAP2 POP PUSH1 0x0 PUSH1 0x9B PUSH1 0x0 SWAP1 SLOAD SWAP1 PUSH2 0x100 EXP SWAP1 DIV PUSH1 0x1 PUSH1 0x1 PUSH1 0xA0 SHL SUB AND PUSH1 0x1 PUSH1 0x1 PUSH1 0xA0 SHL SUB AND PUSH4 0xBF903247 PUSH1 0x40 MLOAD DUP2 PUSH4 0xFFFFFFFF AND PUSH1 0xE0 SHL DUP2 MSTORE PUSH1 0x4 ADD PUSH1 0x20 PUSH1 0x40 MLOAD DUP1 DUP4 SUB DUP2 PUSH1 0x0 DUP8 GAS CALL ISZERO DUP1 ISZERO PUSH2 0x1C42 JUMPI RETURNDATASIZE PUSH1 0x0 DUP1 RETURNDATACOPY RETURNDATASIZE PUSH1 0x0 REVERT JUMPDEST POP POP POP POP PUSH1 0x40 MLOAD RETURNDATASIZE PUSH1 0x1F NOT PUSH1 0x1F DUP3 ADD AND DUP3 ADD DUP1 PUSH1 0x40 MSTORE POP DUP2 ADD SWAP1 PUSH2 0x1C66 SWAP2 SWAP1 PUSH2 0x2640 JUMP JUMPDEST SWAP1 POP DUP1 PUSH1 0x9C SLOAD PUSH2 0x1C76 SWAP2 SWAP1 PUSH2 0x281D JUMP JUMPDEST PUSH2 0x1C80 DUP4 DUP6 PUSH2 0x262D JUMP JUMPDEST PUSH2 0x1C8A SWAP2 SWAP1 PUSH2 0x262D JUMP JUMPDEST SWAP4 POP POP POP POP SWAP1 JUMP JUMPDEST PUSH1 0x0 PUSH1 0x40 MLOAD DUP1 PUSH1 0xC0 ADD PUSH1 0x40 MSTORE DUP1 DUP9 PUSH1 0x1 PUSH1 0x1 PUSH1 0xA0 SHL SUB AND DUP2 MSTORE PUSH1 0x20 ADD DUP8 DUP2 MSTORE PUSH1 0x20 ADD DUP7 PUSH1 0x2 DUP2 GT ISZERO PUSH2 0x1CC6 JUMPI PUSH2 0x1CC6 PUSH2 0x21DD JUMP JUMPDEST DUP2 MSTORE PUSH1 0x20 ADD DUP6 DUP2 MSTORE PUSH1 0x20 ADD PUSH1 0x40 MLOAD DUP1 PUSH1 0x20 ADD PUSH1 0x40 MSTORE DUP1 PUSH1 0x0 DUP2 MSTORE POP DUP2 MSTORE PUSH1 0x20 ADD DUP5 DUP2 MSTORE POP SWAP1 POP PUSH1 0x0 PUSH2 0x1CF6 PUSH2 0x1B6A JUMP JUMPDEST SWAP1 POP DUP1 CALLVALUE LT ISZERO PUSH1 0x40 MLOAD DUP1 PUSH1 0x40 ADD PUSH1 0x40 MSTORE DUP1 PUSH1 0x1 DUP2 MSTORE PUSH1 0x20 ADD PUSH1 0x33 PUSH1 0xF8 SHL DUP2 MSTORE POP PUSH1 0x40 MLOAD PUSH1 0x20 ADD PUSH2 0x1D26 SWAP2 SWAP1 PUSH2 0x26A9 JUMP JUMPDEST PUSH1 0x40 MLOAD PUSH1 0x20 DUP2 DUP4 SUB SUB DUP2 MSTORE SWAP1 PUSH1 0x40 MSTORE SWAP1 PUSH2 0x1D53 JUMPI PUSH1 0x40 MLOAD PUSH3 0x461BCD PUSH1 0xE5 SHL DUP2 MSTORE PUSH1 0x4 ADD PUSH2 0xD33 SWAP2 SWAP1 PUSH2 0x2156 JUMP JUMPDEST POP PUSH2 0x103 SLOAD PUSH1 0x40 MLOAD PUSH4 0x2041BBF PUSH1 0xE5 SHL DUP2 MSTORE PUSH1 0x1 PUSH1 0x1 PUSH1 0xA0 SHL SUB SWAP1 SWAP2 AND SWAP1 PUSH4 0x408377E0 SWAP1 DUP6 SWAP1 PUSH2 0x1D87 SWAP1 DUP7 SWAP1 PUSH1 0x4 ADD PUSH2 0x2878 JUMP JUMPDEST PUSH1 0x20 PUSH1 0x40 MLOAD DUP1 DUP4 SUB DUP2 DUP6 DUP9 GAS CALL ISZERO DUP1 ISZERO PUSH2 0x1DA5 JUMPI RETURNDATASIZE PUSH1 0x0 DUP1 RETURNDATACOPY RETURNDATASIZE PUSH1 0x0 REVERT JUMPDEST POP POP POP POP POP PUSH1 0x40 MLOAD RETURNDATASIZE PUSH1 0x1F NOT PUSH1 0x1F DUP3 ADD AND DUP3 ADD DUP1 PUSH1 0x40 MSTORE POP DUP2 ADD SWAP1 PUSH2 0x1DCA SWAP2 SWAP1 PUSH2 0x25F5 JUMP JUMPDEST POP POP POP POP POP POP POP POP POP JUMP JUMPDEST PUSH1 0x0 PUSH2 0x1426 DUP4 DUP4 PUSH2 0x1FFF JUMP JUMPDEST PUSH1 0x1 NOT PUSH1 0xFF DUP6 AND ADD PUSH2 0x1E33 JUMPI PUSH2 0x1E2E DUP6 DUP5 DUP5 DUP5 DUP1 DUP1 PUSH1 0x1F ADD PUSH1 0x20 DUP1 SWAP2 DIV MUL PUSH1 0x20 ADD PUSH1 0x40 MLOAD SWAP1 DUP2 ADD PUSH1 0x40 MSTORE DUP1 SWAP4 SWAP3 SWAP2 SWAP1 DUP2 DUP2 MSTORE PUSH1 0x20 ADD DUP4 DUP4 DUP1 DUP3 DUP5 CALLDATACOPY PUSH1 0x0 SWAP3 ADD SWAP2 SWAP1 SWAP2 MSTORE POP PUSH2 0x204E SWAP3 POP POP POP JUMP JUMPDEST PUSH2 0x190B JUMP JUMPDEST PUSH1 0x2 NOT PUSH1 0xFF DUP6 AND ADD PUSH2 0x1E80 JUMPI PUSH2 0x1E2E DUP6 DUP5 DUP5 DUP5 DUP1 DUP1 PUSH1 0x1F ADD PUSH1 0x20 DUP1 SWAP2 DIV MUL PUSH1 0x20 ADD PUSH1 0x40 MLOAD SWAP1 DUP2 ADD PUSH1 0x40 MSTORE DUP1 SWAP4 SWAP3 SWAP2 SWAP1 DUP2 DUP2 MSTORE PUSH1 0x20 ADD DUP4 DUP4 DUP1 DUP3 DUP5 CALLDATACOPY PUSH1 0x0 SWAP3 ADD SWAP2 SWAP1 SWAP2 MSTORE POP PUSH2 0x204E SWAP3 POP POP POP JUMP JUMPDEST PUSH1 0x3 NOT PUSH1 0xFF DUP6 AND ADD PUSH2 0x1ECD JUMPI PUSH2 0x1E2E DUP6 DUP5 DUP5 DUP5 DUP1 DUP1 PUSH1 0x1F ADD PUSH1 0x20 DUP1 SWAP2 DIV MUL PUSH1 0x20 ADD PUSH1 0x40 MLOAD SWAP1 DUP2 ADD PUSH1 0x40 MSTORE DUP1 SWAP4 SWAP3 SWAP2 SWAP1 DUP2 DUP2 MSTORE PUSH1 0x20 ADD DUP4 DUP4 DUP1 DUP3 DUP5 CALLDATACOPY PUSH1 0x0 SWAP3 ADD SWAP2 SWAP1 SWAP2 MSTORE POP PUSH2 0x204E SWAP3 POP POP POP JUMP JUMPDEST PUSH1 0x40 MLOAD DUP1 PUSH1 0x40 ADD PUSH1 0x40 MSTORE DUP1 PUSH1 0x1 DUP2 MSTORE PUSH1 0x20 ADD PUSH1 0x19 PUSH1 0xF9 SHL DUP2 MSTORE POP PUSH1 0x40 MLOAD PUSH1 0x20 ADD PUSH2 0x1EF7 SWAP2 SWAP1 PUSH2 0x26A9 JUMP JUMPDEST PUSH1 0x40 DUP1 MLOAD PUSH1 0x1F NOT DUP2 DUP5 SUB ADD DUP2 MSTORE SWAP1 DUP3 SWAP1 MSTORE PUSH3 0x461BCD PUSH1 0xE5 SHL DUP3 MSTORE PUSH2 0xD33 SWAP2 PUSH1 0x4 ADD PUSH2 0x2156 JUMP JUMPDEST PUSH1 0x0 SLOAD PUSH2 0x100 SWAP1 DIV PUSH1 0xFF AND PUSH2 0x1F44 JUMPI PUSH1 0x40 MLOAD PUSH3 0x461BCD PUSH1 0xE5 SHL DUP2 MSTORE PUSH1 0x4 ADD PUSH2 0xD33 SWAP1 PUSH2 0x2930 JUMP JUMPDEST PUSH1 0x9B DUP1 SLOAD PUSH1 0x1 PUSH1 0x1 PUSH1 0xA0 SHL SUB NOT AND PUSH1 0x1 PUSH1 0x1 PUSH1 0xA0 SHL SUB DUP6 AND OR SWAP1 SSTORE PUSH1 0x9C DUP3 SWAP1 SSTORE PUSH1 0xFF DUP2 AND PUSH1 0x2 DUP2 GT ISZERO PUSH2 0x1F79 JUMPI PUSH2 0x1F79 PUSH2 0x21DD JUMP JUMPDEST PUSH1 0x9D DUP1 SLOAD PUSH1 0xFF NOT AND PUSH1 0x1 DUP4 PUSH1 0x2 DUP2 GT ISZERO PUSH2 0x1F95 JUMPI PUSH2 0x1F95 PUSH2 0x21DD JUMP JUMPDEST MUL OR SWAP1 SSTORE POP POP POP POP JUMP JUMPDEST PUSH1 0x0 SLOAD PUSH2 0x100 SWAP1 DIV PUSH1 0xFF AND PUSH2 0x1FC6 JUMPI PUSH1 0x40 MLOAD PUSH3 0x461BCD PUSH1 0xE5 SHL DUP2 MSTORE PUSH1 0x4 ADD PUSH2 0xD33 SWAP1 PUSH2 0x2930 JUMP JUMPDEST PUSH2 0x103 DUP1 SLOAD PUSH1 0x1 PUSH1 0x1 PUSH1 0xA0 SHL SUB NOT AND PUSH1 0x1 PUSH1 0x1 PUSH1 0xA0 SHL SUB SWAP3 SWAP1 SWAP3 AND SWAP2 SWAP1 SWAP2 OR SWAP1 SSTORE JUMP JUMPDEST PUSH1 0x0 PUSH2 0xB57 DUP3 SLOAD SWAP1 JUMP JUMPDEST PUSH1 0x0 PUSH2 0x1426 DUP4 DUP4 PUSH2 0x2053 JUMP JUMPDEST PUSH1 0x0 DUP2 DUP2 MSTORE PUSH1 0x1 DUP4 ADD PUSH1 0x20 MSTORE PUSH1 0x40 DUP2 KECCAK256 SLOAD PUSH2 0x2046 JUMPI POP DUP2 SLOAD PUSH1 0x1 DUP2 DUP2 ADD DUP5 SSTORE PUSH1 0x0 DUP5 DUP2 MSTORE PUSH1 0x20 DUP1 DUP3 KECCAK256 SWAP1 SWAP4 ADD DUP5 SWAP1 SSTORE DUP5 SLOAD DUP5 DUP3 MSTORE DUP3 DUP7 ADD SWAP1 SWAP4 MSTORE PUSH1 0x40 SWAP1 KECCAK256 SWAP2 SWAP1 SWAP2 SSTORE PUSH2 0xB57 JUMP JUMPDEST POP PUSH1 0x0 PUSH2 0xB57 JUMP JUMPDEST POP POP POP JUMP JUMPDEST PUSH1 0x0 DUP3 PUSH1 0x0 ADD DUP3 DUP2 SLOAD DUP2 LT PUSH2 0x206A JUMPI PUSH2 0x206A PUSH2 0x2680 JUMP JUMPDEST SWAP1 PUSH1 0x0 MSTORE PUSH1 0x20 PUSH1 0x0 KECCAK256 ADD SLOAD SWAP1 POP SWAP3 SWAP2 POP POP JUMP JUMPDEST PUSH1 0x0 DUP1 DUP4 PUSH1 0x1F DUP5 ADD SLT PUSH2 0x208F JUMPI PUSH1 0x0 DUP1 REVERT JUMPDEST POP DUP2 CALLDATALOAD PUSH1 0x1 PUSH1 0x1 PUSH1 0x40 SHL SUB DUP2 GT ISZERO PUSH2 0x20A6 JUMPI PUSH1 0x0 DUP1 REVERT JUMPDEST PUSH1 0x20 DUP4 ADD SWAP2 POP DUP4 PUSH1 0x20 DUP3 DUP6 ADD ADD GT ISZERO PUSH2 0x20BE JUMPI PUSH1 0x0 DUP1 REVERT JUMPDEST SWAP3 POP SWAP3 SWAP1 POP JUMP JUMPDEST PUSH1 0x0 DUP1 PUSH1 0x20 DUP4 DUP6 SUB SLT ISZERO PUSH2 0x20D8 JUMPI PUSH1 0x0 DUP1 REVERT JUMPDEST DUP3 CALLDATALOAD PUSH1 0x1 PUSH1 0x1 PUSH1 0x40 SHL SUB DUP2 GT ISZERO PUSH2 0x20EE JUMPI PUSH1 0x0 DUP1 REVERT JUMPDEST PUSH2 0x20FA DUP6 DUP3 DUP7 ADD PUSH2 0x207D JUMP JUMPDEST SWAP1 SWAP7 SWAP1 SWAP6 POP SWAP4 POP POP POP POP JUMP JUMPDEST PUSH1 0x0 JUMPDEST DUP4 DUP2 LT ISZERO PUSH2 0x2121 JUMPI DUP2 DUP2 ADD MLOAD DUP4 DUP3 ADD MSTORE PUSH1 0x20 ADD PUSH2 0x2109 JUMP JUMPDEST POP POP PUSH1 0x0 SWAP2 ADD MSTORE JUMP JUMPDEST PUSH1 0x0 DUP2 MLOAD DUP1 DUP5 MSTORE PUSH2 0x2142 DUP2 PUSH1 0x20 DUP7 ADD PUSH1 0x20 DUP7 ADD PUSH2 0x2106 JUMP JUMPDEST PUSH1 0x1F ADD PUSH1 0x1F NOT AND SWAP3 SWAP1 SWAP3 ADD PUSH1 0x20 ADD SWAP3 SWAP2 POP POP JUMP JUMPDEST PUSH1 0x20 DUP2 MSTORE PUSH1 0x0 PUSH2 0x1426 PUSH1 0x20 DUP4 ADD DUP5 PUSH2 0x212A JUMP JUMPDEST PUSH1 0x0 PUSH1 0x20 DUP3 DUP5 SUB SLT ISZERO PUSH2 0x217B JUMPI PUSH1 0x0 DUP1 REVERT JUMPDEST POP CALLDATALOAD SWAP2 SWAP1 POP JUMP JUMPDEST PUSH1 0x1 DUP1 PUSH1 0xA0 SHL SUB DUP8 AND DUP2 MSTORE PUSH4 0xFFFFFFFF DUP7 AND PUSH1 0x20 DUP3 ADD MSTORE PUSH1 0xFF DUP6 AND PUSH1 0x40 DUP3 ADD MSTORE DUP4 PUSH1 0x60 DUP3 ADD MSTORE PUSH1 0xC0 PUSH1 0x80 DUP3 ADD MSTORE PUSH1 0x0 PUSH2 0x21BE PUSH1 0xC0 DUP4 ADD DUP6 PUSH2 0x212A JUMP JUMPDEST DUP3 DUP2 SUB PUSH1 0xA0 DUP5 ADD MSTORE PUSH2 0x21D0 DUP2 DUP6 PUSH2 0x212A JUMP JUMPDEST SWAP10 SWAP9 POP POP POP POP POP POP POP POP POP JUMP JUMPDEST PUSH4 0x4E487B71 PUSH1 0xE0 SHL PUSH1 0x0 MSTORE PUSH1 0x21 PUSH1 0x4 MSTORE PUSH1 0x24 PUSH1 0x0 REVERT JUMPDEST PUSH1 0x3 DUP2 LT PUSH2 0x942 JUMPI PUSH4 0x4E487B71 PUSH1 0xE0 SHL PUSH1 0x0 MSTORE PUSH1 0x21 PUSH1 0x4 MSTORE PUSH1 0x24 PUSH1 0x0 REVERT JUMPDEST PUSH1 0x20 DUP2 ADD PUSH2 0x221E DUP4 PUSH2 0x21F3 JUMP JUMPDEST SWAP2 SWAP1 MSTORE SWAP1 JUMP JUMPDEST DUP1 CALLDATALOAD PUSH1 0xFF DUP2 AND DUP2 EQ PUSH2 0x2235 JUMPI PUSH1 0x0 DUP1 REVERT JUMPDEST SWAP2 SWAP1 POP JUMP JUMPDEST PUSH1 0x0 DUP1 PUSH1 0x0 DUP1 PUSH1 0x0 DUP1 PUSH1 0xA0 DUP8 DUP10 SUB SLT ISZERO PUSH2 0x2253 JUMPI PUSH1 0x0 DUP1 REVERT JUMPDEST DUP7 CALLDATALOAD PUSH4 0xFFFFFFFF DUP2 AND DUP2 EQ PUSH2 0x2267 JUMPI PUSH1 0x0 DUP1 REVERT JUMPDEST SWAP6 POP PUSH2 0x2275 PUSH1 0x20 DUP9 ADD PUSH2 0x2224 JUMP JUMPDEST SWAP5 POP PUSH2 0x2283 PUSH1 0x40 DUP9 ADD PUSH2 0x2224 JUMP JUMPDEST SWAP4 POP PUSH1 0x60 DUP8 ADD CALLDATALOAD SWAP3 POP PUSH1 0x80 DUP8 ADD CALLDATALOAD PUSH1 0x1 PUSH1 0x1 PUSH1 0x40 SHL SUB DUP2 GT ISZERO PUSH2 0x22A5 JUMPI PUSH1 0x0 DUP1 REVERT JUMPDEST PUSH2 0x22B1 DUP10 DUP3 DUP11 ADD PUSH2 0x207D JUMP JUMPDEST SWAP8 SWAP11 SWAP7 SWAP10 POP SWAP5 SWAP8 POP SWAP3 SWAP6 SWAP4 SWAP5 SWAP3 POP POP POP JUMP JUMPDEST PUSH1 0x1 PUSH1 0x1 PUSH1 0xA0 SHL SUB DUP2 AND DUP2 EQ PUSH2 0x942 JUMPI PUSH1 0x0 DUP1 REVERT JUMPDEST PUSH1 0x0 PUSH1 0x20 DUP3 DUP5 SUB SLT ISZERO PUSH2 0x22EA JUMPI PUSH1 0x0 DUP1 REVERT JUMPDEST DUP2 CALLDATALOAD PUSH2 0x1426 DUP2 PUSH2 0x22C3 JUMP JUMPDEST PUSH4 0x4E487B71 PUSH1 0xE0 SHL PUSH1 0x0 MSTORE PUSH1 0x41 PUSH1 0x4 MSTORE PUSH1 0x24 PUSH1 0x0 REVERT JUMPDEST PUSH1 0x0 PUSH1 0x20 DUP3 DUP5 SUB SLT ISZERO PUSH2 0x231D JUMPI PUSH1 0x0 DUP1 REVERT JUMPDEST DUP2 CALLDATALOAD PUSH1 0x1 PUSH1 0x1 PUSH1 0x40 SHL SUB DUP1 DUP3 GT ISZERO PUSH2 0x2334 JUMPI PUSH1 0x0 DUP1 REVERT JUMPDEST DUP2 DUP5 ADD SWAP2 POP DUP5 PUSH1 0x1F DUP4 ADD SLT PUSH2 0x2348 JUMPI PUSH1 0x0 DUP1 REVERT JUMPDEST DUP2 CALLDATALOAD DUP2 DUP2 GT ISZERO PUSH2 0x235A JUMPI PUSH2 0x235A PUSH2 0x22F5 JUMP JUMPDEST PUSH1 0x40 MLOAD PUSH1 0x1F DUP3 ADD PUSH1 0x1F NOT SWAP1 DUP2 AND PUSH1 0x3F ADD AND DUP2 ADD SWAP1 DUP4 DUP3 GT DUP2 DUP4 LT OR ISZERO PUSH2 0x2382 JUMPI PUSH2 0x2382 PUSH2 0x22F5 JUMP JUMPDEST DUP2 PUSH1 0x40 MSTORE DUP3 DUP2 MSTORE DUP8 PUSH1 0x20 DUP5 DUP8 ADD ADD GT ISZERO PUSH2 0x239B JUMPI PUSH1 0x0 DUP1 REVERT JUMPDEST DUP3 PUSH1 0x20 DUP7 ADD PUSH1 0x20 DUP4 ADD CALLDATACOPY PUSH1 0x0 SWAP3 DUP2 ADD PUSH1 0x20 ADD SWAP3 SWAP1 SWAP3 MSTORE POP SWAP6 SWAP5 POP POP POP POP POP JUMP JUMPDEST PUSH1 0x0 DUP1 PUSH1 0x0 PUSH1 0x40 DUP5 DUP7 SUB SLT ISZERO PUSH2 0x23D0 JUMPI PUSH1 0x0 DUP1 REVERT JUMPDEST DUP4 CALLDATALOAD PUSH2 0x23DB DUP2 PUSH2 0x22C3 JUMP JUMPDEST SWAP3 POP PUSH1 0x20 DUP5 ADD CALLDATALOAD PUSH1 0x1 PUSH1 0x1 PUSH1 0x40 SHL SUB DUP2 GT ISZERO PUSH2 0x23F6 JUMPI PUSH1 0x0 DUP1 REVERT JUMPDEST PUSH2 0x2402 DUP7 DUP3 DUP8 ADD PUSH2 0x207D JUMP JUMPDEST SWAP5 SWAP8 SWAP1 SWAP7 POP SWAP4 SWAP5 POP POP POP POP JUMP JUMPDEST PUSH1 0x0 DUP1 PUSH1 0x40 DUP4 DUP6 SUB SLT ISZERO PUSH2 0x2422 JUMPI PUSH1 0x0 DUP1 REVERT JUMPDEST DUP3 CALLDATALOAD PUSH2 0x242D DUP2 PUSH2 0x22C3 JUMP JUMPDEST SWAP5 PUSH1 0x20 SWAP4 SWAP1 SWAP4 ADD CALLDATALOAD SWAP4 POP POP POP JUMP JUMPDEST DUP4 DUP2 MSTORE PUSH1 0x60 PUSH1 0x20 DUP3 ADD MSTORE PUSH1 0x0 PUSH2 0x2454 PUSH1 0x60 DUP4 ADD DUP6 PUSH2 0x212A JUMP JUMPDEST DUP3 DUP2 SUB PUSH1 0x40 DUP5 ADD MSTORE PUSH2 0x2466 DUP2 DUP6 PUSH2 0x212A JUMP JUMPDEST SWAP7 SWAP6 POP POP POP POP POP POP JUMP JUMPDEST PUSH1 0x0 DUP1 PUSH1 0x0 DUP1 PUSH1 0x60 DUP6 DUP8 SUB SLT ISZERO PUSH2 0x2486 JUMPI PUSH1 0x0 DUP1 REVERT JUMPDEST DUP5 CALLDATALOAD PUSH1 0x1 PUSH1 0x1 PUSH1 0x40 SHL SUB DUP2 GT ISZERO PUSH2 0x249C JUMPI PUSH1 0x0 DUP1 REVERT JUMPDEST PUSH2 0x24A8 DUP8 DUP3 DUP9 ADD PUSH2 0x207D JUMP JUMPDEST SWAP1 SWAP9 SWAP1 SWAP8 POP PUSH1 0x20 DUP8 ADD CALLDATALOAD SWAP7 PUSH1 0x40 ADD CALLDATALOAD SWAP6 POP SWAP4 POP POP POP POP JUMP JUMPDEST PUSH1 0x0 PUSH1 0x20 DUP3 DUP5 SUB SLT ISZERO PUSH2 0x24D2 JUMPI PUSH1 0x0 DUP1 REVERT JUMPDEST PUSH2 0x1426 DUP3 PUSH2 0x2224 JUMP JUMPDEST PUSH1 0x0 DUP1 PUSH1 0x0 DUP1 PUSH1 0x80 DUP6 DUP8 SUB SLT ISZERO PUSH2 0x24F1 JUMPI PUSH1 0x0 DUP1 REVERT JUMPDEST DUP5 CALLDATALOAD PUSH2 0x24FC DUP2 PUSH2 0x22C3 JUMP JUMPDEST SWAP4 POP PUSH1 0x20 DUP6 ADD CALLDATALOAD PUSH2 0x250C DUP2 PUSH2 0x22C3 JUMP JUMPDEST SWAP3 POP PUSH1 0x40 DUP6 ADD CALLDATALOAD SWAP2 POP PUSH2 0x2521 PUSH1 0x60 DUP7 ADD PUSH2 0x2224 JUMP JUMPDEST SWAP1 POP SWAP3 SWAP6 SWAP2 SWAP5 POP SWAP3 POP JUMP JUMPDEST PUSH1 0x0 PUSH1 0x20 DUP1 DUP4 ADD DUP2 DUP5 MSTORE DUP1 DUP6 MLOAD DUP1 DUP4 MSTORE PUSH1 0x40 DUP7 ADD SWAP2 POP PUSH1 0x40 DUP2 PUSH1 0x5 SHL DUP8 ADD ADD SWAP3 POP DUP4 DUP8 ADD PUSH1 0x0 JUMPDEST DUP3 DUP2 LT ISZERO PUSH2 0x2581 JUMPI PUSH1 0x3F NOT DUP9 DUP7 SUB ADD DUP5 MSTORE PUSH2 0x256F DUP6 DUP4 MLOAD PUSH2 0x212A JUMP JUMPDEST SWAP5 POP SWAP3 DUP6 ADD SWAP3 SWAP1 DUP6 ADD SWAP1 PUSH1 0x1 ADD PUSH2 0x2553 JUMP JUMPDEST POP SWAP3 SWAP8 SWAP7 POP POP POP POP POP POP POP JUMP JUMPDEST DUP2 DUP4 DUP3 CALLDATACOPY PUSH1 0x0 SWAP2 ADD SWAP1 DUP2 MSTORE SWAP2 SWAP1 POP JUMP JUMPDEST PUSH1 0x1 DUP2 DUP2 SHR SWAP1 DUP3 AND DUP1 PUSH2 0x25B2 JUMPI PUSH1 0x7F DUP3 AND SWAP2 POP JUMPDEST PUSH1 0x20 DUP3 LT DUP2 SUB PUSH2 0x25D2 JUMPI PUSH4 0x4E487B71 PUSH1 0xE0 SHL PUSH1 0x0 MSTORE PUSH1 0x22 PUSH1 0x4 MSTORE PUSH1 0x24 PUSH1 0x0 REVERT JUMPDEST POP SWAP2 SWAP1 POP JUMP JUMPDEST PUSH1 0x0 PUSH1 0x20 DUP3 DUP5 SUB SLT ISZERO PUSH2 0x25EA JUMPI PUSH1 0x0 DUP1 REVERT JUMPDEST DUP2 MLOAD PUSH2 0x1426 DUP2 PUSH2 0x22C3 JUMP JUMPDEST PUSH1 0x0 PUSH1 0x20 DUP3 DUP5 SUB SLT ISZERO PUSH2 0x2607 JUMPI PUSH1 0x0 DUP1 REVERT JUMPDEST DUP2 MLOAD DUP1 ISZERO ISZERO DUP2 EQ PUSH2 0x1426 JUMPI PUSH1 0x0 DUP1 REVERT JUMPDEST PUSH4 0x4E487B71 PUSH1 0xE0 SHL PUSH1 0x0 MSTORE PUSH1 0x11 PUSH1 0x4 MSTORE PUSH1 0x24 PUSH1 0x0 REVERT JUMPDEST DUP1 DUP3 ADD DUP1 DUP3 GT ISZERO PUSH2 0xB57 JUMPI PUSH2 0xB57 PUSH2 0x2617 JUMP JUMPDEST PUSH1 0x0 PUSH1 0x20 DUP3 DUP5 SUB SLT ISZERO PUSH2 0x2652 JUMPI PUSH1 0x0 DUP1 REVERT JUMPDEST POP MLOAD SWAP2 SWAP1 POP JUMP JUMPDEST PUSH1 0x1 PUSH1 0x1 PUSH1 0x40 SHL SUB DUP2 DUP2 AND DUP4 DUP3 AND ADD SWAP1 DUP1 DUP3 GT ISZERO PUSH2 0x2679 JUMPI PUSH2 0x2679 PUSH2 0x2617 JUMP JUMPDEST POP SWAP3 SWAP2 POP POP JUMP JUMPDEST PUSH4 0x4E487B71 PUSH1 0xE0 SHL PUSH1 0x0 MSTORE PUSH1 0x32 PUSH1 0x4 MSTORE PUSH1 0x24 PUSH1 0x0 REVERT JUMPDEST DUP2 DUP2 SUB DUP2 DUP2 GT ISZERO PUSH2 0xB57 JUMPI PUSH2 0xB57 PUSH2 0x2617 JUMP JUMPDEST PUSH10 0x23B937BAB820B8381D1 PUSH1 0xB5 SHL DUP2 MSTORE PUSH1 0x0 DUP3 MLOAD PUSH2 0x26CE DUP2 PUSH1 0xA DUP6 ADD PUSH1 0x20 DUP8 ADD PUSH2 0x2106 JUMP JUMPDEST SWAP2 SWAP1 SWAP2 ADD PUSH1 0xA ADD SWAP3 SWAP2 POP POP JUMP JUMPDEST PUSH1 0x1F DUP3 GT ISZERO PUSH2 0x204E JUMPI PUSH1 0x0 DUP2 DUP2 MSTORE PUSH1 0x20 DUP2 KECCAK256 PUSH1 0x1F DUP6 ADD PUSH1 0x5 SHR DUP2 ADD PUSH1 0x20 DUP7 LT ISZERO PUSH2 0x2702 JUMPI POP DUP1 JUMPDEST PUSH1 0x1F DUP6 ADD PUSH1 0x5 SHR DUP3 ADD SWAP2 POP JUMPDEST DUP2 DUP2 LT ISZERO PUSH2 0x1316 JUMPI DUP3 DUP2 SSTORE PUSH1 0x1 ADD PUSH2 0x270E JUMP JUMPDEST PUSH1 0x1 PUSH1 0x1 PUSH1 0x40 SHL SUB DUP4 GT ISZERO PUSH2 0x2738 JUMPI PUSH2 0x2738 PUSH2 0x22F5 JUMP JUMPDEST PUSH2 0x274C DUP4 PUSH2 0x2746 DUP4 SLOAD PUSH2 0x259E JUMP JUMPDEST DUP4 PUSH2 0x26DB JUMP JUMPDEST PUSH1 0x0 PUSH1 0x1F DUP5 GT PUSH1 0x1 DUP2 EQ PUSH2 0x2780 JUMPI PUSH1 0x0 DUP6 ISZERO PUSH2 0x2768 JUMPI POP DUP4 DUP3 ADD CALLDATALOAD JUMPDEST PUSH1 0x0 NOT PUSH1 0x3 DUP8 SWAP1 SHL SHR NOT AND PUSH1 0x1 DUP7 SWAP1 SHL OR DUP4 SSTORE PUSH2 0x190B JUMP JUMPDEST PUSH1 0x0 DUP4 DUP2 MSTORE PUSH1 0x20 SWAP1 KECCAK256 PUSH1 0x1F NOT DUP7 AND SWAP1 DUP4 JUMPDEST DUP3 DUP2 LT ISZERO PUSH2 0x27B1 JUMPI DUP7 DUP6 ADD CALLDATALOAD DUP3 SSTORE PUSH1 0x20 SWAP5 DUP6 ADD SWAP5 PUSH1 0x1 SWAP1 SWAP3 ADD SWAP2 ADD PUSH2 0x2791 JUMP JUMPDEST POP DUP7 DUP3 LT ISZERO PUSH2 0x27CE JUMPI PUSH1 0x0 NOT PUSH1 0xF8 DUP9 PUSH1 0x3 SHL AND SHR NOT DUP5 DUP8 ADD CALLDATALOAD AND DUP2 SSTORE JUMPDEST POP POP PUSH1 0x1 DUP6 PUSH1 0x1 SHL ADD DUP4 SSTORE POP POP POP POP POP JUMP JUMPDEST PUSH1 0x0 PUSH1 0x1 DUP3 ADD PUSH2 0x27F2 JUMPI PUSH2 0x27F2 PUSH2 0x2617 JUMP JUMPDEST POP PUSH1 0x1 ADD SWAP1 JUMP JUMPDEST PUSH1 0x0 DUP1 PUSH1 0x40 DUP4 DUP6 SUB SLT ISZERO PUSH2 0x280C JUMPI PUSH1 0x0 DUP1 REVERT JUMPDEST POP POP DUP1 MLOAD PUSH1 0x20 SWAP1 SWAP2 ADD MLOAD SWAP1 SWAP3 SWAP1 SWAP2 POP JUMP JUMPDEST DUP1 DUP3 MUL DUP2 ISZERO DUP3 DUP3 DIV DUP5 EQ OR PUSH2 0xB57 JUMPI PUSH2 0xB57 PUSH2 0x2617 JUMP JUMPDEST PUSH1 0x0 DUP2 MLOAD DUP1 DUP5 MSTORE PUSH1 0x20 DUP1 DUP6 ADD SWAP5 POP DUP1 DUP5 ADD PUSH1 0x0 JUMPDEST DUP4 DUP2 LT ISZERO PUSH2 0x286D JUMPI DUP2 MLOAD PUSH1 0x1 PUSH1 0x1 PUSH1 0x40 SHL SUB AND DUP8 MSTORE SWAP6 DUP3 ADD SWAP6 SWAP1 DUP3 ADD SWAP1 PUSH1 0x1 ADD PUSH2 0x2848 JUMP JUMPDEST POP SWAP5 SWAP6 SWAP5 POP POP POP POP POP JUMP JUMPDEST PUSH1 0x0 PUSH1 0x20 DUP1 DUP4 MSTORE PUSH1 0xE0 DUP4 ADD PUSH1 0x1 DUP1 PUSH1 0xA0 SHL SUB DUP1 DUP7 MLOAD AND DUP4 DUP7 ADD MSTORE DUP3 DUP7 ADD MLOAD PUSH1 0x40 DUP7 ADD MSTORE PUSH1 0x40 DUP7 ADD MLOAD PUSH2 0x28A9 DUP2 PUSH2 0x21F3 JUMP JUMPDEST PUSH1 0x60 DUP7 DUP2 ADD SWAP2 SWAP1 SWAP2 MSTORE DUP7 ADD MLOAD PUSH1 0xC0 PUSH1 0x80 DUP8 ADD MSTORE DUP1 MLOAD SWAP3 DUP4 SWAP1 MSTORE DUP4 ADD SWAP2 PUSH1 0x0 SWAP1 PUSH2 0x100 DUP8 ADD SWAP1 JUMPDEST DUP1 DUP4 LT ISZERO PUSH2 0x28F1 JUMPI DUP5 MLOAD DUP5 AND DUP3 MSTORE SWAP4 DUP6 ADD SWAP4 PUSH1 0x1 SWAP3 SWAP1 SWAP3 ADD SWAP2 SWAP1 DUP6 ADD SWAP1 PUSH2 0x28CF JUMP JUMPDEST POP PUSH1 0x80 DUP9 ADD MLOAD SWAP5 POP PUSH1 0x1F NOT SWAP4 POP DUP4 DUP8 DUP3 SUB ADD PUSH1 0xA0 DUP9 ADD MSTORE PUSH2 0x2912 DUP2 DUP7 PUSH2 0x212A JUMP JUMPDEST SWAP5 POP POP POP POP PUSH1 0xA0 DUP6 ADD MLOAD DUP2 DUP6 DUP5 SUB ADD PUSH1 0xC0 DUP7 ADD MSTORE PUSH2 0x2466 DUP4 DUP3 PUSH2 0x2834 JUMP JUMPDEST PUSH1 0x20 DUP1 DUP3 MSTORE PUSH1 0x2B SWAP1 DUP3 ADD MSTORE PUSH32 0x496E697469616C697A61626C653A20636F6E7472616374206973206E6F742069 PUSH1 0x40 DUP3 ADD MSTORE PUSH11 0x6E697469616C697A696E67 PUSH1 0xA8 SHL PUSH1 0x60 DUP3 ADD MSTORE PUSH1 0x80 ADD SWAP1 JUMP INVALID LOG2 PUSH5 0x6970667358 0x22 SLT KECCAK256 0x5E BALANCE 0xD0 DUP3 0xA8 PUSH31 0x37CB3504CEE1D56568B75F2E0417C01E5335809B42AC181749DB64736F6C63 NUMBER STOP ADDMOD EQ STOP CALLER "},"methodIdentifiers":{"AUTH_CODE_CREATE()":"3a0f4bf8","AUTH_CODE_DELETE()":"5d83a5aa","AUTH_CODE_UPDATE()":"8c3cb902","BUCKET_CHANNEL_ID()":"73f1e3c3","BUCKET_HUB()":"7afffdd2","CROSS_CHAIN()":"557cf477","EMERGENCY_OPERATOR()":"46ab84e5","EMERGENCY_UPGRADE_OPERATOR()":"b8e43b33","ERC1155Token()":"73ee4508","ERC721Token()":"77a714ae","ERROR_INSUFFICIENT_VALUE()":"ce1ddb6c","ERROR_INVALID_CALLER()":"e52a6718","ERROR_INVALID_OPERATION()":"189e8102","ERROR_INVALID_RESOURCE()":"50704a50","GOV_CHANNEL_ID()":"81d91480","GOV_HUB()":"a9dae71c","GROUP_CHANNEL_ID()":"e02e86b0","GROUP_HUB()":"46934fc8","GROUP_TOKEN()":"1a12138f","INIT_MAX_CALLBACK_DATA_LENGTH()":"61bbd6dd","LIGHT_CLIENT()":"e613ae00","MAX_CALLBACK_GAS_LIMIT()":"39c33215","MEMBER_TOKEN()":"012927c0","OBJECT_CHANNEL_ID()":"eac78b33","OBJECT_HUB()":"7d2e3084","PROXY_ADMIN()":"ed9bc82a","RELAYER_HUB()":"b9d86913","RESOURCE_GROUP()":"fdd562b8","ROLE_CREATE()":"12629faf","ROLE_DELETE()":"c71f64e4","ROLE_UPDATE()":"feb3a68a","STATUS_FAILED()":"c8b01e6f","STATUS_SUCCESS()":"8855e092","STATUS_UNEXPECTED()":"f2223c02","TOKEN_HUB()":"6d3358a1","TRANSFER_IN_CHANNEL_ID()":"cc12eabc","TRANSFER_OUT_CHANNEL_ID()":"618d569c","TYPE_CREATE()":"edabb0a3","TYPE_DELETE()":"e8449116","TYPE_MIRROR()":"09d1be19","TYPE_UPDATE()":"b32f787b","additional()":"e8ea79c0","callbackGasLimit()":"24f74697","channelId()":"e2cee544","crossChain()":"4917db66","expirationOfUserSubscription(address,uint256)":"8f8ea384","failureHandleStrategy()":"39a25290","fieldIdOfUser(address)":"d271250e","fieldIdToName(uint256)":"5bb58b17","fieldNameToId(string)":"778afbb7","getFeeByName(string)":"04ade8e1","greenfieldCall(uint32,uint8,uint8,uint256,bytes)":"459af3aa","groupHub()":"9142d7fb","initialize(address,address,uint256,uint8)":"c64ca020","isSubscribed(address,string)":"7a1a14f5","maxCallbackDataLength()":"142c2f44","packageMap(bytes32)":"1c60450d","registerField(string,uint256,uint256)":"a29be1fa","retryPackage(uint8)":"b4627d35","retryQueue(address)":"4eee7767","skipPackage(uint8)":"cc65cc4a","subscribeField(string)":"2751cc93","subscriptionFee(uint256)":"33a89c40","userField(address)":"d18e12a6","userSubscriptions(address)":"cf14b9e4","versionInfo()":"a21d1354"}},"storageLayout":{"storage":[{"astId":1582,"contract":"contracts/Blufield.sol:Blufield","label":"_initialized","offset":0,"slot":"0","type":"t_uint8"},{"astId":1585,"contract":"contracts/Blufield.sol:Blufield","label":"_initializing","offset":1,"slot":"0","type":"t_bool"},{"astId":853,"contract":"contracts/Blufield.sol:Blufield","label":"configSlots","offset":0,"slot":"1","type":"t_array(t_uint256)50_storage"},{"astId":1532,"contract":"contracts/Blufield.sol:Blufield","label":"retryQueue","offset":0,"slot":"51","type":"t_mapping(t_address,t_struct(Bytes32Deque)3719_storage)"},{"astId":1537,"contract":"contracts/Blufield.sol:Blufield","label":"packageMap","offset":0,"slot":"52","type":"t_mapping(t_bytes32,t_struct(RetryPackage)1554_storage)"},{"astId":1574,"contract":"contracts/Blufield.sol:Blufield","label":"__reservedPkgQueueSlots","offset":0,"slot":"53","type":"t_array(t_uint256)50_storage"},{"astId":1302,"contract":"contracts/Blufield.sol:Blufield","label":"reentryLock","offset":0,"slot":"103","type":"t_uint8"},{"astId":1304,"contract":"contracts/Blufield.sol:Blufield","label":"channelId","offset":1,"slot":"103","type":"t_uint8"},{"astId":1306,"contract":"contracts/Blufield.sol:Blufield","label":"ERC721Token","offset":2,"slot":"103","type":"t_address"},{"astId":1308,"contract":"contracts/Blufield.sol:Blufield","label":"additional","offset":0,"slot":"104","type":"t_address"},{"astId":1310,"contract":"contracts/Blufield.sol:Blufield","label":"maxCallbackDataLength","offset":0,"slot":"105","type":"t_uint256"},{"astId":1425,"contract":"contracts/Blufield.sol:Blufield","label":"__reservedCmnStorageSlots","offset":0,"slot":"106","type":"t_array(t_uint256)49_storage"},{"astId":23,"contract":"contracts/Blufield.sol:Blufield","label":"crossChain","offset":0,"slot":"155","type":"t_address"},{"astId":25,"contract":"contracts/Blufield.sol:Blufield","label":"callbackGasLimit","offset":0,"slot":"156","type":"t_uint256"},{"astId":28,"contract":"contracts/Blufield.sol:Blufield","label":"failureHandleStrategy","offset":0,"slot":"157","type":"t_enum(FailureHandleStrategy)1541"},{"astId":165,"contract":"contracts/Blufield.sol:Blufield","label":"__reservedCmnStorageSlots","offset":0,"slot":"158","type":"t_array(t_uint256)50_storage"},{"astId":1444,"contract":"contracts/Blufield.sol:Blufield","label":"ERC1155Token","offset":0,"slot":"208","type":"t_address"},{"astId":1519,"contract":"contracts/Blufield.sol:Blufield","label":"__reservedGroupStorageSlots","offset":0,"slot":"209","type":"t_array(t_uint256)50_storage"},{"astId":180,"contract":"contracts/Blufield.sol:Blufield","label":"groupHub","offset":0,"slot":"259","type":"t_address"},{"astId":761,"contract":"contracts/Blufield.sol:Blufield","label":"__reservedCmnStorageSlots","offset":0,"slot":"260","type":"t_array(t_uint256)50_storage"},{"astId":1758,"contract":"contracts/Blufield.sol:Blufield","label":"_status","offset":0,"slot":"310","type":"t_uint256"},{"astId":1827,"contract":"contracts/Blufield.sol:Blufield","label":"__gap","offset":0,"slot":"311","type":"t_array(t_uint256)49_storage"},{"astId":4994,"contract":"contracts/Blufield.sol:Blufield","label":"GROUP_TOKEN","offset":0,"slot":"360","type":"t_contract(IERC721NonTransferable)1116"},{"astId":4997,"contract":"contracts/Blufield.sol:Blufield","label":"MEMBER_TOKEN","offset":0,"slot":"361","type":"t_contract(IERC1155NonTransferable)1084"},{"astId":5001,"contract":"contracts/Blufield.sol:Blufield","label":"fieldIdOfUser","offset":0,"slot":"362","type":"t_mapping(t_address,t_uint256)"},{"astId":5005,"contract":"contracts/Blufield.sol:Blufield","label":"fieldNameToId","offset":0,"slot":"363","type":"t_mapping(t_string_memory_ptr,t_uint256)"},{"astId":5009,"contract":"contracts/Blufield.sol:Blufield","label":"fieldIdToName","offset":0,"slot":"364","type":"t_mapping(t_uint256,t_string_storage)"},{"astId":5013,"contract":"contracts/Blufield.sol:Blufield","label":"userField","offset":0,"slot":"365","type":"t_mapping(t_address,t_string_storage)"},{"astId":5017,"contract":"contracts/Blufield.sol:Blufield","label":"subscriptionFee","offset":0,"slot":"366","type":"t_mapping(t_uint256,t_uint256)"},{"astId":5023,"contract":"contracts/Blufield.sol:Blufield","label":"expirationOfUserSubscription","offset":0,"slot":"367","type":"t_mapping(t_address,t_mapping(t_uint256,t_uint64))"},{"astId":5028,"contract":"contracts/Blufield.sol:Blufield","label":"_userSubscriptions","offset":0,"slot":"368","type":"t_mapping(t_address,t_struct(UintSet)4524_storage)"}],"types":{"t_address":{"encoding":"inplace","label":"address","numberOfBytes":"20"},"t_array(t_bytes32)dyn_storage":{"base":"t_bytes32","encoding":"dynamic_array","label":"bytes32[]","numberOfBytes":"32"},"t_array(t_uint256)49_storage":{"base":"t_uint256","encoding":"inplace","label":"uint256[49]","numberOfBytes":"1568"},"t_array(t_uint256)50_storage":{"base":"t_uint256","encoding":"inplace","label":"uint256[50]","numberOfBytes":"1600"},"t_bool":{"encoding":"inplace","label":"bool","numberOfBytes":"1"},"t_bytes32":{"encoding":"inplace","label":"bytes32","numberOfBytes":"32"},"t_bytes_storage":{"encoding":"bytes","label":"bytes","numberOfBytes":"32"},"t_contract(IERC1155NonTransferable)1084":{"encoding":"inplace","label":"contract IERC1155NonTransferable","numberOfBytes":"20"},"t_contract(IERC721NonTransferable)1116":{"encoding":"inplace","label":"contract IERC721NonTransferable","numberOfBytes":"20"},"t_enum(FailureHandleStrategy)1541":{"encoding":"inplace","label":"enum PackageQueue.FailureHandleStrategy","numberOfBytes":"1"},"t_int128":{"encoding":"inplace","label":"int128","numberOfBytes":"16"},"t_mapping(t_address,t_mapping(t_uint256,t_uint64))":{"encoding":"mapping","key":"t_address","label":"mapping(address => mapping(uint256 => uint64))","numberOfBytes":"32","value":"t_mapping(t_uint256,t_uint64)"},"t_mapping(t_address,t_string_storage)":{"encoding":"mapping","key":"t_address","label":"mapping(address => string)","numberOfBytes":"32","value":"t_string_storage"},"t_mapping(t_address,t_struct(Bytes32Deque)3719_storage)":{"encoding":"mapping","key":"t_address","label":"mapping(address => struct DoubleEndedQueueUpgradeable.Bytes32Deque)","numberOfBytes":"32","value":"t_struct(Bytes32Deque)3719_storage"},"t_mapping(t_address,t_struct(UintSet)4524_storage)":{"encoding":"mapping","key":"t_address","label":"mapping(address => struct EnumerableSetUpgradeable.UintSet)","numberOfBytes":"32","value":"t_struct(UintSet)4524_storage"},"t_mapping(t_address,t_uint256)":{"encoding":"mapping","key":"t_address","label":"mapping(address => uint256)","numberOfBytes":"32","value":"t_uint256"},"t_mapping(t_bytes32,t_struct(RetryPackage)1554_storage)":{"encoding":"mapping","key":"t_bytes32","label":"mapping(bytes32 => struct PackageQueue.RetryPackage)","numberOfBytes":"32","value":"t_struct(RetryPackage)1554_storage"},"t_mapping(t_bytes32,t_uint256)":{"encoding":"mapping","key":"t_bytes32","label":"mapping(bytes32 => uint256)","numberOfBytes":"32","value":"t_uint256"},"t_mapping(t_int128,t_bytes32)":{"encoding":"mapping","key":"t_int128","label":"mapping(int128 => bytes32)","numberOfBytes":"32","value":"t_bytes32"},"t_mapping(t_string_memory_ptr,t_uint256)":{"encoding":"mapping","key":"t_string_memory_ptr","label":"mapping(string => uint256)","numberOfBytes":"32","value":"t_uint256"},"t_mapping(t_uint256,t_string_storage)":{"encoding":"mapping","key":"t_uint256","label":"mapping(uint256 => string)","numberOfBytes":"32","value":"t_string_storage"},"t_mapping(t_uint256,t_uint256)":{"encoding":"mapping","key":"t_uint256","label":"mapping(uint256 => uint256)","numberOfBytes":"32","value":"t_uint256"},"t_mapping(t_uint256,t_uint64)":{"encoding":"mapping","key":"t_uint256","label":"mapping(uint256 => uint64)","numberOfBytes":"32","value":"t_uint64"},"t_string_memory_ptr":{"encoding":"bytes","label":"string","numberOfBytes":"32"},"t_string_storage":{"encoding":"bytes","label":"string","numberOfBytes":"32"},"t_struct(Bytes32Deque)3719_storage":{"encoding":"inplace","label":"struct DoubleEndedQueueUpgradeable.Bytes32Deque","members":[{"astId":3712,"contract":"contracts/Blufield.sol:Blufield","label":"_begin","offset":0,"slot":"0","type":"t_int128"},{"astId":3714,"contract":"contracts/Blufield.sol:Blufield","label":"_end","offset":16,"slot":"0","type":"t_int128"},{"astId":3718,"contract":"contracts/Blufield.sol:Blufield","label":"_data","offset":0,"slot":"1","type":"t_mapping(t_int128,t_bytes32)"}],"numberOfBytes":"64"},"t_struct(RetryPackage)1554_storage":{"encoding":"inplace","label":"struct PackageQueue.RetryPackage","members":[{"astId":1543,"contract":"contracts/Blufield.sol:Blufield","label":"appAddress","offset":0,"slot":"0","type":"t_address"},{"astId":1545,"contract":"contracts/Blufield.sol:Blufield","label":"status","offset":20,"slot":"0","type":"t_uint32"},{"astId":1547,"contract":"contracts/Blufield.sol:Blufield","label":"operationType","offset":24,"slot":"0","type":"t_uint8"},{"astId":1549,"contract":"contracts/Blufield.sol:Blufield","label":"resourceId","offset":0,"slot":"1","type":"t_uint256"},{"astId":1551,"contract":"contracts/Blufield.sol:Blufield","label":"callbackData","offset":0,"slot":"2","type":"t_bytes_storage"},{"astId":1553,"contract":"contracts/Blufield.sol:Blufield","label":"failReason","offset":0,"slot":"3","type":"t_bytes_storage"}],"numberOfBytes":"128"},"t_struct(Set)4052_storage":{"encoding":"inplace","label":"struct EnumerableSetUpgradeable.Set","members":[{"astId":4047,"contract":"contracts/Blufield.sol:Blufield","label":"_values","offset":0,"slot":"0","type":"t_array(t_bytes32)dyn_storage"},{"astId":4051,"contract":"contracts/Blufield.sol:Blufield","label":"_indexes","offset":0,"slot":"1","type":"t_mapping(t_bytes32,t_uint256)"}],"numberOfBytes":"64"},"t_struct(UintSet)4524_storage":{"encoding":"inplace","label":"struct EnumerableSetUpgradeable.UintSet","members":[{"astId":4523,"contract":"contracts/Blufield.sol:Blufield","label":"_inner","offset":0,"slot":"0","type":"t_struct(Set)4052_storage"}],"numberOfBytes":"64"},"t_uint256":{"encoding":"inplace","label":"uint256","numberOfBytes":"32"},"t_uint32":{"encoding":"inplace","label":"uint32","numberOfBytes":"4"},"t_uint64":{"encoding":"inplace","label":"uint64","numberOfBytes":"8"},"t_uint8":{"encoding":"inplace","label":"uint8","numberOfBytes":"1"}}}}}}