{"@bnb-chain/greenfield-contracts/contracts/middle-layer/resource-mirror/storage/BucketStorage.sol":{"BucketStorage":{"abi":[{"anonymous":false,"inputs":[{"indexed":true,"internalType":"address","name":"appAddress","type":"address"},{"indexed":false,"internalType":"bytes32","name":"pkgHash","type":"bytes32"},{"indexed":false,"internalType":"bytes","name":"failReason","type":"bytes"}],"name":"AppHandleAckPkgFailed","type":"event"},{"anonymous":false,"inputs":[{"indexed":true,"internalType":"address","name":"appAddress","type":"address"},{"indexed":false,"internalType":"bytes32","name":"pkgHash","type":"bytes32"},{"indexed":false,"internalType":"bytes","name":"failReason","type":"bytes"}],"name":"AppHandleFailAckPkgFailed","type":"event"},{"anonymous":false,"inputs":[{"indexed":true,"internalType":"address","name":"creator","type":"address"},{"indexed":true,"internalType":"uint256","name":"id","type":"uint256"}],"name":"CreateFailed","type":"event"},{"anonymous":false,"inputs":[{"indexed":true,"internalType":"address","name":"owner","type":"address"},{"indexed":true,"internalType":"address","name":"operator","type":"address"},{"indexed":false,"internalType":"string","name":"name","type":"string"}],"name":"CreateSubmitted","type":"event"},{"anonymous":false,"inputs":[{"indexed":true,"internalType":"address","name":"creator","type":"address"},{"indexed":true,"internalType":"uint256","name":"id","type":"uint256"}],"name":"CreateSuccess","type":"event"},{"anonymous":false,"inputs":[{"indexed":true,"internalType":"uint256","name":"id","type":"uint256"}],"name":"DeleteFailed","type":"event"},{"anonymous":false,"inputs":[{"indexed":true,"internalType":"address","name":"owner","type":"address"},{"indexed":true,"internalType":"address","name":"operator","type":"address"},{"indexed":true,"internalType":"uint256","name":"id","type":"uint256"}],"name":"DeleteSubmitted","type":"event"},{"anonymous":false,"inputs":[{"indexed":true,"internalType":"uint256","name":"id","type":"uint256"}],"name":"DeleteSuccess","type":"event"},{"anonymous":false,"inputs":[{"indexed":true,"internalType":"uint8","name":"channelId","type":"uint8"},{"indexed":false,"internalType":"bytes","name":"msgBytes","type":"bytes"}],"name":"FailAckPkgReceived","type":"event"},{"anonymous":false,"inputs":[{"indexed":true,"internalType":"uint256","name":"id","type":"uint256"},{"indexed":true,"internalType":"address","name":"owner","type":"address"},{"indexed":false,"internalType":"bytes","name":"failReason","type":"bytes"}],"name":"MirrorFailed","type":"event"},{"anonymous":false,"inputs":[{"indexed":true,"internalType":"uint256","name":"id","type":"uint256"},{"indexed":true,"internalType":"address","name":"owner","type":"address"}],"name":"MirrorSuccess","type":"event"},{"anonymous":false,"inputs":[{"indexed":false,"internalType":"string","name":"key","type":"string"},{"indexed":false,"internalType":"bytes","name":"value","type":"bytes"}],"name":"ParamChange","type":"event"},{"anonymous":false,"inputs":[{"indexed":true,"internalType":"uint8","name":"channelId","type":"uint8"},{"indexed":false,"internalType":"bytes","name":"msgBytes","type":"bytes"}],"name":"UnexpectedPackage","type":"event"},{"inputs":[],"name":"AUTH_CODE_CREATE","outputs":[{"internalType":"uint32","name":"","type":"uint32"}],"stateMutability":"view","type":"function"},{"inputs":[],"name":"AUTH_CODE_DELETE","outputs":[{"internalType":"uint32","name":"","type":"uint32"}],"stateMutability":"view","type":"function"},{"inputs":[],"name":"BUCKET_CHANNEL_ID","outputs":[{"internalType":"uint8","name":"","type":"uint8"}],"stateMutability":"view","type":"function"},{"inputs":[],"name":"BUCKET_HUB","outputs":[{"internalType":"address","name":"","type":"address"}],"stateMutability":"view","type":"function"},{"inputs":[],"name":"CROSS_CHAIN","outputs":[{"internalType":"address","name":"","type":"address"}],"stateMutability":"view","type":"function"},{"inputs":[],"name":"EMERGENCY_OPERATOR","outputs":[{"internalType":"address","name":"","type":"address"}],"stateMutability":"view","type":"function"},{"inputs":[],"name":"EMERGENCY_UPGRADE_OPERATOR","outputs":[{"internalType":"address","name":"","type":"address"}],"stateMutability":"view","type":"function"},{"inputs":[],"name":"ERC721Token","outputs":[{"internalType":"address","name":"","type":"address"}],"stateMutability":"view","type":"function"},{"inputs":[],"name":"GOV_CHANNEL_ID","outputs":[{"internalType":"uint8","name":"","type":"uint8"}],"stateMutability":"view","type":"function"},{"inputs":[],"name":"GOV_HUB","outputs":[{"internalType":"address","name":"","type":"address"}],"stateMutability":"view","type":"function"},{"inputs":[],"name":"GROUP_CHANNEL_ID","outputs":[{"internalType":"uint8","name":"","type":"uint8"}],"stateMutability":"view","type":"function"},{"inputs":[],"name":"GROUP_HUB","outputs":[{"internalType":"address","name":"","type":"address"}],"stateMutability":"view","type":"function"},{"inputs":[],"name":"INIT_MAX_CALLBACK_DATA_LENGTH","outputs":[{"internalType":"uint256","name":"","type":"uint256"}],"stateMutability":"view","type":"function"},{"inputs":[],"name":"LIGHT_CLIENT","outputs":[{"internalType":"address","name":"","type":"address"}],"stateMutability":"view","type":"function"},{"inputs":[],"name":"MAX_CALLBACK_GAS_LIMIT","outputs":[{"internalType":"uint256","name":"","type":"uint256"}],"stateMutability":"view","type":"function"},{"inputs":[],"name":"OBJECT_CHANNEL_ID","outputs":[{"internalType":"uint8","name":"","type":"uint8"}],"stateMutability":"view","type":"function"},{"inputs":[],"name":"OBJECT_HUB","outputs":[{"internalType":"address","name":"","type":"address"}],"stateMutability":"view","type":"function"},{"inputs":[],"name":"PROXY_ADMIN","outputs":[{"internalType":"address","name":"","type":"address"}],"stateMutability":"view","type":"function"},{"inputs":[],"name":"RELAYER_HUB","outputs":[{"internalType":"address","name":"","type":"address"}],"stateMutability":"view","type":"function"},{"inputs":[],"name":"ROLE_CREATE","outputs":[{"internalType":"bytes32","name":"","type":"bytes32"}],"stateMutability":"view","type":"function"},{"inputs":[],"name":"ROLE_DELETE","outputs":[{"internalType":"bytes32","name":"","type":"bytes32"}],"stateMutability":"view","type":"function"},{"inputs":[],"name":"STATUS_FAILED","outputs":[{"internalType":"uint32","name":"","type":"uint32"}],"stateMutability":"view","type":"function"},{"inputs":[],"name":"STATUS_SUCCESS","outputs":[{"internalType":"uint32","name":"","type":"uint32"}],"stateMutability":"view","type":"function"},{"inputs":[],"name":"STATUS_UNEXPECTED","outputs":[{"internalType":"uint32","name":"","type":"uint32"}],"stateMutability":"view","type":"function"},{"inputs":[],"name":"TOKEN_HUB","outputs":[{"internalType":"address","name":"","type":"address"}],"stateMutability":"view","type":"function"},{"inputs":[],"name":"TRANSFER_IN_CHANNEL_ID","outputs":[{"internalType":"uint8","name":"","type":"uint8"}],"stateMutability":"view","type":"function"},{"inputs":[],"name":"TRANSFER_OUT_CHANNEL_ID","outputs":[{"internalType":"uint8","name":"","type":"uint8"}],"stateMutability":"view","type":"function"},{"inputs":[],"name":"TYPE_CREATE","outputs":[{"internalType":"uint8","name":"","type":"uint8"}],"stateMutability":"view","type":"function"},{"inputs":[],"name":"TYPE_DELETE","outputs":[{"internalType":"uint8","name":"","type":"uint8"}],"stateMutability":"view","type":"function"},{"inputs":[],"name":"TYPE_MIRROR","outputs":[{"internalType":"uint8","name":"","type":"uint8"}],"stateMutability":"view","type":"function"},{"inputs":[],"name":"additional","outputs":[{"internalType":"address","name":"","type":"address"}],"stateMutability":"view","type":"function"},{"inputs":[],"name":"channelId","outputs":[{"internalType":"uint8","name":"","type":"uint8"}],"stateMutability":"view","type":"function"},{"inputs":[],"name":"maxCallbackDataLength","outputs":[{"internalType":"uint256","name":"","type":"uint256"}],"stateMutability":"view","type":"function"},{"inputs":[{"internalType":"bytes32","name":"","type":"bytes32"}],"name":"packageMap","outputs":[{"internalType":"address","name":"appAddress","type":"address"},{"internalType":"uint32","name":"status","type":"uint32"},{"internalType":"uint8","name":"operationType","type":"uint8"},{"internalType":"uint256","name":"resourceId","type":"uint256"},{"internalType":"bytes","name":"callbackData","type":"bytes"},{"internalType":"bytes","name":"failReason","type":"bytes"}],"stateMutability":"view","type":"function"},{"inputs":[{"internalType":"address","name":"","type":"address"}],"name":"retryQueue","outputs":[{"internalType":"int128","name":"_begin","type":"int128"},{"internalType":"int128","name":"_end","type":"int128"}],"stateMutability":"view","type":"function"},{"inputs":[],"name":"versionInfo","outputs":[{"internalType":"uint256","name":"version","type":"uint256"},{"internalType":"string","name":"name","type":"string"},{"internalType":"string","name":"description","type":"string"}],"stateMutability":"pure","type":"function"}],"evm":{"bytecode":{"linkReferences":{},"object":"608060405234801561001057600080fd5b506106ff806100206000396000f3fe608060405234801561001057600080fd5b506004361061021c5760003560e01c806381d9148011610125578063e02e86b0116100ad578063e8ea79c01161007c578063e8ea79c0146103f9578063eac78b331461040c578063ed9bc82a146102cb578063edabb0a31461033c578063f2223c021461033457600080fd5b8063e02e86b0146103df578063e2cee544146103e7578063e613ae00146102cb578063e84491161461036e57600080fd5b8063b8e43b33116100f4578063b8e43b33146102cb578063b9d86913146102cb578063c71f64e4146103b8578063c8b01e6f146102ae578063cc12eabc1461022157600080fd5b806381d914801461036e5780638855e09214610376578063a21d13541461037e578063a9dae71c146102cb57600080fd5b8063557cf477116101a85780636d3358a1116101775780636d3358a1146102cb57806373f1e3c31461034d57806377a714ae146103555780637afffdd2146102cb5780637d2e3084146102cb57600080fd5b8063557cf477146102cb5780635d83a5aa14610334578063618d569c1461033c57806361bbd6dd1461034457600080fd5b806339c33215116101ef57806339c33215146102a35780633a0f4bf8146102ae57806346934fc8146102cb57806346ab84e5146102cb5780634eee7767146102eb57600080fd5b806309d1be191461022157806312629faf14610240578063142c2f44146102755780631c60450d1461027e575b600080fd5b610229600181565b60405160ff90911681526020015b60405180910390f35b6102677fa7a925e56b0f4627a3e4910a6e10d23a82143f84f9d73d587c9ef425941ace8e81565b604051908152602001610237565b61026760685481565b61029161028c366004610570565b610414565b604051610237969594939291906105cf565b6102676301312d0081565b6102b6600181565b60405163ffffffff9091168152602001610237565b6102d3600081565b6040516001600160a01b039091168152602001610237565b61031a6102f936600461062a565b603260205260009081526040902054600f81810b91600160801b9004900b82565b60408051600f93840b81529190920b602082015201610237565b6102b6600281565b610229600281565b61026761040081565b610229600481565b6066546102d3906201000090046001600160a01b031681565b610229600381565b6102b6600081565b6040805180820182526006815265436f6e66696760d01b60208083019190915282519081018352600080825292516102379392919061065a565b6102677fe52b0c82d70862ecc57dd0fa972f308948292049a31fa59a5b152ce07497fded81565b610229600681565b60665461022990610100900460ff1681565b6067546102d3906001600160a01b031681565b610229600581565b6033602052600090815260409020805460018201546002830180546001600160a01b03841694600160a01b850463ffffffff1694600160c01b900460ff169392909161045f9061068f565b80601f016020809104026020016040519081016040528092919081815260200182805461048b9061068f565b80156104d85780601f106104ad576101008083540402835291602001916104d8565b820191906000526020600020905b8154815290600101906020018083116104bb57829003601f168201915b5050505050908060030180546104ed9061068f565b80601f01602080910402602001604051908101604052809291908181526020018280546105199061068f565b80156105665780601f1061053b57610100808354040283529160200191610566565b820191906000526020600020905b81548152906001019060200180831161054957829003601f168201915b5050505050905086565b60006020828403121561058257600080fd5b5035919050565b6000815180845260005b818110156105af57602081850181015186830182015201610593565b506000602082860101526020601f19601f83011685010191505092915050565b60018060a01b038716815263ffffffff8616602082015260ff8516604082015283606082015260c06080820152600061060b60c0830185610589565b82810360a084015261061d8185610589565b9998505050505050505050565b60006020828403121561063c57600080fd5b81356001600160a01b038116811461065357600080fd5b9392505050565b8381526060602082015260006106736060830185610589565b82810360408401526106858185610589565b9695505050505050565b600181811c908216806106a357607f821691505b6020821081036106c357634e487b7160e01b600052602260045260246000fd5b5091905056fea26469706673582212200629dcdda2206055e3b1a3f89af756756eaf5e114fee5f71c124ef173a177c7564736f6c63430008140033","opcodes":"PUSH1 0x80 PUSH1 0x40 MSTORE CALLVALUE DUP1 ISZERO PUSH2 0x10 JUMPI PUSH1 0x0 DUP1 REVERT JUMPDEST POP PUSH2 0x6FF DUP1 PUSH2 0x20 PUSH1 0x0 CODECOPY PUSH1 0x0 RETURN INVALID PUSH1 0x80 PUSH1 0x40 MSTORE CALLVALUE DUP1 ISZERO PUSH2 0x10 JUMPI PUSH1 0x0 DUP1 REVERT JUMPDEST POP PUSH1 0x4 CALLDATASIZE LT PUSH2 0x21C JUMPI PUSH1 0x0 CALLDATALOAD PUSH1 0xE0 SHR DUP1 PUSH4 0x81D91480 GT PUSH2 0x125 JUMPI DUP1 PUSH4 0xE02E86B0 GT PUSH2 0xAD JUMPI DUP1 PUSH4 0xE8EA79C0 GT PUSH2 0x7C JUMPI DUP1 PUSH4 0xE8EA79C0 EQ PUSH2 0x3F9 JUMPI DUP1 PUSH4 0xEAC78B33 EQ PUSH2 0x40C JUMPI DUP1 PUSH4 0xED9BC82A EQ PUSH2 0x2CB JUMPI DUP1 PUSH4 0xEDABB0A3 EQ PUSH2 0x33C JUMPI DUP1 PUSH4 0xF2223C02 EQ PUSH2 0x334 JUMPI PUSH1 0x0 DUP1 REVERT JUMPDEST DUP1 PUSH4 0xE02E86B0 EQ PUSH2 0x3DF JUMPI DUP1 PUSH4 0xE2CEE544 EQ PUSH2 0x3E7 JUMPI DUP1 PUSH4 0xE613AE00 EQ PUSH2 0x2CB JUMPI DUP1 PUSH4 0xE8449116 EQ PUSH2 0x36E JUMPI PUSH1 0x0 DUP1 REVERT JUMPDEST DUP1 PUSH4 0xB8E43B33 GT PUSH2 0xF4 JUMPI DUP1 PUSH4 0xB8E43B33 EQ PUSH2 0x2CB JUMPI DUP1 PUSH4 0xB9D86913 EQ PUSH2 0x2CB JUMPI DUP1 PUSH4 0xC71F64E4 EQ PUSH2 0x3B8 JUMPI DUP1 PUSH4 0xC8B01E6F EQ PUSH2 0x2AE JUMPI DUP1 PUSH4 0xCC12EABC EQ PUSH2 0x221 JUMPI PUSH1 0x0 DUP1 REVERT JUMPDEST DUP1 PUSH4 0x81D91480 EQ PUSH2 0x36E JUMPI DUP1 PUSH4 0x8855E092 EQ PUSH2 0x376 JUMPI DUP1 PUSH4 0xA21D1354 EQ PUSH2 0x37E JUMPI DUP1 PUSH4 0xA9DAE71C EQ PUSH2 0x2CB JUMPI PUSH1 0x0 DUP1 REVERT JUMPDEST DUP1 PUSH4 0x557CF477 GT PUSH2 0x1A8 JUMPI DUP1 PUSH4 0x6D3358A1 GT PUSH2 0x177 JUMPI DUP1 PUSH4 0x6D3358A1 EQ PUSH2 0x2CB JUMPI DUP1 PUSH4 0x73F1E3C3 EQ PUSH2 0x34D JUMPI DUP1 PUSH4 0x77A714AE EQ PUSH2 0x355 JUMPI DUP1 PUSH4 0x7AFFFDD2 EQ PUSH2 0x2CB JUMPI DUP1 PUSH4 0x7D2E3084 EQ PUSH2 0x2CB JUMPI PUSH1 0x0 DUP1 REVERT JUMPDEST DUP1 PUSH4 0x557CF477 EQ PUSH2 0x2CB JUMPI DUP1 PUSH4 0x5D83A5AA EQ PUSH2 0x334 JUMPI DUP1 PUSH4 0x618D569C EQ PUSH2 0x33C JUMPI DUP1 PUSH4 0x61BBD6DD EQ PUSH2 0x344 JUMPI PUSH1 0x0 DUP1 REVERT JUMPDEST DUP1 PUSH4 0x39C33215 GT PUSH2 0x1EF JUMPI DUP1 PUSH4 0x39C33215 EQ PUSH2 0x2A3 JUMPI DUP1 PUSH4 0x3A0F4BF8 EQ PUSH2 0x2AE JUMPI DUP1 PUSH4 0x46934FC8 EQ PUSH2 0x2CB JUMPI DUP1 PUSH4 0x46AB84E5 EQ PUSH2 0x2CB JUMPI DUP1 PUSH4 0x4EEE7767 EQ PUSH2 0x2EB JUMPI PUSH1 0x0 DUP1 REVERT JUMPDEST DUP1 PUSH4 0x9D1BE19 EQ PUSH2 0x221 JUMPI DUP1 PUSH4 0x12629FAF EQ PUSH2 0x240 JUMPI DUP1 PUSH4 0x142C2F44 EQ PUSH2 0x275 JUMPI DUP1 PUSH4 0x1C60450D EQ PUSH2 0x27E JUMPI JUMPDEST PUSH1 0x0 DUP1 REVERT JUMPDEST PUSH2 0x229 PUSH1 0x1 DUP2 JUMP JUMPDEST PUSH1 0x40 MLOAD PUSH1 0xFF SWAP1 SWAP2 AND DUP2 MSTORE PUSH1 0x20 ADD JUMPDEST PUSH1 0x40 MLOAD DUP1 SWAP2 SUB SWAP1 RETURN JUMPDEST PUSH2 0x267 PUSH32 0xA7A925E56B0F4627A3E4910A6E10D23A82143F84F9D73D587C9EF425941ACE8E DUP2 JUMP JUMPDEST PUSH1 0x40 MLOAD SWAP1 DUP2 MSTORE PUSH1 0x20 ADD PUSH2 0x237 JUMP JUMPDEST PUSH2 0x267 PUSH1 0x68 SLOAD DUP2 JUMP JUMPDEST PUSH2 0x291 PUSH2 0x28C CALLDATASIZE PUSH1 0x4 PUSH2 0x570 JUMP JUMPDEST PUSH2 0x414 JUMP JUMPDEST PUSH1 0x40 MLOAD PUSH2 0x237 SWAP7 SWAP6 SWAP5 SWAP4 SWAP3 SWAP2 SWAP1 PUSH2 0x5CF JUMP JUMPDEST PUSH2 0x267 PUSH4 0x1312D00 DUP2 JUMP JUMPDEST PUSH2 0x2B6 PUSH1 0x1 DUP2 JUMP JUMPDEST PUSH1 0x40 MLOAD PUSH4 0xFFFFFFFF SWAP1 SWAP2 AND DUP2 MSTORE PUSH1 0x20 ADD PUSH2 0x237 JUMP JUMPDEST PUSH2 0x2D3 PUSH1 0x0 DUP2 JUMP JUMPDEST PUSH1 0x40 MLOAD PUSH1 0x1 PUSH1 0x1 PUSH1 0xA0 SHL SUB SWAP1 SWAP2 AND DUP2 MSTORE PUSH1 0x20 ADD PUSH2 0x237 JUMP JUMPDEST PUSH2 0x31A PUSH2 0x2F9 CALLDATASIZE PUSH1 0x4 PUSH2 0x62A JUMP JUMPDEST PUSH1 0x32 PUSH1 0x20 MSTORE PUSH1 0x0 SWAP1 DUP2 MSTORE PUSH1 0x40 SWAP1 KECCAK256 SLOAD PUSH1 0xF DUP2 DUP2 SIGNEXTEND SWAP2 PUSH1 0x1 PUSH1 0x80 SHL SWAP1 DIV SWAP1 SIGNEXTEND DUP3 JUMP JUMPDEST PUSH1 0x40 DUP1 MLOAD PUSH1 0xF SWAP4 DUP5 SIGNEXTEND DUP2 MSTORE SWAP2 SWAP1 SWAP3 SIGNEXTEND PUSH1 0x20 DUP3 ADD MSTORE ADD PUSH2 0x237 JUMP JUMPDEST PUSH2 0x2B6 PUSH1 0x2 DUP2 JUMP JUMPDEST PUSH2 0x229 PUSH1 0x2 DUP2 JUMP JUMPDEST PUSH2 0x267 PUSH2 0x400 DUP2 JUMP JUMPDEST PUSH2 0x229 PUSH1 0x4 DUP2 JUMP JUMPDEST PUSH1 0x66 SLOAD PUSH2 0x2D3 SWAP1 PUSH3 0x10000 SWAP1 DIV PUSH1 0x1 PUSH1 0x1 PUSH1 0xA0 SHL SUB AND DUP2 JUMP JUMPDEST PUSH2 0x229 PUSH1 0x3 DUP2 JUMP JUMPDEST PUSH2 0x2B6 PUSH1 0x0 DUP2 JUMP JUMPDEST PUSH1 0x40 DUP1 MLOAD DUP1 DUP3 ADD DUP3 MSTORE PUSH1 0x6 DUP2 MSTORE PUSH6 0x436F6E666967 PUSH1 0xD0 SHL PUSH1 0x20 DUP1 DUP4 ADD SWAP2 SWAP1 SWAP2 MSTORE DUP3 MLOAD SWAP1 DUP2 ADD DUP4 MSTORE PUSH1 0x0 DUP1 DUP3 MSTORE SWAP3 MLOAD PUSH2 0x237 SWAP4 SWAP3 SWAP2 SWAP1 PUSH2 0x65A JUMP JUMPDEST PUSH2 0x267 PUSH32 0xE52B0C82D70862ECC57DD0FA972F308948292049A31FA59A5B152CE07497FDED DUP2 JUMP JUMPDEST PUSH2 0x229 PUSH1 0x6 DUP2 JUMP JUMPDEST PUSH1 0x66 SLOAD PUSH2 0x229 SWAP1 PUSH2 0x100 SWAP1 DIV PUSH1 0xFF AND DUP2 JUMP JUMPDEST PUSH1 0x67 SLOAD PUSH2 0x2D3 SWAP1 PUSH1 0x1 PUSH1 0x1 PUSH1 0xA0 SHL SUB AND DUP2 JUMP JUMPDEST PUSH2 0x229 PUSH1 0x5 DUP2 JUMP JUMPDEST PUSH1 0x33 PUSH1 0x20 MSTORE PUSH1 0x0 SWAP1 DUP2 MSTORE PUSH1 0x40 SWAP1 KECCAK256 DUP1 SLOAD PUSH1 0x1 DUP3 ADD SLOAD PUSH1 0x2 DUP4 ADD DUP1 SLOAD PUSH1 0x1 PUSH1 0x1 PUSH1 0xA0 SHL SUB DUP5 AND SWAP5 PUSH1 0x1 PUSH1 0xA0 SHL DUP6 DIV PUSH4 0xFFFFFFFF AND SWAP5 PUSH1 0x1 PUSH1 0xC0 SHL SWAP1 DIV PUSH1 0xFF AND SWAP4 SWAP3 SWAP1 SWAP2 PUSH2 0x45F SWAP1 PUSH2 0x68F JUMP JUMPDEST DUP1 PUSH1 0x1F ADD PUSH1 0x20 DUP1 SWAP2 DIV MUL PUSH1 0x20 ADD PUSH1 0x40 MLOAD SWAP1 DUP2 ADD PUSH1 0x40 MSTORE DUP1 SWAP3 SWAP2 SWAP1 DUP2 DUP2 MSTORE PUSH1 0x20 ADD DUP3 DUP1 SLOAD PUSH2 0x48B SWAP1 PUSH2 0x68F JUMP JUMPDEST DUP1 ISZERO PUSH2 0x4D8 JUMPI DUP1 PUSH1 0x1F LT PUSH2 0x4AD JUMPI PUSH2 0x100 DUP1 DUP4 SLOAD DIV MUL DUP4 MSTORE SWAP2 PUSH1 0x20 ADD SWAP2 PUSH2 0x4D8 JUMP JUMPDEST DUP3 ADD SWAP2 SWAP1 PUSH1 0x0 MSTORE PUSH1 0x20 PUSH1 0x0 KECCAK256 SWAP1 JUMPDEST DUP2 SLOAD DUP2 MSTORE SWAP1 PUSH1 0x1 ADD SWAP1 PUSH1 0x20 ADD DUP1 DUP4 GT PUSH2 0x4BB JUMPI DUP3 SWAP1 SUB PUSH1 0x1F AND DUP3 ADD SWAP2 JUMPDEST POP POP POP POP POP SWAP1 DUP1 PUSH1 0x3 ADD DUP1 SLOAD PUSH2 0x4ED SWAP1 PUSH2 0x68F JUMP JUMPDEST DUP1 PUSH1 0x1F ADD PUSH1 0x20 DUP1 SWAP2 DIV MUL PUSH1 0x20 ADD PUSH1 0x40 MLOAD SWAP1 DUP2 ADD PUSH1 0x40 MSTORE DUP1 SWAP3 SWAP2 SWAP1 DUP2 DUP2 MSTORE PUSH1 0x20 ADD DUP3 DUP1 SLOAD PUSH2 0x519 SWAP1 PUSH2 0x68F JUMP JUMPDEST DUP1 ISZERO PUSH2 0x566 JUMPI DUP1 PUSH1 0x1F LT PUSH2 0x53B JUMPI PUSH2 0x100 DUP1 DUP4 SLOAD DIV MUL DUP4 MSTORE SWAP2 PUSH1 0x20 ADD SWAP2 PUSH2 0x566 JUMP JUMPDEST DUP3 ADD SWAP2 SWAP1 PUSH1 0x0 MSTORE PUSH1 0x20 PUSH1 0x0 KECCAK256 SWAP1 JUMPDEST DUP2 SLOAD DUP2 MSTORE SWAP1 PUSH1 0x1 ADD SWAP1 PUSH1 0x20 ADD DUP1 DUP4 GT PUSH2 0x549 JUMPI DUP3 SWAP1 SUB PUSH1 0x1F AND DUP3 ADD SWAP2 JUMPDEST POP POP POP POP POP SWAP1 POP DUP7 JUMP JUMPDEST PUSH1 0x0 PUSH1 0x20 DUP3 DUP5 SUB SLT ISZERO PUSH2 0x582 JUMPI PUSH1 0x0 DUP1 REVERT JUMPDEST POP CALLDATALOAD SWAP2 SWAP1 POP JUMP JUMPDEST PUSH1 0x0 DUP2 MLOAD DUP1 DUP5 MSTORE PUSH1 0x0 JUMPDEST DUP2 DUP2 LT ISZERO PUSH2 0x5AF JUMPI PUSH1 0x20 DUP2 DUP6 ADD DUP2 ADD MLOAD DUP7 DUP4 ADD DUP3 ADD MSTORE ADD PUSH2 0x593 JUMP JUMPDEST POP PUSH1 0x0 PUSH1 0x20 DUP3 DUP7 ADD ADD MSTORE PUSH1 0x20 PUSH1 0x1F NOT PUSH1 0x1F DUP4 ADD AND DUP6 ADD ADD SWAP2 POP POP SWAP3 SWAP2 POP POP JUMP JUMPDEST PUSH1 0x1 DUP1 PUSH1 0xA0 SHL SUB DUP8 AND DUP2 MSTORE PUSH4 0xFFFFFFFF DUP7 AND PUSH1 0x20 DUP3 ADD MSTORE PUSH1 0xFF DUP6 AND PUSH1 0x40 DUP3 ADD MSTORE DUP4 PUSH1 0x60 DUP3 ADD MSTORE PUSH1 0xC0 PUSH1 0x80 DUP3 ADD MSTORE PUSH1 0x0 PUSH2 0x60B PUSH1 0xC0 DUP4 ADD DUP6 PUSH2 0x589 JUMP JUMPDEST DUP3 DUP2 SUB PUSH1 0xA0 DUP5 ADD MSTORE PUSH2 0x61D DUP2 DUP6 PUSH2 0x589 JUMP JUMPDEST SWAP10 SWAP9 POP POP POP POP POP POP POP POP POP JUMP JUMPDEST PUSH1 0x0 PUSH1 0x20 DUP3 DUP5 SUB SLT ISZERO PUSH2 0x63C JUMPI PUSH1 0x0 DUP1 REVERT JUMPDEST DUP2 CALLDATALOAD PUSH1 0x1 PUSH1 0x1 PUSH1 0xA0 SHL SUB DUP2 AND DUP2 EQ PUSH2 0x653 JUMPI PUSH1 0x0 DUP1 REVERT JUMPDEST SWAP4 SWAP3 POP POP POP JUMP JUMPDEST DUP4 DUP2 MSTORE PUSH1 0x60 PUSH1 0x20 DUP3 ADD MSTORE PUSH1 0x0 PUSH2 0x673 PUSH1 0x60 DUP4 ADD DUP6 PUSH2 0x589 JUMP JUMPDEST DUP3 DUP2 SUB PUSH1 0x40 DUP5 ADD MSTORE PUSH2 0x685 DUP2 DUP6 PUSH2 0x589 JUMP JUMPDEST SWAP7 SWAP6 POP POP POP POP POP POP JUMP JUMPDEST PUSH1 0x1 DUP2 DUP2 SHR SWAP1 DUP3 AND DUP1 PUSH2 0x6A3 JUMPI PUSH1 0x7F DUP3 AND SWAP2 POP JUMPDEST PUSH1 0x20 DUP3 LT DUP2 SUB PUSH2 0x6C3 JUMPI PUSH4 0x4E487B71 PUSH1 0xE0 SHL PUSH1 0x0 MSTORE PUSH1 0x22 PUSH1 0x4 MSTORE PUSH1 0x24 PUSH1 0x0 REVERT JUMPDEST POP SWAP2 SWAP1 POP JUMP INVALID LOG2 PUSH5 0x6970667358 0x22 SLT KECCAK256 MOD 0x29 0xDC 0xDD LOG2 KECCAK256 PUSH1 0x55 0xE3 0xB1 LOG3 0xF8 SWAP11 0xF7 JUMP PUSH22 0x6EAF5E114FEE5F71C124EF173A177C7564736F6C6343 STOP ADDMOD EQ STOP CALLER "},"methodIdentifiers":{"AUTH_CODE_CREATE()":"3a0f4bf8","AUTH_CODE_DELETE()":"5d83a5aa","BUCKET_CHANNEL_ID()":"73f1e3c3","BUCKET_HUB()":"7afffdd2","CROSS_CHAIN()":"557cf477","EMERGENCY_OPERATOR()":"46ab84e5","EMERGENCY_UPGRADE_OPERATOR()":"b8e43b33","ERC721Token()":"77a714ae","GOV_CHANNEL_ID()":"81d91480","GOV_HUB()":"a9dae71c","GROUP_CHANNEL_ID()":"e02e86b0","GROUP_HUB()":"46934fc8","INIT_MAX_CALLBACK_DATA_LENGTH()":"61bbd6dd","LIGHT_CLIENT()":"e613ae00","MAX_CALLBACK_GAS_LIMIT()":"39c33215","OBJECT_CHANNEL_ID()":"eac78b33","OBJECT_HUB()":"7d2e3084","PROXY_ADMIN()":"ed9bc82a","RELAYER_HUB()":"b9d86913","ROLE_CREATE()":"12629faf","ROLE_DELETE()":"c71f64e4","STATUS_FAILED()":"c8b01e6f","STATUS_SUCCESS()":"8855e092","STATUS_UNEXPECTED()":"f2223c02","TOKEN_HUB()":"6d3358a1","TRANSFER_IN_CHANNEL_ID()":"cc12eabc","TRANSFER_OUT_CHANNEL_ID()":"618d569c","TYPE_CREATE()":"edabb0a3","TYPE_DELETE()":"e8449116","TYPE_MIRROR()":"09d1be19","additional()":"e8ea79c0","channelId()":"e2cee544","maxCallbackDataLength()":"142c2f44","packageMap(bytes32)":"1c60450d","retryQueue(address)":"4eee7767","versionInfo()":"a21d1354"}},"storageLayout":{"storage":[{"astId":1607,"contract":"@bnb-chain/greenfield-contracts/contracts/middle-layer/resource-mirror/storage/BucketStorage.sol:BucketStorage","label":"configSlots","offset":0,"slot":"0","type":"t_array(t_uint256)50_storage"},{"astId":2286,"contract":"@bnb-chain/greenfield-contracts/contracts/middle-layer/resource-mirror/storage/BucketStorage.sol:BucketStorage","label":"retryQueue","offset":0,"slot":"50","type":"t_mapping(t_address,t_struct(Bytes32Deque)4389_storage)"},{"astId":2291,"contract":"@bnb-chain/greenfield-contracts/contracts/middle-layer/resource-mirror/storage/BucketStorage.sol:BucketStorage","label":"packageMap","offset":0,"slot":"51","type":"t_mapping(t_bytes32,t_struct(RetryPackage)2308_storage)"},{"astId":2328,"contract":"@bnb-chain/greenfield-contracts/contracts/middle-layer/resource-mirror/storage/BucketStorage.sol:BucketStorage","label":"__reservedPkgQueueSlots","offset":0,"slot":"52","type":"t_array(t_uint256)50_storage"},{"astId":2046,"contract":"@bnb-chain/greenfield-contracts/contracts/middle-layer/resource-mirror/storage/BucketStorage.sol:BucketStorage","label":"reentryLock","offset":0,"slot":"102","type":"t_uint8"},{"astId":2048,"contract":"@bnb-chain/greenfield-contracts/contracts/middle-layer/resource-mirror/storage/BucketStorage.sol:BucketStorage","label":"channelId","offset":1,"slot":"102","type":"t_uint8"},{"astId":2050,"contract":"@bnb-chain/greenfield-contracts/contracts/middle-layer/resource-mirror/storage/BucketStorage.sol:BucketStorage","label":"ERC721Token","offset":2,"slot":"102","type":"t_address"},{"astId":2052,"contract":"@bnb-chain/greenfield-contracts/contracts/middle-layer/resource-mirror/storage/BucketStorage.sol:BucketStorage","label":"additional","offset":0,"slot":"103","type":"t_address"},{"astId":2054,"contract":"@bnb-chain/greenfield-contracts/contracts/middle-layer/resource-mirror/storage/BucketStorage.sol:BucketStorage","label":"maxCallbackDataLength","offset":0,"slot":"104","type":"t_uint256"},{"astId":2169,"contract":"@bnb-chain/greenfield-contracts/contracts/middle-layer/resource-mirror/storage/BucketStorage.sol:BucketStorage","label":"__reservedCmnStorageSlots","offset":0,"slot":"105","type":"t_array(t_uint256)49_storage"},{"astId":1995,"contract":"@bnb-chain/greenfield-contracts/contracts/middle-layer/resource-mirror/storage/BucketStorage.sol:BucketStorage","label":"__reservedBucketStorageSlots","offset":0,"slot":"154","type":"t_array(t_uint256)50_storage"}],"types":{"t_address":{"encoding":"inplace","label":"address","numberOfBytes":"20"},"t_array(t_uint256)49_storage":{"base":"t_uint256","encoding":"inplace","label":"uint256[49]","numberOfBytes":"1568"},"t_array(t_uint256)50_storage":{"base":"t_uint256","encoding":"inplace","label":"uint256[50]","numberOfBytes":"1600"},"t_bytes32":{"encoding":"inplace","label":"bytes32","numberOfBytes":"32"},"t_bytes_storage":{"encoding":"bytes","label":"bytes","numberOfBytes":"32"},"t_int128":{"encoding":"inplace","label":"int128","numberOfBytes":"16"},"t_mapping(t_address,t_struct(Bytes32Deque)4389_storage)":{"encoding":"mapping","key":"t_address","label":"mapping(address => struct DoubleEndedQueueUpgradeable.Bytes32Deque)","numberOfBytes":"32","value":"t_struct(Bytes32Deque)4389_storage"},"t_mapping(t_bytes32,t_struct(RetryPackage)2308_storage)":{"encoding":"mapping","key":"t_bytes32","label":"mapping(bytes32 => struct PackageQueue.RetryPackage)","numberOfBytes":"32","value":"t_struct(RetryPackage)2308_storage"},"t_mapping(t_int128,t_bytes32)":{"encoding":"mapping","key":"t_int128","label":"mapping(int128 => bytes32)","numberOfBytes":"32","value":"t_bytes32"},"t_struct(Bytes32Deque)4389_storage":{"encoding":"inplace","label":"struct DoubleEndedQueueUpgradeable.Bytes32Deque","members":[{"astId":4382,"contract":"@bnb-chain/greenfield-contracts/contracts/middle-layer/resource-mirror/storage/BucketStorage.sol:BucketStorage","label":"_begin","offset":0,"slot":"0","type":"t_int128"},{"astId":4384,"contract":"@bnb-chain/greenfield-contracts/contracts/middle-layer/resource-mirror/storage/BucketStorage.sol:BucketStorage","label":"_end","offset":16,"slot":"0","type":"t_int128"},{"astId":4388,"contract":"@bnb-chain/greenfield-contracts/contracts/middle-layer/resource-mirror/storage/BucketStorage.sol:BucketStorage","label":"_data","offset":0,"slot":"1","type":"t_mapping(t_int128,t_bytes32)"}],"numberOfBytes":"64"},"t_struct(RetryPackage)2308_storage":{"encoding":"inplace","label":"struct PackageQueue.RetryPackage","members":[{"astId":2297,"contract":"@bnb-chain/greenfield-contracts/contracts/middle-layer/resource-mirror/storage/BucketStorage.sol:BucketStorage","label":"appAddress","offset":0,"slot":"0","type":"t_address"},{"astId":2299,"contract":"@bnb-chain/greenfield-contracts/contracts/middle-layer/resource-mirror/storage/BucketStorage.sol:BucketStorage","label":"status","offset":20,"slot":"0","type":"t_uint32"},{"astId":2301,"contract":"@bnb-chain/greenfield-contracts/contracts/middle-layer/resource-mirror/storage/BucketStorage.sol:BucketStorage","label":"operationType","offset":24,"slot":"0","type":"t_uint8"},{"astId":2303,"contract":"@bnb-chain/greenfield-contracts/contracts/middle-layer/resource-mirror/storage/BucketStorage.sol:BucketStorage","label":"resourceId","offset":0,"slot":"1","type":"t_uint256"},{"astId":2305,"contract":"@bnb-chain/greenfield-contracts/contracts/middle-layer/resource-mirror/storage/BucketStorage.sol:BucketStorage","label":"callbackData","offset":0,"slot":"2","type":"t_bytes_storage"},{"astId":2307,"contract":"@bnb-chain/greenfield-contracts/contracts/middle-layer/resource-mirror/storage/BucketStorage.sol:BucketStorage","label":"failReason","offset":0,"slot":"3","type":"t_bytes_storage"}],"numberOfBytes":"128"},"t_uint256":{"encoding":"inplace","label":"uint256","numberOfBytes":"32"},"t_uint32":{"encoding":"inplace","label":"uint32","numberOfBytes":"4"},"t_uint8":{"encoding":"inplace","label":"uint8","numberOfBytes":"1"}}}}}}