{"@bnb-chain/greenfield-contracts/contracts/middle-layer/resource-mirror/storage/GroupStorage.sol":{"GroupStorage":{"abi":[{"anonymous":false,"inputs":[{"indexed":true,"internalType":"address","name":"appAddress","type":"address"},{"indexed":false,"internalType":"bytes32","name":"pkgHash","type":"bytes32"},{"indexed":false,"internalType":"bytes","name":"failReason","type":"bytes"}],"name":"AppHandleAckPkgFailed","type":"event"},{"anonymous":false,"inputs":[{"indexed":true,"internalType":"address","name":"appAddress","type":"address"},{"indexed":false,"internalType":"bytes32","name":"pkgHash","type":"bytes32"},{"indexed":false,"internalType":"bytes","name":"failReason","type":"bytes"}],"name":"AppHandleFailAckPkgFailed","type":"event"},{"anonymous":false,"inputs":[{"indexed":true,"internalType":"address","name":"creator","type":"address"},{"indexed":true,"internalType":"uint256","name":"id","type":"uint256"}],"name":"CreateFailed","type":"event"},{"anonymous":false,"inputs":[{"indexed":true,"internalType":"address","name":"owner","type":"address"},{"indexed":true,"internalType":"address","name":"operator","type":"address"},{"indexed":false,"internalType":"string","name":"name","type":"string"}],"name":"CreateSubmitted","type":"event"},{"anonymous":false,"inputs":[{"indexed":true,"internalType":"address","name":"creator","type":"address"},{"indexed":true,"internalType":"uint256","name":"id","type":"uint256"}],"name":"CreateSuccess","type":"event"},{"anonymous":false,"inputs":[{"indexed":true,"internalType":"uint256","name":"id","type":"uint256"}],"name":"DeleteFailed","type":"event"},{"anonymous":false,"inputs":[{"indexed":true,"internalType":"address","name":"owner","type":"address"},{"indexed":true,"internalType":"address","name":"operator","type":"address"},{"indexed":true,"internalType":"uint256","name":"id","type":"uint256"}],"name":"DeleteSubmitted","type":"event"},{"anonymous":false,"inputs":[{"indexed":true,"internalType":"uint256","name":"id","type":"uint256"}],"name":"DeleteSuccess","type":"event"},{"anonymous":false,"inputs":[{"indexed":true,"internalType":"uint8","name":"channelId","type":"uint8"},{"indexed":false,"internalType":"bytes","name":"msgBytes","type":"bytes"}],"name":"FailAckPkgReceived","type":"event"},{"anonymous":false,"inputs":[{"indexed":true,"internalType":"uint256","name":"id","type":"uint256"},{"indexed":true,"internalType":"address","name":"owner","type":"address"},{"indexed":false,"internalType":"bytes","name":"failReason","type":"bytes"}],"name":"MirrorFailed","type":"event"},{"anonymous":false,"inputs":[{"indexed":true,"internalType":"uint256","name":"id","type":"uint256"},{"indexed":true,"internalType":"address","name":"owner","type":"address"}],"name":"MirrorSuccess","type":"event"},{"anonymous":false,"inputs":[{"indexed":false,"internalType":"string","name":"key","type":"string"},{"indexed":false,"internalType":"bytes","name":"value","type":"bytes"}],"name":"ParamChange","type":"event"},{"anonymous":false,"inputs":[{"indexed":true,"internalType":"uint8","name":"channelId","type":"uint8"},{"indexed":false,"internalType":"bytes","name":"msgBytes","type":"bytes"}],"name":"UnexpectedPackage","type":"event"},{"anonymous":false,"inputs":[{"indexed":true,"internalType":"address","name":"operator","type":"address"},{"indexed":true,"internalType":"uint256","name":"id","type":"uint256"},{"indexed":false,"internalType":"uint8","name":"opType","type":"uint8"}],"name":"UpdateFailed","type":"event"},{"anonymous":false,"inputs":[{"indexed":false,"internalType":"address","name":"owner","type":"address"},{"indexed":false,"internalType":"address","name":"operator","type":"address"},{"indexed":false,"internalType":"uint256","name":"id","type":"uint256"},{"indexed":false,"internalType":"uint8","name":"opType","type":"uint8"},{"indexed":false,"internalType":"address[]","name":"members","type":"address[]"}],"name":"UpdateSubmitted","type":"event"},{"anonymous":false,"inputs":[{"indexed":true,"internalType":"address","name":"operator","type":"address"},{"indexed":true,"internalType":"uint256","name":"id","type":"uint256"},{"indexed":false,"internalType":"uint8","name":"opType","type":"uint8"}],"name":"UpdateSuccess","type":"event"},{"inputs":[],"name":"AUTH_CODE_CREATE","outputs":[{"internalType":"uint32","name":"","type":"uint32"}],"stateMutability":"view","type":"function"},{"inputs":[],"name":"AUTH_CODE_DELETE","outputs":[{"internalType":"uint32","name":"","type":"uint32"}],"stateMutability":"view","type":"function"},{"inputs":[],"name":"AUTH_CODE_UPDATE","outputs":[{"internalType":"uint32","name":"","type":"uint32"}],"stateMutability":"view","type":"function"},{"inputs":[],"name":"BUCKET_CHANNEL_ID","outputs":[{"internalType":"uint8","name":"","type":"uint8"}],"stateMutability":"view","type":"function"},{"inputs":[],"name":"BUCKET_HUB","outputs":[{"internalType":"address","name":"","type":"address"}],"stateMutability":"view","type":"function"},{"inputs":[],"name":"CROSS_CHAIN","outputs":[{"internalType":"address","name":"","type":"address"}],"stateMutability":"view","type":"function"},{"inputs":[],"name":"EMERGENCY_OPERATOR","outputs":[{"internalType":"address","name":"","type":"address"}],"stateMutability":"view","type":"function"},{"inputs":[],"name":"EMERGENCY_UPGRADE_OPERATOR","outputs":[{"internalType":"address","name":"","type":"address"}],"stateMutability":"view","type":"function"},{"inputs":[],"name":"ERC1155Token","outputs":[{"internalType":"address","name":"","type":"address"}],"stateMutability":"view","type":"function"},{"inputs":[],"name":"ERC721Token","outputs":[{"internalType":"address","name":"","type":"address"}],"stateMutability":"view","type":"function"},{"inputs":[],"name":"GOV_CHANNEL_ID","outputs":[{"internalType":"uint8","name":"","type":"uint8"}],"stateMutability":"view","type":"function"},{"inputs":[],"name":"GOV_HUB","outputs":[{"internalType":"address","name":"","type":"address"}],"stateMutability":"view","type":"function"},{"inputs":[],"name":"GROUP_CHANNEL_ID","outputs":[{"internalType":"uint8","name":"","type":"uint8"}],"stateMutability":"view","type":"function"},{"inputs":[],"name":"GROUP_HUB","outputs":[{"internalType":"address","name":"","type":"address"}],"stateMutability":"view","type":"function"},{"inputs":[],"name":"INIT_MAX_CALLBACK_DATA_LENGTH","outputs":[{"internalType":"uint256","name":"","type":"uint256"}],"stateMutability":"view","type":"function"},{"inputs":[],"name":"LIGHT_CLIENT","outputs":[{"internalType":"address","name":"","type":"address"}],"stateMutability":"view","type":"function"},{"inputs":[],"name":"MAX_CALLBACK_GAS_LIMIT","outputs":[{"internalType":"uint256","name":"","type":"uint256"}],"stateMutability":"view","type":"function"},{"inputs":[],"name":"OBJECT_CHANNEL_ID","outputs":[{"internalType":"uint8","name":"","type":"uint8"}],"stateMutability":"view","type":"function"},{"inputs":[],"name":"OBJECT_HUB","outputs":[{"internalType":"address","name":"","type":"address"}],"stateMutability":"view","type":"function"},{"inputs":[],"name":"PROXY_ADMIN","outputs":[{"internalType":"address","name":"","type":"address"}],"stateMutability":"view","type":"function"},{"inputs":[],"name":"RELAYER_HUB","outputs":[{"internalType":"address","name":"","type":"address"}],"stateMutability":"view","type":"function"},{"inputs":[],"name":"ROLE_CREATE","outputs":[{"internalType":"bytes32","name":"","type":"bytes32"}],"stateMutability":"view","type":"function"},{"inputs":[],"name":"ROLE_DELETE","outputs":[{"internalType":"bytes32","name":"","type":"bytes32"}],"stateMutability":"view","type":"function"},{"inputs":[],"name":"ROLE_UPDATE","outputs":[{"internalType":"bytes32","name":"","type":"bytes32"}],"stateMutability":"view","type":"function"},{"inputs":[],"name":"STATUS_FAILED","outputs":[{"internalType":"uint32","name":"","type":"uint32"}],"stateMutability":"view","type":"function"},{"inputs":[],"name":"STATUS_SUCCESS","outputs":[{"internalType":"uint32","name":"","type":"uint32"}],"stateMutability":"view","type":"function"},{"inputs":[],"name":"STATUS_UNEXPECTED","outputs":[{"internalType":"uint32","name":"","type":"uint32"}],"stateMutability":"view","type":"function"},{"inputs":[],"name":"TOKEN_HUB","outputs":[{"internalType":"address","name":"","type":"address"}],"stateMutability":"view","type":"function"},{"inputs":[],"name":"TRANSFER_IN_CHANNEL_ID","outputs":[{"internalType":"uint8","name":"","type":"uint8"}],"stateMutability":"view","type":"function"},{"inputs":[],"name":"TRANSFER_OUT_CHANNEL_ID","outputs":[{"internalType":"uint8","name":"","type":"uint8"}],"stateMutability":"view","type":"function"},{"inputs":[],"name":"TYPE_CREATE","outputs":[{"internalType":"uint8","name":"","type":"uint8"}],"stateMutability":"view","type":"function"},{"inputs":[],"name":"TYPE_DELETE","outputs":[{"internalType":"uint8","name":"","type":"uint8"}],"stateMutability":"view","type":"function"},{"inputs":[],"name":"TYPE_MIRROR","outputs":[{"internalType":"uint8","name":"","type":"uint8"}],"stateMutability":"view","type":"function"},{"inputs":[],"name":"TYPE_UPDATE","outputs":[{"internalType":"uint8","name":"","type":"uint8"}],"stateMutability":"view","type":"function"},{"inputs":[],"name":"additional","outputs":[{"internalType":"address","name":"","type":"address"}],"stateMutability":"view","type":"function"},{"inputs":[],"name":"channelId","outputs":[{"internalType":"uint8","name":"","type":"uint8"}],"stateMutability":"view","type":"function"},{"inputs":[],"name":"maxCallbackDataLength","outputs":[{"internalType":"uint256","name":"","type":"uint256"}],"stateMutability":"view","type":"function"},{"inputs":[{"internalType":"bytes32","name":"","type":"bytes32"}],"name":"packageMap","outputs":[{"internalType":"address","name":"appAddress","type":"address"},{"internalType":"uint32","name":"status","type":"uint32"},{"internalType":"uint8","name":"operationType","type":"uint8"},{"internalType":"uint256","name":"resourceId","type":"uint256"},{"internalType":"bytes","name":"callbackData","type":"bytes"},{"internalType":"bytes","name":"failReason","type":"bytes"}],"stateMutability":"view","type":"function"},{"inputs":[{"internalType":"address","name":"","type":"address"}],"name":"retryQueue","outputs":[{"internalType":"int128","name":"_begin","type":"int128"},{"internalType":"int128","name":"_end","type":"int128"}],"stateMutability":"view","type":"function"},{"inputs":[],"name":"versionInfo","outputs":[{"internalType":"uint256","name":"version","type":"uint256"},{"internalType":"string","name":"name","type":"string"},{"internalType":"string","name":"description","type":"string"}],"stateMutability":"pure","type":"function"}],"evm":{"bytecode":{"linkReferences":{},"object":"608060405234801561001057600080fd5b5061076d806100206000396000f3fe608060405234801561001057600080fd5b50600436106102485760003560e01c80638855e0921161013b578063e02e86b0116100b8578063eac78b331161007c578063eac78b3314610453578063ed9bc82a146102f7578063edabb0a314610368578063f2223c0214610360578063feb3a68a1461045b57600080fd5b8063e02e86b014610426578063e2cee5441461042e578063e613ae00146102f7578063e8449116146103ad578063e8ea79c01461044057600080fd5b8063b8e43b33116100ff578063b8e43b33146102f7578063b9d86913146102f7578063c71f64e4146103ff578063c8b01e6f146102da578063cc12eabc1461024d57600080fd5b80638855e092146103b55780638c3cb902146103bd578063a21d1354146103c5578063a9dae71c146102f7578063b32f787b1461038c57600080fd5b80635d83a5aa116101c957806373f1e3c31161018d57806373f1e3c31461038c57806377a714ae146103945780637afffdd2146102f75780637d2e3084146102f757806381d91480146103ad57600080fd5b80635d83a5aa14610360578063618d569c1461036857806361bbd6dd146103705780636d3358a1146102f757806373ee45081461037957600080fd5b80633a0f4bf8116102105780633a0f4bf8146102da57806346934fc8146102f757806346ab84e5146102f75780634eee776714610317578063557cf477146102f757600080fd5b806309d1be191461024d57806312629faf1461026c578063142c2f44146102a15780631c60450d146102aa57806339c33215146102cf575b600080fd5b610255600181565b60405160ff90911681526020015b60405180910390f35b6102937fa7a925e56b0f4627a3e4910a6e10d23a82143f84f9d73d587c9ef425941ace8e81565b604051908152602001610263565b61029360685481565b6102bd6102b83660046105de565b610482565b6040516102639695949392919061063d565b6102936301312d0081565b6102e2600181565b60405163ffffffff9091168152602001610263565b6102ff600081565b6040516001600160a01b039091168152602001610263565b610346610325366004610698565b603260205260009081526040902054600f81810b91600160801b9004900b82565b60408051600f93840b81529190920b602082015201610263565b6102e2600281565b610255600281565b61029361040081565b609a546102ff906001600160a01b031681565b610255600481565b6066546102ff906201000090046001600160a01b031681565b610255600381565b6102e2600081565b6102e2600481565b6040805180820182526006815265436f6e66696760d01b6020808301919091528251908101835260008082529251610263939291906106c8565b6102937fe52b0c82d70862ecc57dd0fa972f308948292049a31fa59a5b152ce07497fded81565b610255600681565b60665461025590610100900460ff1681565b6067546102ff906001600160a01b031681565b610255600581565b6102937f757d0265d5de9ff03394896c4c44c92950e6e9565f35923c097aed8e1128e4cb81565b6033602052600090815260409020805460018201546002830180546001600160a01b03841694600160a01b850463ffffffff1694600160c01b900460ff16939290916104cd906106fd565b80601f01602080910402602001604051908101604052809291908181526020018280546104f9906106fd565b80156105465780601f1061051b57610100808354040283529160200191610546565b820191906000526020600020905b81548152906001019060200180831161052957829003601f168201915b50505050509080600301805461055b906106fd565b80601f0160208091040260200160405190810160405280929190818152602001828054610587906106fd565b80156105d45780601f106105a9576101008083540402835291602001916105d4565b820191906000526020600020905b8154815290600101906020018083116105b757829003601f168201915b5050505050905086565b6000602082840312156105f057600080fd5b5035919050565b6000815180845260005b8181101561061d57602081850181015186830182015201610601565b506000602082860101526020601f19601f83011685010191505092915050565b60018060a01b038716815263ffffffff8616602082015260ff8516604082015283606082015260c06080820152600061067960c08301856105f7565b82810360a084015261068b81856105f7565b9998505050505050505050565b6000602082840312156106aa57600080fd5b81356001600160a01b03811681146106c157600080fd5b9392505050565b8381526060602082015260006106e160608301856105f7565b82810360408401526106f381856105f7565b9695505050505050565b600181811c9082168061071157607f821691505b60208210810361073157634e487b7160e01b600052602260045260246000fd5b5091905056fea26469706673582212205ba5d537cecde27aa45791af125bc982d9018073e76393b31aea6c5adc71e34464736f6c63430008140033","opcodes":"PUSH1 0x80 PUSH1 0x40 MSTORE CALLVALUE DUP1 ISZERO PUSH2 0x10 JUMPI PUSH1 0x0 DUP1 REVERT JUMPDEST POP PUSH2 0x76D DUP1 PUSH2 0x20 PUSH1 0x0 CODECOPY PUSH1 0x0 RETURN INVALID PUSH1 0x80 PUSH1 0x40 MSTORE CALLVALUE DUP1 ISZERO PUSH2 0x10 JUMPI PUSH1 0x0 DUP1 REVERT JUMPDEST POP PUSH1 0x4 CALLDATASIZE LT PUSH2 0x248 JUMPI PUSH1 0x0 CALLDATALOAD PUSH1 0xE0 SHR DUP1 PUSH4 0x8855E092 GT PUSH2 0x13B JUMPI DUP1 PUSH4 0xE02E86B0 GT PUSH2 0xB8 JUMPI DUP1 PUSH4 0xEAC78B33 GT PUSH2 0x7C JUMPI DUP1 PUSH4 0xEAC78B33 EQ PUSH2 0x453 JUMPI DUP1 PUSH4 0xED9BC82A EQ PUSH2 0x2F7 JUMPI DUP1 PUSH4 0xEDABB0A3 EQ PUSH2 0x368 JUMPI DUP1 PUSH4 0xF2223C02 EQ PUSH2 0x360 JUMPI DUP1 PUSH4 0xFEB3A68A EQ PUSH2 0x45B JUMPI PUSH1 0x0 DUP1 REVERT JUMPDEST DUP1 PUSH4 0xE02E86B0 EQ PUSH2 0x426 JUMPI DUP1 PUSH4 0xE2CEE544 EQ PUSH2 0x42E JUMPI DUP1 PUSH4 0xE613AE00 EQ PUSH2 0x2F7 JUMPI DUP1 PUSH4 0xE8449116 EQ PUSH2 0x3AD JUMPI DUP1 PUSH4 0xE8EA79C0 EQ PUSH2 0x440 JUMPI PUSH1 0x0 DUP1 REVERT JUMPDEST DUP1 PUSH4 0xB8E43B33 GT PUSH2 0xFF JUMPI DUP1 PUSH4 0xB8E43B33 EQ PUSH2 0x2F7 JUMPI DUP1 PUSH4 0xB9D86913 EQ PUSH2 0x2F7 JUMPI DUP1 PUSH4 0xC71F64E4 EQ PUSH2 0x3FF JUMPI DUP1 PUSH4 0xC8B01E6F EQ PUSH2 0x2DA JUMPI DUP1 PUSH4 0xCC12EABC EQ PUSH2 0x24D JUMPI PUSH1 0x0 DUP1 REVERT JUMPDEST DUP1 PUSH4 0x8855E092 EQ PUSH2 0x3B5 JUMPI DUP1 PUSH4 0x8C3CB902 EQ PUSH2 0x3BD JUMPI DUP1 PUSH4 0xA21D1354 EQ PUSH2 0x3C5 JUMPI DUP1 PUSH4 0xA9DAE71C EQ PUSH2 0x2F7 JUMPI DUP1 PUSH4 0xB32F787B EQ PUSH2 0x38C JUMPI PUSH1 0x0 DUP1 REVERT JUMPDEST DUP1 PUSH4 0x5D83A5AA GT PUSH2 0x1C9 JUMPI DUP1 PUSH4 0x73F1E3C3 GT PUSH2 0x18D JUMPI DUP1 PUSH4 0x73F1E3C3 EQ PUSH2 0x38C JUMPI DUP1 PUSH4 0x77A714AE EQ PUSH2 0x394 JUMPI DUP1 PUSH4 0x7AFFFDD2 EQ PUSH2 0x2F7 JUMPI DUP1 PUSH4 0x7D2E3084 EQ PUSH2 0x2F7 JUMPI DUP1 PUSH4 0x81D91480 EQ PUSH2 0x3AD JUMPI PUSH1 0x0 DUP1 REVERT JUMPDEST DUP1 PUSH4 0x5D83A5AA EQ PUSH2 0x360 JUMPI DUP1 PUSH4 0x618D569C EQ PUSH2 0x368 JUMPI DUP1 PUSH4 0x61BBD6DD EQ PUSH2 0x370 JUMPI DUP1 PUSH4 0x6D3358A1 EQ PUSH2 0x2F7 JUMPI DUP1 PUSH4 0x73EE4508 EQ PUSH2 0x379 JUMPI PUSH1 0x0 DUP1 REVERT JUMPDEST DUP1 PUSH4 0x3A0F4BF8 GT PUSH2 0x210 JUMPI DUP1 PUSH4 0x3A0F4BF8 EQ PUSH2 0x2DA JUMPI DUP1 PUSH4 0x46934FC8 EQ PUSH2 0x2F7 JUMPI DUP1 PUSH4 0x46AB84E5 EQ PUSH2 0x2F7 JUMPI DUP1 PUSH4 0x4EEE7767 EQ PUSH2 0x317 JUMPI DUP1 PUSH4 0x557CF477 EQ PUSH2 0x2F7 JUMPI PUSH1 0x0 DUP1 REVERT JUMPDEST DUP1 PUSH4 0x9D1BE19 EQ PUSH2 0x24D JUMPI DUP1 PUSH4 0x12629FAF EQ PUSH2 0x26C JUMPI DUP1 PUSH4 0x142C2F44 EQ PUSH2 0x2A1 JUMPI DUP1 PUSH4 0x1C60450D EQ PUSH2 0x2AA JUMPI DUP1 PUSH4 0x39C33215 EQ PUSH2 0x2CF JUMPI JUMPDEST PUSH1 0x0 DUP1 REVERT JUMPDEST PUSH2 0x255 PUSH1 0x1 DUP2 JUMP JUMPDEST PUSH1 0x40 MLOAD PUSH1 0xFF SWAP1 SWAP2 AND DUP2 MSTORE PUSH1 0x20 ADD JUMPDEST PUSH1 0x40 MLOAD DUP1 SWAP2 SUB SWAP1 RETURN JUMPDEST PUSH2 0x293 PUSH32 0xA7A925E56B0F4627A3E4910A6E10D23A82143F84F9D73D587C9EF425941ACE8E DUP2 JUMP JUMPDEST PUSH1 0x40 MLOAD SWAP1 DUP2 MSTORE PUSH1 0x20 ADD PUSH2 0x263 JUMP JUMPDEST PUSH2 0x293 PUSH1 0x68 SLOAD DUP2 JUMP JUMPDEST PUSH2 0x2BD PUSH2 0x2B8 CALLDATASIZE PUSH1 0x4 PUSH2 0x5DE JUMP JUMPDEST PUSH2 0x482 JUMP JUMPDEST PUSH1 0x40 MLOAD PUSH2 0x263 SWAP7 SWAP6 SWAP5 SWAP4 SWAP3 SWAP2 SWAP1 PUSH2 0x63D JUMP JUMPDEST PUSH2 0x293 PUSH4 0x1312D00 DUP2 JUMP JUMPDEST PUSH2 0x2E2 PUSH1 0x1 DUP2 JUMP JUMPDEST PUSH1 0x40 MLOAD PUSH4 0xFFFFFFFF SWAP1 SWAP2 AND DUP2 MSTORE PUSH1 0x20 ADD PUSH2 0x263 JUMP JUMPDEST PUSH2 0x2FF PUSH1 0x0 DUP2 JUMP JUMPDEST PUSH1 0x40 MLOAD PUSH1 0x1 PUSH1 0x1 PUSH1 0xA0 SHL SUB SWAP1 SWAP2 AND DUP2 MSTORE PUSH1 0x20 ADD PUSH2 0x263 JUMP JUMPDEST PUSH2 0x346 PUSH2 0x325 CALLDATASIZE PUSH1 0x4 PUSH2 0x698 JUMP JUMPDEST PUSH1 0x32 PUSH1 0x20 MSTORE PUSH1 0x0 SWAP1 DUP2 MSTORE PUSH1 0x40 SWAP1 KECCAK256 SLOAD PUSH1 0xF DUP2 DUP2 SIGNEXTEND SWAP2 PUSH1 0x1 PUSH1 0x80 SHL SWAP1 DIV SWAP1 SIGNEXTEND DUP3 JUMP JUMPDEST PUSH1 0x40 DUP1 MLOAD PUSH1 0xF SWAP4 DUP5 SIGNEXTEND DUP2 MSTORE SWAP2 SWAP1 SWAP3 SIGNEXTEND PUSH1 0x20 DUP3 ADD MSTORE ADD PUSH2 0x263 JUMP JUMPDEST PUSH2 0x2E2 PUSH1 0x2 DUP2 JUMP JUMPDEST PUSH2 0x255 PUSH1 0x2 DUP2 JUMP JUMPDEST PUSH2 0x293 PUSH2 0x400 DUP2 JUMP JUMPDEST PUSH1 0x9A SLOAD PUSH2 0x2FF SWAP1 PUSH1 0x1 PUSH1 0x1 PUSH1 0xA0 SHL SUB AND DUP2 JUMP JUMPDEST PUSH2 0x255 PUSH1 0x4 DUP2 JUMP JUMPDEST PUSH1 0x66 SLOAD PUSH2 0x2FF SWAP1 PUSH3 0x10000 SWAP1 DIV PUSH1 0x1 PUSH1 0x1 PUSH1 0xA0 SHL SUB AND DUP2 JUMP JUMPDEST PUSH2 0x255 PUSH1 0x3 DUP2 JUMP JUMPDEST PUSH2 0x2E2 PUSH1 0x0 DUP2 JUMP JUMPDEST PUSH2 0x2E2 PUSH1 0x4 DUP2 JUMP JUMPDEST PUSH1 0x40 DUP1 MLOAD DUP1 DUP3 ADD DUP3 MSTORE PUSH1 0x6 DUP2 MSTORE PUSH6 0x436F6E666967 PUSH1 0xD0 SHL PUSH1 0x20 DUP1 DUP4 ADD SWAP2 SWAP1 SWAP2 MSTORE DUP3 MLOAD SWAP1 DUP2 ADD DUP4 MSTORE PUSH1 0x0 DUP1 DUP3 MSTORE SWAP3 MLOAD PUSH2 0x263 SWAP4 SWAP3 SWAP2 SWAP1 PUSH2 0x6C8 JUMP JUMPDEST PUSH2 0x293 PUSH32 0xE52B0C82D70862ECC57DD0FA972F308948292049A31FA59A5B152CE07497FDED DUP2 JUMP JUMPDEST PUSH2 0x255 PUSH1 0x6 DUP2 JUMP JUMPDEST PUSH1 0x66 SLOAD PUSH2 0x255 SWAP1 PUSH2 0x100 SWAP1 DIV PUSH1 0xFF AND DUP2 JUMP JUMPDEST PUSH1 0x67 SLOAD PUSH2 0x2FF SWAP1 PUSH1 0x1 PUSH1 0x1 PUSH1 0xA0 SHL SUB AND DUP2 JUMP JUMPDEST PUSH2 0x255 PUSH1 0x5 DUP2 JUMP JUMPDEST PUSH2 0x293 PUSH32 0x757D0265D5DE9FF03394896C4C44C92950E6E9565F35923C097AED8E1128E4CB DUP2 JUMP JUMPDEST PUSH1 0x33 PUSH1 0x20 MSTORE PUSH1 0x0 SWAP1 DUP2 MSTORE PUSH1 0x40 SWAP1 KECCAK256 DUP1 SLOAD PUSH1 0x1 DUP3 ADD SLOAD PUSH1 0x2 DUP4 ADD DUP1 SLOAD PUSH1 0x1 PUSH1 0x1 PUSH1 0xA0 SHL SUB DUP5 AND SWAP5 PUSH1 0x1 PUSH1 0xA0 SHL DUP6 DIV PUSH4 0xFFFFFFFF AND SWAP5 PUSH1 0x1 PUSH1 0xC0 SHL SWAP1 DIV PUSH1 0xFF AND SWAP4 SWAP3 SWAP1 SWAP2 PUSH2 0x4CD SWAP1 PUSH2 0x6FD JUMP JUMPDEST DUP1 PUSH1 0x1F ADD PUSH1 0x20 DUP1 SWAP2 DIV MUL PUSH1 0x20 ADD PUSH1 0x40 MLOAD SWAP1 DUP2 ADD PUSH1 0x40 MSTORE DUP1 SWAP3 SWAP2 SWAP1 DUP2 DUP2 MSTORE PUSH1 0x20 ADD DUP3 DUP1 SLOAD PUSH2 0x4F9 SWAP1 PUSH2 0x6FD JUMP JUMPDEST DUP1 ISZERO PUSH2 0x546 JUMPI DUP1 PUSH1 0x1F LT PUSH2 0x51B JUMPI PUSH2 0x100 DUP1 DUP4 SLOAD DIV MUL DUP4 MSTORE SWAP2 PUSH1 0x20 ADD SWAP2 PUSH2 0x546 JUMP JUMPDEST DUP3 ADD SWAP2 SWAP1 PUSH1 0x0 MSTORE PUSH1 0x20 PUSH1 0x0 KECCAK256 SWAP1 JUMPDEST DUP2 SLOAD DUP2 MSTORE SWAP1 PUSH1 0x1 ADD SWAP1 PUSH1 0x20 ADD DUP1 DUP4 GT PUSH2 0x529 JUMPI DUP3 SWAP1 SUB PUSH1 0x1F AND DUP3 ADD SWAP2 JUMPDEST POP POP POP POP POP SWAP1 DUP1 PUSH1 0x3 ADD DUP1 SLOAD PUSH2 0x55B SWAP1 PUSH2 0x6FD JUMP JUMPDEST DUP1 PUSH1 0x1F ADD PUSH1 0x20 DUP1 SWAP2 DIV MUL PUSH1 0x20 ADD PUSH1 0x40 MLOAD SWAP1 DUP2 ADD PUSH1 0x40 MSTORE DUP1 SWAP3 SWAP2 SWAP1 DUP2 DUP2 MSTORE PUSH1 0x20 ADD DUP3 DUP1 SLOAD PUSH2 0x587 SWAP1 PUSH2 0x6FD JUMP JUMPDEST DUP1 ISZERO PUSH2 0x5D4 JUMPI DUP1 PUSH1 0x1F LT PUSH2 0x5A9 JUMPI PUSH2 0x100 DUP1 DUP4 SLOAD DIV MUL DUP4 MSTORE SWAP2 PUSH1 0x20 ADD SWAP2 PUSH2 0x5D4 JUMP JUMPDEST DUP3 ADD SWAP2 SWAP1 PUSH1 0x0 MSTORE PUSH1 0x20 PUSH1 0x0 KECCAK256 SWAP1 JUMPDEST DUP2 SLOAD DUP2 MSTORE SWAP1 PUSH1 0x1 ADD SWAP1 PUSH1 0x20 ADD DUP1 DUP4 GT PUSH2 0x5B7 JUMPI DUP3 SWAP1 SUB PUSH1 0x1F AND DUP3 ADD SWAP2 JUMPDEST POP POP POP POP POP SWAP1 POP DUP7 JUMP JUMPDEST PUSH1 0x0 PUSH1 0x20 DUP3 DUP5 SUB SLT ISZERO PUSH2 0x5F0 JUMPI PUSH1 0x0 DUP1 REVERT JUMPDEST POP CALLDATALOAD SWAP2 SWAP1 POP JUMP JUMPDEST PUSH1 0x0 DUP2 MLOAD DUP1 DUP5 MSTORE PUSH1 0x0 JUMPDEST DUP2 DUP2 LT ISZERO PUSH2 0x61D JUMPI PUSH1 0x20 DUP2 DUP6 ADD DUP2 ADD MLOAD DUP7 DUP4 ADD DUP3 ADD MSTORE ADD PUSH2 0x601 JUMP JUMPDEST POP PUSH1 0x0 PUSH1 0x20 DUP3 DUP7 ADD ADD MSTORE PUSH1 0x20 PUSH1 0x1F NOT PUSH1 0x1F DUP4 ADD AND DUP6 ADD ADD SWAP2 POP POP SWAP3 SWAP2 POP POP JUMP JUMPDEST PUSH1 0x1 DUP1 PUSH1 0xA0 SHL SUB DUP8 AND DUP2 MSTORE PUSH4 0xFFFFFFFF DUP7 AND PUSH1 0x20 DUP3 ADD MSTORE PUSH1 0xFF DUP6 AND PUSH1 0x40 DUP3 ADD MSTORE DUP4 PUSH1 0x60 DUP3 ADD MSTORE PUSH1 0xC0 PUSH1 0x80 DUP3 ADD MSTORE PUSH1 0x0 PUSH2 0x679 PUSH1 0xC0 DUP4 ADD DUP6 PUSH2 0x5F7 JUMP JUMPDEST DUP3 DUP2 SUB PUSH1 0xA0 DUP5 ADD MSTORE PUSH2 0x68B DUP2 DUP6 PUSH2 0x5F7 JUMP JUMPDEST SWAP10 SWAP9 POP POP POP POP POP POP POP POP POP JUMP JUMPDEST PUSH1 0x0 PUSH1 0x20 DUP3 DUP5 SUB SLT ISZERO PUSH2 0x6AA JUMPI PUSH1 0x0 DUP1 REVERT JUMPDEST DUP2 CALLDATALOAD PUSH1 0x1 PUSH1 0x1 PUSH1 0xA0 SHL SUB DUP2 AND DUP2 EQ PUSH2 0x6C1 JUMPI PUSH1 0x0 DUP1 REVERT JUMPDEST SWAP4 SWAP3 POP POP POP JUMP JUMPDEST DUP4 DUP2 MSTORE PUSH1 0x60 PUSH1 0x20 DUP3 ADD MSTORE PUSH1 0x0 PUSH2 0x6E1 PUSH1 0x60 DUP4 ADD DUP6 PUSH2 0x5F7 JUMP JUMPDEST DUP3 DUP2 SUB PUSH1 0x40 DUP5 ADD MSTORE PUSH2 0x6F3 DUP2 DUP6 PUSH2 0x5F7 JUMP JUMPDEST SWAP7 SWAP6 POP POP POP POP POP POP JUMP JUMPDEST PUSH1 0x1 DUP2 DUP2 SHR SWAP1 DUP3 AND DUP1 PUSH2 0x711 JUMPI PUSH1 0x7F DUP3 AND SWAP2 POP JUMPDEST PUSH1 0x20 DUP3 LT DUP2 SUB PUSH2 0x731 JUMPI PUSH4 0x4E487B71 PUSH1 0xE0 SHL PUSH1 0x0 MSTORE PUSH1 0x22 PUSH1 0x4 MSTORE PUSH1 0x24 PUSH1 0x0 REVERT JUMPDEST POP SWAP2 SWAP1 POP JUMP INVALID LOG2 PUSH5 0x6970667358 0x22 SLT KECCAK256 JUMPDEST 0xA5 0xD5 CALLDATACOPY 0xCE 0xCD 0xE2 PUSH27 0xA45791AF125BC982D9018073E76393B31AEA6C5ADC71E34464736F PUSH13 0x63430008140033000000000000 "},"methodIdentifiers":{"AUTH_CODE_CREATE()":"3a0f4bf8","AUTH_CODE_DELETE()":"5d83a5aa","AUTH_CODE_UPDATE()":"8c3cb902","BUCKET_CHANNEL_ID()":"73f1e3c3","BUCKET_HUB()":"7afffdd2","CROSS_CHAIN()":"557cf477","EMERGENCY_OPERATOR()":"46ab84e5","EMERGENCY_UPGRADE_OPERATOR()":"b8e43b33","ERC1155Token()":"73ee4508","ERC721Token()":"77a714ae","GOV_CHANNEL_ID()":"81d91480","GOV_HUB()":"a9dae71c","GROUP_CHANNEL_ID()":"e02e86b0","GROUP_HUB()":"46934fc8","INIT_MAX_CALLBACK_DATA_LENGTH()":"61bbd6dd","LIGHT_CLIENT()":"e613ae00","MAX_CALLBACK_GAS_LIMIT()":"39c33215","OBJECT_CHANNEL_ID()":"eac78b33","OBJECT_HUB()":"7d2e3084","PROXY_ADMIN()":"ed9bc82a","RELAYER_HUB()":"b9d86913","ROLE_CREATE()":"12629faf","ROLE_DELETE()":"c71f64e4","ROLE_UPDATE()":"feb3a68a","STATUS_FAILED()":"c8b01e6f","STATUS_SUCCESS()":"8855e092","STATUS_UNEXPECTED()":"f2223c02","TOKEN_HUB()":"6d3358a1","TRANSFER_IN_CHANNEL_ID()":"cc12eabc","TRANSFER_OUT_CHANNEL_ID()":"618d569c","TYPE_CREATE()":"edabb0a3","TYPE_DELETE()":"e8449116","TYPE_MIRROR()":"09d1be19","TYPE_UPDATE()":"b32f787b","additional()":"e8ea79c0","channelId()":"e2cee544","maxCallbackDataLength()":"142c2f44","packageMap(bytes32)":"1c60450d","retryQueue(address)":"4eee7767","versionInfo()":"a21d1354"}},"storageLayout":{"storage":[{"astId":1607,"contract":"@bnb-chain/greenfield-contracts/contracts/middle-layer/resource-mirror/storage/GroupStorage.sol:GroupStorage","label":"configSlots","offset":0,"slot":"0","type":"t_array(t_uint256)50_storage"},{"astId":2286,"contract":"@bnb-chain/greenfield-contracts/contracts/middle-layer/resource-mirror/storage/GroupStorage.sol:GroupStorage","label":"retryQueue","offset":0,"slot":"50","type":"t_mapping(t_address,t_struct(Bytes32Deque)4389_storage)"},{"astId":2291,"contract":"@bnb-chain/greenfield-contracts/contracts/middle-layer/resource-mirror/storage/GroupStorage.sol:GroupStorage","label":"packageMap","offset":0,"slot":"51","type":"t_mapping(t_bytes32,t_struct(RetryPackage)2308_storage)"},{"astId":2328,"contract":"@bnb-chain/greenfield-contracts/contracts/middle-layer/resource-mirror/storage/GroupStorage.sol:GroupStorage","label":"__reservedPkgQueueSlots","offset":0,"slot":"52","type":"t_array(t_uint256)50_storage"},{"astId":2046,"contract":"@bnb-chain/greenfield-contracts/contracts/middle-layer/resource-mirror/storage/GroupStorage.sol:GroupStorage","label":"reentryLock","offset":0,"slot":"102","type":"t_uint8"},{"astId":2048,"contract":"@bnb-chain/greenfield-contracts/contracts/middle-layer/resource-mirror/storage/GroupStorage.sol:GroupStorage","label":"channelId","offset":1,"slot":"102","type":"t_uint8"},{"astId":2050,"contract":"@bnb-chain/greenfield-contracts/contracts/middle-layer/resource-mirror/storage/GroupStorage.sol:GroupStorage","label":"ERC721Token","offset":2,"slot":"102","type":"t_address"},{"astId":2052,"contract":"@bnb-chain/greenfield-contracts/contracts/middle-layer/resource-mirror/storage/GroupStorage.sol:GroupStorage","label":"additional","offset":0,"slot":"103","type":"t_address"},{"astId":2054,"contract":"@bnb-chain/greenfield-contracts/contracts/middle-layer/resource-mirror/storage/GroupStorage.sol:GroupStorage","label":"maxCallbackDataLength","offset":0,"slot":"104","type":"t_uint256"},{"astId":2169,"contract":"@bnb-chain/greenfield-contracts/contracts/middle-layer/resource-mirror/storage/GroupStorage.sol:GroupStorage","label":"__reservedCmnStorageSlots","offset":0,"slot":"105","type":"t_array(t_uint256)49_storage"},{"astId":2188,"contract":"@bnb-chain/greenfield-contracts/contracts/middle-layer/resource-mirror/storage/GroupStorage.sol:GroupStorage","label":"ERC1155Token","offset":0,"slot":"154","type":"t_address"},{"astId":2263,"contract":"@bnb-chain/greenfield-contracts/contracts/middle-layer/resource-mirror/storage/GroupStorage.sol:GroupStorage","label":"__reservedGroupStorageSlots","offset":0,"slot":"155","type":"t_array(t_uint256)50_storage"}],"types":{"t_address":{"encoding":"inplace","label":"address","numberOfBytes":"20"},"t_array(t_uint256)49_storage":{"base":"t_uint256","encoding":"inplace","label":"uint256[49]","numberOfBytes":"1568"},"t_array(t_uint256)50_storage":{"base":"t_uint256","encoding":"inplace","label":"uint256[50]","numberOfBytes":"1600"},"t_bytes32":{"encoding":"inplace","label":"bytes32","numberOfBytes":"32"},"t_bytes_storage":{"encoding":"bytes","label":"bytes","numberOfBytes":"32"},"t_int128":{"encoding":"inplace","label":"int128","numberOfBytes":"16"},"t_mapping(t_address,t_struct(Bytes32Deque)4389_storage)":{"encoding":"mapping","key":"t_address","label":"mapping(address => struct DoubleEndedQueueUpgradeable.Bytes32Deque)","numberOfBytes":"32","value":"t_struct(Bytes32Deque)4389_storage"},"t_mapping(t_bytes32,t_struct(RetryPackage)2308_storage)":{"encoding":"mapping","key":"t_bytes32","label":"mapping(bytes32 => struct PackageQueue.RetryPackage)","numberOfBytes":"32","value":"t_struct(RetryPackage)2308_storage"},"t_mapping(t_int128,t_bytes32)":{"encoding":"mapping","key":"t_int128","label":"mapping(int128 => bytes32)","numberOfBytes":"32","value":"t_bytes32"},"t_struct(Bytes32Deque)4389_storage":{"encoding":"inplace","label":"struct DoubleEndedQueueUpgradeable.Bytes32Deque","members":[{"astId":4382,"contract":"@bnb-chain/greenfield-contracts/contracts/middle-layer/resource-mirror/storage/GroupStorage.sol:GroupStorage","label":"_begin","offset":0,"slot":"0","type":"t_int128"},{"astId":4384,"contract":"@bnb-chain/greenfield-contracts/contracts/middle-layer/resource-mirror/storage/GroupStorage.sol:GroupStorage","label":"_end","offset":16,"slot":"0","type":"t_int128"},{"astId":4388,"contract":"@bnb-chain/greenfield-contracts/contracts/middle-layer/resource-mirror/storage/GroupStorage.sol:GroupStorage","label":"_data","offset":0,"slot":"1","type":"t_mapping(t_int128,t_bytes32)"}],"numberOfBytes":"64"},"t_struct(RetryPackage)2308_storage":{"encoding":"inplace","label":"struct PackageQueue.RetryPackage","members":[{"astId":2297,"contract":"@bnb-chain/greenfield-contracts/contracts/middle-layer/resource-mirror/storage/GroupStorage.sol:GroupStorage","label":"appAddress","offset":0,"slot":"0","type":"t_address"},{"astId":2299,"contract":"@bnb-chain/greenfield-contracts/contracts/middle-layer/resource-mirror/storage/GroupStorage.sol:GroupStorage","label":"status","offset":20,"slot":"0","type":"t_uint32"},{"astId":2301,"contract":"@bnb-chain/greenfield-contracts/contracts/middle-layer/resource-mirror/storage/GroupStorage.sol:GroupStorage","label":"operationType","offset":24,"slot":"0","type":"t_uint8"},{"astId":2303,"contract":"@bnb-chain/greenfield-contracts/contracts/middle-layer/resource-mirror/storage/GroupStorage.sol:GroupStorage","label":"resourceId","offset":0,"slot":"1","type":"t_uint256"},{"astId":2305,"contract":"@bnb-chain/greenfield-contracts/contracts/middle-layer/resource-mirror/storage/GroupStorage.sol:GroupStorage","label":"callbackData","offset":0,"slot":"2","type":"t_bytes_storage"},{"astId":2307,"contract":"@bnb-chain/greenfield-contracts/contracts/middle-layer/resource-mirror/storage/GroupStorage.sol:GroupStorage","label":"failReason","offset":0,"slot":"3","type":"t_bytes_storage"}],"numberOfBytes":"128"},"t_uint256":{"encoding":"inplace","label":"uint256","numberOfBytes":"32"},"t_uint32":{"encoding":"inplace","label":"uint32","numberOfBytes":"4"},"t_uint8":{"encoding":"inplace","label":"uint8","numberOfBytes":"1"}}}}}}