{"contracts/Blufield.sol":{"Blufield":{"abi":[{"anonymous":false,"inputs":[{"indexed":true,"internalType":"address","name":"appAddress","type":"address"},{"indexed":false,"internalType":"bytes32","name":"pkgHash","type":"bytes32"},{"indexed":false,"internalType":"bytes","name":"failReason","type":"bytes"}],"name":"AppHandleAckPkgFailed","type":"event"},{"anonymous":false,"inputs":[{"indexed":true,"internalType":"address","name":"appAddress","type":"address"},{"indexed":false,"internalType":"bytes32","name":"pkgHash","type":"bytes32"},{"indexed":false,"internalType":"bytes","name":"failReason","type":"bytes"}],"name":"AppHandleFailAckPkgFailed","type":"event"},{"anonymous":false,"inputs":[{"indexed":true,"internalType":"address","name":"creator","type":"address"},{"indexed":true,"internalType":"uint256","name":"id","type":"uint256"}],"name":"CreateFailed","type":"event"},{"anonymous":false,"inputs":[{"indexed":false,"internalType":"uint32","name":"status","type":"uint32"},{"indexed":false,"internalType":"bytes","name":"groupName","type":"bytes"}],"name":"CreateGroupFailed","type":"event"},{"anonymous":false,"inputs":[{"indexed":false,"internalType":"bytes","name":"groupName","type":"bytes"},{"indexed":true,"internalType":"uint256","name":"tokenId","type":"uint256"}],"name":"CreateGroupSuccess","type":"event"},{"anonymous":false,"inputs":[{"indexed":true,"internalType":"address","name":"owner","type":"address"},{"indexed":true,"internalType":"address","name":"operator","type":"address"},{"indexed":false,"internalType":"string","name":"name","type":"string"}],"name":"CreateSubmitted","type":"event"},{"anonymous":false,"inputs":[{"indexed":true,"internalType":"address","name":"creator","type":"address"},{"indexed":true,"internalType":"uint256","name":"id","type":"uint256"}],"name":"CreateSuccess","type":"event"},{"anonymous":false,"inputs":[{"indexed":true,"internalType":"uint256","name":"id","type":"uint256"}],"name":"DeleteFailed","type":"event"},{"anonymous":false,"inputs":[{"indexed":false,"internalType":"uint32","name":"status","type":"uint32"},{"indexed":true,"internalType":"uint256","name":"tokenId","type":"uint256"}],"name":"DeleteGroupFailed","type":"event"},{"anonymous":false,"inputs":[{"indexed":true,"internalType":"uint256","name":"tokenId","type":"uint256"}],"name":"DeleteGroupSuccess","type":"event"},{"anonymous":false,"inputs":[{"indexed":true,"internalType":"address","name":"owner","type":"address"},{"indexed":true,"internalType":"address","name":"operator","type":"address"},{"indexed":true,"internalType":"uint256","name":"id","type":"uint256"}],"name":"DeleteSubmitted","type":"event"},{"anonymous":false,"inputs":[{"indexed":true,"internalType":"uint256","name":"id","type":"uint256"}],"name":"DeleteSuccess","type":"event"},{"anonymous":false,"inputs":[{"indexed":true,"internalType":"uint8","name":"channelId","type":"uint8"},{"indexed":false,"internalType":"bytes","name":"msgBytes","type":"bytes"}],"name":"FailAckPkgReceived","type":"event"},{"anonymous":false,"inputs":[{"indexed":false,"internalType":"uint8","name":"version","type":"uint8"}],"name":"Initialized","type":"event"},{"anonymous":false,"inputs":[{"indexed":true,"internalType":"uint256","name":"id","type":"uint256"},{"indexed":true,"internalType":"address","name":"owner","type":"address"},{"indexed":false,"internalType":"bytes","name":"failReason","type":"bytes"}],"name":"MirrorFailed","type":"event"},{"anonymous":false,"inputs":[{"indexed":true,"internalType":"uint256","name":"id","type":"uint256"},{"indexed":true,"internalType":"address","name":"owner","type":"address"}],"name":"MirrorSuccess","type":"event"},{"anonymous":false,"inputs":[{"indexed":false,"internalType":"string","name":"key","type":"string"},{"indexed":false,"internalType":"bytes","name":"value","type":"bytes"}],"name":"ParamChange","type":"event"},{"anonymous":false,"inputs":[{"indexed":true,"internalType":"uint8","name":"channelId","type":"uint8"},{"indexed":false,"internalType":"bytes","name":"msgBytes","type":"bytes"}],"name":"UnexpectedPackage","type":"event"},{"anonymous":false,"inputs":[{"indexed":true,"internalType":"address","name":"operator","type":"address"},{"indexed":true,"internalType":"uint256","name":"id","type":"uint256"},{"indexed":false,"internalType":"uint8","name":"opType","type":"uint8"}],"name":"UpdateFailed","type":"event"},{"anonymous":false,"inputs":[{"indexed":false,"internalType":"uint32","name":"status","type":"uint32"},{"indexed":true,"internalType":"uint256","name":"tokenId","type":"uint256"}],"name":"UpdateGroupFailed","type":"event"},{"anonymous":false,"inputs":[{"indexed":true,"internalType":"uint256","name":"tokenId","type":"uint256"}],"name":"UpdateGroupSuccess","type":"event"},{"anonymous":false,"inputs":[{"indexed":false,"internalType":"address","name":"owner","type":"address"},{"indexed":false,"internalType":"address","name":"operator","type":"address"},{"indexed":false,"internalType":"uint256","name":"id","type":"uint256"},{"indexed":false,"internalType":"uint8","name":"opType","type":"uint8"},{"indexed":false,"internalType":"address[]","name":"members","type":"address[]"}],"name":"UpdateSubmitted","type":"event"},{"anonymous":false,"inputs":[{"indexed":true,"internalType":"address","name":"operator","type":"address"},{"indexed":true,"internalType":"uint256","name":"id","type":"uint256"},{"indexed":false,"internalType":"uint8","name":"opType","type":"uint8"}],"name":"UpdateSuccess","type":"event"},{"inputs":[],"name":"AUTH_CODE_CREATE","outputs":[{"internalType":"uint32","name":"","type":"uint32"}],"stateMutability":"view","type":"function"},{"inputs":[],"name":"AUTH_CODE_DELETE","outputs":[{"internalType":"uint32","name":"","type":"uint32"}],"stateMutability":"view","type":"function"},{"inputs":[],"name":"AUTH_CODE_UPDATE","outputs":[{"internalType":"uint32","name":"","type":"uint32"}],"stateMutability":"view","type":"function"},{"inputs":[],"name":"BUCKET_CHANNEL_ID","outputs":[{"internalType":"uint8","name":"","type":"uint8"}],"stateMutability":"view","type":"function"},{"inputs":[],"name":"BUCKET_HUB","outputs":[{"internalType":"address","name":"","type":"address"}],"stateMutability":"view","type":"function"},{"inputs":[],"name":"CROSS_CHAIN","outputs":[{"internalType":"address","name":"","type":"address"}],"stateMutability":"view","type":"function"},{"inputs":[],"name":"EMERGENCY_OPERATOR","outputs":[{"internalType":"address","name":"","type":"address"}],"stateMutability":"view","type":"function"},{"inputs":[],"name":"EMERGENCY_UPGRADE_OPERATOR","outputs":[{"internalType":"address","name":"","type":"address"}],"stateMutability":"view","type":"function"},{"inputs":[],"name":"ERC1155Token","outputs":[{"internalType":"address","name":"","type":"address"}],"stateMutability":"view","type":"function"},{"inputs":[],"name":"ERC721Token","outputs":[{"internalType":"address","name":"","type":"address"}],"stateMutability":"view","type":"function"},{"inputs":[],"name":"ERROR_INSUFFICIENT_VALUE","outputs":[{"internalType":"string","name":"","type":"string"}],"stateMutability":"view","type":"function"},{"inputs":[],"name":"ERROR_INVALID_CALLER","outputs":[{"internalType":"string","name":"","type":"string"}],"stateMutability":"view","type":"function"},{"inputs":[],"name":"ERROR_INVALID_OPERATION","outputs":[{"internalType":"string","name":"","type":"string"}],"stateMutability":"view","type":"function"},{"inputs":[],"name":"ERROR_INVALID_RESOURCE","outputs":[{"internalType":"string","name":"","type":"string"}],"stateMutability":"view","type":"function"},{"inputs":[],"name":"GOV_CHANNEL_ID","outputs":[{"internalType":"uint8","name":"","type":"uint8"}],"stateMutability":"view","type":"function"},{"inputs":[],"name":"GOV_HUB","outputs":[{"internalType":"address","name":"","type":"address"}],"stateMutability":"view","type":"function"},{"inputs":[],"name":"GROUP_CHANNEL_ID","outputs":[{"internalType":"uint8","name":"","type":"uint8"}],"stateMutability":"view","type":"function"},{"inputs":[],"name":"GROUP_HUB","outputs":[{"internalType":"address","name":"","type":"address"}],"stateMutability":"view","type":"function"},{"inputs":[],"name":"GROUP_TOKEN","outputs":[{"internalType":"contract IERC721NonTransferable","name":"","type":"address"}],"stateMutability":"view","type":"function"},{"inputs":[],"name":"INIT_MAX_CALLBACK_DATA_LENGTH","outputs":[{"internalType":"uint256","name":"","type":"uint256"}],"stateMutability":"view","type":"function"},{"inputs":[],"name":"LIGHT_CLIENT","outputs":[{"internalType":"address","name":"","type":"address"}],"stateMutability":"view","type":"function"},{"inputs":[],"name":"MAX_CALLBACK_GAS_LIMIT","outputs":[{"internalType":"uint256","name":"","type":"uint256"}],"stateMutability":"view","type":"function"},{"inputs":[],"name":"MEMBER_TOKEN","outputs":[{"internalType":"contract IERC1155NonTransferable","name":"","type":"address"}],"stateMutability":"view","type":"function"},{"inputs":[],"name":"OBJECT_CHANNEL_ID","outputs":[{"internalType":"uint8","name":"","type":"uint8"}],"stateMutability":"view","type":"function"},{"inputs":[],"name":"OBJECT_HUB","outputs":[{"internalType":"address","name":"","type":"address"}],"stateMutability":"view","type":"function"},{"inputs":[],"name":"PROXY_ADMIN","outputs":[{"internalType":"address","name":"","type":"address"}],"stateMutability":"view","type":"function"},{"inputs":[],"name":"RELAYER_HUB","outputs":[{"internalType":"address","name":"","type":"address"}],"stateMutability":"view","type":"function"},{"inputs":[],"name":"RESOURCE_GROUP","outputs":[{"internalType":"uint8","name":"","type":"uint8"}],"stateMutability":"view","type":"function"},{"inputs":[],"name":"ROLE_CREATE","outputs":[{"internalType":"bytes32","name":"","type":"bytes32"}],"stateMutability":"view","type":"function"},{"inputs":[],"name":"ROLE_DELETE","outputs":[{"internalType":"bytes32","name":"","type":"bytes32"}],"stateMutability":"view","type":"function"},{"inputs":[],"name":"ROLE_UPDATE","outputs":[{"internalType":"bytes32","name":"","type":"bytes32"}],"stateMutability":"view","type":"function"},{"inputs":[],"name":"STATUS_FAILED","outputs":[{"internalType":"uint32","name":"","type":"uint32"}],"stateMutability":"view","type":"function"},{"inputs":[],"name":"STATUS_SUCCESS","outputs":[{"internalType":"uint32","name":"","type":"uint32"}],"stateMutability":"view","type":"function"},{"inputs":[],"name":"STATUS_UNEXPECTED","outputs":[{"internalType":"uint32","name":"","type":"uint32"}],"stateMutability":"view","type":"function"},{"inputs":[],"name":"TOKEN_HUB","outputs":[{"internalType":"address","name":"","type":"address"}],"stateMutability":"view","type":"function"},{"inputs":[],"name":"TRANSFER_IN_CHANNEL_ID","outputs":[{"internalType":"uint8","name":"","type":"uint8"}],"stateMutability":"view","type":"function"},{"inputs":[],"name":"TRANSFER_OUT_CHANNEL_ID","outputs":[{"internalType":"uint8","name":"","type":"uint8"}],"stateMutability":"view","type":"function"},{"inputs":[],"name":"TYPE_CREATE","outputs":[{"internalType":"uint8","name":"","type":"uint8"}],"stateMutability":"view","type":"function"},{"inputs":[],"name":"TYPE_DELETE","outputs":[{"internalType":"uint8","name":"","type":"uint8"}],"stateMutability":"view","type":"function"},{"inputs":[],"name":"TYPE_MIRROR","outputs":[{"internalType":"uint8","name":"","type":"uint8"}],"stateMutability":"view","type":"function"},{"inputs":[],"name":"TYPE_UPDATE","outputs":[{"internalType":"uint8","name":"","type":"uint8"}],"stateMutability":"view","type":"function"},{"inputs":[],"name":"additional","outputs":[{"internalType":"address","name":"","type":"address"}],"stateMutability":"view","type":"function"},{"inputs":[],"name":"callbackGasLimit","outputs":[{"internalType":"uint256","name":"","type":"uint256"}],"stateMutability":"view","type":"function"},{"inputs":[],"name":"channelId","outputs":[{"internalType":"uint8","name":"","type":"uint8"}],"stateMutability":"view","type":"function"},{"inputs":[],"name":"creationFee","outputs":[{"internalType":"uint256","name":"","type":"uint256"}],"stateMutability":"view","type":"function"},{"inputs":[],"name":"crossChain","outputs":[{"internalType":"address","name":"","type":"address"}],"stateMutability":"view","type":"function"},{"inputs":[{"internalType":"address","name":"","type":"address"},{"internalType":"uint256","name":"","type":"uint256"}],"name":"expirationOfUserSubscription","outputs":[{"internalType":"uint64","name":"","type":"uint64"}],"stateMutability":"view","type":"function"},{"inputs":[],"name":"failureHandleStrategy","outputs":[{"internalType":"enum PackageQueue.FailureHandleStrategy","name":"","type":"uint8"}],"stateMutability":"view","type":"function"},{"inputs":[{"internalType":"address","name":"","type":"address"}],"name":"fieldIdOfUser","outputs":[{"internalType":"uint256","name":"","type":"uint256"}],"stateMutability":"view","type":"function"},{"inputs":[{"internalType":"uint256","name":"","type":"uint256"}],"name":"fieldIdToName","outputs":[{"internalType":"string","name":"","type":"string"}],"stateMutability":"view","type":"function"},{"inputs":[{"internalType":"string","name":"","type":"string"}],"name":"fieldNameToId","outputs":[{"internalType":"uint256","name":"","type":"uint256"}],"stateMutability":"view","type":"function"},{"inputs":[{"internalType":"uint32","name":"status","type":"uint32"},{"internalType":"uint8","name":"resourceType","type":"uint8"},{"internalType":"uint8","name":"operationType","type":"uint8"},{"internalType":"uint256","name":"resourceId","type":"uint256"},{"internalType":"bytes","name":"callbackData","type":"bytes"}],"name":"greenfieldCall","outputs":[],"stateMutability":"nonpayable","type":"function"},{"inputs":[],"name":"groupHub","outputs":[{"internalType":"address","name":"","type":"address"}],"stateMutability":"view","type":"function"},{"inputs":[{"internalType":"address","name":"_groupHub","type":"address"},{"internalType":"address","name":"_crossChain","type":"address"},{"internalType":"uint256","name":"_callbackGasLimit","type":"uint256"},{"internalType":"uint8","name":"_failureHandleStrategy","type":"uint8"}],"name":"initialize","outputs":[],"stateMutability":"nonpayable","type":"function"},{"inputs":[],"name":"maxCallbackDataLength","outputs":[{"internalType":"uint256","name":"","type":"uint256"}],"stateMutability":"view","type":"function"},{"inputs":[{"internalType":"bytes32","name":"","type":"bytes32"}],"name":"packageMap","outputs":[{"internalType":"address","name":"appAddress","type":"address"},{"internalType":"uint32","name":"status","type":"uint32"},{"internalType":"uint8","name":"operationType","type":"uint8"},{"internalType":"uint256","name":"resourceId","type":"uint256"},{"internalType":"bytes","name":"callbackData","type":"bytes"},{"internalType":"bytes","name":"failReason","type":"bytes"}],"stateMutability":"view","type":"function"},{"inputs":[{"internalType":"address","name":"","type":"address"}],"name":"pendingWithdrawals","outputs":[{"internalType":"uint256","name":"","type":"uint256"}],"stateMutability":"view","type":"function"},{"inputs":[{"internalType":"string","name":"name","type":"string"},{"internalType":"uint256","name":"groupId","type":"uint256"},{"internalType":"uint256","name":"price","type":"uint256"}],"name":"registerField","outputs":[],"stateMutability":"nonpayable","type":"function"},{"inputs":[{"internalType":"uint8","name":"resourceType","type":"uint8"}],"name":"retryPackage","outputs":[],"stateMutability":"nonpayable","type":"function"},{"inputs":[{"internalType":"address","name":"","type":"address"}],"name":"retryQueue","outputs":[{"internalType":"int128","name":"_begin","type":"int128"},{"internalType":"int128","name":"_end","type":"int128"}],"stateMutability":"view","type":"function"},{"inputs":[{"internalType":"uint8","name":"resourceType","type":"uint8"}],"name":"skipPackage","outputs":[],"stateMutability":"nonpayable","type":"function"},{"inputs":[{"internalType":"uint256","name":"groupId","type":"uint256"}],"name":"subscribeField","outputs":[],"stateMutability":"payable","type":"function"},{"inputs":[{"internalType":"uint256","name":"","type":"uint256"}],"name":"subscriptionFee","outputs":[{"internalType":"uint256","name":"","type":"uint256"}],"stateMutability":"view","type":"function"},{"inputs":[],"name":"versionInfo","outputs":[{"internalType":"uint256","name":"version","type":"uint256"},{"internalType":"string","name":"name","type":"string"},{"internalType":"string","name":"description","type":"string"}],"stateMutability":"pure","type":"function"},{"inputs":[],"name":"withdraw","outputs":[],"stateMutability":"nonpayable","type":"function"}],"evm":{"bytecode":{"linkReferences":{},"object":"608060405234801561001057600080fd5b5061239f806100206000396000f3fe6080604052600436106103ce5760003560e01c806381d91480116101fd578063cc65cc4a11610118578063e8449116116100ab578063edabb0a31161007a578063edabb0a3146106ee578063f2223c02146106d9578063f3f4370314610a5b578063fdd562b8146109c5578063feb3a68a14610a8957600080fd5b8063e8449116146107c0578063e8ea79c014610a26578063eac78b3314610a46578063ed9bc82a1461060157600080fd5b8063e02e86b0116100e7578063e02e86b0146109c5578063e2cee544146109da578063e52a6718146109f9578063e613ae001461060157600080fd5b8063cc65cc4a146108e1578063ce1ddb6c14610953578063d271250e14610980578063dce0b4e4146109ae57600080fd5b8063b32f787b11610190578063c64ca0201161015f578063c64ca020146108ff578063c71f64e41461091f578063c8b01e6f146105a0578063cc12eabc1461041157600080fd5b8063b32f787b1461074c578063b4627d35146108e1578063b8e43b3314610601578063b9d869131461060157600080fd5b80639142d7fb116101cc5780639142d7fb14610859578063a21d13541461087a578063a29be1fa146108c1578063a9dae71c1461060157600080fd5b806381d91480146107c05780638855e092146107d55780638c3cb902146107ea5780638f8ea384146107ff57600080fd5b80634917db66116102ed5780636d3358a111610280578063778afbb71161024f578063778afbb71461076157806377a714ae1461079a5780637afffdd2146106015780637d2e30841461060157600080fd5b80636d3358a114610601578063721c3dd01461071957806373ee45081461072c57806373f1e3c31461074c57600080fd5b80635bb58b17116102bc5780635bb58b17146106b95780635d83a5aa146106d9578063618d569c146106ee57806361bbd6dd1461070357600080fd5b80634917db66146106165780634eee77671461063657806350704a501461068c578063557cf4771461060157600080fd5b806333a89c40116103655780633ccfd60b116103345780633ccfd60b146105ca578063459af3aa146105e157806346934fc81461060157806346ab84e51461060157600080fd5b806333a89c401461053357806339a252901461056157806339c33215146105885780633a0f4bf8146105a057600080fd5b8063189e8102116103a1578063189e8102146104905780631a12138f146104ca5780631c60450d146104eb57806324f746971461051d57600080fd5b8063012927c0146103d357806309d1be191461041157806312629faf14610438578063142c2f441461047a575b600080fd5b3480156103df57600080fd5b50610169546103f4906001600160a01b031681565b6040516001600160a01b0390911681526020015b60405180910390f35b34801561041d57600080fd5b50610426600181565b60405160ff9091168152602001610408565b34801561044457600080fd5b5061046c7fa7a925e56b0f4627a3e4910a6e10d23a82143f84f9d73d587c9ef425941ace8e81565b604051908152602001610408565b34801561048657600080fd5b5061046c60695481565b34801561049c57600080fd5b506104bd604051806040016040528060018152602001601960f91b81525081565b6040516104089190611bd1565b3480156104d657600080fd5b50610168546103f4906001600160a01b031681565b3480156104f757600080fd5b5061050b610506366004611beb565b610abd565b60405161040896959493929190611c04565b34801561052957600080fd5b5061046c609c5481565b34801561053f57600080fd5b5061046c61054e366004611beb565b61016e6020526000908152604090205481565b34801561056d57600080fd5b50609d5461057b9060ff1681565b6040516104089190611c93565b34801561059457600080fd5b5061046c6301312d0081565b3480156105ac57600080fd5b506105b5600181565b60405163ffffffff9091168152602001610408565b3480156105d657600080fd5b506105df610c19565b005b3480156105ed57600080fd5b506105df6105fc366004611d04565b610ccf565b34801561060d57600080fd5b506103f4600081565b34801561062257600080fd5b50609b546103f4906001600160a01b031681565b34801561064257600080fd5b50610672610651366004611da2565b603360205260009081526040902054600f81810b91600160801b9004900b82565b60408051600f93840b81529190920b602082015201610408565b34801561069857600080fd5b506104bd604051806040016040528060018152602001603160f81b81525081565b3480156106c557600080fd5b506104bd6106d4366004611beb565b610dad565b3480156106e557600080fd5b506105b5600281565b3480156106fa57600080fd5b50610426600281565b34801561070f57600080fd5b5061046c61040081565b6105df610727366004611beb565b610e48565b34801561073857600080fd5b5060d0546103f4906001600160a01b031681565b34801561075857600080fd5b50610426600481565b34801561076d57600080fd5b5061046c61077c366004611dd5565b805160208183018101805161016d8252928201919093012091525481565b3480156107a657600080fd5b506067546103f4906201000090046001600160a01b031681565b3480156107cc57600080fd5b50610426600381565b3480156107e157600080fd5b506105b5600081565b3480156107f657600080fd5b506105b5600481565b34801561080b57600080fd5b5061084161081a366004611e85565b61016f6020908152600092835260408084209091529082529020546001600160401b031681565b6040516001600160401b039091168152602001610408565b34801561086557600080fd5b50610103546103f4906001600160a01b031681565b34801561088657600080fd5b506040805180820182526006815265436f6e66696760d01b602080830191909152825190810183526000808252925161040893929190611eb1565b3480156108cd57600080fd5b506105df6108dc366004611ee6565b6111e6565b3480156108ed57600080fd5b506105df6108fc366004611f36565b50565b34801561090b57600080fd5b506105df61091a366004611f51565b611482565b34801561092b57600080fd5b5061046c7fe52b0c82d70862ecc57dd0fa972f308948292049a31fa59a5b152ce07497fded81565b34801561095f57600080fd5b506104bd604051806040016040528060018152602001603360f81b81525081565b34801561098c57600080fd5b5061046c61099b366004611da2565b61016b6020526000908152604090205481565b3480156109ba57600080fd5b5061046c61016a5481565b3480156109d157600080fd5b50610426600681565b3480156109e657600080fd5b5060675461042690610100900460ff1681565b348015610a0557600080fd5b506104bd604051806040016040528060018152602001600360fc1b81525081565b348015610a3257600080fd5b506068546103f4906001600160a01b031681565b348015610a5257600080fd5b50610426600581565b348015610a6757600080fd5b5061046c610a76366004611da2565b6101706020526000908152604090205481565b348015610a9557600080fd5b5061046c7f757d0265d5de9ff03394896c4c44c92950e6e9565f35923c097aed8e1128e4cb81565b6034602052600090815260409020805460018201546002830180546001600160a01b03841694600160a01b850463ffffffff1694600160c01b900460ff1693929091610b0890611fa2565b80601f0160208091040260200160405190810160405280929190818152602001828054610b3490611fa2565b8015610b815780601f10610b5657610100808354040283529160200191610b81565b820191906000526020600020905b815481529060010190602001808311610b6457829003601f168201915b505050505090806003018054610b9690611fa2565b80601f0160208091040260200160405190810160405280929190818152602001828054610bc290611fa2565b8015610c0f5780601f10610be457610100808354040283529160200191610c0f565b820191906000526020600020905b815481529060010190602001808311610bf257829003601f168201915b5050505050905086565b610c216116af565b336000908152610170602052604090205480610c845760405162461bcd60e51b815260206004820181905260248201527f426c756669656c643a206e6f2070656e64696e67207769746864726177616c7360448201526064015b60405180910390fd5b33600081815261017060205260408082208290555183156108fc0291849190818181858888f19350505050158015610cc0573d6000803e3d6000fd5b5050610ccd600161013655565b565b6101035460408051808201825260018152600360fc1b60208083019190915291516001600160a01b03909316331492610d089201611fdc565b60405160208183030381529060405290610d355760405162461bcd60e51b8152600401610c7b9190611bd1565b50600660ff168560ff1614604051806040016040528060018152602001603160f81b815250604051602001610d6a9190611fdc565b60405160208183030381529060405290610d975760405162461bcd60e51b8152600401610c7b9190611bd1565b50610da5868585858561170a565b505050505050565b61016c6020526000908152604090208054610dc790611fa2565b80601f0160208091040260200160405190810160405280929190818152602001828054610df390611fa2565b8015610e405780601f10610e1557610100808354040283529160200191610e40565b820191906000526020600020905b815481529060010190602001808311610e2357829003601f168201915b505050505081565b610e506116af565b600081815261016c602052604081208054610e6a90611fa2565b905011610eb95760405162461bcd60e51b815260206004820152601e60248201527f426c756669656c643a206669656c64206e6f74207265676973746572656400006044820152606401610c7b565b610168546040516331a9108f60e11b8152600481018390526000916001600160a01b031690636352211e90602401602060405180830381865afa158015610f04573d6000803e3d6000fd5b505050506040513d601f19601f82011682018060405250810190610f28919061200e565b90506001600160a01b038116610f905760405162461bcd60e51b815260206004820152602760248201527f426c756669656c643a2063616e6e6f742073756273637269626520746f206f776044820152661b88199a595b1960ca1b6064820152608401610c7b565b600082815261016e602052604081205490610fa9611846565b9050610fb58183612041565b3410156110045760405162461bcd60e51b815260206004820152601e60248201527f426c756669656c643a20696e73756666696369656e74207061796d656e7400006044820152606401610c7b565b61016954604051627eeac760e11b815233600482015260248101869052600091829182916001600160a01b03169062fdd58e90604401602060405180830381865afa158015611057573d6000803e3d6000fd5b505050506040513d601f19601f8201168201806040525081019061107b919061205a565b90508060000361109d576110924262278d00612041565b925060009150611119565b33600090815261016f602090815260408083208a8452909152902054426001600160401b0390911611156111045733600090815261016f602090815260408083208a84529091529020546110fd906001600160401b031662278d00612073565b9250611114565b6111114262278d00612041565b92505b600291505b60408051600180825281830190925260009160208083019080368337505060408051600180825281830190925292935060009291506020808301908036833701905050905033826000815181106111725761117261209a565b60200260200101906001600160a01b031690816001600160a01b03168152505084816000815181106111a6576111a661209a565b60200260200101906001600160401b031690816001600160401b0316815250506111d3888a86858561196e565b50505050505050506108fc600161013655565b6111ee6116af565b610168546040516331a9108f60e11b81526004810184905233916001600160a01b031690636352211e90602401602060405180830381865afa158015611238573d6000803e3d6000fd5b505050506040513d601f19601f8201168201806040525081019061125c919061200e565b6001600160a01b0316146112a85760405162461bcd60e51b815260206004820152601360248201527221363ab334b2b6321d103737ba1037bbb732b960691b6044820152606401610c7b565b826112f55760405162461bcd60e51b815260206004820152601760248201527f426c756669656c643a206e616d6520697320656d7074790000000000000000006044820152606401610c7b565b33600090815261016b6020526040902054156113535760405162461bcd60e51b815260206004820152601c60248201527f426c756669656c643a20616c72656164792072656769737465726564000000006044820152606401610c7b565b61016d84846040516113669291906120b0565b9081526020016040518091039020546000146113c45760405162461bcd60e51b815260206004820152601c60248201527f426c756669656c643a206e616d6520616c72656164792074616b656e000000006044820152606401610c7b565b600081116114145760405162461bcd60e51b815260206004820152601760248201527f426c756669656c643a207072696365206973207a65726f0000000000000000006044820152606401610c7b565b33600090815261016b6020908152604080832085905584835261016c9091529020611440848683612106565b508161016d85856040516114559291906120b0565b908152604080516020928190038301902092909255600093845261016e9052909120555050600161013655565b600054610100900460ff16158080156114a25750600054600160ff909116105b806114bc5750303b1580156114bc575060005460ff166001145b61151f5760405162461bcd60e51b815260206004820152602e60248201527f496e697469616c697a61626c653a20636f6e747261637420697320616c72656160448201526d191e481a5b9a5d1a585b1a5e995960921b6064820152608401610c7b565b6000805460ff191660011790558015611542576000805461ff0019166101001790555b846001600160a01b03166377a714ae6040518163ffffffff1660e01b8152600401602060405180830381865afa158015611580573d6000803e3d6000fd5b505050506040513d601f19601f820116820180604052508101906115a4919061200e565b61016860006101000a8154816001600160a01b0302191690836001600160a01b03160217905550846001600160a01b03166373ee45086040518163ffffffff1660e01b8152600401602060405180830381865afa158015611609573d6000803e3d6000fd5b505050506040513d601f19601f8201168201806040525081019061162d919061200e565b61016980546001600160a01b0319166001600160a01b0392909216919091179055611659848484611ab0565b61166285611b32565b80156116a8576000805461ff0019169055604051600181527f7f26b83ff96e1f2b6a682f133852f6798a09c465da95921460cefb38474024989060200160405180910390a15b5050505050565b600261013654036117025760405162461bcd60e51b815260206004820152601f60248201527f5265656e7472616e637947756172643a207265656e7472616e742063616c6c006044820152606401610c7b565b600261013655565b60011960ff85160161175c57611757858484848080601f016020809104026020016040519081016040528093929190818152602001838380828437600092019190915250611b7c92505050565b6116a8565b60021960ff8516016117a957611757858484848080601f016020809104026020016040519081016040528093929190818152602001838380828437600092019190915250611b7c92505050565b60031960ff8516016117f657611757858484848080601f016020809104026020016040519081016040528093929190818152602001838380828437600092019190915250611b7c92505050565b604051806040016040528060018152602001601960f91b8152506040516020016118209190611fdc565b60408051601f198184030181529082905262461bcd60e51b8252610c7b91600401611bd1565b6000806000609b60009054906101000a90046001600160a01b03166001600160a01b03166354912a976040518163ffffffff1660e01b815260040160408051808303816000875af115801561189f573d6000803e3d6000fd5b505050506040513d601f19601f820116820180604052508101906118c391906121c5565b915091506000609b60009054906101000a90046001600160a01b03166001600160a01b031663bf9032476040518163ffffffff1660e01b81526004016020604051808303816000875af115801561191e573d6000803e3d6000fd5b505050506040513d601f19601f82011682018060405250810190611942919061205a565b905080609c5461195291906121e9565b61195c8385612041565b6119669190612041565b935050505090565b60006040518060c00160405280876001600160a01b031681526020018681526020018560028111156119a2576119a2611c5f565b815260200184815260200160405180602001604052806000815250815260200183815250905060006119d2611846565b905080341015604051806040016040528060018152602001603360f81b815250604051602001611a029190611fdc565b60405160208183030381529060405290611a2f5760405162461bcd60e51b8152600401610c7b9190611bd1565b50610103546040516302041bbf60e51b81526001600160a01b039091169063408377e0903490611a63908690600401612244565b60206040518083038185885af1158015611a81573d6000803e3d6000fd5b50505050506040513d601f19601f82011682018060405250810190611aa691906122fc565b5050505050505050565b600054610100900460ff16611ad75760405162461bcd60e51b8152600401610c7b9061231e565b609b80546001600160a01b0319166001600160a01b038516179055609c82905560ff81166002811115611b0c57611b0c611c5f565b609d805460ff19166001836002811115611b2857611b28611c5f565b0217905550505050565b600054610100900460ff16611b595760405162461bcd60e51b8152600401610c7b9061231e565b61010380546001600160a01b0319166001600160a01b0392909216919091179055565b505050565b60005b83811015611b9c578181015183820152602001611b84565b50506000910152565b60008151808452611bbd816020860160208601611b81565b601f01601f19169290920160200192915050565b602081526000611be46020830184611ba5565b9392505050565b600060208284031215611bfd57600080fd5b5035919050565b60018060a01b038716815263ffffffff8616602082015260ff8516604082015283606082015260c060808201526000611c4060c0830185611ba5565b82810360a0840152611c528185611ba5565b9998505050505050505050565b634e487b7160e01b600052602160045260246000fd5b600381106108fc57634e487b7160e01b600052602160045260246000fd5b60208101611ca083611c75565b91905290565b803560ff81168114611cb757600080fd5b919050565b60008083601f840112611cce57600080fd5b5081356001600160401b03811115611ce557600080fd5b602083019150836020828501011115611cfd57600080fd5b9250929050565b60008060008060008060a08789031215611d1d57600080fd5b863563ffffffff81168114611d3157600080fd5b9550611d3f60208801611ca6565b9450611d4d60408801611ca6565b93506060870135925060808701356001600160401b03811115611d6f57600080fd5b611d7b89828a01611cbc565b979a9699509497509295939492505050565b6001600160a01b03811681146108fc57600080fd5b600060208284031215611db457600080fd5b8135611be481611d8d565b634e487b7160e01b600052604160045260246000fd5b600060208284031215611de757600080fd5b81356001600160401b0380821115611dfe57600080fd5b818401915084601f830112611e1257600080fd5b813581811115611e2457611e24611dbf565b604051601f8201601f19908116603f01168101908382118183101715611e4c57611e4c611dbf565b81604052828152876020848701011115611e6557600080fd5b826020860160208301376000928101602001929092525095945050505050565b60008060408385031215611e9857600080fd5b8235611ea381611d8d565b946020939093013593505050565b838152606060208201526000611eca6060830185611ba5565b8281036040840152611edc8185611ba5565b9695505050505050565b60008060008060608587031215611efc57600080fd5b84356001600160401b03811115611f1257600080fd5b611f1e87828801611cbc565b90989097506020870135966040013595509350505050565b600060208284031215611f4857600080fd5b611be482611ca6565b60008060008060808587031215611f6757600080fd5b8435611f7281611d8d565b93506020850135611f8281611d8d565b925060408501359150611f9760608601611ca6565b905092959194509250565b600181811c90821680611fb657607f821691505b602082108103611fd657634e487b7160e01b600052602260045260246000fd5b50919050565b69023b937bab820b8381d160b51b81526000825161200181600a850160208701611b81565b91909101600a0192915050565b60006020828403121561202057600080fd5b8151611be481611d8d565b634e487b7160e01b600052601160045260246000fd5b808201808211156120545761205461202b565b92915050565b60006020828403121561206c57600080fd5b5051919050565b6001600160401b038181168382160190808211156120935761209361202b565b5092915050565b634e487b7160e01b600052603260045260246000fd5b8183823760009101908152919050565b601f821115611b7c57600081815260208120601f850160051c810160208610156120e75750805b601f850160051c820191505b81811015610da5578281556001016120f3565b6001600160401b0383111561211d5761211d611dbf565b6121318361212b8354611fa2565b836120c0565b6000601f841160018114612165576000851561214d5750838201355b600019600387901b1c1916600186901b1783556116a8565b600083815260209020601f19861690835b828110156121965786850135825560209485019460019092019101612176565b50868210156121b35760001960f88860031b161c19848701351681555b505060018560011b0183555050505050565b600080604083850312156121d857600080fd5b505080516020909101519092909150565b80820281158282048414176120545761205461202b565b600081518084526020808501945080840160005b838110156122395781516001600160401b031687529582019590820190600101612214565b509495945050505050565b6000602080835260e0830160018060a01b038086511683860152828601516040860152604086015161227581611c75565b60608681019190915286015160c060808701528051928390528301916000906101008701905b808310156122bd5784518416825293850193600192909201919085019061229b565b5060808801519450601f199350838782030160a08801526122de8186611ba5565b945050505060a0850151818584030160c0860152611edc8382612200565b60006020828403121561230e57600080fd5b81518015158114611be457600080fd5b6020808252602b908201527f496e697469616c697a61626c653a20636f6e7472616374206973206e6f74206960408201526a6e697469616c697a696e6760a81b60608201526080019056fea2646970667358221220da12d1e0abaf05748aa2ab264cc67612a26f04d997adebe37faf36b1c233e52264736f6c63430008140033","opcodes":"PUSH1 0x80 PUSH1 0x40 MSTORE CALLVALUE DUP1 ISZERO PUSH2 0x10 JUMPI PUSH1 0x0 DUP1 REVERT JUMPDEST POP PUSH2 0x239F DUP1 PUSH2 0x20 PUSH1 0x0 CODECOPY PUSH1 0x0 RETURN INVALID PUSH1 0x80 PUSH1 0x40 MSTORE PUSH1 0x4 CALLDATASIZE LT PUSH2 0x3CE JUMPI PUSH1 0x0 CALLDATALOAD PUSH1 0xE0 SHR DUP1 PUSH4 0x81D91480 GT PUSH2 0x1FD JUMPI DUP1 PUSH4 0xCC65CC4A GT PUSH2 0x118 JUMPI DUP1 PUSH4 0xE8449116 GT PUSH2 0xAB JUMPI DUP1 PUSH4 0xEDABB0A3 GT PUSH2 0x7A JUMPI DUP1 PUSH4 0xEDABB0A3 EQ PUSH2 0x6EE JUMPI DUP1 PUSH4 0xF2223C02 EQ PUSH2 0x6D9 JUMPI DUP1 PUSH4 0xF3F43703 EQ PUSH2 0xA5B JUMPI DUP1 PUSH4 0xFDD562B8 EQ PUSH2 0x9C5 JUMPI DUP1 PUSH4 0xFEB3A68A EQ PUSH2 0xA89 JUMPI PUSH1 0x0 DUP1 REVERT JUMPDEST DUP1 PUSH4 0xE8449116 EQ PUSH2 0x7C0 JUMPI DUP1 PUSH4 0xE8EA79C0 EQ PUSH2 0xA26 JUMPI DUP1 PUSH4 0xEAC78B33 EQ PUSH2 0xA46 JUMPI DUP1 PUSH4 0xED9BC82A EQ PUSH2 0x601 JUMPI PUSH1 0x0 DUP1 REVERT JUMPDEST DUP1 PUSH4 0xE02E86B0 GT PUSH2 0xE7 JUMPI DUP1 PUSH4 0xE02E86B0 EQ PUSH2 0x9C5 JUMPI DUP1 PUSH4 0xE2CEE544 EQ PUSH2 0x9DA JUMPI DUP1 PUSH4 0xE52A6718 EQ PUSH2 0x9F9 JUMPI DUP1 PUSH4 0xE613AE00 EQ PUSH2 0x601 JUMPI PUSH1 0x0 DUP1 REVERT JUMPDEST DUP1 PUSH4 0xCC65CC4A EQ PUSH2 0x8E1 JUMPI DUP1 PUSH4 0xCE1DDB6C EQ PUSH2 0x953 JUMPI DUP1 PUSH4 0xD271250E EQ PUSH2 0x980 JUMPI DUP1 PUSH4 0xDCE0B4E4 EQ PUSH2 0x9AE JUMPI PUSH1 0x0 DUP1 REVERT JUMPDEST DUP1 PUSH4 0xB32F787B GT PUSH2 0x190 JUMPI DUP1 PUSH4 0xC64CA020 GT PUSH2 0x15F JUMPI DUP1 PUSH4 0xC64CA020 EQ PUSH2 0x8FF JUMPI DUP1 PUSH4 0xC71F64E4 EQ PUSH2 0x91F JUMPI DUP1 PUSH4 0xC8B01E6F EQ PUSH2 0x5A0 JUMPI DUP1 PUSH4 0xCC12EABC EQ PUSH2 0x411 JUMPI PUSH1 0x0 DUP1 REVERT JUMPDEST DUP1 PUSH4 0xB32F787B EQ PUSH2 0x74C JUMPI DUP1 PUSH4 0xB4627D35 EQ PUSH2 0x8E1 JUMPI DUP1 PUSH4 0xB8E43B33 EQ PUSH2 0x601 JUMPI DUP1 PUSH4 0xB9D86913 EQ PUSH2 0x601 JUMPI PUSH1 0x0 DUP1 REVERT JUMPDEST DUP1 PUSH4 0x9142D7FB GT PUSH2 0x1CC JUMPI DUP1 PUSH4 0x9142D7FB EQ PUSH2 0x859 JUMPI DUP1 PUSH4 0xA21D1354 EQ PUSH2 0x87A JUMPI DUP1 PUSH4 0xA29BE1FA EQ PUSH2 0x8C1 JUMPI DUP1 PUSH4 0xA9DAE71C EQ PUSH2 0x601 JUMPI PUSH1 0x0 DUP1 REVERT JUMPDEST DUP1 PUSH4 0x81D91480 EQ PUSH2 0x7C0 JUMPI DUP1 PUSH4 0x8855E092 EQ PUSH2 0x7D5 JUMPI DUP1 PUSH4 0x8C3CB902 EQ PUSH2 0x7EA JUMPI DUP1 PUSH4 0x8F8EA384 EQ PUSH2 0x7FF JUMPI PUSH1 0x0 DUP1 REVERT JUMPDEST DUP1 PUSH4 0x4917DB66 GT PUSH2 0x2ED JUMPI DUP1 PUSH4 0x6D3358A1 GT PUSH2 0x280 JUMPI DUP1 PUSH4 0x778AFBB7 GT PUSH2 0x24F JUMPI DUP1 PUSH4 0x778AFBB7 EQ PUSH2 0x761 JUMPI DUP1 PUSH4 0x77A714AE EQ PUSH2 0x79A JUMPI DUP1 PUSH4 0x7AFFFDD2 EQ PUSH2 0x601 JUMPI DUP1 PUSH4 0x7D2E3084 EQ PUSH2 0x601 JUMPI PUSH1 0x0 DUP1 REVERT JUMPDEST DUP1 PUSH4 0x6D3358A1 EQ PUSH2 0x601 JUMPI DUP1 PUSH4 0x721C3DD0 EQ PUSH2 0x719 JUMPI DUP1 PUSH4 0x73EE4508 EQ PUSH2 0x72C JUMPI DUP1 PUSH4 0x73F1E3C3 EQ PUSH2 0x74C JUMPI PUSH1 0x0 DUP1 REVERT JUMPDEST DUP1 PUSH4 0x5BB58B17 GT PUSH2 0x2BC JUMPI DUP1 PUSH4 0x5BB58B17 EQ PUSH2 0x6B9 JUMPI DUP1 PUSH4 0x5D83A5AA EQ PUSH2 0x6D9 JUMPI DUP1 PUSH4 0x618D569C EQ PUSH2 0x6EE JUMPI DUP1 PUSH4 0x61BBD6DD EQ PUSH2 0x703 JUMPI PUSH1 0x0 DUP1 REVERT JUMPDEST DUP1 PUSH4 0x4917DB66 EQ PUSH2 0x616 JUMPI DUP1 PUSH4 0x4EEE7767 EQ PUSH2 0x636 JUMPI DUP1 PUSH4 0x50704A50 EQ PUSH2 0x68C JUMPI DUP1 PUSH4 0x557CF477 EQ PUSH2 0x601 JUMPI PUSH1 0x0 DUP1 REVERT JUMPDEST DUP1 PUSH4 0x33A89C40 GT PUSH2 0x365 JUMPI DUP1 PUSH4 0x3CCFD60B GT PUSH2 0x334 JUMPI DUP1 PUSH4 0x3CCFD60B EQ PUSH2 0x5CA JUMPI DUP1 PUSH4 0x459AF3AA EQ PUSH2 0x5E1 JUMPI DUP1 PUSH4 0x46934FC8 EQ PUSH2 0x601 JUMPI DUP1 PUSH4 0x46AB84E5 EQ PUSH2 0x601 JUMPI PUSH1 0x0 DUP1 REVERT JUMPDEST DUP1 PUSH4 0x33A89C40 EQ PUSH2 0x533 JUMPI DUP1 PUSH4 0x39A25290 EQ PUSH2 0x561 JUMPI DUP1 PUSH4 0x39C33215 EQ PUSH2 0x588 JUMPI DUP1 PUSH4 0x3A0F4BF8 EQ PUSH2 0x5A0 JUMPI PUSH1 0x0 DUP1 REVERT JUMPDEST DUP1 PUSH4 0x189E8102 GT PUSH2 0x3A1 JUMPI DUP1 PUSH4 0x189E8102 EQ PUSH2 0x490 JUMPI DUP1 PUSH4 0x1A12138F EQ PUSH2 0x4CA JUMPI DUP1 PUSH4 0x1C60450D EQ PUSH2 0x4EB JUMPI DUP1 PUSH4 0x24F74697 EQ PUSH2 0x51D JUMPI PUSH1 0x0 DUP1 REVERT JUMPDEST DUP1 PUSH4 0x12927C0 EQ PUSH2 0x3D3 JUMPI DUP1 PUSH4 0x9D1BE19 EQ PUSH2 0x411 JUMPI DUP1 PUSH4 0x12629FAF EQ PUSH2 0x438 JUMPI DUP1 PUSH4 0x142C2F44 EQ PUSH2 0x47A JUMPI JUMPDEST PUSH1 0x0 DUP1 REVERT JUMPDEST CALLVALUE DUP1 ISZERO PUSH2 0x3DF JUMPI PUSH1 0x0 DUP1 REVERT JUMPDEST POP PUSH2 0x169 SLOAD PUSH2 0x3F4 SWAP1 PUSH1 0x1 PUSH1 0x1 PUSH1 0xA0 SHL SUB AND DUP2 JUMP JUMPDEST PUSH1 0x40 MLOAD PUSH1 0x1 PUSH1 0x1 PUSH1 0xA0 SHL SUB SWAP1 SWAP2 AND DUP2 MSTORE PUSH1 0x20 ADD JUMPDEST PUSH1 0x40 MLOAD DUP1 SWAP2 SUB SWAP1 RETURN JUMPDEST CALLVALUE DUP1 ISZERO PUSH2 0x41D JUMPI PUSH1 0x0 DUP1 REVERT JUMPDEST POP PUSH2 0x426 PUSH1 0x1 DUP2 JUMP JUMPDEST PUSH1 0x40 MLOAD PUSH1 0xFF SWAP1 SWAP2 AND DUP2 MSTORE PUSH1 0x20 ADD PUSH2 0x408 JUMP JUMPDEST CALLVALUE DUP1 ISZERO PUSH2 0x444 JUMPI PUSH1 0x0 DUP1 REVERT JUMPDEST POP PUSH2 0x46C PUSH32 0xA7A925E56B0F4627A3E4910A6E10D23A82143F84F9D73D587C9EF425941ACE8E DUP2 JUMP JUMPDEST PUSH1 0x40 MLOAD SWAP1 DUP2 MSTORE PUSH1 0x20 ADD PUSH2 0x408 JUMP JUMPDEST CALLVALUE DUP1 ISZERO PUSH2 0x486 JUMPI PUSH1 0x0 DUP1 REVERT JUMPDEST POP PUSH2 0x46C PUSH1 0x69 SLOAD DUP2 JUMP JUMPDEST CALLVALUE DUP1 ISZERO PUSH2 0x49C JUMPI PUSH1 0x0 DUP1 REVERT JUMPDEST POP PUSH2 0x4BD PUSH1 0x40 MLOAD DUP1 PUSH1 0x40 ADD PUSH1 0x40 MSTORE DUP1 PUSH1 0x1 DUP2 MSTORE PUSH1 0x20 ADD PUSH1 0x19 PUSH1 0xF9 SHL DUP2 MSTORE POP DUP2 JUMP JUMPDEST PUSH1 0x40 MLOAD PUSH2 0x408 SWAP2 SWAP1 PUSH2 0x1BD1 JUMP JUMPDEST CALLVALUE DUP1 ISZERO PUSH2 0x4D6 JUMPI PUSH1 0x0 DUP1 REVERT JUMPDEST POP PUSH2 0x168 SLOAD PUSH2 0x3F4 SWAP1 PUSH1 0x1 PUSH1 0x1 PUSH1 0xA0 SHL SUB AND DUP2 JUMP JUMPDEST CALLVALUE DUP1 ISZERO PUSH2 0x4F7 JUMPI PUSH1 0x0 DUP1 REVERT JUMPDEST POP PUSH2 0x50B PUSH2 0x506 CALLDATASIZE PUSH1 0x4 PUSH2 0x1BEB JUMP JUMPDEST PUSH2 0xABD JUMP JUMPDEST PUSH1 0x40 MLOAD PUSH2 0x408 SWAP7 SWAP6 SWAP5 SWAP4 SWAP3 SWAP2 SWAP1 PUSH2 0x1C04 JUMP JUMPDEST CALLVALUE DUP1 ISZERO PUSH2 0x529 JUMPI PUSH1 0x0 DUP1 REVERT JUMPDEST POP PUSH2 0x46C PUSH1 0x9C SLOAD DUP2 JUMP JUMPDEST CALLVALUE DUP1 ISZERO PUSH2 0x53F JUMPI PUSH1 0x0 DUP1 REVERT JUMPDEST POP PUSH2 0x46C PUSH2 0x54E CALLDATASIZE PUSH1 0x4 PUSH2 0x1BEB JUMP JUMPDEST PUSH2 0x16E PUSH1 0x20 MSTORE PUSH1 0x0 SWAP1 DUP2 MSTORE PUSH1 0x40 SWAP1 KECCAK256 SLOAD DUP2 JUMP JUMPDEST CALLVALUE DUP1 ISZERO PUSH2 0x56D JUMPI PUSH1 0x0 DUP1 REVERT JUMPDEST POP PUSH1 0x9D SLOAD PUSH2 0x57B SWAP1 PUSH1 0xFF AND DUP2 JUMP JUMPDEST PUSH1 0x40 MLOAD PUSH2 0x408 SWAP2 SWAP1 PUSH2 0x1C93 JUMP JUMPDEST CALLVALUE DUP1 ISZERO PUSH2 0x594 JUMPI PUSH1 0x0 DUP1 REVERT JUMPDEST POP PUSH2 0x46C PUSH4 0x1312D00 DUP2 JUMP JUMPDEST CALLVALUE DUP1 ISZERO PUSH2 0x5AC JUMPI PUSH1 0x0 DUP1 REVERT JUMPDEST POP PUSH2 0x5B5 PUSH1 0x1 DUP2 JUMP JUMPDEST PUSH1 0x40 MLOAD PUSH4 0xFFFFFFFF SWAP1 SWAP2 AND DUP2 MSTORE PUSH1 0x20 ADD PUSH2 0x408 JUMP JUMPDEST CALLVALUE DUP1 ISZERO PUSH2 0x5D6 JUMPI PUSH1 0x0 DUP1 REVERT JUMPDEST POP PUSH2 0x5DF PUSH2 0xC19 JUMP JUMPDEST STOP JUMPDEST CALLVALUE DUP1 ISZERO PUSH2 0x5ED JUMPI PUSH1 0x0 DUP1 REVERT JUMPDEST POP PUSH2 0x5DF PUSH2 0x5FC CALLDATASIZE PUSH1 0x4 PUSH2 0x1D04 JUMP JUMPDEST PUSH2 0xCCF JUMP JUMPDEST CALLVALUE DUP1 ISZERO PUSH2 0x60D JUMPI PUSH1 0x0 DUP1 REVERT JUMPDEST POP PUSH2 0x3F4 PUSH1 0x0 DUP2 JUMP JUMPDEST CALLVALUE DUP1 ISZERO PUSH2 0x622 JUMPI PUSH1 0x0 DUP1 REVERT JUMPDEST POP PUSH1 0x9B SLOAD PUSH2 0x3F4 SWAP1 PUSH1 0x1 PUSH1 0x1 PUSH1 0xA0 SHL SUB AND DUP2 JUMP JUMPDEST CALLVALUE DUP1 ISZERO PUSH2 0x642 JUMPI PUSH1 0x0 DUP1 REVERT JUMPDEST POP PUSH2 0x672 PUSH2 0x651 CALLDATASIZE PUSH1 0x4 PUSH2 0x1DA2 JUMP JUMPDEST PUSH1 0x33 PUSH1 0x20 MSTORE PUSH1 0x0 SWAP1 DUP2 MSTORE PUSH1 0x40 SWAP1 KECCAK256 SLOAD PUSH1 0xF DUP2 DUP2 SIGNEXTEND SWAP2 PUSH1 0x1 PUSH1 0x80 SHL SWAP1 DIV SWAP1 SIGNEXTEND DUP3 JUMP JUMPDEST PUSH1 0x40 DUP1 MLOAD PUSH1 0xF SWAP4 DUP5 SIGNEXTEND DUP2 MSTORE SWAP2 SWAP1 SWAP3 SIGNEXTEND PUSH1 0x20 DUP3 ADD MSTORE ADD PUSH2 0x408 JUMP JUMPDEST CALLVALUE DUP1 ISZERO PUSH2 0x698 JUMPI PUSH1 0x0 DUP1 REVERT JUMPDEST POP PUSH2 0x4BD PUSH1 0x40 MLOAD DUP1 PUSH1 0x40 ADD PUSH1 0x40 MSTORE DUP1 PUSH1 0x1 DUP2 MSTORE PUSH1 0x20 ADD PUSH1 0x31 PUSH1 0xF8 SHL DUP2 MSTORE POP DUP2 JUMP JUMPDEST CALLVALUE DUP1 ISZERO PUSH2 0x6C5 JUMPI PUSH1 0x0 DUP1 REVERT JUMPDEST POP PUSH2 0x4BD PUSH2 0x6D4 CALLDATASIZE PUSH1 0x4 PUSH2 0x1BEB JUMP JUMPDEST PUSH2 0xDAD JUMP JUMPDEST CALLVALUE DUP1 ISZERO PUSH2 0x6E5 JUMPI PUSH1 0x0 DUP1 REVERT JUMPDEST POP PUSH2 0x5B5 PUSH1 0x2 DUP2 JUMP JUMPDEST CALLVALUE DUP1 ISZERO PUSH2 0x6FA JUMPI PUSH1 0x0 DUP1 REVERT JUMPDEST POP PUSH2 0x426 PUSH1 0x2 DUP2 JUMP JUMPDEST CALLVALUE DUP1 ISZERO PUSH2 0x70F JUMPI PUSH1 0x0 DUP1 REVERT JUMPDEST POP PUSH2 0x46C PUSH2 0x400 DUP2 JUMP JUMPDEST PUSH2 0x5DF PUSH2 0x727 CALLDATASIZE PUSH1 0x4 PUSH2 0x1BEB JUMP JUMPDEST PUSH2 0xE48 JUMP JUMPDEST CALLVALUE DUP1 ISZERO PUSH2 0x738 JUMPI PUSH1 0x0 DUP1 REVERT JUMPDEST POP PUSH1 0xD0 SLOAD PUSH2 0x3F4 SWAP1 PUSH1 0x1 PUSH1 0x1 PUSH1 0xA0 SHL SUB AND DUP2 JUMP JUMPDEST CALLVALUE DUP1 ISZERO PUSH2 0x758 JUMPI PUSH1 0x0 DUP1 REVERT JUMPDEST POP PUSH2 0x426 PUSH1 0x4 DUP2 JUMP JUMPDEST CALLVALUE DUP1 ISZERO PUSH2 0x76D JUMPI PUSH1 0x0 DUP1 REVERT JUMPDEST POP PUSH2 0x46C PUSH2 0x77C CALLDATASIZE PUSH1 0x4 PUSH2 0x1DD5 JUMP JUMPDEST DUP1 MLOAD PUSH1 0x20 DUP2 DUP4 ADD DUP2 ADD DUP1 MLOAD PUSH2 0x16D DUP3 MSTORE SWAP3 DUP3 ADD SWAP2 SWAP1 SWAP4 ADD KECCAK256 SWAP2 MSTORE SLOAD DUP2 JUMP JUMPDEST CALLVALUE DUP1 ISZERO PUSH2 0x7A6 JUMPI PUSH1 0x0 DUP1 REVERT JUMPDEST POP PUSH1 0x67 SLOAD PUSH2 0x3F4 SWAP1 PUSH3 0x10000 SWAP1 DIV PUSH1 0x1 PUSH1 0x1 PUSH1 0xA0 SHL SUB AND DUP2 JUMP JUMPDEST CALLVALUE DUP1 ISZERO PUSH2 0x7CC JUMPI PUSH1 0x0 DUP1 REVERT JUMPDEST POP PUSH2 0x426 PUSH1 0x3 DUP2 JUMP JUMPDEST CALLVALUE DUP1 ISZERO PUSH2 0x7E1 JUMPI PUSH1 0x0 DUP1 REVERT JUMPDEST POP PUSH2 0x5B5 PUSH1 0x0 DUP2 JUMP JUMPDEST CALLVALUE DUP1 ISZERO PUSH2 0x7F6 JUMPI PUSH1 0x0 DUP1 REVERT JUMPDEST POP PUSH2 0x5B5 PUSH1 0x4 DUP2 JUMP JUMPDEST CALLVALUE DUP1 ISZERO PUSH2 0x80B JUMPI PUSH1 0x0 DUP1 REVERT JUMPDEST POP PUSH2 0x841 PUSH2 0x81A CALLDATASIZE PUSH1 0x4 PUSH2 0x1E85 JUMP JUMPDEST PUSH2 0x16F PUSH1 0x20 SWAP1 DUP2 MSTORE PUSH1 0x0 SWAP3 DUP4 MSTORE PUSH1 0x40 DUP1 DUP5 KECCAK256 SWAP1 SWAP2 MSTORE SWAP1 DUP3 MSTORE SWAP1 KECCAK256 SLOAD PUSH1 0x1 PUSH1 0x1 PUSH1 0x40 SHL SUB AND DUP2 JUMP JUMPDEST PUSH1 0x40 MLOAD PUSH1 0x1 PUSH1 0x1 PUSH1 0x40 SHL SUB SWAP1 SWAP2 AND DUP2 MSTORE PUSH1 0x20 ADD PUSH2 0x408 JUMP JUMPDEST CALLVALUE DUP1 ISZERO PUSH2 0x865 JUMPI PUSH1 0x0 DUP1 REVERT JUMPDEST POP PUSH2 0x103 SLOAD PUSH2 0x3F4 SWAP1 PUSH1 0x1 PUSH1 0x1 PUSH1 0xA0 SHL SUB AND DUP2 JUMP JUMPDEST CALLVALUE DUP1 ISZERO PUSH2 0x886 JUMPI PUSH1 0x0 DUP1 REVERT JUMPDEST POP PUSH1 0x40 DUP1 MLOAD DUP1 DUP3 ADD DUP3 MSTORE PUSH1 0x6 DUP2 MSTORE PUSH6 0x436F6E666967 PUSH1 0xD0 SHL PUSH1 0x20 DUP1 DUP4 ADD SWAP2 SWAP1 SWAP2 MSTORE DUP3 MLOAD SWAP1 DUP2 ADD DUP4 MSTORE PUSH1 0x0 DUP1 DUP3 MSTORE SWAP3 MLOAD PUSH2 0x408 SWAP4 SWAP3 SWAP2 SWAP1 PUSH2 0x1EB1 JUMP JUMPDEST CALLVALUE DUP1 ISZERO PUSH2 0x8CD JUMPI PUSH1 0x0 DUP1 REVERT JUMPDEST POP PUSH2 0x5DF PUSH2 0x8DC CALLDATASIZE PUSH1 0x4 PUSH2 0x1EE6 JUMP JUMPDEST PUSH2 0x11E6 JUMP JUMPDEST CALLVALUE DUP1 ISZERO PUSH2 0x8ED JUMPI PUSH1 0x0 DUP1 REVERT JUMPDEST POP PUSH2 0x5DF PUSH2 0x8FC CALLDATASIZE PUSH1 0x4 PUSH2 0x1F36 JUMP JUMPDEST POP JUMP JUMPDEST CALLVALUE DUP1 ISZERO PUSH2 0x90B JUMPI PUSH1 0x0 DUP1 REVERT JUMPDEST POP PUSH2 0x5DF PUSH2 0x91A CALLDATASIZE PUSH1 0x4 PUSH2 0x1F51 JUMP JUMPDEST PUSH2 0x1482 JUMP JUMPDEST CALLVALUE DUP1 ISZERO PUSH2 0x92B JUMPI PUSH1 0x0 DUP1 REVERT JUMPDEST POP PUSH2 0x46C PUSH32 0xE52B0C82D70862ECC57DD0FA972F308948292049A31FA59A5B152CE07497FDED DUP2 JUMP JUMPDEST CALLVALUE DUP1 ISZERO PUSH2 0x95F JUMPI PUSH1 0x0 DUP1 REVERT JUMPDEST POP PUSH2 0x4BD PUSH1 0x40 MLOAD DUP1 PUSH1 0x40 ADD PUSH1 0x40 MSTORE DUP1 PUSH1 0x1 DUP2 MSTORE PUSH1 0x20 ADD PUSH1 0x33 PUSH1 0xF8 SHL DUP2 MSTORE POP DUP2 JUMP JUMPDEST CALLVALUE DUP1 ISZERO PUSH2 0x98C JUMPI PUSH1 0x0 DUP1 REVERT JUMPDEST POP PUSH2 0x46C PUSH2 0x99B CALLDATASIZE PUSH1 0x4 PUSH2 0x1DA2 JUMP JUMPDEST PUSH2 0x16B PUSH1 0x20 MSTORE PUSH1 0x0 SWAP1 DUP2 MSTORE PUSH1 0x40 SWAP1 KECCAK256 SLOAD DUP2 JUMP JUMPDEST CALLVALUE DUP1 ISZERO PUSH2 0x9BA JUMPI PUSH1 0x0 DUP1 REVERT JUMPDEST POP PUSH2 0x46C PUSH2 0x16A SLOAD DUP2 JUMP JUMPDEST CALLVALUE DUP1 ISZERO PUSH2 0x9D1 JUMPI PUSH1 0x0 DUP1 REVERT JUMPDEST POP PUSH2 0x426 PUSH1 0x6 DUP2 JUMP JUMPDEST CALLVALUE DUP1 ISZERO PUSH2 0x9E6 JUMPI PUSH1 0x0 DUP1 REVERT JUMPDEST POP PUSH1 0x67 SLOAD PUSH2 0x426 SWAP1 PUSH2 0x100 SWAP1 DIV PUSH1 0xFF AND DUP2 JUMP JUMPDEST CALLVALUE DUP1 ISZERO PUSH2 0xA05 JUMPI PUSH1 0x0 DUP1 REVERT JUMPDEST POP PUSH2 0x4BD PUSH1 0x40 MLOAD DUP1 PUSH1 0x40 ADD PUSH1 0x40 MSTORE DUP1 PUSH1 0x1 DUP2 MSTORE PUSH1 0x20 ADD PUSH1 0x3 PUSH1 0xFC SHL DUP2 MSTORE POP DUP2 JUMP JUMPDEST CALLVALUE DUP1 ISZERO PUSH2 0xA32 JUMPI PUSH1 0x0 DUP1 REVERT JUMPDEST POP PUSH1 0x68 SLOAD PUSH2 0x3F4 SWAP1 PUSH1 0x1 PUSH1 0x1 PUSH1 0xA0 SHL SUB AND DUP2 JUMP JUMPDEST CALLVALUE DUP1 ISZERO PUSH2 0xA52 JUMPI PUSH1 0x0 DUP1 REVERT JUMPDEST POP PUSH2 0x426 PUSH1 0x5 DUP2 JUMP JUMPDEST CALLVALUE DUP1 ISZERO PUSH2 0xA67 JUMPI PUSH1 0x0 DUP1 REVERT JUMPDEST POP PUSH2 0x46C PUSH2 0xA76 CALLDATASIZE PUSH1 0x4 PUSH2 0x1DA2 JUMP JUMPDEST PUSH2 0x170 PUSH1 0x20 MSTORE PUSH1 0x0 SWAP1 DUP2 MSTORE PUSH1 0x40 SWAP1 KECCAK256 SLOAD DUP2 JUMP JUMPDEST CALLVALUE DUP1 ISZERO PUSH2 0xA95 JUMPI PUSH1 0x0 DUP1 REVERT JUMPDEST POP PUSH2 0x46C PUSH32 0x757D0265D5DE9FF03394896C4C44C92950E6E9565F35923C097AED8E1128E4CB DUP2 JUMP JUMPDEST PUSH1 0x34 PUSH1 0x20 MSTORE PUSH1 0x0 SWAP1 DUP2 MSTORE PUSH1 0x40 SWAP1 KECCAK256 DUP1 SLOAD PUSH1 0x1 DUP3 ADD SLOAD PUSH1 0x2 DUP4 ADD DUP1 SLOAD PUSH1 0x1 PUSH1 0x1 PUSH1 0xA0 SHL SUB DUP5 AND SWAP5 PUSH1 0x1 PUSH1 0xA0 SHL DUP6 DIV PUSH4 0xFFFFFFFF AND SWAP5 PUSH1 0x1 PUSH1 0xC0 SHL SWAP1 DIV PUSH1 0xFF AND SWAP4 SWAP3 SWAP1 SWAP2 PUSH2 0xB08 SWAP1 PUSH2 0x1FA2 JUMP JUMPDEST DUP1 PUSH1 0x1F ADD PUSH1 0x20 DUP1 SWAP2 DIV MUL PUSH1 0x20 ADD PUSH1 0x40 MLOAD SWAP1 DUP2 ADD PUSH1 0x40 MSTORE DUP1 SWAP3 SWAP2 SWAP1 DUP2 DUP2 MSTORE PUSH1 0x20 ADD DUP3 DUP1 SLOAD PUSH2 0xB34 SWAP1 PUSH2 0x1FA2 JUMP JUMPDEST DUP1 ISZERO PUSH2 0xB81 JUMPI DUP1 PUSH1 0x1F LT PUSH2 0xB56 JUMPI PUSH2 0x100 DUP1 DUP4 SLOAD DIV MUL DUP4 MSTORE SWAP2 PUSH1 0x20 ADD SWAP2 PUSH2 0xB81 JUMP JUMPDEST DUP3 ADD SWAP2 SWAP1 PUSH1 0x0 MSTORE PUSH1 0x20 PUSH1 0x0 KECCAK256 SWAP1 JUMPDEST DUP2 SLOAD DUP2 MSTORE SWAP1 PUSH1 0x1 ADD SWAP1 PUSH1 0x20 ADD DUP1 DUP4 GT PUSH2 0xB64 JUMPI DUP3 SWAP1 SUB PUSH1 0x1F AND DUP3 ADD SWAP2 JUMPDEST POP POP POP POP POP SWAP1 DUP1 PUSH1 0x3 ADD DUP1 SLOAD PUSH2 0xB96 SWAP1 PUSH2 0x1FA2 JUMP JUMPDEST DUP1 PUSH1 0x1F ADD PUSH1 0x20 DUP1 SWAP2 DIV MUL PUSH1 0x20 ADD PUSH1 0x40 MLOAD SWAP1 DUP2 ADD PUSH1 0x40 MSTORE DUP1 SWAP3 SWAP2 SWAP1 DUP2 DUP2 MSTORE PUSH1 0x20 ADD DUP3 DUP1 SLOAD PUSH2 0xBC2 SWAP1 PUSH2 0x1FA2 JUMP JUMPDEST DUP1 ISZERO PUSH2 0xC0F JUMPI DUP1 PUSH1 0x1F LT PUSH2 0xBE4 JUMPI PUSH2 0x100 DUP1 DUP4 SLOAD DIV MUL DUP4 MSTORE SWAP2 PUSH1 0x20 ADD SWAP2 PUSH2 0xC0F JUMP JUMPDEST DUP3 ADD SWAP2 SWAP1 PUSH1 0x0 MSTORE PUSH1 0x20 PUSH1 0x0 KECCAK256 SWAP1 JUMPDEST DUP2 SLOAD DUP2 MSTORE SWAP1 PUSH1 0x1 ADD SWAP1 PUSH1 0x20 ADD DUP1 DUP4 GT PUSH2 0xBF2 JUMPI DUP3 SWAP1 SUB PUSH1 0x1F AND DUP3 ADD SWAP2 JUMPDEST POP POP POP POP POP SWAP1 POP DUP7 JUMP JUMPDEST PUSH2 0xC21 PUSH2 0x16AF JUMP JUMPDEST CALLER PUSH1 0x0 SWAP1 DUP2 MSTORE PUSH2 0x170 PUSH1 0x20 MSTORE PUSH1 0x40 SWAP1 KECCAK256 SLOAD DUP1 PUSH2 0xC84 JUMPI PUSH1 0x40 MLOAD PUSH3 0x461BCD PUSH1 0xE5 SHL DUP2 MSTORE PUSH1 0x20 PUSH1 0x4 DUP3 ADD DUP2 SWAP1 MSTORE PUSH1 0x24 DUP3 ADD MSTORE PUSH32 0x426C756669656C643A206E6F2070656E64696E67207769746864726177616C73 PUSH1 0x44 DUP3 ADD MSTORE PUSH1 0x64 ADD JUMPDEST PUSH1 0x40 MLOAD DUP1 SWAP2 SUB SWAP1 REVERT JUMPDEST CALLER PUSH1 0x0 DUP2 DUP2 MSTORE PUSH2 0x170 PUSH1 0x20 MSTORE PUSH1 0x40 DUP1 DUP3 KECCAK256 DUP3 SWAP1 SSTORE MLOAD DUP4 ISZERO PUSH2 0x8FC MUL SWAP2 DUP5 SWAP2 SWAP1 DUP2 DUP2 DUP2 DUP6 DUP9 DUP9 CALL SWAP4 POP POP POP POP ISZERO DUP1 ISZERO PUSH2 0xCC0 JUMPI RETURNDATASIZE PUSH1 0x0 DUP1 RETURNDATACOPY RETURNDATASIZE PUSH1 0x0 REVERT JUMPDEST POP POP PUSH2 0xCCD PUSH1 0x1 PUSH2 0x136 SSTORE JUMP JUMPDEST JUMP JUMPDEST PUSH2 0x103 SLOAD PUSH1 0x40 DUP1 MLOAD DUP1 DUP3 ADD DUP3 MSTORE PUSH1 0x1 DUP2 MSTORE PUSH1 0x3 PUSH1 0xFC SHL PUSH1 0x20 DUP1 DUP4 ADD SWAP2 SWAP1 SWAP2 MSTORE SWAP2 MLOAD PUSH1 0x1 PUSH1 0x1 PUSH1 0xA0 SHL SUB SWAP1 SWAP4 AND CALLER EQ SWAP3 PUSH2 0xD08 SWAP3 ADD PUSH2 0x1FDC JUMP JUMPDEST PUSH1 0x40 MLOAD PUSH1 0x20 DUP2 DUP4 SUB SUB DUP2 MSTORE SWAP1 PUSH1 0x40 MSTORE SWAP1 PUSH2 0xD35 JUMPI PUSH1 0x40 MLOAD PUSH3 0x461BCD PUSH1 0xE5 SHL DUP2 MSTORE PUSH1 0x4 ADD PUSH2 0xC7B SWAP2 SWAP1 PUSH2 0x1BD1 JUMP JUMPDEST POP PUSH1 0x6 PUSH1 0xFF AND DUP6 PUSH1 0xFF AND EQ PUSH1 0x40 MLOAD DUP1 PUSH1 0x40 ADD PUSH1 0x40 MSTORE DUP1 PUSH1 0x1 DUP2 MSTORE PUSH1 0x20 ADD PUSH1 0x31 PUSH1 0xF8 SHL DUP2 MSTORE POP PUSH1 0x40 MLOAD PUSH1 0x20 ADD PUSH2 0xD6A SWAP2 SWAP1 PUSH2 0x1FDC JUMP JUMPDEST PUSH1 0x40 MLOAD PUSH1 0x20 DUP2 DUP4 SUB SUB DUP2 MSTORE SWAP1 PUSH1 0x40 MSTORE SWAP1 PUSH2 0xD97 JUMPI PUSH1 0x40 MLOAD PUSH3 0x461BCD PUSH1 0xE5 SHL DUP2 MSTORE PUSH1 0x4 ADD PUSH2 0xC7B SWAP2 SWAP1 PUSH2 0x1BD1 JUMP JUMPDEST POP PUSH2 0xDA5 DUP7 DUP6 DUP6 DUP6 DUP6 PUSH2 0x170A JUMP JUMPDEST POP POP POP POP POP POP JUMP JUMPDEST PUSH2 0x16C PUSH1 0x20 MSTORE PUSH1 0x0 SWAP1 DUP2 MSTORE PUSH1 0x40 SWAP1 KECCAK256 DUP1 SLOAD PUSH2 0xDC7 SWAP1 PUSH2 0x1FA2 JUMP JUMPDEST DUP1 PUSH1 0x1F ADD PUSH1 0x20 DUP1 SWAP2 DIV MUL PUSH1 0x20 ADD PUSH1 0x40 MLOAD SWAP1 DUP2 ADD PUSH1 0x40 MSTORE DUP1 SWAP3 SWAP2 SWAP1 DUP2 DUP2 MSTORE PUSH1 0x20 ADD DUP3 DUP1 SLOAD PUSH2 0xDF3 SWAP1 PUSH2 0x1FA2 JUMP JUMPDEST DUP1 ISZERO PUSH2 0xE40 JUMPI DUP1 PUSH1 0x1F LT PUSH2 0xE15 JUMPI PUSH2 0x100 DUP1 DUP4 SLOAD DIV MUL DUP4 MSTORE SWAP2 PUSH1 0x20 ADD SWAP2 PUSH2 0xE40 JUMP JUMPDEST DUP3 ADD SWAP2 SWAP1 PUSH1 0x0 MSTORE PUSH1 0x20 PUSH1 0x0 KECCAK256 SWAP1 JUMPDEST DUP2 SLOAD DUP2 MSTORE SWAP1 PUSH1 0x1 ADD SWAP1 PUSH1 0x20 ADD DUP1 DUP4 GT PUSH2 0xE23 JUMPI DUP3 SWAP1 SUB PUSH1 0x1F AND DUP3 ADD SWAP2 JUMPDEST POP POP POP POP POP DUP2 JUMP JUMPDEST PUSH2 0xE50 PUSH2 0x16AF JUMP JUMPDEST PUSH1 0x0 DUP2 DUP2 MSTORE PUSH2 0x16C PUSH1 0x20 MSTORE PUSH1 0x40 DUP2 KECCAK256 DUP1 SLOAD PUSH2 0xE6A SWAP1 PUSH2 0x1FA2 JUMP JUMPDEST SWAP1 POP GT PUSH2 0xEB9 JUMPI PUSH1 0x40 MLOAD PUSH3 0x461BCD PUSH1 0xE5 SHL DUP2 MSTORE PUSH1 0x20 PUSH1 0x4 DUP3 ADD MSTORE PUSH1 0x1E PUSH1 0x24 DUP3 ADD MSTORE PUSH32 0x426C756669656C643A206669656C64206E6F7420726567697374657265640000 PUSH1 0x44 DUP3 ADD MSTORE PUSH1 0x64 ADD PUSH2 0xC7B JUMP JUMPDEST PUSH2 0x168 SLOAD PUSH1 0x40 MLOAD PUSH4 0x31A9108F PUSH1 0xE1 SHL DUP2 MSTORE PUSH1 0x4 DUP2 ADD DUP4 SWAP1 MSTORE PUSH1 0x0 SWAP2 PUSH1 0x1 PUSH1 0x1 PUSH1 0xA0 SHL SUB AND SWAP1 PUSH4 0x6352211E SWAP1 PUSH1 0x24 ADD PUSH1 0x20 PUSH1 0x40 MLOAD DUP1 DUP4 SUB DUP2 DUP7 GAS STATICCALL ISZERO DUP1 ISZERO PUSH2 0xF04 JUMPI RETURNDATASIZE PUSH1 0x0 DUP1 RETURNDATACOPY RETURNDATASIZE PUSH1 0x0 REVERT JUMPDEST POP POP POP POP PUSH1 0x40 MLOAD RETURNDATASIZE PUSH1 0x1F NOT PUSH1 0x1F DUP3 ADD AND DUP3 ADD DUP1 PUSH1 0x40 MSTORE POP DUP2 ADD SWAP1 PUSH2 0xF28 SWAP2 SWAP1 PUSH2 0x200E JUMP JUMPDEST SWAP1 POP PUSH1 0x1 PUSH1 0x1 PUSH1 0xA0 SHL SUB DUP2 AND PUSH2 0xF90 JUMPI PUSH1 0x40 MLOAD PUSH3 0x461BCD PUSH1 0xE5 SHL DUP2 MSTORE PUSH1 0x20 PUSH1 0x4 DUP3 ADD MSTORE PUSH1 0x27 PUSH1 0x24 DUP3 ADD MSTORE PUSH32 0x426C756669656C643A2063616E6E6F742073756273637269626520746F206F77 PUSH1 0x44 DUP3 ADD MSTORE PUSH7 0x1B88199A595B19 PUSH1 0xCA SHL PUSH1 0x64 DUP3 ADD MSTORE PUSH1 0x84 ADD PUSH2 0xC7B JUMP JUMPDEST PUSH1 0x0 DUP3 DUP2 MSTORE PUSH2 0x16E PUSH1 0x20 MSTORE PUSH1 0x40 DUP2 KECCAK256 SLOAD SWAP1 PUSH2 0xFA9 PUSH2 0x1846 JUMP JUMPDEST SWAP1 POP PUSH2 0xFB5 DUP2 DUP4 PUSH2 0x2041 JUMP JUMPDEST CALLVALUE LT ISZERO PUSH2 0x1004 JUMPI PUSH1 0x40 MLOAD PUSH3 0x461BCD PUSH1 0xE5 SHL DUP2 MSTORE PUSH1 0x20 PUSH1 0x4 DUP3 ADD MSTORE PUSH1 0x1E PUSH1 0x24 DUP3 ADD MSTORE PUSH32 0x426C756669656C643A20696E73756666696369656E74207061796D656E740000 PUSH1 0x44 DUP3 ADD MSTORE PUSH1 0x64 ADD PUSH2 0xC7B JUMP JUMPDEST PUSH2 0x169 SLOAD PUSH1 0x40 MLOAD PUSH3 0x7EEAC7 PUSH1 0xE1 SHL DUP2 MSTORE CALLER PUSH1 0x4 DUP3 ADD MSTORE PUSH1 0x24 DUP2 ADD DUP7 SWAP1 MSTORE PUSH1 0x0 SWAP2 DUP3 SWAP2 DUP3 SWAP2 PUSH1 0x1 PUSH1 0x1 PUSH1 0xA0 SHL SUB AND SWAP1 PUSH3 0xFDD58E SWAP1 PUSH1 0x44 ADD PUSH1 0x20 PUSH1 0x40 MLOAD DUP1 DUP4 SUB DUP2 DUP7 GAS STATICCALL ISZERO DUP1 ISZERO PUSH2 0x1057 JUMPI RETURNDATASIZE PUSH1 0x0 DUP1 RETURNDATACOPY RETURNDATASIZE PUSH1 0x0 REVERT JUMPDEST POP POP POP POP PUSH1 0x40 MLOAD RETURNDATASIZE PUSH1 0x1F NOT PUSH1 0x1F DUP3 ADD AND DUP3 ADD DUP1 PUSH1 0x40 MSTORE POP DUP2 ADD SWAP1 PUSH2 0x107B SWAP2 SWAP1 PUSH2 0x205A JUMP JUMPDEST SWAP1 POP DUP1 PUSH1 0x0 SUB PUSH2 0x109D JUMPI PUSH2 0x1092 TIMESTAMP PUSH3 0x278D00 PUSH2 0x2041 JUMP JUMPDEST SWAP3 POP PUSH1 0x0 SWAP2 POP PUSH2 0x1119 JUMP JUMPDEST CALLER PUSH1 0x0 SWAP1 DUP2 MSTORE PUSH2 0x16F PUSH1 0x20 SWAP1 DUP2 MSTORE PUSH1 0x40 DUP1 DUP4 KECCAK256 DUP11 DUP5 MSTORE SWAP1 SWAP2 MSTORE SWAP1 KECCAK256 SLOAD TIMESTAMP PUSH1 0x1 PUSH1 0x1 PUSH1 0x40 SHL SUB SWAP1 SWAP2 AND GT ISZERO PUSH2 0x1104 JUMPI CALLER PUSH1 0x0 SWAP1 DUP2 MSTORE PUSH2 0x16F PUSH1 0x20 SWAP1 DUP2 MSTORE PUSH1 0x40 DUP1 DUP4 KECCAK256 DUP11 DUP5 MSTORE SWAP1 SWAP2 MSTORE SWAP1 KECCAK256 SLOAD PUSH2 0x10FD SWAP1 PUSH1 0x1 PUSH1 0x1 PUSH1 0x40 SHL SUB AND PUSH3 0x278D00 PUSH2 0x2073 JUMP JUMPDEST SWAP3 POP PUSH2 0x1114 JUMP JUMPDEST PUSH2 0x1111 TIMESTAMP PUSH3 0x278D00 PUSH2 0x2041 JUMP JUMPDEST SWAP3 POP JUMPDEST PUSH1 0x2 SWAP2 POP JUMPDEST PUSH1 0x40 DUP1 MLOAD PUSH1 0x1 DUP1 DUP3 MSTORE DUP2 DUP4 ADD SWAP1 SWAP3 MSTORE PUSH1 0x0 SWAP2 PUSH1 0x20 DUP1 DUP4 ADD SWAP1 DUP1 CALLDATASIZE DUP4 CALLDATACOPY POP POP PUSH1 0x40 DUP1 MLOAD PUSH1 0x1 DUP1 DUP3 MSTORE DUP2 DUP4 ADD SWAP1 SWAP3 MSTORE SWAP3 SWAP4 POP PUSH1 0x0 SWAP3 SWAP2 POP PUSH1 0x20 DUP1 DUP4 ADD SWAP1 DUP1 CALLDATASIZE DUP4 CALLDATACOPY ADD SWAP1 POP POP SWAP1 POP CALLER DUP3 PUSH1 0x0 DUP2 MLOAD DUP2 LT PUSH2 0x1172 JUMPI PUSH2 0x1172 PUSH2 0x209A JUMP JUMPDEST PUSH1 0x20 MUL PUSH1 0x20 ADD ADD SWAP1 PUSH1 0x1 PUSH1 0x1 PUSH1 0xA0 SHL SUB AND SWAP1 DUP2 PUSH1 0x1 PUSH1 0x1 PUSH1 0xA0 SHL SUB AND DUP2 MSTORE POP POP DUP5 DUP2 PUSH1 0x0 DUP2 MLOAD DUP2 LT PUSH2 0x11A6 JUMPI PUSH2 0x11A6 PUSH2 0x209A JUMP JUMPDEST PUSH1 0x20 MUL PUSH1 0x20 ADD ADD SWAP1 PUSH1 0x1 PUSH1 0x1 PUSH1 0x40 SHL SUB AND SWAP1 DUP2 PUSH1 0x1 PUSH1 0x1 PUSH1 0x40 SHL SUB AND DUP2 MSTORE POP POP PUSH2 0x11D3 DUP9 DUP11 DUP7 DUP6 DUP6 PUSH2 0x196E JUMP JUMPDEST POP POP POP POP POP POP POP POP PUSH2 0x8FC PUSH1 0x1 PUSH2 0x136 SSTORE JUMP JUMPDEST PUSH2 0x11EE PUSH2 0x16AF JUMP JUMPDEST PUSH2 0x168 SLOAD PUSH1 0x40 MLOAD PUSH4 0x31A9108F PUSH1 0xE1 SHL DUP2 MSTORE PUSH1 0x4 DUP2 ADD DUP5 SWAP1 MSTORE CALLER SWAP2 PUSH1 0x1 PUSH1 0x1 PUSH1 0xA0 SHL SUB AND SWAP1 PUSH4 0x6352211E SWAP1 PUSH1 0x24 ADD PUSH1 0x20 PUSH1 0x40 MLOAD DUP1 DUP4 SUB DUP2 DUP7 GAS STATICCALL ISZERO DUP1 ISZERO PUSH2 0x1238 JUMPI RETURNDATASIZE PUSH1 0x0 DUP1 RETURNDATACOPY RETURNDATASIZE PUSH1 0x0 REVERT JUMPDEST POP POP POP POP PUSH1 0x40 MLOAD RETURNDATASIZE PUSH1 0x1F NOT PUSH1 0x1F DUP3 ADD AND DUP3 ADD DUP1 PUSH1 0x40 MSTORE POP DUP2 ADD SWAP1 PUSH2 0x125C SWAP2 SWAP1 PUSH2 0x200E JUMP JUMPDEST PUSH1 0x1 PUSH1 0x1 PUSH1 0xA0 SHL SUB AND EQ PUSH2 0x12A8 JUMPI PUSH1 0x40 MLOAD PUSH3 0x461BCD PUSH1 0xE5 SHL DUP2 MSTORE PUSH1 0x20 PUSH1 0x4 DUP3 ADD MSTORE PUSH1 0x13 PUSH1 0x24 DUP3 ADD MSTORE PUSH19 0x21363AB334B2B6321D103737BA1037BBB732B9 PUSH1 0x69 SHL PUSH1 0x44 DUP3 ADD MSTORE PUSH1 0x64 ADD PUSH2 0xC7B JUMP JUMPDEST DUP3 PUSH2 0x12F5 JUMPI PUSH1 0x40 MLOAD PUSH3 0x461BCD PUSH1 0xE5 SHL DUP2 MSTORE PUSH1 0x20 PUSH1 0x4 DUP3 ADD MSTORE PUSH1 0x17 PUSH1 0x24 DUP3 ADD MSTORE PUSH32 0x426C756669656C643A206E616D6520697320656D707479000000000000000000 PUSH1 0x44 DUP3 ADD MSTORE PUSH1 0x64 ADD PUSH2 0xC7B JUMP JUMPDEST CALLER PUSH1 0x0 SWAP1 DUP2 MSTORE PUSH2 0x16B PUSH1 0x20 MSTORE PUSH1 0x40 SWAP1 KECCAK256 SLOAD ISZERO PUSH2 0x1353 JUMPI PUSH1 0x40 MLOAD PUSH3 0x461BCD PUSH1 0xE5 SHL DUP2 MSTORE PUSH1 0x20 PUSH1 0x4 DUP3 ADD MSTORE PUSH1 0x1C PUSH1 0x24 DUP3 ADD MSTORE PUSH32 0x426C756669656C643A20616C7265616479207265676973746572656400000000 PUSH1 0x44 DUP3 ADD MSTORE PUSH1 0x64 ADD PUSH2 0xC7B JUMP JUMPDEST PUSH2 0x16D DUP5 DUP5 PUSH1 0x40 MLOAD PUSH2 0x1366 SWAP3 SWAP2 SWAP1 PUSH2 0x20B0 JUMP JUMPDEST SWAP1 DUP2 MSTORE PUSH1 0x20 ADD PUSH1 0x40 MLOAD DUP1 SWAP2 SUB SWAP1 KECCAK256 SLOAD PUSH1 0x0 EQ PUSH2 0x13C4 JUMPI PUSH1 0x40 MLOAD PUSH3 0x461BCD PUSH1 0xE5 SHL DUP2 MSTORE PUSH1 0x20 PUSH1 0x4 DUP3 ADD MSTORE PUSH1 0x1C PUSH1 0x24 DUP3 ADD MSTORE PUSH32 0x426C756669656C643A206E616D6520616C72656164792074616B656E00000000 PUSH1 0x44 DUP3 ADD MSTORE PUSH1 0x64 ADD PUSH2 0xC7B JUMP JUMPDEST PUSH1 0x0 DUP2 GT PUSH2 0x1414 JUMPI PUSH1 0x40 MLOAD PUSH3 0x461BCD PUSH1 0xE5 SHL DUP2 MSTORE PUSH1 0x20 PUSH1 0x4 DUP3 ADD MSTORE PUSH1 0x17 PUSH1 0x24 DUP3 ADD MSTORE PUSH32 0x426C756669656C643A207072696365206973207A65726F000000000000000000 PUSH1 0x44 DUP3 ADD MSTORE PUSH1 0x64 ADD PUSH2 0xC7B JUMP JUMPDEST CALLER PUSH1 0x0 SWAP1 DUP2 MSTORE PUSH2 0x16B PUSH1 0x20 SWAP1 DUP2 MSTORE PUSH1 0x40 DUP1 DUP4 KECCAK256 DUP6 SWAP1 SSTORE DUP5 DUP4 MSTORE PUSH2 0x16C SWAP1 SWAP2 MSTORE SWAP1 KECCAK256 PUSH2 0x1440 DUP5 DUP7 DUP4 PUSH2 0x2106 JUMP JUMPDEST POP DUP2 PUSH2 0x16D DUP6 DUP6 PUSH1 0x40 MLOAD PUSH2 0x1455 SWAP3 SWAP2 SWAP1 PUSH2 0x20B0 JUMP JUMPDEST SWAP1 DUP2 MSTORE PUSH1 0x40 DUP1 MLOAD PUSH1 0x20 SWAP3 DUP2 SWAP1 SUB DUP4 ADD SWAP1 KECCAK256 SWAP3 SWAP1 SWAP3 SSTORE PUSH1 0x0 SWAP4 DUP5 MSTORE PUSH2 0x16E SWAP1 MSTORE SWAP1 SWAP2 KECCAK256 SSTORE POP POP PUSH1 0x1 PUSH2 0x136 SSTORE JUMP JUMPDEST PUSH1 0x0 SLOAD PUSH2 0x100 SWAP1 DIV PUSH1 0xFF AND ISZERO DUP1 DUP1 ISZERO PUSH2 0x14A2 JUMPI POP PUSH1 0x0 SLOAD PUSH1 0x1 PUSH1 0xFF SWAP1 SWAP2 AND LT JUMPDEST DUP1 PUSH2 0x14BC JUMPI POP ADDRESS EXTCODESIZE ISZERO DUP1 ISZERO PUSH2 0x14BC JUMPI POP PUSH1 0x0 SLOAD PUSH1 0xFF AND PUSH1 0x1 EQ JUMPDEST PUSH2 0x151F JUMPI PUSH1 0x40 MLOAD PUSH3 0x461BCD PUSH1 0xE5 SHL DUP2 MSTORE PUSH1 0x20 PUSH1 0x4 DUP3 ADD MSTORE PUSH1 0x2E PUSH1 0x24 DUP3 ADD MSTORE PUSH32 0x496E697469616C697A61626C653A20636F6E747261637420697320616C726561 PUSH1 0x44 DUP3 ADD MSTORE PUSH14 0x191E481A5B9A5D1A585B1A5E9959 PUSH1 0x92 SHL PUSH1 0x64 DUP3 ADD MSTORE PUSH1 0x84 ADD PUSH2 0xC7B JUMP JUMPDEST PUSH1 0x0 DUP1 SLOAD PUSH1 0xFF NOT AND PUSH1 0x1 OR SWAP1 SSTORE DUP1 ISZERO PUSH2 0x1542 JUMPI PUSH1 0x0 DUP1 SLOAD PUSH2 0xFF00 NOT AND PUSH2 0x100 OR SWAP1 SSTORE JUMPDEST DUP5 PUSH1 0x1 PUSH1 0x1 PUSH1 0xA0 SHL SUB AND PUSH4 0x77A714AE PUSH1 0x40 MLOAD DUP2 PUSH4 0xFFFFFFFF AND PUSH1 0xE0 SHL DUP2 MSTORE PUSH1 0x4 ADD PUSH1 0x20 PUSH1 0x40 MLOAD DUP1 DUP4 SUB DUP2 DUP7 GAS STATICCALL ISZERO DUP1 ISZERO PUSH2 0x1580 JUMPI RETURNDATASIZE PUSH1 0x0 DUP1 RETURNDATACOPY RETURNDATASIZE PUSH1 0x0 REVERT JUMPDEST POP POP POP POP PUSH1 0x40 MLOAD RETURNDATASIZE PUSH1 0x1F NOT PUSH1 0x1F DUP3 ADD AND DUP3 ADD DUP1 PUSH1 0x40 MSTORE POP DUP2 ADD SWAP1 PUSH2 0x15A4 SWAP2 SWAP1 PUSH2 0x200E JUMP JUMPDEST PUSH2 0x168 PUSH1 0x0 PUSH2 0x100 EXP DUP2 SLOAD DUP2 PUSH1 0x1 PUSH1 0x1 PUSH1 0xA0 SHL SUB MUL NOT AND SWAP1 DUP4 PUSH1 0x1 PUSH1 0x1 PUSH1 0xA0 SHL SUB AND MUL OR SWAP1 SSTORE POP DUP5 PUSH1 0x1 PUSH1 0x1 PUSH1 0xA0 SHL SUB AND PUSH4 0x73EE4508 PUSH1 0x40 MLOAD DUP2 PUSH4 0xFFFFFFFF AND PUSH1 0xE0 SHL DUP2 MSTORE PUSH1 0x4 ADD PUSH1 0x20 PUSH1 0x40 MLOAD DUP1 DUP4 SUB DUP2 DUP7 GAS STATICCALL ISZERO DUP1 ISZERO PUSH2 0x1609 JUMPI RETURNDATASIZE PUSH1 0x0 DUP1 RETURNDATACOPY RETURNDATASIZE PUSH1 0x0 REVERT JUMPDEST POP POP POP POP PUSH1 0x40 MLOAD RETURNDATASIZE PUSH1 0x1F NOT PUSH1 0x1F DUP3 ADD AND DUP3 ADD DUP1 PUSH1 0x40 MSTORE POP DUP2 ADD SWAP1 PUSH2 0x162D SWAP2 SWAP1 PUSH2 0x200E JUMP JUMPDEST PUSH2 0x169 DUP1 SLOAD PUSH1 0x1 PUSH1 0x1 PUSH1 0xA0 SHL SUB NOT AND PUSH1 0x1 PUSH1 0x1 PUSH1 0xA0 SHL SUB SWAP3 SWAP1 SWAP3 AND SWAP2 SWAP1 SWAP2 OR SWAP1 SSTORE PUSH2 0x1659 DUP5 DUP5 DUP5 PUSH2 0x1AB0 JUMP JUMPDEST PUSH2 0x1662 DUP6 PUSH2 0x1B32 JUMP JUMPDEST DUP1 ISZERO PUSH2 0x16A8 JUMPI PUSH1 0x0 DUP1 SLOAD PUSH2 0xFF00 NOT AND SWAP1 SSTORE PUSH1 0x40 MLOAD PUSH1 0x1 DUP2 MSTORE PUSH32 0x7F26B83FF96E1F2B6A682F133852F6798A09C465DA95921460CEFB3847402498 SWAP1 PUSH1 0x20 ADD PUSH1 0x40 MLOAD DUP1 SWAP2 SUB SWAP1 LOG1 JUMPDEST POP POP POP POP POP JUMP JUMPDEST PUSH1 0x2 PUSH2 0x136 SLOAD SUB PUSH2 0x1702 JUMPI PUSH1 0x40 MLOAD PUSH3 0x461BCD PUSH1 0xE5 SHL DUP2 MSTORE PUSH1 0x20 PUSH1 0x4 DUP3 ADD MSTORE PUSH1 0x1F PUSH1 0x24 DUP3 ADD MSTORE PUSH32 0x5265656E7472616E637947756172643A207265656E7472616E742063616C6C00 PUSH1 0x44 DUP3 ADD MSTORE PUSH1 0x64 ADD PUSH2 0xC7B JUMP JUMPDEST PUSH1 0x2 PUSH2 0x136 SSTORE JUMP JUMPDEST PUSH1 0x1 NOT PUSH1 0xFF DUP6 AND ADD PUSH2 0x175C JUMPI PUSH2 0x1757 DUP6 DUP5 DUP5 DUP5 DUP1 DUP1 PUSH1 0x1F ADD PUSH1 0x20 DUP1 SWAP2 DIV MUL PUSH1 0x20 ADD PUSH1 0x40 MLOAD SWAP1 DUP2 ADD PUSH1 0x40 MSTORE DUP1 SWAP4 SWAP3 SWAP2 SWAP1 DUP2 DUP2 MSTORE PUSH1 0x20 ADD DUP4 DUP4 DUP1 DUP3 DUP5 CALLDATACOPY PUSH1 0x0 SWAP3 ADD SWAP2 SWAP1 SWAP2 MSTORE POP PUSH2 0x1B7C SWAP3 POP POP POP JUMP JUMPDEST PUSH2 0x16A8 JUMP JUMPDEST PUSH1 0x2 NOT PUSH1 0xFF DUP6 AND ADD PUSH2 0x17A9 JUMPI PUSH2 0x1757 DUP6 DUP5 DUP5 DUP5 DUP1 DUP1 PUSH1 0x1F ADD PUSH1 0x20 DUP1 SWAP2 DIV MUL PUSH1 0x20 ADD PUSH1 0x40 MLOAD SWAP1 DUP2 ADD PUSH1 0x40 MSTORE DUP1 SWAP4 SWAP3 SWAP2 SWAP1 DUP2 DUP2 MSTORE PUSH1 0x20 ADD DUP4 DUP4 DUP1 DUP3 DUP5 CALLDATACOPY PUSH1 0x0 SWAP3 ADD SWAP2 SWAP1 SWAP2 MSTORE POP PUSH2 0x1B7C SWAP3 POP POP POP JUMP JUMPDEST PUSH1 0x3 NOT PUSH1 0xFF DUP6 AND ADD PUSH2 0x17F6 JUMPI PUSH2 0x1757 DUP6 DUP5 DUP5 DUP5 DUP1 DUP1 PUSH1 0x1F ADD PUSH1 0x20 DUP1 SWAP2 DIV MUL PUSH1 0x20 ADD PUSH1 0x40 MLOAD SWAP1 DUP2 ADD PUSH1 0x40 MSTORE DUP1 SWAP4 SWAP3 SWAP2 SWAP1 DUP2 DUP2 MSTORE PUSH1 0x20 ADD DUP4 DUP4 DUP1 DUP3 DUP5 CALLDATACOPY PUSH1 0x0 SWAP3 ADD SWAP2 SWAP1 SWAP2 MSTORE POP PUSH2 0x1B7C SWAP3 POP POP POP JUMP JUMPDEST PUSH1 0x40 MLOAD DUP1 PUSH1 0x40 ADD PUSH1 0x40 MSTORE DUP1 PUSH1 0x1 DUP2 MSTORE PUSH1 0x20 ADD PUSH1 0x19 PUSH1 0xF9 SHL DUP2 MSTORE POP PUSH1 0x40 MLOAD PUSH1 0x20 ADD PUSH2 0x1820 SWAP2 SWAP1 PUSH2 0x1FDC JUMP JUMPDEST PUSH1 0x40 DUP1 MLOAD PUSH1 0x1F NOT DUP2 DUP5 SUB ADD DUP2 MSTORE SWAP1 DUP3 SWAP1 MSTORE PUSH3 0x461BCD PUSH1 0xE5 SHL DUP3 MSTORE PUSH2 0xC7B SWAP2 PUSH1 0x4 ADD PUSH2 0x1BD1 JUMP JUMPDEST PUSH1 0x0 DUP1 PUSH1 0x0 PUSH1 0x9B PUSH1 0x0 SWAP1 SLOAD SWAP1 PUSH2 0x100 EXP SWAP1 DIV PUSH1 0x1 PUSH1 0x1 PUSH1 0xA0 SHL SUB AND PUSH1 0x1 PUSH1 0x1 PUSH1 0xA0 SHL SUB AND PUSH4 0x54912A97 PUSH1 0x40 MLOAD DUP2 PUSH4 0xFFFFFFFF AND PUSH1 0xE0 SHL DUP2 MSTORE PUSH1 0x4 ADD PUSH1 0x40 DUP1 MLOAD DUP1 DUP4 SUB DUP2 PUSH1 0x0 DUP8 GAS CALL ISZERO DUP1 ISZERO PUSH2 0x189F JUMPI RETURNDATASIZE PUSH1 0x0 DUP1 RETURNDATACOPY RETURNDATASIZE PUSH1 0x0 REVERT JUMPDEST POP POP POP POP PUSH1 0x40 MLOAD RETURNDATASIZE PUSH1 0x1F NOT PUSH1 0x1F DUP3 ADD AND DUP3 ADD DUP1 PUSH1 0x40 MSTORE POP DUP2 ADD SWAP1 PUSH2 0x18C3 SWAP2 SWAP1 PUSH2 0x21C5 JUMP JUMPDEST SWAP2 POP SWAP2 POP PUSH1 0x0 PUSH1 0x9B PUSH1 0x0 SWAP1 SLOAD SWAP1 PUSH2 0x100 EXP SWAP1 DIV PUSH1 0x1 PUSH1 0x1 PUSH1 0xA0 SHL SUB AND PUSH1 0x1 PUSH1 0x1 PUSH1 0xA0 SHL SUB AND PUSH4 0xBF903247 PUSH1 0x40 MLOAD DUP2 PUSH4 0xFFFFFFFF AND PUSH1 0xE0 SHL DUP2 MSTORE PUSH1 0x4 ADD PUSH1 0x20 PUSH1 0x40 MLOAD DUP1 DUP4 SUB DUP2 PUSH1 0x0 DUP8 GAS CALL ISZERO DUP1 ISZERO PUSH2 0x191E JUMPI RETURNDATASIZE PUSH1 0x0 DUP1 RETURNDATACOPY RETURNDATASIZE PUSH1 0x0 REVERT JUMPDEST POP POP POP POP PUSH1 0x40 MLOAD RETURNDATASIZE PUSH1 0x1F NOT PUSH1 0x1F DUP3 ADD AND DUP3 ADD DUP1 PUSH1 0x40 MSTORE POP DUP2 ADD SWAP1 PUSH2 0x1942 SWAP2 SWAP1 PUSH2 0x205A JUMP JUMPDEST SWAP1 POP DUP1 PUSH1 0x9C SLOAD PUSH2 0x1952 SWAP2 SWAP1 PUSH2 0x21E9 JUMP JUMPDEST PUSH2 0x195C DUP4 DUP6 PUSH2 0x2041 JUMP JUMPDEST PUSH2 0x1966 SWAP2 SWAP1 PUSH2 0x2041 JUMP JUMPDEST SWAP4 POP POP POP POP SWAP1 JUMP JUMPDEST PUSH1 0x0 PUSH1 0x40 MLOAD DUP1 PUSH1 0xC0 ADD PUSH1 0x40 MSTORE DUP1 DUP8 PUSH1 0x1 PUSH1 0x1 PUSH1 0xA0 SHL SUB AND DUP2 MSTORE PUSH1 0x20 ADD DUP7 DUP2 MSTORE PUSH1 0x20 ADD DUP6 PUSH1 0x2 DUP2 GT ISZERO PUSH2 0x19A2 JUMPI PUSH2 0x19A2 PUSH2 0x1C5F JUMP JUMPDEST DUP2 MSTORE PUSH1 0x20 ADD DUP5 DUP2 MSTORE PUSH1 0x20 ADD PUSH1 0x40 MLOAD DUP1 PUSH1 0x20 ADD PUSH1 0x40 MSTORE DUP1 PUSH1 0x0 DUP2 MSTORE POP DUP2 MSTORE PUSH1 0x20 ADD DUP4 DUP2 MSTORE POP SWAP1 POP PUSH1 0x0 PUSH2 0x19D2 PUSH2 0x1846 JUMP JUMPDEST SWAP1 POP DUP1 CALLVALUE LT ISZERO PUSH1 0x40 MLOAD DUP1 PUSH1 0x40 ADD PUSH1 0x40 MSTORE DUP1 PUSH1 0x1 DUP2 MSTORE PUSH1 0x20 ADD PUSH1 0x33 PUSH1 0xF8 SHL DUP2 MSTORE POP PUSH1 0x40 MLOAD PUSH1 0x20 ADD PUSH2 0x1A02 SWAP2 SWAP1 PUSH2 0x1FDC JUMP JUMPDEST PUSH1 0x40 MLOAD PUSH1 0x20 DUP2 DUP4 SUB SUB DUP2 MSTORE SWAP1 PUSH1 0x40 MSTORE SWAP1 PUSH2 0x1A2F JUMPI PUSH1 0x40 MLOAD PUSH3 0x461BCD PUSH1 0xE5 SHL DUP2 MSTORE PUSH1 0x4 ADD PUSH2 0xC7B SWAP2 SWAP1 PUSH2 0x1BD1 JUMP JUMPDEST POP PUSH2 0x103 SLOAD PUSH1 0x40 MLOAD PUSH4 0x2041BBF PUSH1 0xE5 SHL DUP2 MSTORE PUSH1 0x1 PUSH1 0x1 PUSH1 0xA0 SHL SUB SWAP1 SWAP2 AND SWAP1 PUSH4 0x408377E0 SWAP1 CALLVALUE SWAP1 PUSH2 0x1A63 SWAP1 DUP7 SWAP1 PUSH1 0x4 ADD PUSH2 0x2244 JUMP JUMPDEST PUSH1 0x20 PUSH1 0x40 MLOAD DUP1 DUP4 SUB DUP2 DUP6 DUP9 GAS CALL ISZERO DUP1 ISZERO PUSH2 0x1A81 JUMPI RETURNDATASIZE PUSH1 0x0 DUP1 RETURNDATACOPY RETURNDATASIZE PUSH1 0x0 REVERT JUMPDEST POP POP POP POP POP PUSH1 0x40 MLOAD RETURNDATASIZE PUSH1 0x1F NOT PUSH1 0x1F DUP3 ADD AND DUP3 ADD DUP1 PUSH1 0x40 MSTORE POP DUP2 ADD SWAP1 PUSH2 0x1AA6 SWAP2 SWAP1 PUSH2 0x22FC JUMP JUMPDEST POP POP POP POP POP POP POP POP JUMP JUMPDEST PUSH1 0x0 SLOAD PUSH2 0x100 SWAP1 DIV PUSH1 0xFF AND PUSH2 0x1AD7 JUMPI PUSH1 0x40 MLOAD PUSH3 0x461BCD PUSH1 0xE5 SHL DUP2 MSTORE PUSH1 0x4 ADD PUSH2 0xC7B SWAP1 PUSH2 0x231E JUMP JUMPDEST PUSH1 0x9B DUP1 SLOAD PUSH1 0x1 PUSH1 0x1 PUSH1 0xA0 SHL SUB NOT AND PUSH1 0x1 PUSH1 0x1 PUSH1 0xA0 SHL SUB DUP6 AND OR SWAP1 SSTORE PUSH1 0x9C DUP3 SWAP1 SSTORE PUSH1 0xFF DUP2 AND PUSH1 0x2 DUP2 GT ISZERO PUSH2 0x1B0C JUMPI PUSH2 0x1B0C PUSH2 0x1C5F JUMP JUMPDEST PUSH1 0x9D DUP1 SLOAD PUSH1 0xFF NOT AND PUSH1 0x1 DUP4 PUSH1 0x2 DUP2 GT ISZERO PUSH2 0x1B28 JUMPI PUSH2 0x1B28 PUSH2 0x1C5F JUMP JUMPDEST MUL OR SWAP1 SSTORE POP POP POP POP JUMP JUMPDEST PUSH1 0x0 SLOAD PUSH2 0x100 SWAP1 DIV PUSH1 0xFF AND PUSH2 0x1B59 JUMPI PUSH1 0x40 MLOAD PUSH3 0x461BCD PUSH1 0xE5 SHL DUP2 MSTORE PUSH1 0x4 ADD PUSH2 0xC7B SWAP1 PUSH2 0x231E JUMP JUMPDEST PUSH2 0x103 DUP1 SLOAD PUSH1 0x1 PUSH1 0x1 PUSH1 0xA0 SHL SUB NOT AND PUSH1 0x1 PUSH1 0x1 PUSH1 0xA0 SHL SUB SWAP3 SWAP1 SWAP3 AND SWAP2 SWAP1 SWAP2 OR SWAP1 SSTORE JUMP JUMPDEST POP POP POP JUMP JUMPDEST PUSH1 0x0 JUMPDEST DUP4 DUP2 LT ISZERO PUSH2 0x1B9C JUMPI DUP2 DUP2 ADD MLOAD DUP4 DUP3 ADD MSTORE PUSH1 0x20 ADD PUSH2 0x1B84 JUMP JUMPDEST POP POP PUSH1 0x0 SWAP2 ADD MSTORE JUMP JUMPDEST PUSH1 0x0 DUP2 MLOAD DUP1 DUP5 MSTORE PUSH2 0x1BBD DUP2 PUSH1 0x20 DUP7 ADD PUSH1 0x20 DUP7 ADD PUSH2 0x1B81 JUMP JUMPDEST PUSH1 0x1F ADD PUSH1 0x1F NOT AND SWAP3 SWAP1 SWAP3 ADD PUSH1 0x20 ADD SWAP3 SWAP2 POP POP JUMP JUMPDEST PUSH1 0x20 DUP2 MSTORE PUSH1 0x0 PUSH2 0x1BE4 PUSH1 0x20 DUP4 ADD DUP5 PUSH2 0x1BA5 JUMP JUMPDEST SWAP4 SWAP3 POP POP POP JUMP JUMPDEST PUSH1 0x0 PUSH1 0x20 DUP3 DUP5 SUB SLT ISZERO PUSH2 0x1BFD JUMPI PUSH1 0x0 DUP1 REVERT JUMPDEST POP CALLDATALOAD SWAP2 SWAP1 POP JUMP JUMPDEST PUSH1 0x1 DUP1 PUSH1 0xA0 SHL SUB DUP8 AND DUP2 MSTORE PUSH4 0xFFFFFFFF DUP7 AND PUSH1 0x20 DUP3 ADD MSTORE PUSH1 0xFF DUP6 AND PUSH1 0x40 DUP3 ADD MSTORE DUP4 PUSH1 0x60 DUP3 ADD MSTORE PUSH1 0xC0 PUSH1 0x80 DUP3 ADD MSTORE PUSH1 0x0 PUSH2 0x1C40 PUSH1 0xC0 DUP4 ADD DUP6 PUSH2 0x1BA5 JUMP JUMPDEST DUP3 DUP2 SUB PUSH1 0xA0 DUP5 ADD MSTORE PUSH2 0x1C52 DUP2 DUP6 PUSH2 0x1BA5 JUMP JUMPDEST SWAP10 SWAP9 POP POP POP POP POP POP POP POP POP JUMP JUMPDEST PUSH4 0x4E487B71 PUSH1 0xE0 SHL PUSH1 0x0 MSTORE PUSH1 0x21 PUSH1 0x4 MSTORE PUSH1 0x24 PUSH1 0x0 REVERT JUMPDEST PUSH1 0x3 DUP2 LT PUSH2 0x8FC JUMPI PUSH4 0x4E487B71 PUSH1 0xE0 SHL PUSH1 0x0 MSTORE PUSH1 0x21 PUSH1 0x4 MSTORE PUSH1 0x24 PUSH1 0x0 REVERT JUMPDEST PUSH1 0x20 DUP2 ADD PUSH2 0x1CA0 DUP4 PUSH2 0x1C75 JUMP JUMPDEST SWAP2 SWAP1 MSTORE SWAP1 JUMP JUMPDEST DUP1 CALLDATALOAD PUSH1 0xFF DUP2 AND DUP2 EQ PUSH2 0x1CB7 JUMPI PUSH1 0x0 DUP1 REVERT JUMPDEST SWAP2 SWAP1 POP JUMP JUMPDEST PUSH1 0x0 DUP1 DUP4 PUSH1 0x1F DUP5 ADD SLT PUSH2 0x1CCE JUMPI PUSH1 0x0 DUP1 REVERT JUMPDEST POP DUP2 CALLDATALOAD PUSH1 0x1 PUSH1 0x1 PUSH1 0x40 SHL SUB DUP2 GT ISZERO PUSH2 0x1CE5 JUMPI PUSH1 0x0 DUP1 REVERT JUMPDEST PUSH1 0x20 DUP4 ADD SWAP2 POP DUP4 PUSH1 0x20 DUP3 DUP6 ADD ADD GT ISZERO PUSH2 0x1CFD JUMPI PUSH1 0x0 DUP1 REVERT JUMPDEST SWAP3 POP SWAP3 SWAP1 POP JUMP JUMPDEST PUSH1 0x0 DUP1 PUSH1 0x0 DUP1 PUSH1 0x0 DUP1 PUSH1 0xA0 DUP8 DUP10 SUB SLT ISZERO PUSH2 0x1D1D JUMPI PUSH1 0x0 DUP1 REVERT JUMPDEST DUP7 CALLDATALOAD PUSH4 0xFFFFFFFF DUP2 AND DUP2 EQ PUSH2 0x1D31 JUMPI PUSH1 0x0 DUP1 REVERT JUMPDEST SWAP6 POP PUSH2 0x1D3F PUSH1 0x20 DUP9 ADD PUSH2 0x1CA6 JUMP JUMPDEST SWAP5 POP PUSH2 0x1D4D PUSH1 0x40 DUP9 ADD PUSH2 0x1CA6 JUMP JUMPDEST SWAP4 POP PUSH1 0x60 DUP8 ADD CALLDATALOAD SWAP3 POP PUSH1 0x80 DUP8 ADD CALLDATALOAD PUSH1 0x1 PUSH1 0x1 PUSH1 0x40 SHL SUB DUP2 GT ISZERO PUSH2 0x1D6F JUMPI PUSH1 0x0 DUP1 REVERT JUMPDEST PUSH2 0x1D7B DUP10 DUP3 DUP11 ADD PUSH2 0x1CBC JUMP JUMPDEST SWAP8 SWAP11 SWAP7 SWAP10 POP SWAP5 SWAP8 POP SWAP3 SWAP6 SWAP4 SWAP5 SWAP3 POP POP POP JUMP JUMPDEST PUSH1 0x1 PUSH1 0x1 PUSH1 0xA0 SHL SUB DUP2 AND DUP2 EQ PUSH2 0x8FC JUMPI PUSH1 0x0 DUP1 REVERT JUMPDEST PUSH1 0x0 PUSH1 0x20 DUP3 DUP5 SUB SLT ISZERO PUSH2 0x1DB4 JUMPI PUSH1 0x0 DUP1 REVERT JUMPDEST DUP2 CALLDATALOAD PUSH2 0x1BE4 DUP2 PUSH2 0x1D8D JUMP JUMPDEST PUSH4 0x4E487B71 PUSH1 0xE0 SHL PUSH1 0x0 MSTORE PUSH1 0x41 PUSH1 0x4 MSTORE PUSH1 0x24 PUSH1 0x0 REVERT JUMPDEST PUSH1 0x0 PUSH1 0x20 DUP3 DUP5 SUB SLT ISZERO PUSH2 0x1DE7 JUMPI PUSH1 0x0 DUP1 REVERT JUMPDEST DUP2 CALLDATALOAD PUSH1 0x1 PUSH1 0x1 PUSH1 0x40 SHL SUB DUP1 DUP3 GT ISZERO PUSH2 0x1DFE JUMPI PUSH1 0x0 DUP1 REVERT JUMPDEST DUP2 DUP5 ADD SWAP2 POP DUP5 PUSH1 0x1F DUP4 ADD SLT PUSH2 0x1E12 JUMPI PUSH1 0x0 DUP1 REVERT JUMPDEST DUP2 CALLDATALOAD DUP2 DUP2 GT ISZERO PUSH2 0x1E24 JUMPI PUSH2 0x1E24 PUSH2 0x1DBF JUMP JUMPDEST PUSH1 0x40 MLOAD PUSH1 0x1F DUP3 ADD PUSH1 0x1F NOT SWAP1 DUP2 AND PUSH1 0x3F ADD AND DUP2 ADD SWAP1 DUP4 DUP3 GT DUP2 DUP4 LT OR ISZERO PUSH2 0x1E4C JUMPI PUSH2 0x1E4C PUSH2 0x1DBF JUMP JUMPDEST DUP2 PUSH1 0x40 MSTORE DUP3 DUP2 MSTORE DUP8 PUSH1 0x20 DUP5 DUP8 ADD ADD GT ISZERO PUSH2 0x1E65 JUMPI PUSH1 0x0 DUP1 REVERT JUMPDEST DUP3 PUSH1 0x20 DUP7 ADD PUSH1 0x20 DUP4 ADD CALLDATACOPY PUSH1 0x0 SWAP3 DUP2 ADD PUSH1 0x20 ADD SWAP3 SWAP1 SWAP3 MSTORE POP SWAP6 SWAP5 POP POP POP POP POP JUMP JUMPDEST PUSH1 0x0 DUP1 PUSH1 0x40 DUP4 DUP6 SUB SLT ISZERO PUSH2 0x1E98 JUMPI PUSH1 0x0 DUP1 REVERT JUMPDEST DUP3 CALLDATALOAD PUSH2 0x1EA3 DUP2 PUSH2 0x1D8D JUMP JUMPDEST SWAP5 PUSH1 0x20 SWAP4 SWAP1 SWAP4 ADD CALLDATALOAD SWAP4 POP POP POP JUMP JUMPDEST DUP4 DUP2 MSTORE PUSH1 0x60 PUSH1 0x20 DUP3 ADD MSTORE PUSH1 0x0 PUSH2 0x1ECA PUSH1 0x60 DUP4 ADD DUP6 PUSH2 0x1BA5 JUMP JUMPDEST DUP3 DUP2 SUB PUSH1 0x40 DUP5 ADD MSTORE PUSH2 0x1EDC DUP2 DUP6 PUSH2 0x1BA5 JUMP JUMPDEST SWAP7 SWAP6 POP POP POP POP POP POP JUMP JUMPDEST PUSH1 0x0 DUP1 PUSH1 0x0 DUP1 PUSH1 0x60 DUP6 DUP8 SUB SLT ISZERO PUSH2 0x1EFC JUMPI PUSH1 0x0 DUP1 REVERT JUMPDEST DUP5 CALLDATALOAD PUSH1 0x1 PUSH1 0x1 PUSH1 0x40 SHL SUB DUP2 GT ISZERO PUSH2 0x1F12 JUMPI PUSH1 0x0 DUP1 REVERT JUMPDEST PUSH2 0x1F1E DUP8 DUP3 DUP9 ADD PUSH2 0x1CBC JUMP JUMPDEST SWAP1 SWAP9 SWAP1 SWAP8 POP PUSH1 0x20 DUP8 ADD CALLDATALOAD SWAP7 PUSH1 0x40 ADD CALLDATALOAD SWAP6 POP SWAP4 POP POP POP POP JUMP JUMPDEST PUSH1 0x0 PUSH1 0x20 DUP3 DUP5 SUB SLT ISZERO PUSH2 0x1F48 JUMPI PUSH1 0x0 DUP1 REVERT JUMPDEST PUSH2 0x1BE4 DUP3 PUSH2 0x1CA6 JUMP JUMPDEST PUSH1 0x0 DUP1 PUSH1 0x0 DUP1 PUSH1 0x80 DUP6 DUP8 SUB SLT ISZERO PUSH2 0x1F67 JUMPI PUSH1 0x0 DUP1 REVERT JUMPDEST DUP5 CALLDATALOAD PUSH2 0x1F72 DUP2 PUSH2 0x1D8D JUMP JUMPDEST SWAP4 POP PUSH1 0x20 DUP6 ADD CALLDATALOAD PUSH2 0x1F82 DUP2 PUSH2 0x1D8D JUMP JUMPDEST SWAP3 POP PUSH1 0x40 DUP6 ADD CALLDATALOAD SWAP2 POP PUSH2 0x1F97 PUSH1 0x60 DUP7 ADD PUSH2 0x1CA6 JUMP JUMPDEST SWAP1 POP SWAP3 SWAP6 SWAP2 SWAP5 POP SWAP3 POP JUMP JUMPDEST PUSH1 0x1 DUP2 DUP2 SHR SWAP1 DUP3 AND DUP1 PUSH2 0x1FB6 JUMPI PUSH1 0x7F DUP3 AND SWAP2 POP JUMPDEST PUSH1 0x20 DUP3 LT DUP2 SUB PUSH2 0x1FD6 JUMPI PUSH4 0x4E487B71 PUSH1 0xE0 SHL PUSH1 0x0 MSTORE PUSH1 0x22 PUSH1 0x4 MSTORE PUSH1 0x24 PUSH1 0x0 REVERT JUMPDEST POP SWAP2 SWAP1 POP JUMP JUMPDEST PUSH10 0x23B937BAB820B8381D1 PUSH1 0xB5 SHL DUP2 MSTORE PUSH1 0x0 DUP3 MLOAD PUSH2 0x2001 DUP2 PUSH1 0xA DUP6 ADD PUSH1 0x20 DUP8 ADD PUSH2 0x1B81 JUMP JUMPDEST SWAP2 SWAP1 SWAP2 ADD PUSH1 0xA ADD SWAP3 SWAP2 POP POP JUMP JUMPDEST PUSH1 0x0 PUSH1 0x20 DUP3 DUP5 SUB SLT ISZERO PUSH2 0x2020 JUMPI PUSH1 0x0 DUP1 REVERT JUMPDEST DUP2 MLOAD PUSH2 0x1BE4 DUP2 PUSH2 0x1D8D JUMP JUMPDEST PUSH4 0x4E487B71 PUSH1 0xE0 SHL PUSH1 0x0 MSTORE PUSH1 0x11 PUSH1 0x4 MSTORE PUSH1 0x24 PUSH1 0x0 REVERT JUMPDEST DUP1 DUP3 ADD DUP1 DUP3 GT ISZERO PUSH2 0x2054 JUMPI PUSH2 0x2054 PUSH2 0x202B JUMP JUMPDEST SWAP3 SWAP2 POP POP JUMP JUMPDEST PUSH1 0x0 PUSH1 0x20 DUP3 DUP5 SUB SLT ISZERO PUSH2 0x206C JUMPI PUSH1 0x0 DUP1 REVERT JUMPDEST POP MLOAD SWAP2 SWAP1 POP JUMP JUMPDEST PUSH1 0x1 PUSH1 0x1 PUSH1 0x40 SHL SUB DUP2 DUP2 AND DUP4 DUP3 AND ADD SWAP1 DUP1 DUP3 GT ISZERO PUSH2 0x2093 JUMPI PUSH2 0x2093 PUSH2 0x202B JUMP JUMPDEST POP SWAP3 SWAP2 POP POP JUMP JUMPDEST PUSH4 0x4E487B71 PUSH1 0xE0 SHL PUSH1 0x0 MSTORE PUSH1 0x32 PUSH1 0x4 MSTORE PUSH1 0x24 PUSH1 0x0 REVERT JUMPDEST DUP2 DUP4 DUP3 CALLDATACOPY PUSH1 0x0 SWAP2 ADD SWAP1 DUP2 MSTORE SWAP2 SWAP1 POP JUMP JUMPDEST PUSH1 0x1F DUP3 GT ISZERO PUSH2 0x1B7C JUMPI PUSH1 0x0 DUP2 DUP2 MSTORE PUSH1 0x20 DUP2 KECCAK256 PUSH1 0x1F DUP6 ADD PUSH1 0x5 SHR DUP2 ADD PUSH1 0x20 DUP7 LT ISZERO PUSH2 0x20E7 JUMPI POP DUP1 JUMPDEST PUSH1 0x1F DUP6 ADD PUSH1 0x5 SHR DUP3 ADD SWAP2 POP JUMPDEST DUP2 DUP2 LT ISZERO PUSH2 0xDA5 JUMPI DUP3 DUP2 SSTORE PUSH1 0x1 ADD PUSH2 0x20F3 JUMP JUMPDEST PUSH1 0x1 PUSH1 0x1 PUSH1 0x40 SHL SUB DUP4 GT ISZERO PUSH2 0x211D JUMPI PUSH2 0x211D PUSH2 0x1DBF JUMP JUMPDEST PUSH2 0x2131 DUP4 PUSH2 0x212B DUP4 SLOAD PUSH2 0x1FA2 JUMP JUMPDEST DUP4 PUSH2 0x20C0 JUMP JUMPDEST PUSH1 0x0 PUSH1 0x1F DUP5 GT PUSH1 0x1 DUP2 EQ PUSH2 0x2165 JUMPI PUSH1 0x0 DUP6 ISZERO PUSH2 0x214D JUMPI POP DUP4 DUP3 ADD CALLDATALOAD JUMPDEST PUSH1 0x0 NOT PUSH1 0x3 DUP8 SWAP1 SHL SHR NOT AND PUSH1 0x1 DUP7 SWAP1 SHL OR DUP4 SSTORE PUSH2 0x16A8 JUMP JUMPDEST PUSH1 0x0 DUP4 DUP2 MSTORE PUSH1 0x20 SWAP1 KECCAK256 PUSH1 0x1F NOT DUP7 AND SWAP1 DUP4 JUMPDEST DUP3 DUP2 LT ISZERO PUSH2 0x2196 JUMPI DUP7 DUP6 ADD CALLDATALOAD DUP3 SSTORE PUSH1 0x20 SWAP5 DUP6 ADD SWAP5 PUSH1 0x1 SWAP1 SWAP3 ADD SWAP2 ADD PUSH2 0x2176 JUMP JUMPDEST POP DUP7 DUP3 LT ISZERO PUSH2 0x21B3 JUMPI PUSH1 0x0 NOT PUSH1 0xF8 DUP9 PUSH1 0x3 SHL AND SHR NOT DUP5 DUP8 ADD CALLDATALOAD AND DUP2 SSTORE JUMPDEST POP POP PUSH1 0x1 DUP6 PUSH1 0x1 SHL ADD DUP4 SSTORE POP POP POP POP POP JUMP JUMPDEST PUSH1 0x0 DUP1 PUSH1 0x40 DUP4 DUP6 SUB SLT ISZERO PUSH2 0x21D8 JUMPI PUSH1 0x0 DUP1 REVERT JUMPDEST POP POP DUP1 MLOAD PUSH1 0x20 SWAP1 SWAP2 ADD MLOAD SWAP1 SWAP3 SWAP1 SWAP2 POP JUMP JUMPDEST DUP1 DUP3 MUL DUP2 ISZERO DUP3 DUP3 DIV DUP5 EQ OR PUSH2 0x2054 JUMPI PUSH2 0x2054 PUSH2 0x202B JUMP JUMPDEST PUSH1 0x0 DUP2 MLOAD DUP1 DUP5 MSTORE PUSH1 0x20 DUP1 DUP6 ADD SWAP5 POP DUP1 DUP5 ADD PUSH1 0x0 JUMPDEST DUP4 DUP2 LT ISZERO PUSH2 0x2239 JUMPI DUP2 MLOAD PUSH1 0x1 PUSH1 0x1 PUSH1 0x40 SHL SUB AND DUP8 MSTORE SWAP6 DUP3 ADD SWAP6 SWAP1 DUP3 ADD SWAP1 PUSH1 0x1 ADD PUSH2 0x2214 JUMP JUMPDEST POP SWAP5 SWAP6 SWAP5 POP POP POP POP POP JUMP JUMPDEST PUSH1 0x0 PUSH1 0x20 DUP1 DUP4 MSTORE PUSH1 0xE0 DUP4 ADD PUSH1 0x1 DUP1 PUSH1 0xA0 SHL SUB DUP1 DUP7 MLOAD AND DUP4 DUP7 ADD MSTORE DUP3 DUP7 ADD MLOAD PUSH1 0x40 DUP7 ADD MSTORE PUSH1 0x40 DUP7 ADD MLOAD PUSH2 0x2275 DUP2 PUSH2 0x1C75 JUMP JUMPDEST PUSH1 0x60 DUP7 DUP2 ADD SWAP2 SWAP1 SWAP2 MSTORE DUP7 ADD MLOAD PUSH1 0xC0 PUSH1 0x80 DUP8 ADD MSTORE DUP1 MLOAD SWAP3 DUP4 SWAP1 MSTORE DUP4 ADD SWAP2 PUSH1 0x0 SWAP1 PUSH2 0x100 DUP8 ADD SWAP1 JUMPDEST DUP1 DUP4 LT ISZERO PUSH2 0x22BD JUMPI DUP5 MLOAD DUP5 AND DUP3 MSTORE SWAP4 DUP6 ADD SWAP4 PUSH1 0x1 SWAP3 SWAP1 SWAP3 ADD SWAP2 SWAP1 DUP6 ADD SWAP1 PUSH2 0x229B JUMP JUMPDEST POP PUSH1 0x80 DUP9 ADD MLOAD SWAP5 POP PUSH1 0x1F NOT SWAP4 POP DUP4 DUP8 DUP3 SUB ADD PUSH1 0xA0 DUP9 ADD MSTORE PUSH2 0x22DE DUP2 DUP7 PUSH2 0x1BA5 JUMP JUMPDEST SWAP5 POP POP POP POP PUSH1 0xA0 DUP6 ADD MLOAD DUP2 DUP6 DUP5 SUB ADD PUSH1 0xC0 DUP7 ADD MSTORE PUSH2 0x1EDC DUP4 DUP3 PUSH2 0x2200 JUMP JUMPDEST PUSH1 0x0 PUSH1 0x20 DUP3 DUP5 SUB SLT ISZERO PUSH2 0x230E JUMPI PUSH1 0x0 DUP1 REVERT JUMPDEST DUP2 MLOAD DUP1 ISZERO ISZERO DUP2 EQ PUSH2 0x1BE4 JUMPI PUSH1 0x0 DUP1 REVERT JUMPDEST PUSH1 0x20 DUP1 DUP3 MSTORE PUSH1 0x2B SWAP1 DUP3 ADD MSTORE PUSH32 0x496E697469616C697A61626C653A20636F6E7472616374206973206E6F742069 PUSH1 0x40 DUP3 ADD MSTORE PUSH11 0x6E697469616C697A696E67 PUSH1 0xA8 SHL PUSH1 0x60 DUP3 ADD MSTORE PUSH1 0x80 ADD SWAP1 JUMP INVALID LOG2 PUSH5 0x6970667358 0x22 SLT KECCAK256 0xDA SLT 0xD1 0xE0 0xAB 0xAF SDIV PUSH21 0x8AA2AB264CC67612A26F04D997ADEBE37FAF36B1C2 CALLER 0xE5 0x22 PUSH5 0x736F6C6343 STOP ADDMOD EQ STOP CALLER "},"methodIdentifiers":{"AUTH_CODE_CREATE()":"3a0f4bf8","AUTH_CODE_DELETE()":"5d83a5aa","AUTH_CODE_UPDATE()":"8c3cb902","BUCKET_CHANNEL_ID()":"73f1e3c3","BUCKET_HUB()":"7afffdd2","CROSS_CHAIN()":"557cf477","EMERGENCY_OPERATOR()":"46ab84e5","EMERGENCY_UPGRADE_OPERATOR()":"b8e43b33","ERC1155Token()":"73ee4508","ERC721Token()":"77a714ae","ERROR_INSUFFICIENT_VALUE()":"ce1ddb6c","ERROR_INVALID_CALLER()":"e52a6718","ERROR_INVALID_OPERATION()":"189e8102","ERROR_INVALID_RESOURCE()":"50704a50","GOV_CHANNEL_ID()":"81d91480","GOV_HUB()":"a9dae71c","GROUP_CHANNEL_ID()":"e02e86b0","GROUP_HUB()":"46934fc8","GROUP_TOKEN()":"1a12138f","INIT_MAX_CALLBACK_DATA_LENGTH()":"61bbd6dd","LIGHT_CLIENT()":"e613ae00","MAX_CALLBACK_GAS_LIMIT()":"39c33215","MEMBER_TOKEN()":"012927c0","OBJECT_CHANNEL_ID()":"eac78b33","OBJECT_HUB()":"7d2e3084","PROXY_ADMIN()":"ed9bc82a","RELAYER_HUB()":"b9d86913","RESOURCE_GROUP()":"fdd562b8","ROLE_CREATE()":"12629faf","ROLE_DELETE()":"c71f64e4","ROLE_UPDATE()":"feb3a68a","STATUS_FAILED()":"c8b01e6f","STATUS_SUCCESS()":"8855e092","STATUS_UNEXPECTED()":"f2223c02","TOKEN_HUB()":"6d3358a1","TRANSFER_IN_CHANNEL_ID()":"cc12eabc","TRANSFER_OUT_CHANNEL_ID()":"618d569c","TYPE_CREATE()":"edabb0a3","TYPE_DELETE()":"e8449116","TYPE_MIRROR()":"09d1be19","TYPE_UPDATE()":"b32f787b","additional()":"e8ea79c0","callbackGasLimit()":"24f74697","channelId()":"e2cee544","creationFee()":"dce0b4e4","crossChain()":"4917db66","expirationOfUserSubscription(address,uint256)":"8f8ea384","failureHandleStrategy()":"39a25290","fieldIdOfUser(address)":"d271250e","fieldIdToName(uint256)":"5bb58b17","fieldNameToId(string)":"778afbb7","greenfieldCall(uint32,uint8,uint8,uint256,bytes)":"459af3aa","groupHub()":"9142d7fb","initialize(address,address,uint256,uint8)":"c64ca020","maxCallbackDataLength()":"142c2f44","packageMap(bytes32)":"1c60450d","pendingWithdrawals(address)":"f3f43703","registerField(string,uint256,uint256)":"a29be1fa","retryPackage(uint8)":"b4627d35","retryQueue(address)":"4eee7767","skipPackage(uint8)":"cc65cc4a","subscribeField(uint256)":"721c3dd0","subscriptionFee(uint256)":"33a89c40","versionInfo()":"a21d1354","withdraw()":"3ccfd60b"}},"storageLayout":{"storage":[{"astId":1545,"contract":"contracts/Blufield.sol:Blufield","label":"_initialized","offset":0,"slot":"0","type":"t_uint8"},{"astId":1548,"contract":"contracts/Blufield.sol:Blufield","label":"_initializing","offset":1,"slot":"0","type":"t_bool"},{"astId":853,"contract":"contracts/Blufield.sol:Blufield","label":"configSlots","offset":0,"slot":"1","type":"t_array(t_uint256)50_storage"},{"astId":1495,"contract":"contracts/Blufield.sol:Blufield","label":"retryQueue","offset":0,"slot":"51","type":"t_mapping(t_address,t_struct(Bytes32Deque)3682_storage)"},{"astId":1500,"contract":"contracts/Blufield.sol:Blufield","label":"packageMap","offset":0,"slot":"52","type":"t_mapping(t_bytes32,t_struct(RetryPackage)1517_storage)"},{"astId":1537,"contract":"contracts/Blufield.sol:Blufield","label":"__reservedPkgQueueSlots","offset":0,"slot":"53","type":"t_array(t_uint256)50_storage"},{"astId":1265,"contract":"contracts/Blufield.sol:Blufield","label":"reentryLock","offset":0,"slot":"103","type":"t_uint8"},{"astId":1267,"contract":"contracts/Blufield.sol:Blufield","label":"channelId","offset":1,"slot":"103","type":"t_uint8"},{"astId":1269,"contract":"contracts/Blufield.sol:Blufield","label":"ERC721Token","offset":2,"slot":"103","type":"t_address"},{"astId":1271,"contract":"contracts/Blufield.sol:Blufield","label":"additional","offset":0,"slot":"104","type":"t_address"},{"astId":1273,"contract":"contracts/Blufield.sol:Blufield","label":"maxCallbackDataLength","offset":0,"slot":"105","type":"t_uint256"},{"astId":1388,"contract":"contracts/Blufield.sol:Blufield","label":"__reservedCmnStorageSlots","offset":0,"slot":"106","type":"t_array(t_uint256)49_storage"},{"astId":23,"contract":"contracts/Blufield.sol:Blufield","label":"crossChain","offset":0,"slot":"155","type":"t_address"},{"astId":25,"contract":"contracts/Blufield.sol:Blufield","label":"callbackGasLimit","offset":0,"slot":"156","type":"t_uint256"},{"astId":28,"contract":"contracts/Blufield.sol:Blufield","label":"failureHandleStrategy","offset":0,"slot":"157","type":"t_enum(FailureHandleStrategy)1504"},{"astId":165,"contract":"contracts/Blufield.sol:Blufield","label":"__reservedCmnStorageSlots","offset":0,"slot":"158","type":"t_array(t_uint256)50_storage"},{"astId":1407,"contract":"contracts/Blufield.sol:Blufield","label":"ERC1155Token","offset":0,"slot":"208","type":"t_address"},{"astId":1482,"contract":"contracts/Blufield.sol:Blufield","label":"__reservedGroupStorageSlots","offset":0,"slot":"209","type":"t_array(t_uint256)50_storage"},{"astId":180,"contract":"contracts/Blufield.sol:Blufield","label":"groupHub","offset":0,"slot":"259","type":"t_address"},{"astId":761,"contract":"contracts/Blufield.sol:Blufield","label":"__reservedCmnStorageSlots","offset":0,"slot":"260","type":"t_array(t_uint256)50_storage"},{"astId":1721,"contract":"contracts/Blufield.sol:Blufield","label":"_status","offset":0,"slot":"310","type":"t_uint256"},{"astId":1790,"contract":"contracts/Blufield.sol:Blufield","label":"__gap","offset":0,"slot":"311","type":"t_array(t_uint256)49_storage"},{"astId":4336,"contract":"contracts/Blufield.sol:Blufield","label":"GROUP_TOKEN","offset":0,"slot":"360","type":"t_contract(IERC721NonTransferable)1116"},{"astId":4339,"contract":"contracts/Blufield.sol:Blufield","label":"MEMBER_TOKEN","offset":0,"slot":"361","type":"t_contract(IERC1155NonTransferable)1084"},{"astId":4341,"contract":"contracts/Blufield.sol:Blufield","label":"creationFee","offset":0,"slot":"362","type":"t_uint256"},{"astId":4345,"contract":"contracts/Blufield.sol:Blufield","label":"fieldIdOfUser","offset":0,"slot":"363","type":"t_mapping(t_address,t_uint256)"},{"astId":4349,"contract":"contracts/Blufield.sol:Blufield","label":"fieldIdToName","offset":0,"slot":"364","type":"t_mapping(t_uint256,t_string_storage)"},{"astId":4353,"contract":"contracts/Blufield.sol:Blufield","label":"fieldNameToId","offset":0,"slot":"365","type":"t_mapping(t_string_memory_ptr,t_uint256)"},{"astId":4357,"contract":"contracts/Blufield.sol:Blufield","label":"subscriptionFee","offset":0,"slot":"366","type":"t_mapping(t_uint256,t_uint256)"},{"astId":4363,"contract":"contracts/Blufield.sol:Blufield","label":"expirationOfUserSubscription","offset":0,"slot":"367","type":"t_mapping(t_address,t_mapping(t_uint256,t_uint64))"},{"astId":4367,"contract":"contracts/Blufield.sol:Blufield","label":"pendingWithdrawals","offset":0,"slot":"368","type":"t_mapping(t_address,t_uint256)"}],"types":{"t_address":{"encoding":"inplace","label":"address","numberOfBytes":"20"},"t_array(t_uint256)49_storage":{"base":"t_uint256","encoding":"inplace","label":"uint256[49]","numberOfBytes":"1568"},"t_array(t_uint256)50_storage":{"base":"t_uint256","encoding":"inplace","label":"uint256[50]","numberOfBytes":"1600"},"t_bool":{"encoding":"inplace","label":"bool","numberOfBytes":"1"},"t_bytes32":{"encoding":"inplace","label":"bytes32","numberOfBytes":"32"},"t_bytes_storage":{"encoding":"bytes","label":"bytes","numberOfBytes":"32"},"t_contract(IERC1155NonTransferable)1084":{"encoding":"inplace","label":"contract IERC1155NonTransferable","numberOfBytes":"20"},"t_contract(IERC721NonTransferable)1116":{"encoding":"inplace","label":"contract IERC721NonTransferable","numberOfBytes":"20"},"t_enum(FailureHandleStrategy)1504":{"encoding":"inplace","label":"enum PackageQueue.FailureHandleStrategy","numberOfBytes":"1"},"t_int128":{"encoding":"inplace","label":"int128","numberOfBytes":"16"},"t_mapping(t_address,t_mapping(t_uint256,t_uint64))":{"encoding":"mapping","key":"t_address","label":"mapping(address => mapping(uint256 => uint64))","numberOfBytes":"32","value":"t_mapping(t_uint256,t_uint64)"},"t_mapping(t_address,t_struct(Bytes32Deque)3682_storage)":{"encoding":"mapping","key":"t_address","label":"mapping(address => struct DoubleEndedQueueUpgradeable.Bytes32Deque)","numberOfBytes":"32","value":"t_struct(Bytes32Deque)3682_storage"},"t_mapping(t_address,t_uint256)":{"encoding":"mapping","key":"t_address","label":"mapping(address => uint256)","numberOfBytes":"32","value":"t_uint256"},"t_mapping(t_bytes32,t_struct(RetryPackage)1517_storage)":{"encoding":"mapping","key":"t_bytes32","label":"mapping(bytes32 => struct PackageQueue.RetryPackage)","numberOfBytes":"32","value":"t_struct(RetryPackage)1517_storage"},"t_mapping(t_int128,t_bytes32)":{"encoding":"mapping","key":"t_int128","label":"mapping(int128 => bytes32)","numberOfBytes":"32","value":"t_bytes32"},"t_mapping(t_string_memory_ptr,t_uint256)":{"encoding":"mapping","key":"t_string_memory_ptr","label":"mapping(string => uint256)","numberOfBytes":"32","value":"t_uint256"},"t_mapping(t_uint256,t_string_storage)":{"encoding":"mapping","key":"t_uint256","label":"mapping(uint256 => string)","numberOfBytes":"32","value":"t_string_storage"},"t_mapping(t_uint256,t_uint256)":{"encoding":"mapping","key":"t_uint256","label":"mapping(uint256 => uint256)","numberOfBytes":"32","value":"t_uint256"},"t_mapping(t_uint256,t_uint64)":{"encoding":"mapping","key":"t_uint256","label":"mapping(uint256 => uint64)","numberOfBytes":"32","value":"t_uint64"},"t_string_memory_ptr":{"encoding":"bytes","label":"string","numberOfBytes":"32"},"t_string_storage":{"encoding":"bytes","label":"string","numberOfBytes":"32"},"t_struct(Bytes32Deque)3682_storage":{"encoding":"inplace","label":"struct DoubleEndedQueueUpgradeable.Bytes32Deque","members":[{"astId":3675,"contract":"contracts/Blufield.sol:Blufield","label":"_begin","offset":0,"slot":"0","type":"t_int128"},{"astId":3677,"contract":"contracts/Blufield.sol:Blufield","label":"_end","offset":16,"slot":"0","type":"t_int128"},{"astId":3681,"contract":"contracts/Blufield.sol:Blufield","label":"_data","offset":0,"slot":"1","type":"t_mapping(t_int128,t_bytes32)"}],"numberOfBytes":"64"},"t_struct(RetryPackage)1517_storage":{"encoding":"inplace","label":"struct PackageQueue.RetryPackage","members":[{"astId":1506,"contract":"contracts/Blufield.sol:Blufield","label":"appAddress","offset":0,"slot":"0","type":"t_address"},{"astId":1508,"contract":"contracts/Blufield.sol:Blufield","label":"status","offset":20,"slot":"0","type":"t_uint32"},{"astId":1510,"contract":"contracts/Blufield.sol:Blufield","label":"operationType","offset":24,"slot":"0","type":"t_uint8"},{"astId":1512,"contract":"contracts/Blufield.sol:Blufield","label":"resourceId","offset":0,"slot":"1","type":"t_uint256"},{"astId":1514,"contract":"contracts/Blufield.sol:Blufield","label":"callbackData","offset":0,"slot":"2","type":"t_bytes_storage"},{"astId":1516,"contract":"contracts/Blufield.sol:Blufield","label":"failReason","offset":0,"slot":"3","type":"t_bytes_storage"}],"numberOfBytes":"128"},"t_uint256":{"encoding":"inplace","label":"uint256","numberOfBytes":"32"},"t_uint32":{"encoding":"inplace","label":"uint32","numberOfBytes":"4"},"t_uint64":{"encoding":"inplace","label":"uint64","numberOfBytes":"8"},"t_uint8":{"encoding":"inplace","label":"uint8","numberOfBytes":"1"}}}}}}