{"contracts/Blufield.sol":{"Blufield":{"abi":[{"anonymous":false,"inputs":[{"indexed":true,"internalType":"address","name":"appAddress","type":"address"},{"indexed":false,"internalType":"bytes32","name":"pkgHash","type":"bytes32"},{"indexed":false,"internalType":"bytes","name":"failReason","type":"bytes"}],"name":"AppHandleAckPkgFailed","type":"event"},{"anonymous":false,"inputs":[{"indexed":true,"internalType":"address","name":"appAddress","type":"address"},{"indexed":false,"internalType":"bytes32","name":"pkgHash","type":"bytes32"},{"indexed":false,"internalType":"bytes","name":"failReason","type":"bytes"}],"name":"AppHandleFailAckPkgFailed","type":"event"},{"anonymous":false,"inputs":[{"indexed":true,"internalType":"address","name":"creator","type":"address"},{"indexed":true,"internalType":"uint256","name":"id","type":"uint256"}],"name":"CreateFailed","type":"event"},{"anonymous":false,"inputs":[{"indexed":false,"internalType":"uint32","name":"status","type":"uint32"},{"indexed":false,"internalType":"bytes","name":"groupName","type":"bytes"}],"name":"CreateGroupFailed","type":"event"},{"anonymous":false,"inputs":[{"indexed":false,"internalType":"bytes","name":"groupName","type":"bytes"},{"indexed":true,"internalType":"uint256","name":"tokenId","type":"uint256"}],"name":"CreateGroupSuccess","type":"event"},{"anonymous":false,"inputs":[{"indexed":true,"internalType":"address","name":"owner","type":"address"},{"indexed":true,"internalType":"address","name":"operator","type":"address"},{"indexed":false,"internalType":"string","name":"name","type":"string"}],"name":"CreateSubmitted","type":"event"},{"anonymous":false,"inputs":[{"indexed":true,"internalType":"address","name":"creator","type":"address"},{"indexed":true,"internalType":"uint256","name":"id","type":"uint256"}],"name":"CreateSuccess","type":"event"},{"anonymous":false,"inputs":[{"indexed":true,"internalType":"uint256","name":"id","type":"uint256"}],"name":"DeleteFailed","type":"event"},{"anonymous":false,"inputs":[{"indexed":false,"internalType":"uint32","name":"status","type":"uint32"},{"indexed":true,"internalType":"uint256","name":"tokenId","type":"uint256"}],"name":"DeleteGroupFailed","type":"event"},{"anonymous":false,"inputs":[{"indexed":true,"internalType":"uint256","name":"tokenId","type":"uint256"}],"name":"DeleteGroupSuccess","type":"event"},{"anonymous":false,"inputs":[{"indexed":true,"internalType":"address","name":"owner","type":"address"},{"indexed":true,"internalType":"address","name":"operator","type":"address"},{"indexed":true,"internalType":"uint256","name":"id","type":"uint256"}],"name":"DeleteSubmitted","type":"event"},{"anonymous":false,"inputs":[{"indexed":true,"internalType":"uint256","name":"id","type":"uint256"}],"name":"DeleteSuccess","type":"event"},{"anonymous":false,"inputs":[{"indexed":true,"internalType":"uint8","name":"channelId","type":"uint8"},{"indexed":false,"internalType":"bytes","name":"msgBytes","type":"bytes"}],"name":"FailAckPkgReceived","type":"event"},{"anonymous":false,"inputs":[{"indexed":false,"internalType":"uint8","name":"version","type":"uint8"}],"name":"Initialized","type":"event"},{"anonymous":false,"inputs":[{"indexed":true,"internalType":"uint256","name":"id","type":"uint256"},{"indexed":true,"internalType":"address","name":"owner","type":"address"},{"indexed":false,"internalType":"bytes","name":"failReason","type":"bytes"}],"name":"MirrorFailed","type":"event"},{"anonymous":false,"inputs":[{"indexed":true,"internalType":"uint256","name":"id","type":"uint256"},{"indexed":true,"internalType":"address","name":"owner","type":"address"}],"name":"MirrorSuccess","type":"event"},{"anonymous":false,"inputs":[{"indexed":false,"internalType":"string","name":"key","type":"string"},{"indexed":false,"internalType":"bytes","name":"value","type":"bytes"}],"name":"ParamChange","type":"event"},{"anonymous":false,"inputs":[{"indexed":true,"internalType":"uint8","name":"channelId","type":"uint8"},{"indexed":false,"internalType":"bytes","name":"msgBytes","type":"bytes"}],"name":"UnexpectedPackage","type":"event"},{"anonymous":false,"inputs":[{"indexed":true,"internalType":"address","name":"operator","type":"address"},{"indexed":true,"internalType":"uint256","name":"id","type":"uint256"},{"indexed":false,"internalType":"uint8","name":"opType","type":"uint8"}],"name":"UpdateFailed","type":"event"},{"anonymous":false,"inputs":[{"indexed":false,"internalType":"uint32","name":"status","type":"uint32"},{"indexed":true,"internalType":"uint256","name":"tokenId","type":"uint256"}],"name":"UpdateGroupFailed","type":"event"},{"anonymous":false,"inputs":[{"indexed":true,"internalType":"uint256","name":"tokenId","type":"uint256"}],"name":"UpdateGroupSuccess","type":"event"},{"anonymous":false,"inputs":[{"indexed":false,"internalType":"address","name":"owner","type":"address"},{"indexed":false,"internalType":"address","name":"operator","type":"address"},{"indexed":false,"internalType":"uint256","name":"id","type":"uint256"},{"indexed":false,"internalType":"uint8","name":"opType","type":"uint8"},{"indexed":false,"internalType":"address[]","name":"members","type":"address[]"}],"name":"UpdateSubmitted","type":"event"},{"anonymous":false,"inputs":[{"indexed":true,"internalType":"address","name":"operator","type":"address"},{"indexed":true,"internalType":"uint256","name":"id","type":"uint256"},{"indexed":false,"internalType":"uint8","name":"opType","type":"uint8"}],"name":"UpdateSuccess","type":"event"},{"inputs":[],"name":"AUTH_CODE_CREATE","outputs":[{"internalType":"uint32","name":"","type":"uint32"}],"stateMutability":"view","type":"function"},{"inputs":[],"name":"AUTH_CODE_DELETE","outputs":[{"internalType":"uint32","name":"","type":"uint32"}],"stateMutability":"view","type":"function"},{"inputs":[],"name":"AUTH_CODE_UPDATE","outputs":[{"internalType":"uint32","name":"","type":"uint32"}],"stateMutability":"view","type":"function"},{"inputs":[],"name":"BUCKET_CHANNEL_ID","outputs":[{"internalType":"uint8","name":"","type":"uint8"}],"stateMutability":"view","type":"function"},{"inputs":[],"name":"BUCKET_HUB","outputs":[{"internalType":"address","name":"","type":"address"}],"stateMutability":"view","type":"function"},{"inputs":[],"name":"CROSS_CHAIN","outputs":[{"internalType":"address","name":"","type":"address"}],"stateMutability":"view","type":"function"},{"inputs":[],"name":"EMERGENCY_OPERATOR","outputs":[{"internalType":"address","name":"","type":"address"}],"stateMutability":"view","type":"function"},{"inputs":[],"name":"EMERGENCY_UPGRADE_OPERATOR","outputs":[{"internalType":"address","name":"","type":"address"}],"stateMutability":"view","type":"function"},{"inputs":[],"name":"ERC1155Token","outputs":[{"internalType":"address","name":"","type":"address"}],"stateMutability":"view","type":"function"},{"inputs":[],"name":"ERC721Token","outputs":[{"internalType":"address","name":"","type":"address"}],"stateMutability":"view","type":"function"},{"inputs":[],"name":"ERROR_INSUFFICIENT_VALUE","outputs":[{"internalType":"string","name":"","type":"string"}],"stateMutability":"view","type":"function"},{"inputs":[],"name":"ERROR_INVALID_CALLER","outputs":[{"internalType":"string","name":"","type":"string"}],"stateMutability":"view","type":"function"},{"inputs":[],"name":"ERROR_INVALID_OPERATION","outputs":[{"internalType":"string","name":"","type":"string"}],"stateMutability":"view","type":"function"},{"inputs":[],"name":"ERROR_INVALID_RESOURCE","outputs":[{"internalType":"string","name":"","type":"string"}],"stateMutability":"view","type":"function"},{"inputs":[],"name":"GOV_CHANNEL_ID","outputs":[{"internalType":"uint8","name":"","type":"uint8"}],"stateMutability":"view","type":"function"},{"inputs":[],"name":"GOV_HUB","outputs":[{"internalType":"address","name":"","type":"address"}],"stateMutability":"view","type":"function"},{"inputs":[],"name":"GROUP_CHANNEL_ID","outputs":[{"internalType":"uint8","name":"","type":"uint8"}],"stateMutability":"view","type":"function"},{"inputs":[],"name":"GROUP_HUB","outputs":[{"internalType":"address","name":"","type":"address"}],"stateMutability":"view","type":"function"},{"inputs":[],"name":"GROUP_TOKEN","outputs":[{"internalType":"contract IERC721NonTransferable","name":"","type":"address"}],"stateMutability":"view","type":"function"},{"inputs":[],"name":"INIT_MAX_CALLBACK_DATA_LENGTH","outputs":[{"internalType":"uint256","name":"","type":"uint256"}],"stateMutability":"view","type":"function"},{"inputs":[],"name":"LIGHT_CLIENT","outputs":[{"internalType":"address","name":"","type":"address"}],"stateMutability":"view","type":"function"},{"inputs":[],"name":"MAX_CALLBACK_GAS_LIMIT","outputs":[{"internalType":"uint256","name":"","type":"uint256"}],"stateMutability":"view","type":"function"},{"inputs":[],"name":"OBJECT_CHANNEL_ID","outputs":[{"internalType":"uint8","name":"","type":"uint8"}],"stateMutability":"view","type":"function"},{"inputs":[],"name":"OBJECT_HUB","outputs":[{"internalType":"address","name":"","type":"address"}],"stateMutability":"view","type":"function"},{"inputs":[],"name":"PROXY_ADMIN","outputs":[{"internalType":"address","name":"","type":"address"}],"stateMutability":"view","type":"function"},{"inputs":[],"name":"RELAYER_HUB","outputs":[{"internalType":"address","name":"","type":"address"}],"stateMutability":"view","type":"function"},{"inputs":[],"name":"RESOURCE_GROUP","outputs":[{"internalType":"uint8","name":"","type":"uint8"}],"stateMutability":"view","type":"function"},{"inputs":[],"name":"ROLE_CREATE","outputs":[{"internalType":"bytes32","name":"","type":"bytes32"}],"stateMutability":"view","type":"function"},{"inputs":[],"name":"ROLE_DELETE","outputs":[{"internalType":"bytes32","name":"","type":"bytes32"}],"stateMutability":"view","type":"function"},{"inputs":[],"name":"ROLE_UPDATE","outputs":[{"internalType":"bytes32","name":"","type":"bytes32"}],"stateMutability":"view","type":"function"},{"inputs":[],"name":"STATUS_FAILED","outputs":[{"internalType":"uint32","name":"","type":"uint32"}],"stateMutability":"view","type":"function"},{"inputs":[],"name":"STATUS_SUCCESS","outputs":[{"internalType":"uint32","name":"","type":"uint32"}],"stateMutability":"view","type":"function"},{"inputs":[],"name":"STATUS_UNEXPECTED","outputs":[{"internalType":"uint32","name":"","type":"uint32"}],"stateMutability":"view","type":"function"},{"inputs":[],"name":"TOKEN_HUB","outputs":[{"internalType":"address","name":"","type":"address"}],"stateMutability":"view","type":"function"},{"inputs":[],"name":"TRANSFER_IN_CHANNEL_ID","outputs":[{"internalType":"uint8","name":"","type":"uint8"}],"stateMutability":"view","type":"function"},{"inputs":[],"name":"TRANSFER_OUT_CHANNEL_ID","outputs":[{"internalType":"uint8","name":"","type":"uint8"}],"stateMutability":"view","type":"function"},{"inputs":[],"name":"TYPE_CREATE","outputs":[{"internalType":"uint8","name":"","type":"uint8"}],"stateMutability":"view","type":"function"},{"inputs":[],"name":"TYPE_DELETE","outputs":[{"internalType":"uint8","name":"","type":"uint8"}],"stateMutability":"view","type":"function"},{"inputs":[],"name":"TYPE_MIRROR","outputs":[{"internalType":"uint8","name":"","type":"uint8"}],"stateMutability":"view","type":"function"},{"inputs":[],"name":"TYPE_UPDATE","outputs":[{"internalType":"uint8","name":"","type":"uint8"}],"stateMutability":"view","type":"function"},{"inputs":[],"name":"additional","outputs":[{"internalType":"address","name":"","type":"address"}],"stateMutability":"view","type":"function"},{"inputs":[],"name":"callbackGasLimit","outputs":[{"internalType":"uint256","name":"","type":"uint256"}],"stateMutability":"view","type":"function"},{"inputs":[],"name":"channelId","outputs":[{"internalType":"uint8","name":"","type":"uint8"}],"stateMutability":"view","type":"function"},{"inputs":[],"name":"creationFee","outputs":[{"internalType":"uint256","name":"","type":"uint256"}],"stateMutability":"view","type":"function"},{"inputs":[],"name":"crossChain","outputs":[{"internalType":"address","name":"","type":"address"}],"stateMutability":"view","type":"function"},{"inputs":[{"internalType":"address","name":"","type":"address"},{"internalType":"uint256","name":"","type":"uint256"}],"name":"expirationOfUserSubscription","outputs":[{"internalType":"uint64","name":"","type":"uint64"}],"stateMutability":"view","type":"function"},{"inputs":[],"name":"failureHandleStrategy","outputs":[{"internalType":"enum PackageQueue.FailureHandleStrategy","name":"","type":"uint8"}],"stateMutability":"view","type":"function"},{"inputs":[{"internalType":"address","name":"","type":"address"}],"name":"fieldIdOfUser","outputs":[{"internalType":"uint256","name":"","type":"uint256"}],"stateMutability":"view","type":"function"},{"inputs":[{"internalType":"uint256","name":"","type":"uint256"}],"name":"fieldIdToName","outputs":[{"internalType":"string","name":"","type":"string"}],"stateMutability":"view","type":"function"},{"inputs":[{"internalType":"string","name":"","type":"string"}],"name":"fieldNameToId","outputs":[{"internalType":"uint256","name":"","type":"uint256"}],"stateMutability":"view","type":"function"},{"inputs":[{"internalType":"uint32","name":"status","type":"uint32"},{"internalType":"uint8","name":"resourceType","type":"uint8"},{"internalType":"uint8","name":"operationType","type":"uint8"},{"internalType":"uint256","name":"resourceId","type":"uint256"},{"internalType":"bytes","name":"callbackData","type":"bytes"}],"name":"greenfieldCall","outputs":[],"stateMutability":"nonpayable","type":"function"},{"inputs":[],"name":"groupHub","outputs":[{"internalType":"address","name":"","type":"address"}],"stateMutability":"view","type":"function"},{"inputs":[{"internalType":"address","name":"_groupHub","type":"address"},{"internalType":"address","name":"_crossChain","type":"address"},{"internalType":"uint256","name":"_callbackGasLimit","type":"uint256"},{"internalType":"uint8","name":"_failureHandleStrategy","type":"uint8"}],"name":"initialize","outputs":[],"stateMutability":"nonpayable","type":"function"},{"inputs":[],"name":"maxCallbackDataLength","outputs":[{"internalType":"uint256","name":"","type":"uint256"}],"stateMutability":"view","type":"function"},{"inputs":[{"internalType":"bytes32","name":"","type":"bytes32"}],"name":"packageMap","outputs":[{"internalType":"address","name":"appAddress","type":"address"},{"internalType":"uint32","name":"status","type":"uint32"},{"internalType":"uint8","name":"operationType","type":"uint8"},{"internalType":"uint256","name":"resourceId","type":"uint256"},{"internalType":"bytes","name":"callbackData","type":"bytes"},{"internalType":"bytes","name":"failReason","type":"bytes"}],"stateMutability":"view","type":"function"},{"inputs":[{"internalType":"address","name":"","type":"address"}],"name":"pendingWithdrawals","outputs":[{"internalType":"uint256","name":"","type":"uint256"}],"stateMutability":"view","type":"function"},{"inputs":[{"internalType":"string","name":"name","type":"string"},{"internalType":"uint256","name":"groupId","type":"uint256"},{"internalType":"uint256","name":"price","type":"uint256"}],"name":"registerField","outputs":[],"stateMutability":"nonpayable","type":"function"},{"inputs":[{"internalType":"uint8","name":"resourceType","type":"uint8"}],"name":"retryPackage","outputs":[],"stateMutability":"nonpayable","type":"function"},{"inputs":[{"internalType":"address","name":"","type":"address"}],"name":"retryQueue","outputs":[{"internalType":"int128","name":"_begin","type":"int128"},{"internalType":"int128","name":"_end","type":"int128"}],"stateMutability":"view","type":"function"},{"inputs":[{"internalType":"uint8","name":"resourceType","type":"uint8"}],"name":"skipPackage","outputs":[],"stateMutability":"nonpayable","type":"function"},{"inputs":[{"internalType":"uint256","name":"groupId","type":"uint256"}],"name":"subscribeField","outputs":[],"stateMutability":"payable","type":"function"},{"inputs":[{"internalType":"uint256","name":"","type":"uint256"}],"name":"subscriptionFee","outputs":[{"internalType":"uint256","name":"","type":"uint256"}],"stateMutability":"view","type":"function"},{"inputs":[],"name":"versionInfo","outputs":[{"internalType":"uint256","name":"version","type":"uint256"},{"internalType":"string","name":"name","type":"string"},{"internalType":"string","name":"description","type":"string"}],"stateMutability":"pure","type":"function"},{"inputs":[],"name":"withdraw","outputs":[],"stateMutability":"nonpayable","type":"function"}],"evm":{"bytecode":{"linkReferences":{},"object":"608060405234801561001057600080fd5b506122b4806100206000396000f3fe6080604052600436106103c35760003560e01c80638855e092116101f2578063ce1ddb6c1161010d578063e8ea79c0116100a0578063f2223c021161006f578063f2223c02146106ad578063f3f4370314610a2f578063fdd562b814610999578063feb3a68a14610a5d57600080fd5b8063e8ea79c0146109fa578063eac78b3314610a1a578063ed9bc82a146105d5578063edabb0a3146106c257600080fd5b8063e2cee544116100dc578063e2cee544146109ae578063e52a6718146109cd578063e613ae00146105d5578063e84491161461079457600080fd5b8063ce1ddb6c14610927578063d271250e14610954578063dce0b4e414610982578063e02e86b01461099957600080fd5b8063b4627d3511610185578063c71f64e411610154578063c71f64e4146108f3578063c8b01e6f14610574578063cc12eabc146103c8578063cc65cc4a146108b557600080fd5b8063b4627d35146108b5578063b8e43b33146105d5578063b9d86913146105d5578063c64ca020146108d357600080fd5b8063a21d1354116101c1578063a21d13541461084e578063a29be1fa14610895578063a9dae71c146105d5578063b32f787b1461072057600080fd5b80638855e092146107a95780638c3cb902146107be5780638f8ea384146107d35780639142d7fb1461082d57600080fd5b80634eee7767116102e2578063721c3dd01161027557806377a714ae1161024457806377a714ae1461076e5780637afffdd2146105d55780637d2e3084146105d557806381d914801461079457600080fd5b8063721c3dd0146106ed57806373ee45081461070057806373f1e3c314610720578063778afbb71461073557600080fd5b80635d83a5aa116102b15780635d83a5aa146106ad578063618d569c146106c257806361bbd6dd146106d75780636d3358a1146105d557600080fd5b80634eee77671461060a57806350704a5014610660578063557cf477146105d55780635bb58b171461068d57600080fd5b806339a252901161035a578063459af3aa11610329578063459af3aa146105b557806346934fc8146105d557806346ab84e5146105d55780634917db66146105ea57600080fd5b806339a252901461053557806339c332151461055c5780633a0f4bf8146105745780633ccfd60b1461059e57600080fd5b80631a12138f116103965780631a12138f146104865780631c60450d146104bf57806324f74697146104f157806333a89c401461050757600080fd5b806309d1be19146103c857806312629faf146103f4578063142c2f4414610436578063189e81021461044c575b600080fd5b3480156103d457600080fd5b506103dd600181565b60405160ff90911681526020015b60405180910390f35b34801561040057600080fd5b506104287fa7a925e56b0f4627a3e4910a6e10d23a82143f84f9d73d587c9ef425941ace8e81565b6040519081526020016103eb565b34801561044257600080fd5b5061042860695481565b34801561045857600080fd5b50610479604051806040016040528060018152602001601960f91b81525081565b6040516103eb9190611ae6565b34801561049257600080fd5b50610168546104a7906001600160a01b031681565b6040516001600160a01b0390911681526020016103eb565b3480156104cb57600080fd5b506104df6104da366004611b00565b610a91565b6040516103eb96959493929190611b19565b3480156104fd57600080fd5b50610428609c5481565b34801561051357600080fd5b50610428610522366004611b00565b61016d6020526000908152604090205481565b34801561054157600080fd5b50609d5461054f9060ff1681565b6040516103eb9190611ba8565b34801561056857600080fd5b506104286301312d0081565b34801561058057600080fd5b50610589600181565b60405163ffffffff90911681526020016103eb565b3480156105aa57600080fd5b506105b3610bed565b005b3480156105c157600080fd5b506105b36105d0366004611c19565b610ca3565b3480156105e157600080fd5b506104a7600081565b3480156105f657600080fd5b50609b546104a7906001600160a01b031681565b34801561061657600080fd5b50610646610625366004611cb7565b603360205260009081526040902054600f81810b91600160801b9004900b82565b60408051600f93840b81529190920b6020820152016103eb565b34801561066c57600080fd5b50610479604051806040016040528060018152602001603160f81b81525081565b34801561069957600080fd5b506104796106a8366004611b00565b610d81565b3480156106b957600080fd5b50610589600281565b3480156106ce57600080fd5b506103dd600281565b3480156106e357600080fd5b5061042861040081565b6105b36106fb366004611b00565b610e1c565b34801561070c57600080fd5b5060d0546104a7906001600160a01b031681565b34801561072c57600080fd5b506103dd600481565b34801561074157600080fd5b50610428610750366004611cea565b805160208183018101805161016c8252928201919093012091525481565b34801561077a57600080fd5b506067546104a7906201000090046001600160a01b031681565b3480156107a057600080fd5b506103dd600381565b3480156107b557600080fd5b50610589600081565b3480156107ca57600080fd5b50610589600481565b3480156107df57600080fd5b506108156107ee366004611d9a565b61016e6020908152600092835260408084209091529082529020546001600160401b031681565b6040516001600160401b0390911681526020016103eb565b34801561083957600080fd5b50610103546104a7906001600160a01b031681565b34801561085a57600080fd5b506040805180820182526006815265436f6e66696760d01b60208083019190915282519081018352600080825292516103eb93929190611dc6565b3480156108a157600080fd5b506105b36108b0366004611dfb565b611184565b3480156108c157600080fd5b506105b36108d0366004611e4b565b50565b3480156108df57600080fd5b506105b36108ee366004611e66565b611420565b3480156108ff57600080fd5b506104287fe52b0c82d70862ecc57dd0fa972f308948292049a31fa59a5b152ce07497fded81565b34801561093357600080fd5b50610479604051806040016040528060018152602001603360f81b81525081565b34801561096057600080fd5b5061042861096f366004611cb7565b61016a6020526000908152604090205481565b34801561098e57600080fd5b506104286101695481565b3480156109a557600080fd5b506103dd600681565b3480156109ba57600080fd5b506067546103dd90610100900460ff1681565b3480156109d957600080fd5b50610479604051806040016040528060018152602001600360fc1b81525081565b348015610a0657600080fd5b506068546104a7906001600160a01b031681565b348015610a2657600080fd5b506103dd600581565b348015610a3b57600080fd5b50610428610a4a366004611cb7565b61016f6020526000908152604090205481565b348015610a6957600080fd5b506104287f757d0265d5de9ff03394896c4c44c92950e6e9565f35923c097aed8e1128e4cb81565b6034602052600090815260409020805460018201546002830180546001600160a01b03841694600160a01b850463ffffffff1694600160c01b900460ff1693929091610adc90611eb7565b80601f0160208091040260200160405190810160405280929190818152602001828054610b0890611eb7565b8015610b555780601f10610b2a57610100808354040283529160200191610b55565b820191906000526020600020905b815481529060010190602001808311610b3857829003601f168201915b505050505090806003018054610b6a90611eb7565b80601f0160208091040260200160405190810160405280929190818152602001828054610b9690611eb7565b8015610be35780601f10610bb857610100808354040283529160200191610be3565b820191906000526020600020905b815481529060010190602001808311610bc657829003601f168201915b5050505050905086565b610bf56115c4565b33600090815261016f602052604090205480610c585760405162461bcd60e51b815260206004820181905260248201527f426c756669656c643a206e6f2070656e64696e67207769746864726177616c7360448201526064015b60405180910390fd5b33600081815261016f60205260408082208290555183156108fc0291849190818181858888f19350505050158015610c94573d6000803e3d6000fd5b5050610ca1600161013655565b565b6101035460408051808201825260018152600360fc1b60208083019190915291516001600160a01b03909316331492610cdc9201611ef1565b60405160208183030381529060405290610d095760405162461bcd60e51b8152600401610c4f9190611ae6565b50600660ff168560ff1614604051806040016040528060018152602001603160f81b815250604051602001610d3e9190611ef1565b60405160208183030381529060405290610d6b5760405162461bcd60e51b8152600401610c4f9190611ae6565b50610d79868585858561161f565b505050505050565b61016b6020526000908152604090208054610d9b90611eb7565b80601f0160208091040260200160405190810160405280929190818152602001828054610dc790611eb7565b8015610e145780601f10610de957610100808354040283529160200191610e14565b820191906000526020600020905b815481529060010190602001808311610df757829003601f168201915b505050505081565b610e246115c4565b600081815261016b602052604081208054610e3e90611eb7565b905011610e8d5760405162461bcd60e51b815260206004820152601e60248201527f426c756669656c643a206669656c64206e6f74207265676973746572656400006044820152606401610c4f565b610168546040516331a9108f60e11b8152600481018390526000916001600160a01b031690636352211e90602401602060405180830381865afa158015610ed8573d6000803e3d6000fd5b505050506040513d601f19601f82011682018060405250810190610efc9190611f23565b90506001600160a01b038116610f645760405162461bcd60e51b815260206004820152602760248201527f426c756669656c643a2063616e6e6f742073756273637269626520746f206f776044820152661b88199a595b1960ca1b6064820152608401610c4f565b600082815261016d602052604090205434811115610fc45760405162461bcd60e51b815260206004820152601e60248201527f426c756669656c643a20696e73756666696369656e74207061796d656e7400006044820152606401610c4f565b6001600160a01b038216600090815261016f602052604081208054839290610fed908490611f56565b909155505033600090815261016e602090815260408083208684529091528120546001600160401b03169081810361106e5761102c4262278d00611f56565b33600090815261016e602090815260408083208984529091528120805467ffffffffffffffff19166001600160401b03939093169290921790915590506110b9565b61107b8262278d00611f6f565b33600090815261016e602090815260408083208984529091529020805467ffffffffffffffff19166001600160401b03929092169190911790555060025b604080516001808252818301909252600091602080830190803683375050604080516001808252818301909252929350600092915060208083019080368337019050509050338260008151811061111257611112611f96565b60200260200101906001600160a01b031690816001600160a01b031681525050838160008151811061114657611146611f96565b60200260200101906001600160401b031690816001600160401b031681525050611173868885858561175b565b5050505050506108d0600161013655565b61118c6115c4565b610168546040516331a9108f60e11b81526004810184905233916001600160a01b031690636352211e90602401602060405180830381865afa1580156111d6573d6000803e3d6000fd5b505050506040513d601f19601f820116820180604052508101906111fa9190611f23565b6001600160a01b0316146112465760405162461bcd60e51b815260206004820152601360248201527221363ab334b2b6321d103737ba1037bbb732b960691b6044820152606401610c4f565b826112935760405162461bcd60e51b815260206004820152601760248201527f426c756669656c643a206e616d6520697320656d7074790000000000000000006044820152606401610c4f565b33600090815261016a6020526040902054156112f15760405162461bcd60e51b815260206004820152601c60248201527f426c756669656c643a20616c72656164792072656769737465726564000000006044820152606401610c4f565b61016c8484604051611304929190611fac565b9081526020016040518091039020546000146113625760405162461bcd60e51b815260206004820152601c60248201527f426c756669656c643a206e616d6520616c72656164792074616b656e000000006044820152606401610c4f565b600081116113b25760405162461bcd60e51b815260206004820152601760248201527f426c756669656c643a207072696365206973207a65726f0000000000000000006044820152606401610c4f565b33600090815261016a6020908152604080832085905584835261016b90915290206113de848683612002565b508161016c85856040516113f3929190611fac565b908152604080516020928190038301902092909255600093845261016d9052909120555050600161013655565b600054610100900460ff16158080156114405750600054600160ff909116105b8061145a5750303b15801561145a575060005460ff166001145b6114bd5760405162461bcd60e51b815260206004820152602e60248201527f496e697469616c697a61626c653a20636f6e747261637420697320616c72656160448201526d191e481a5b9a5d1a585b1a5e995960921b6064820152608401610c4f565b6000805460ff1916600117905580156114e0576000805461ff0019166101001790555b846001600160a01b03166377a714ae6040518163ffffffff1660e01b8152600401602060405180830381865afa15801561151e573d6000803e3d6000fd5b505050506040513d601f19601f820116820180604052508101906115429190611f23565b61016880546001600160a01b0319166001600160a01b039290921691909117905561156e84848461189d565b6115778561191f565b80156115bd576000805461ff0019169055604051600181527f7f26b83ff96e1f2b6a682f133852f6798a09c465da95921460cefb38474024989060200160405180910390a15b5050505050565b600261013654036116175760405162461bcd60e51b815260206004820152601f60248201527f5265656e7472616e637947756172643a207265656e7472616e742063616c6c006044820152606401610c4f565b600261013655565b60011960ff8516016116715761166c858484848080601f01602080910402602001604051908101604052809392919081815260200183838082843760009201919091525061196992505050565b6115bd565b60021960ff8516016116be5761166c858484848080601f01602080910402602001604051908101604052809392919081815260200183838082843760009201919091525061196992505050565b60031960ff85160161170b5761166c858484848080601f01602080910402602001604051908101604052809392919081815260200183838082843760009201919091525061196992505050565b604051806040016040528060018152602001601960f91b8152506040516020016117359190611ef1565b60408051601f198184030181529082905262461bcd60e51b8252610c4f91600401611ae6565b60006040518060c00160405280876001600160a01b0316815260200186815260200185600281111561178f5761178f611b74565b815260200184815260200160405180602001604052806000815250815260200183815250905060006117bf61196e565b905080341015604051806040016040528060018152602001603360f81b8152506040516020016117ef9190611ef1565b6040516020818303038152906040529061181c5760405162461bcd60e51b8152600401610c4f9190611ae6565b50610103546040516302041bbf60e51b81526001600160a01b039091169063408377e0903490611850908690600401612105565b60206040518083038185885af115801561186e573d6000803e3d6000fd5b50505050506040513d601f19601f8201168201806040525081019061189391906121bd565b5050505050505050565b600054610100900460ff166118c45760405162461bcd60e51b8152600401610c4f906121df565b609b80546001600160a01b0319166001600160a01b038516179055609c82905560ff811660028111156118f9576118f9611b74565b609d805460ff1916600183600281111561191557611915611b74565b0217905550505050565b600054610100900460ff166119465760405162461bcd60e51b8152600401610c4f906121df565b61010380546001600160a01b0319166001600160a01b0392909216919091179055565b505050565b6000806000609b60009054906101000a90046001600160a01b03166001600160a01b03166354912a976040518163ffffffff1660e01b815260040160408051808303816000875af11580156119c7573d6000803e3d6000fd5b505050506040513d601f19601f820116820180604052508101906119eb919061222a565b915091506000609b60009054906101000a90046001600160a01b03166001600160a01b031663bf9032476040518163ffffffff1660e01b81526004016020604051808303816000875af1158015611a46573d6000803e3d6000fd5b505050506040513d601f19601f82011682018060405250810190611a6a919061224e565b905080609c54611a7a9190612267565b611a848385611f56565b611a8e9190611f56565b935050505090565b60005b83811015611ab1578181015183820152602001611a99565b50506000910152565b60008151808452611ad2816020860160208601611a96565b601f01601f19169290920160200192915050565b602081526000611af96020830184611aba565b9392505050565b600060208284031215611b1257600080fd5b5035919050565b60018060a01b038716815263ffffffff8616602082015260ff8516604082015283606082015260c060808201526000611b5560c0830185611aba565b82810360a0840152611b678185611aba565b9998505050505050505050565b634e487b7160e01b600052602160045260246000fd5b600381106108d057634e487b7160e01b600052602160045260246000fd5b60208101611bb583611b8a565b91905290565b803560ff81168114611bcc57600080fd5b919050565b60008083601f840112611be357600080fd5b5081356001600160401b03811115611bfa57600080fd5b602083019150836020828501011115611c1257600080fd5b9250929050565b60008060008060008060a08789031215611c3257600080fd5b863563ffffffff81168114611c4657600080fd5b9550611c5460208801611bbb565b9450611c6260408801611bbb565b93506060870135925060808701356001600160401b03811115611c8457600080fd5b611c9089828a01611bd1565b979a9699509497509295939492505050565b6001600160a01b03811681146108d057600080fd5b600060208284031215611cc957600080fd5b8135611af981611ca2565b634e487b7160e01b600052604160045260246000fd5b600060208284031215611cfc57600080fd5b81356001600160401b0380821115611d1357600080fd5b818401915084601f830112611d2757600080fd5b813581811115611d3957611d39611cd4565b604051601f8201601f19908116603f01168101908382118183101715611d6157611d61611cd4565b81604052828152876020848701011115611d7a57600080fd5b826020860160208301376000928101602001929092525095945050505050565b60008060408385031215611dad57600080fd5b8235611db881611ca2565b946020939093013593505050565b838152606060208201526000611ddf6060830185611aba565b8281036040840152611df18185611aba565b9695505050505050565b60008060008060608587031215611e1157600080fd5b84356001600160401b03811115611e2757600080fd5b611e3387828801611bd1565b90989097506020870135966040013595509350505050565b600060208284031215611e5d57600080fd5b611af982611bbb565b60008060008060808587031215611e7c57600080fd5b8435611e8781611ca2565b93506020850135611e9781611ca2565b925060408501359150611eac60608601611bbb565b905092959194509250565b600181811c90821680611ecb57607f821691505b602082108103611eeb57634e487b7160e01b600052602260045260246000fd5b50919050565b69023b937bab820b8381d160b51b815260008251611f1681600a850160208701611a96565b91909101600a0192915050565b600060208284031215611f3557600080fd5b8151611af981611ca2565b634e487b7160e01b600052601160045260246000fd5b80820180821115611f6957611f69611f40565b92915050565b6001600160401b03818116838216019080821115611f8f57611f8f611f40565b5092915050565b634e487b7160e01b600052603260045260246000fd5b8183823760009101908152919050565b601f82111561196957600081815260208120601f850160051c81016020861015611fe35750805b601f850160051c820191505b81811015610d7957828155600101611fef565b6001600160401b0383111561201957612019611cd4565b61202d836120278354611eb7565b83611fbc565b6000601f84116001811461206157600085156120495750838201355b600019600387901b1c1916600186901b1783556115bd565b600083815260209020601f19861690835b828110156120925786850135825560209485019460019092019101612072565b50868210156120af5760001960f88860031b161c19848701351681555b505060018560011b0183555050505050565b600081518084526020808501945080840160005b838110156120fa5781516001600160401b0316875295820195908201906001016120d5565b509495945050505050565b6000602080835260e0830160018060a01b038086511683860152828601516040860152604086015161213681611b8a565b60608681019190915286015160c060808701528051928390528301916000906101008701905b8083101561217e5784518416825293850193600192909201919085019061215c565b5060808801519450601f199350838782030160a088015261219f8186611aba565b945050505060a0850151818584030160c0860152611df183826120c1565b6000602082840312156121cf57600080fd5b81518015158114611af957600080fd5b6020808252602b908201527f496e697469616c697a61626c653a20636f6e7472616374206973206e6f74206960408201526a6e697469616c697a696e6760a81b606082015260800190565b6000806040838503121561223d57600080fd5b505080516020909101519092909150565b60006020828403121561226057600080fd5b5051919050565b8082028115828204841417611f6957611f69611f4056fea26469706673582212206d8887c7f2a1c1c7c993da418b0469ebbbc0da4253d68739718362573cb9e5de64736f6c63430008140033","opcodes":"PUSH1 0x80 PUSH1 0x40 MSTORE CALLVALUE DUP1 ISZERO PUSH2 0x10 JUMPI PUSH1 0x0 DUP1 REVERT JUMPDEST POP PUSH2 0x22B4 DUP1 PUSH2 0x20 PUSH1 0x0 CODECOPY PUSH1 0x0 RETURN INVALID PUSH1 0x80 PUSH1 0x40 MSTORE PUSH1 0x4 CALLDATASIZE LT PUSH2 0x3C3 JUMPI PUSH1 0x0 CALLDATALOAD PUSH1 0xE0 SHR DUP1 PUSH4 0x8855E092 GT PUSH2 0x1F2 JUMPI DUP1 PUSH4 0xCE1DDB6C GT PUSH2 0x10D JUMPI DUP1 PUSH4 0xE8EA79C0 GT PUSH2 0xA0 JUMPI DUP1 PUSH4 0xF2223C02 GT PUSH2 0x6F JUMPI DUP1 PUSH4 0xF2223C02 EQ PUSH2 0x6AD JUMPI DUP1 PUSH4 0xF3F43703 EQ PUSH2 0xA2F JUMPI DUP1 PUSH4 0xFDD562B8 EQ PUSH2 0x999 JUMPI DUP1 PUSH4 0xFEB3A68A EQ PUSH2 0xA5D JUMPI PUSH1 0x0 DUP1 REVERT JUMPDEST DUP1 PUSH4 0xE8EA79C0 EQ PUSH2 0x9FA JUMPI DUP1 PUSH4 0xEAC78B33 EQ PUSH2 0xA1A JUMPI DUP1 PUSH4 0xED9BC82A EQ PUSH2 0x5D5 JUMPI DUP1 PUSH4 0xEDABB0A3 EQ PUSH2 0x6C2 JUMPI PUSH1 0x0 DUP1 REVERT JUMPDEST DUP1 PUSH4 0xE2CEE544 GT PUSH2 0xDC JUMPI DUP1 PUSH4 0xE2CEE544 EQ PUSH2 0x9AE JUMPI DUP1 PUSH4 0xE52A6718 EQ PUSH2 0x9CD JUMPI DUP1 PUSH4 0xE613AE00 EQ PUSH2 0x5D5 JUMPI DUP1 PUSH4 0xE8449116 EQ PUSH2 0x794 JUMPI PUSH1 0x0 DUP1 REVERT JUMPDEST DUP1 PUSH4 0xCE1DDB6C EQ PUSH2 0x927 JUMPI DUP1 PUSH4 0xD271250E EQ PUSH2 0x954 JUMPI DUP1 PUSH4 0xDCE0B4E4 EQ PUSH2 0x982 JUMPI DUP1 PUSH4 0xE02E86B0 EQ PUSH2 0x999 JUMPI PUSH1 0x0 DUP1 REVERT JUMPDEST DUP1 PUSH4 0xB4627D35 GT PUSH2 0x185 JUMPI DUP1 PUSH4 0xC71F64E4 GT PUSH2 0x154 JUMPI DUP1 PUSH4 0xC71F64E4 EQ PUSH2 0x8F3 JUMPI DUP1 PUSH4 0xC8B01E6F EQ PUSH2 0x574 JUMPI DUP1 PUSH4 0xCC12EABC EQ PUSH2 0x3C8 JUMPI DUP1 PUSH4 0xCC65CC4A EQ PUSH2 0x8B5 JUMPI PUSH1 0x0 DUP1 REVERT JUMPDEST DUP1 PUSH4 0xB4627D35 EQ PUSH2 0x8B5 JUMPI DUP1 PUSH4 0xB8E43B33 EQ PUSH2 0x5D5 JUMPI DUP1 PUSH4 0xB9D86913 EQ PUSH2 0x5D5 JUMPI DUP1 PUSH4 0xC64CA020 EQ PUSH2 0x8D3 JUMPI PUSH1 0x0 DUP1 REVERT JUMPDEST DUP1 PUSH4 0xA21D1354 GT PUSH2 0x1C1 JUMPI DUP1 PUSH4 0xA21D1354 EQ PUSH2 0x84E JUMPI DUP1 PUSH4 0xA29BE1FA EQ PUSH2 0x895 JUMPI DUP1 PUSH4 0xA9DAE71C EQ PUSH2 0x5D5 JUMPI DUP1 PUSH4 0xB32F787B EQ PUSH2 0x720 JUMPI PUSH1 0x0 DUP1 REVERT JUMPDEST DUP1 PUSH4 0x8855E092 EQ PUSH2 0x7A9 JUMPI DUP1 PUSH4 0x8C3CB902 EQ PUSH2 0x7BE JUMPI DUP1 PUSH4 0x8F8EA384 EQ PUSH2 0x7D3 JUMPI DUP1 PUSH4 0x9142D7FB EQ PUSH2 0x82D JUMPI PUSH1 0x0 DUP1 REVERT JUMPDEST DUP1 PUSH4 0x4EEE7767 GT PUSH2 0x2E2 JUMPI DUP1 PUSH4 0x721C3DD0 GT PUSH2 0x275 JUMPI DUP1 PUSH4 0x77A714AE GT PUSH2 0x244 JUMPI DUP1 PUSH4 0x77A714AE EQ PUSH2 0x76E JUMPI DUP1 PUSH4 0x7AFFFDD2 EQ PUSH2 0x5D5 JUMPI DUP1 PUSH4 0x7D2E3084 EQ PUSH2 0x5D5 JUMPI DUP1 PUSH4 0x81D91480 EQ PUSH2 0x794 JUMPI PUSH1 0x0 DUP1 REVERT JUMPDEST DUP1 PUSH4 0x721C3DD0 EQ PUSH2 0x6ED JUMPI DUP1 PUSH4 0x73EE4508 EQ PUSH2 0x700 JUMPI DUP1 PUSH4 0x73F1E3C3 EQ PUSH2 0x720 JUMPI DUP1 PUSH4 0x778AFBB7 EQ PUSH2 0x735 JUMPI PUSH1 0x0 DUP1 REVERT JUMPDEST DUP1 PUSH4 0x5D83A5AA GT PUSH2 0x2B1 JUMPI DUP1 PUSH4 0x5D83A5AA EQ PUSH2 0x6AD JUMPI DUP1 PUSH4 0x618D569C EQ PUSH2 0x6C2 JUMPI DUP1 PUSH4 0x61BBD6DD EQ PUSH2 0x6D7 JUMPI DUP1 PUSH4 0x6D3358A1 EQ PUSH2 0x5D5 JUMPI PUSH1 0x0 DUP1 REVERT JUMPDEST DUP1 PUSH4 0x4EEE7767 EQ PUSH2 0x60A JUMPI DUP1 PUSH4 0x50704A50 EQ PUSH2 0x660 JUMPI DUP1 PUSH4 0x557CF477 EQ PUSH2 0x5D5 JUMPI DUP1 PUSH4 0x5BB58B17 EQ PUSH2 0x68D JUMPI PUSH1 0x0 DUP1 REVERT JUMPDEST DUP1 PUSH4 0x39A25290 GT PUSH2 0x35A JUMPI DUP1 PUSH4 0x459AF3AA GT PUSH2 0x329 JUMPI DUP1 PUSH4 0x459AF3AA EQ PUSH2 0x5B5 JUMPI DUP1 PUSH4 0x46934FC8 EQ PUSH2 0x5D5 JUMPI DUP1 PUSH4 0x46AB84E5 EQ PUSH2 0x5D5 JUMPI DUP1 PUSH4 0x4917DB66 EQ PUSH2 0x5EA JUMPI PUSH1 0x0 DUP1 REVERT JUMPDEST DUP1 PUSH4 0x39A25290 EQ PUSH2 0x535 JUMPI DUP1 PUSH4 0x39C33215 EQ PUSH2 0x55C JUMPI DUP1 PUSH4 0x3A0F4BF8 EQ PUSH2 0x574 JUMPI DUP1 PUSH4 0x3CCFD60B EQ PUSH2 0x59E JUMPI PUSH1 0x0 DUP1 REVERT JUMPDEST DUP1 PUSH4 0x1A12138F GT PUSH2 0x396 JUMPI DUP1 PUSH4 0x1A12138F EQ PUSH2 0x486 JUMPI DUP1 PUSH4 0x1C60450D EQ PUSH2 0x4BF JUMPI DUP1 PUSH4 0x24F74697 EQ PUSH2 0x4F1 JUMPI DUP1 PUSH4 0x33A89C40 EQ PUSH2 0x507 JUMPI PUSH1 0x0 DUP1 REVERT JUMPDEST DUP1 PUSH4 0x9D1BE19 EQ PUSH2 0x3C8 JUMPI DUP1 PUSH4 0x12629FAF EQ PUSH2 0x3F4 JUMPI DUP1 PUSH4 0x142C2F44 EQ PUSH2 0x436 JUMPI DUP1 PUSH4 0x189E8102 EQ PUSH2 0x44C JUMPI JUMPDEST PUSH1 0x0 DUP1 REVERT JUMPDEST CALLVALUE DUP1 ISZERO PUSH2 0x3D4 JUMPI PUSH1 0x0 DUP1 REVERT JUMPDEST POP PUSH2 0x3DD PUSH1 0x1 DUP2 JUMP JUMPDEST PUSH1 0x40 MLOAD PUSH1 0xFF SWAP1 SWAP2 AND DUP2 MSTORE PUSH1 0x20 ADD JUMPDEST PUSH1 0x40 MLOAD DUP1 SWAP2 SUB SWAP1 RETURN JUMPDEST CALLVALUE DUP1 ISZERO PUSH2 0x400 JUMPI PUSH1 0x0 DUP1 REVERT JUMPDEST POP PUSH2 0x428 PUSH32 0xA7A925E56B0F4627A3E4910A6E10D23A82143F84F9D73D587C9EF425941ACE8E DUP2 JUMP JUMPDEST PUSH1 0x40 MLOAD SWAP1 DUP2 MSTORE PUSH1 0x20 ADD PUSH2 0x3EB JUMP JUMPDEST CALLVALUE DUP1 ISZERO PUSH2 0x442 JUMPI PUSH1 0x0 DUP1 REVERT JUMPDEST POP PUSH2 0x428 PUSH1 0x69 SLOAD DUP2 JUMP JUMPDEST CALLVALUE DUP1 ISZERO PUSH2 0x458 JUMPI PUSH1 0x0 DUP1 REVERT JUMPDEST POP PUSH2 0x479 PUSH1 0x40 MLOAD DUP1 PUSH1 0x40 ADD PUSH1 0x40 MSTORE DUP1 PUSH1 0x1 DUP2 MSTORE PUSH1 0x20 ADD PUSH1 0x19 PUSH1 0xF9 SHL DUP2 MSTORE POP DUP2 JUMP JUMPDEST PUSH1 0x40 MLOAD PUSH2 0x3EB SWAP2 SWAP1 PUSH2 0x1AE6 JUMP JUMPDEST CALLVALUE DUP1 ISZERO PUSH2 0x492 JUMPI PUSH1 0x0 DUP1 REVERT JUMPDEST POP PUSH2 0x168 SLOAD PUSH2 0x4A7 SWAP1 PUSH1 0x1 PUSH1 0x1 PUSH1 0xA0 SHL SUB AND DUP2 JUMP JUMPDEST PUSH1 0x40 MLOAD PUSH1 0x1 PUSH1 0x1 PUSH1 0xA0 SHL SUB SWAP1 SWAP2 AND DUP2 MSTORE PUSH1 0x20 ADD PUSH2 0x3EB JUMP JUMPDEST CALLVALUE DUP1 ISZERO PUSH2 0x4CB JUMPI PUSH1 0x0 DUP1 REVERT JUMPDEST POP PUSH2 0x4DF PUSH2 0x4DA CALLDATASIZE PUSH1 0x4 PUSH2 0x1B00 JUMP JUMPDEST PUSH2 0xA91 JUMP JUMPDEST PUSH1 0x40 MLOAD PUSH2 0x3EB SWAP7 SWAP6 SWAP5 SWAP4 SWAP3 SWAP2 SWAP1 PUSH2 0x1B19 JUMP JUMPDEST CALLVALUE DUP1 ISZERO PUSH2 0x4FD JUMPI PUSH1 0x0 DUP1 REVERT JUMPDEST POP PUSH2 0x428 PUSH1 0x9C SLOAD DUP2 JUMP JUMPDEST CALLVALUE DUP1 ISZERO PUSH2 0x513 JUMPI PUSH1 0x0 DUP1 REVERT JUMPDEST POP PUSH2 0x428 PUSH2 0x522 CALLDATASIZE PUSH1 0x4 PUSH2 0x1B00 JUMP JUMPDEST PUSH2 0x16D PUSH1 0x20 MSTORE PUSH1 0x0 SWAP1 DUP2 MSTORE PUSH1 0x40 SWAP1 KECCAK256 SLOAD DUP2 JUMP JUMPDEST CALLVALUE DUP1 ISZERO PUSH2 0x541 JUMPI PUSH1 0x0 DUP1 REVERT JUMPDEST POP PUSH1 0x9D SLOAD PUSH2 0x54F SWAP1 PUSH1 0xFF AND DUP2 JUMP JUMPDEST PUSH1 0x40 MLOAD PUSH2 0x3EB SWAP2 SWAP1 PUSH2 0x1BA8 JUMP JUMPDEST CALLVALUE DUP1 ISZERO PUSH2 0x568 JUMPI PUSH1 0x0 DUP1 REVERT JUMPDEST POP PUSH2 0x428 PUSH4 0x1312D00 DUP2 JUMP JUMPDEST CALLVALUE DUP1 ISZERO PUSH2 0x580 JUMPI PUSH1 0x0 DUP1 REVERT JUMPDEST POP PUSH2 0x589 PUSH1 0x1 DUP2 JUMP JUMPDEST PUSH1 0x40 MLOAD PUSH4 0xFFFFFFFF SWAP1 SWAP2 AND DUP2 MSTORE PUSH1 0x20 ADD PUSH2 0x3EB JUMP JUMPDEST CALLVALUE DUP1 ISZERO PUSH2 0x5AA JUMPI PUSH1 0x0 DUP1 REVERT JUMPDEST POP PUSH2 0x5B3 PUSH2 0xBED JUMP JUMPDEST STOP JUMPDEST CALLVALUE DUP1 ISZERO PUSH2 0x5C1 JUMPI PUSH1 0x0 DUP1 REVERT JUMPDEST POP PUSH2 0x5B3 PUSH2 0x5D0 CALLDATASIZE PUSH1 0x4 PUSH2 0x1C19 JUMP JUMPDEST PUSH2 0xCA3 JUMP JUMPDEST CALLVALUE DUP1 ISZERO PUSH2 0x5E1 JUMPI PUSH1 0x0 DUP1 REVERT JUMPDEST POP PUSH2 0x4A7 PUSH1 0x0 DUP2 JUMP JUMPDEST CALLVALUE DUP1 ISZERO PUSH2 0x5F6 JUMPI PUSH1 0x0 DUP1 REVERT JUMPDEST POP PUSH1 0x9B SLOAD PUSH2 0x4A7 SWAP1 PUSH1 0x1 PUSH1 0x1 PUSH1 0xA0 SHL SUB AND DUP2 JUMP JUMPDEST CALLVALUE DUP1 ISZERO PUSH2 0x616 JUMPI PUSH1 0x0 DUP1 REVERT JUMPDEST POP PUSH2 0x646 PUSH2 0x625 CALLDATASIZE PUSH1 0x4 PUSH2 0x1CB7 JUMP JUMPDEST PUSH1 0x33 PUSH1 0x20 MSTORE PUSH1 0x0 SWAP1 DUP2 MSTORE PUSH1 0x40 SWAP1 KECCAK256 SLOAD PUSH1 0xF DUP2 DUP2 SIGNEXTEND SWAP2 PUSH1 0x1 PUSH1 0x80 SHL SWAP1 DIV SWAP1 SIGNEXTEND DUP3 JUMP JUMPDEST PUSH1 0x40 DUP1 MLOAD PUSH1 0xF SWAP4 DUP5 SIGNEXTEND DUP2 MSTORE SWAP2 SWAP1 SWAP3 SIGNEXTEND PUSH1 0x20 DUP3 ADD MSTORE ADD PUSH2 0x3EB JUMP JUMPDEST CALLVALUE DUP1 ISZERO PUSH2 0x66C JUMPI PUSH1 0x0 DUP1 REVERT JUMPDEST POP PUSH2 0x479 PUSH1 0x40 MLOAD DUP1 PUSH1 0x40 ADD PUSH1 0x40 MSTORE DUP1 PUSH1 0x1 DUP2 MSTORE PUSH1 0x20 ADD PUSH1 0x31 PUSH1 0xF8 SHL DUP2 MSTORE POP DUP2 JUMP JUMPDEST CALLVALUE DUP1 ISZERO PUSH2 0x699 JUMPI PUSH1 0x0 DUP1 REVERT JUMPDEST POP PUSH2 0x479 PUSH2 0x6A8 CALLDATASIZE PUSH1 0x4 PUSH2 0x1B00 JUMP JUMPDEST PUSH2 0xD81 JUMP JUMPDEST CALLVALUE DUP1 ISZERO PUSH2 0x6B9 JUMPI PUSH1 0x0 DUP1 REVERT JUMPDEST POP PUSH2 0x589 PUSH1 0x2 DUP2 JUMP JUMPDEST CALLVALUE DUP1 ISZERO PUSH2 0x6CE JUMPI PUSH1 0x0 DUP1 REVERT JUMPDEST POP PUSH2 0x3DD PUSH1 0x2 DUP2 JUMP JUMPDEST CALLVALUE DUP1 ISZERO PUSH2 0x6E3 JUMPI PUSH1 0x0 DUP1 REVERT JUMPDEST POP PUSH2 0x428 PUSH2 0x400 DUP2 JUMP JUMPDEST PUSH2 0x5B3 PUSH2 0x6FB CALLDATASIZE PUSH1 0x4 PUSH2 0x1B00 JUMP JUMPDEST PUSH2 0xE1C JUMP JUMPDEST CALLVALUE DUP1 ISZERO PUSH2 0x70C JUMPI PUSH1 0x0 DUP1 REVERT JUMPDEST POP PUSH1 0xD0 SLOAD PUSH2 0x4A7 SWAP1 PUSH1 0x1 PUSH1 0x1 PUSH1 0xA0 SHL SUB AND DUP2 JUMP JUMPDEST CALLVALUE DUP1 ISZERO PUSH2 0x72C JUMPI PUSH1 0x0 DUP1 REVERT JUMPDEST POP PUSH2 0x3DD PUSH1 0x4 DUP2 JUMP JUMPDEST CALLVALUE DUP1 ISZERO PUSH2 0x741 JUMPI PUSH1 0x0 DUP1 REVERT JUMPDEST POP PUSH2 0x428 PUSH2 0x750 CALLDATASIZE PUSH1 0x4 PUSH2 0x1CEA JUMP JUMPDEST DUP1 MLOAD PUSH1 0x20 DUP2 DUP4 ADD DUP2 ADD DUP1 MLOAD PUSH2 0x16C DUP3 MSTORE SWAP3 DUP3 ADD SWAP2 SWAP1 SWAP4 ADD KECCAK256 SWAP2 MSTORE SLOAD DUP2 JUMP JUMPDEST CALLVALUE DUP1 ISZERO PUSH2 0x77A JUMPI PUSH1 0x0 DUP1 REVERT JUMPDEST POP PUSH1 0x67 SLOAD PUSH2 0x4A7 SWAP1 PUSH3 0x10000 SWAP1 DIV PUSH1 0x1 PUSH1 0x1 PUSH1 0xA0 SHL SUB AND DUP2 JUMP JUMPDEST CALLVALUE DUP1 ISZERO PUSH2 0x7A0 JUMPI PUSH1 0x0 DUP1 REVERT JUMPDEST POP PUSH2 0x3DD PUSH1 0x3 DUP2 JUMP JUMPDEST CALLVALUE DUP1 ISZERO PUSH2 0x7B5 JUMPI PUSH1 0x0 DUP1 REVERT JUMPDEST POP PUSH2 0x589 PUSH1 0x0 DUP2 JUMP JUMPDEST CALLVALUE DUP1 ISZERO PUSH2 0x7CA JUMPI PUSH1 0x0 DUP1 REVERT JUMPDEST POP PUSH2 0x589 PUSH1 0x4 DUP2 JUMP JUMPDEST CALLVALUE DUP1 ISZERO PUSH2 0x7DF JUMPI PUSH1 0x0 DUP1 REVERT JUMPDEST POP PUSH2 0x815 PUSH2 0x7EE CALLDATASIZE PUSH1 0x4 PUSH2 0x1D9A JUMP JUMPDEST PUSH2 0x16E PUSH1 0x20 SWAP1 DUP2 MSTORE PUSH1 0x0 SWAP3 DUP4 MSTORE PUSH1 0x40 DUP1 DUP5 KECCAK256 SWAP1 SWAP2 MSTORE SWAP1 DUP3 MSTORE SWAP1 KECCAK256 SLOAD PUSH1 0x1 PUSH1 0x1 PUSH1 0x40 SHL SUB AND DUP2 JUMP JUMPDEST PUSH1 0x40 MLOAD PUSH1 0x1 PUSH1 0x1 PUSH1 0x40 SHL SUB SWAP1 SWAP2 AND DUP2 MSTORE PUSH1 0x20 ADD PUSH2 0x3EB JUMP JUMPDEST CALLVALUE DUP1 ISZERO PUSH2 0x839 JUMPI PUSH1 0x0 DUP1 REVERT JUMPDEST POP PUSH2 0x103 SLOAD PUSH2 0x4A7 SWAP1 PUSH1 0x1 PUSH1 0x1 PUSH1 0xA0 SHL SUB AND DUP2 JUMP JUMPDEST CALLVALUE DUP1 ISZERO PUSH2 0x85A JUMPI PUSH1 0x0 DUP1 REVERT JUMPDEST POP PUSH1 0x40 DUP1 MLOAD DUP1 DUP3 ADD DUP3 MSTORE PUSH1 0x6 DUP2 MSTORE PUSH6 0x436F6E666967 PUSH1 0xD0 SHL PUSH1 0x20 DUP1 DUP4 ADD SWAP2 SWAP1 SWAP2 MSTORE DUP3 MLOAD SWAP1 DUP2 ADD DUP4 MSTORE PUSH1 0x0 DUP1 DUP3 MSTORE SWAP3 MLOAD PUSH2 0x3EB SWAP4 SWAP3 SWAP2 SWAP1 PUSH2 0x1DC6 JUMP JUMPDEST CALLVALUE DUP1 ISZERO PUSH2 0x8A1 JUMPI PUSH1 0x0 DUP1 REVERT JUMPDEST POP PUSH2 0x5B3 PUSH2 0x8B0 CALLDATASIZE PUSH1 0x4 PUSH2 0x1DFB JUMP JUMPDEST PUSH2 0x1184 JUMP JUMPDEST CALLVALUE DUP1 ISZERO PUSH2 0x8C1 JUMPI PUSH1 0x0 DUP1 REVERT JUMPDEST POP PUSH2 0x5B3 PUSH2 0x8D0 CALLDATASIZE PUSH1 0x4 PUSH2 0x1E4B JUMP JUMPDEST POP JUMP JUMPDEST CALLVALUE DUP1 ISZERO PUSH2 0x8DF JUMPI PUSH1 0x0 DUP1 REVERT JUMPDEST POP PUSH2 0x5B3 PUSH2 0x8EE CALLDATASIZE PUSH1 0x4 PUSH2 0x1E66 JUMP JUMPDEST PUSH2 0x1420 JUMP JUMPDEST CALLVALUE DUP1 ISZERO PUSH2 0x8FF JUMPI PUSH1 0x0 DUP1 REVERT JUMPDEST POP PUSH2 0x428 PUSH32 0xE52B0C82D70862ECC57DD0FA972F308948292049A31FA59A5B152CE07497FDED DUP2 JUMP JUMPDEST CALLVALUE DUP1 ISZERO PUSH2 0x933 JUMPI PUSH1 0x0 DUP1 REVERT JUMPDEST POP PUSH2 0x479 PUSH1 0x40 MLOAD DUP1 PUSH1 0x40 ADD PUSH1 0x40 MSTORE DUP1 PUSH1 0x1 DUP2 MSTORE PUSH1 0x20 ADD PUSH1 0x33 PUSH1 0xF8 SHL DUP2 MSTORE POP DUP2 JUMP JUMPDEST CALLVALUE DUP1 ISZERO PUSH2 0x960 JUMPI PUSH1 0x0 DUP1 REVERT JUMPDEST POP PUSH2 0x428 PUSH2 0x96F CALLDATASIZE PUSH1 0x4 PUSH2 0x1CB7 JUMP JUMPDEST PUSH2 0x16A PUSH1 0x20 MSTORE PUSH1 0x0 SWAP1 DUP2 MSTORE PUSH1 0x40 SWAP1 KECCAK256 SLOAD DUP2 JUMP JUMPDEST CALLVALUE DUP1 ISZERO PUSH2 0x98E JUMPI PUSH1 0x0 DUP1 REVERT JUMPDEST POP PUSH2 0x428 PUSH2 0x169 SLOAD DUP2 JUMP JUMPDEST CALLVALUE DUP1 ISZERO PUSH2 0x9A5 JUMPI PUSH1 0x0 DUP1 REVERT JUMPDEST POP PUSH2 0x3DD PUSH1 0x6 DUP2 JUMP JUMPDEST CALLVALUE DUP1 ISZERO PUSH2 0x9BA JUMPI PUSH1 0x0 DUP1 REVERT JUMPDEST POP PUSH1 0x67 SLOAD PUSH2 0x3DD SWAP1 PUSH2 0x100 SWAP1 DIV PUSH1 0xFF AND DUP2 JUMP JUMPDEST CALLVALUE DUP1 ISZERO PUSH2 0x9D9 JUMPI PUSH1 0x0 DUP1 REVERT JUMPDEST POP PUSH2 0x479 PUSH1 0x40 MLOAD DUP1 PUSH1 0x40 ADD PUSH1 0x40 MSTORE DUP1 PUSH1 0x1 DUP2 MSTORE PUSH1 0x20 ADD PUSH1 0x3 PUSH1 0xFC SHL DUP2 MSTORE POP DUP2 JUMP JUMPDEST CALLVALUE DUP1 ISZERO PUSH2 0xA06 JUMPI PUSH1 0x0 DUP1 REVERT JUMPDEST POP PUSH1 0x68 SLOAD PUSH2 0x4A7 SWAP1 PUSH1 0x1 PUSH1 0x1 PUSH1 0xA0 SHL SUB AND DUP2 JUMP JUMPDEST CALLVALUE DUP1 ISZERO PUSH2 0xA26 JUMPI PUSH1 0x0 DUP1 REVERT JUMPDEST POP PUSH2 0x3DD PUSH1 0x5 DUP2 JUMP JUMPDEST CALLVALUE DUP1 ISZERO PUSH2 0xA3B JUMPI PUSH1 0x0 DUP1 REVERT JUMPDEST POP PUSH2 0x428 PUSH2 0xA4A CALLDATASIZE PUSH1 0x4 PUSH2 0x1CB7 JUMP JUMPDEST PUSH2 0x16F PUSH1 0x20 MSTORE PUSH1 0x0 SWAP1 DUP2 MSTORE PUSH1 0x40 SWAP1 KECCAK256 SLOAD DUP2 JUMP JUMPDEST CALLVALUE DUP1 ISZERO PUSH2 0xA69 JUMPI PUSH1 0x0 DUP1 REVERT JUMPDEST POP PUSH2 0x428 PUSH32 0x757D0265D5DE9FF03394896C4C44C92950E6E9565F35923C097AED8E1128E4CB DUP2 JUMP JUMPDEST PUSH1 0x34 PUSH1 0x20 MSTORE PUSH1 0x0 SWAP1 DUP2 MSTORE PUSH1 0x40 SWAP1 KECCAK256 DUP1 SLOAD PUSH1 0x1 DUP3 ADD SLOAD PUSH1 0x2 DUP4 ADD DUP1 SLOAD PUSH1 0x1 PUSH1 0x1 PUSH1 0xA0 SHL SUB DUP5 AND SWAP5 PUSH1 0x1 PUSH1 0xA0 SHL DUP6 DIV PUSH4 0xFFFFFFFF AND SWAP5 PUSH1 0x1 PUSH1 0xC0 SHL SWAP1 DIV PUSH1 0xFF AND SWAP4 SWAP3 SWAP1 SWAP2 PUSH2 0xADC SWAP1 PUSH2 0x1EB7 JUMP JUMPDEST DUP1 PUSH1 0x1F ADD PUSH1 0x20 DUP1 SWAP2 DIV MUL PUSH1 0x20 ADD PUSH1 0x40 MLOAD SWAP1 DUP2 ADD PUSH1 0x40 MSTORE DUP1 SWAP3 SWAP2 SWAP1 DUP2 DUP2 MSTORE PUSH1 0x20 ADD DUP3 DUP1 SLOAD PUSH2 0xB08 SWAP1 PUSH2 0x1EB7 JUMP JUMPDEST DUP1 ISZERO PUSH2 0xB55 JUMPI DUP1 PUSH1 0x1F LT PUSH2 0xB2A JUMPI PUSH2 0x100 DUP1 DUP4 SLOAD DIV MUL DUP4 MSTORE SWAP2 PUSH1 0x20 ADD SWAP2 PUSH2 0xB55 JUMP JUMPDEST DUP3 ADD SWAP2 SWAP1 PUSH1 0x0 MSTORE PUSH1 0x20 PUSH1 0x0 KECCAK256 SWAP1 JUMPDEST DUP2 SLOAD DUP2 MSTORE SWAP1 PUSH1 0x1 ADD SWAP1 PUSH1 0x20 ADD DUP1 DUP4 GT PUSH2 0xB38 JUMPI DUP3 SWAP1 SUB PUSH1 0x1F AND DUP3 ADD SWAP2 JUMPDEST POP POP POP POP POP SWAP1 DUP1 PUSH1 0x3 ADD DUP1 SLOAD PUSH2 0xB6A SWAP1 PUSH2 0x1EB7 JUMP JUMPDEST DUP1 PUSH1 0x1F ADD PUSH1 0x20 DUP1 SWAP2 DIV MUL PUSH1 0x20 ADD PUSH1 0x40 MLOAD SWAP1 DUP2 ADD PUSH1 0x40 MSTORE DUP1 SWAP3 SWAP2 SWAP1 DUP2 DUP2 MSTORE PUSH1 0x20 ADD DUP3 DUP1 SLOAD PUSH2 0xB96 SWAP1 PUSH2 0x1EB7 JUMP JUMPDEST DUP1 ISZERO PUSH2 0xBE3 JUMPI DUP1 PUSH1 0x1F LT PUSH2 0xBB8 JUMPI PUSH2 0x100 DUP1 DUP4 SLOAD DIV MUL DUP4 MSTORE SWAP2 PUSH1 0x20 ADD SWAP2 PUSH2 0xBE3 JUMP JUMPDEST DUP3 ADD SWAP2 SWAP1 PUSH1 0x0 MSTORE PUSH1 0x20 PUSH1 0x0 KECCAK256 SWAP1 JUMPDEST DUP2 SLOAD DUP2 MSTORE SWAP1 PUSH1 0x1 ADD SWAP1 PUSH1 0x20 ADD DUP1 DUP4 GT PUSH2 0xBC6 JUMPI DUP3 SWAP1 SUB PUSH1 0x1F AND DUP3 ADD SWAP2 JUMPDEST POP POP POP POP POP SWAP1 POP DUP7 JUMP JUMPDEST PUSH2 0xBF5 PUSH2 0x15C4 JUMP JUMPDEST CALLER PUSH1 0x0 SWAP1 DUP2 MSTORE PUSH2 0x16F PUSH1 0x20 MSTORE PUSH1 0x40 SWAP1 KECCAK256 SLOAD DUP1 PUSH2 0xC58 JUMPI PUSH1 0x40 MLOAD PUSH3 0x461BCD PUSH1 0xE5 SHL DUP2 MSTORE PUSH1 0x20 PUSH1 0x4 DUP3 ADD DUP2 SWAP1 MSTORE PUSH1 0x24 DUP3 ADD MSTORE PUSH32 0x426C756669656C643A206E6F2070656E64696E67207769746864726177616C73 PUSH1 0x44 DUP3 ADD MSTORE PUSH1 0x64 ADD JUMPDEST PUSH1 0x40 MLOAD DUP1 SWAP2 SUB SWAP1 REVERT JUMPDEST CALLER PUSH1 0x0 DUP2 DUP2 MSTORE PUSH2 0x16F PUSH1 0x20 MSTORE PUSH1 0x40 DUP1 DUP3 KECCAK256 DUP3 SWAP1 SSTORE MLOAD DUP4 ISZERO PUSH2 0x8FC MUL SWAP2 DUP5 SWAP2 SWAP1 DUP2 DUP2 DUP2 DUP6 DUP9 DUP9 CALL SWAP4 POP POP POP POP ISZERO DUP1 ISZERO PUSH2 0xC94 JUMPI RETURNDATASIZE PUSH1 0x0 DUP1 RETURNDATACOPY RETURNDATASIZE PUSH1 0x0 REVERT JUMPDEST POP POP PUSH2 0xCA1 PUSH1 0x1 PUSH2 0x136 SSTORE JUMP JUMPDEST JUMP JUMPDEST PUSH2 0x103 SLOAD PUSH1 0x40 DUP1 MLOAD DUP1 DUP3 ADD DUP3 MSTORE PUSH1 0x1 DUP2 MSTORE PUSH1 0x3 PUSH1 0xFC SHL PUSH1 0x20 DUP1 DUP4 ADD SWAP2 SWAP1 SWAP2 MSTORE SWAP2 MLOAD PUSH1 0x1 PUSH1 0x1 PUSH1 0xA0 SHL SUB SWAP1 SWAP4 AND CALLER EQ SWAP3 PUSH2 0xCDC SWAP3 ADD PUSH2 0x1EF1 JUMP JUMPDEST PUSH1 0x40 MLOAD PUSH1 0x20 DUP2 DUP4 SUB SUB DUP2 MSTORE SWAP1 PUSH1 0x40 MSTORE SWAP1 PUSH2 0xD09 JUMPI PUSH1 0x40 MLOAD PUSH3 0x461BCD PUSH1 0xE5 SHL DUP2 MSTORE PUSH1 0x4 ADD PUSH2 0xC4F SWAP2 SWAP1 PUSH2 0x1AE6 JUMP JUMPDEST POP PUSH1 0x6 PUSH1 0xFF AND DUP6 PUSH1 0xFF AND EQ PUSH1 0x40 MLOAD DUP1 PUSH1 0x40 ADD PUSH1 0x40 MSTORE DUP1 PUSH1 0x1 DUP2 MSTORE PUSH1 0x20 ADD PUSH1 0x31 PUSH1 0xF8 SHL DUP2 MSTORE POP PUSH1 0x40 MLOAD PUSH1 0x20 ADD PUSH2 0xD3E SWAP2 SWAP1 PUSH2 0x1EF1 JUMP JUMPDEST PUSH1 0x40 MLOAD PUSH1 0x20 DUP2 DUP4 SUB SUB DUP2 MSTORE SWAP1 PUSH1 0x40 MSTORE SWAP1 PUSH2 0xD6B JUMPI PUSH1 0x40 MLOAD PUSH3 0x461BCD PUSH1 0xE5 SHL DUP2 MSTORE PUSH1 0x4 ADD PUSH2 0xC4F SWAP2 SWAP1 PUSH2 0x1AE6 JUMP JUMPDEST POP PUSH2 0xD79 DUP7 DUP6 DUP6 DUP6 DUP6 PUSH2 0x161F JUMP JUMPDEST POP POP POP POP POP POP JUMP JUMPDEST PUSH2 0x16B PUSH1 0x20 MSTORE PUSH1 0x0 SWAP1 DUP2 MSTORE PUSH1 0x40 SWAP1 KECCAK256 DUP1 SLOAD PUSH2 0xD9B SWAP1 PUSH2 0x1EB7 JUMP JUMPDEST DUP1 PUSH1 0x1F ADD PUSH1 0x20 DUP1 SWAP2 DIV MUL PUSH1 0x20 ADD PUSH1 0x40 MLOAD SWAP1 DUP2 ADD PUSH1 0x40 MSTORE DUP1 SWAP3 SWAP2 SWAP1 DUP2 DUP2 MSTORE PUSH1 0x20 ADD DUP3 DUP1 SLOAD PUSH2 0xDC7 SWAP1 PUSH2 0x1EB7 JUMP JUMPDEST DUP1 ISZERO PUSH2 0xE14 JUMPI DUP1 PUSH1 0x1F LT PUSH2 0xDE9 JUMPI PUSH2 0x100 DUP1 DUP4 SLOAD DIV MUL DUP4 MSTORE SWAP2 PUSH1 0x20 ADD SWAP2 PUSH2 0xE14 JUMP JUMPDEST DUP3 ADD SWAP2 SWAP1 PUSH1 0x0 MSTORE PUSH1 0x20 PUSH1 0x0 KECCAK256 SWAP1 JUMPDEST DUP2 SLOAD DUP2 MSTORE SWAP1 PUSH1 0x1 ADD SWAP1 PUSH1 0x20 ADD DUP1 DUP4 GT PUSH2 0xDF7 JUMPI DUP3 SWAP1 SUB PUSH1 0x1F AND DUP3 ADD SWAP2 JUMPDEST POP POP POP POP POP DUP2 JUMP JUMPDEST PUSH2 0xE24 PUSH2 0x15C4 JUMP JUMPDEST PUSH1 0x0 DUP2 DUP2 MSTORE PUSH2 0x16B PUSH1 0x20 MSTORE PUSH1 0x40 DUP2 KECCAK256 DUP1 SLOAD PUSH2 0xE3E SWAP1 PUSH2 0x1EB7 JUMP JUMPDEST SWAP1 POP GT PUSH2 0xE8D JUMPI PUSH1 0x40 MLOAD PUSH3 0x461BCD PUSH1 0xE5 SHL DUP2 MSTORE PUSH1 0x20 PUSH1 0x4 DUP3 ADD MSTORE PUSH1 0x1E PUSH1 0x24 DUP3 ADD MSTORE PUSH32 0x426C756669656C643A206669656C64206E6F7420726567697374657265640000 PUSH1 0x44 DUP3 ADD MSTORE PUSH1 0x64 ADD PUSH2 0xC4F JUMP JUMPDEST PUSH2 0x168 SLOAD PUSH1 0x40 MLOAD PUSH4 0x31A9108F PUSH1 0xE1 SHL DUP2 MSTORE PUSH1 0x4 DUP2 ADD DUP4 SWAP1 MSTORE PUSH1 0x0 SWAP2 PUSH1 0x1 PUSH1 0x1 PUSH1 0xA0 SHL SUB AND SWAP1 PUSH4 0x6352211E SWAP1 PUSH1 0x24 ADD PUSH1 0x20 PUSH1 0x40 MLOAD DUP1 DUP4 SUB DUP2 DUP7 GAS STATICCALL ISZERO DUP1 ISZERO PUSH2 0xED8 JUMPI RETURNDATASIZE PUSH1 0x0 DUP1 RETURNDATACOPY RETURNDATASIZE PUSH1 0x0 REVERT JUMPDEST POP POP POP POP PUSH1 0x40 MLOAD RETURNDATASIZE PUSH1 0x1F NOT PUSH1 0x1F DUP3 ADD AND DUP3 ADD DUP1 PUSH1 0x40 MSTORE POP DUP2 ADD SWAP1 PUSH2 0xEFC SWAP2 SWAP1 PUSH2 0x1F23 JUMP JUMPDEST SWAP1 POP PUSH1 0x1 PUSH1 0x1 PUSH1 0xA0 SHL SUB DUP2 AND PUSH2 0xF64 JUMPI PUSH1 0x40 MLOAD PUSH3 0x461BCD PUSH1 0xE5 SHL DUP2 MSTORE PUSH1 0x20 PUSH1 0x4 DUP3 ADD MSTORE PUSH1 0x27 PUSH1 0x24 DUP3 ADD MSTORE PUSH32 0x426C756669656C643A2063616E6E6F742073756273637269626520746F206F77 PUSH1 0x44 DUP3 ADD MSTORE PUSH7 0x1B88199A595B19 PUSH1 0xCA SHL PUSH1 0x64 DUP3 ADD MSTORE PUSH1 0x84 ADD PUSH2 0xC4F JUMP JUMPDEST PUSH1 0x0 DUP3 DUP2 MSTORE PUSH2 0x16D PUSH1 0x20 MSTORE PUSH1 0x40 SWAP1 KECCAK256 SLOAD CALLVALUE DUP2 GT ISZERO PUSH2 0xFC4 JUMPI PUSH1 0x40 MLOAD PUSH3 0x461BCD PUSH1 0xE5 SHL DUP2 MSTORE PUSH1 0x20 PUSH1 0x4 DUP3 ADD MSTORE PUSH1 0x1E PUSH1 0x24 DUP3 ADD MSTORE PUSH32 0x426C756669656C643A20696E73756666696369656E74207061796D656E740000 PUSH1 0x44 DUP3 ADD MSTORE PUSH1 0x64 ADD PUSH2 0xC4F JUMP JUMPDEST PUSH1 0x1 PUSH1 0x1 PUSH1 0xA0 SHL SUB DUP3 AND PUSH1 0x0 SWAP1 DUP2 MSTORE PUSH2 0x16F PUSH1 0x20 MSTORE PUSH1 0x40 DUP2 KECCAK256 DUP1 SLOAD DUP4 SWAP3 SWAP1 PUSH2 0xFED SWAP1 DUP5 SWAP1 PUSH2 0x1F56 JUMP JUMPDEST SWAP1 SWAP2 SSTORE POP POP CALLER PUSH1 0x0 SWAP1 DUP2 MSTORE PUSH2 0x16E PUSH1 0x20 SWAP1 DUP2 MSTORE PUSH1 0x40 DUP1 DUP4 KECCAK256 DUP7 DUP5 MSTORE SWAP1 SWAP2 MSTORE DUP2 KECCAK256 SLOAD PUSH1 0x1 PUSH1 0x1 PUSH1 0x40 SHL SUB AND SWAP1 DUP2 DUP2 SUB PUSH2 0x106E JUMPI PUSH2 0x102C TIMESTAMP PUSH3 0x278D00 PUSH2 0x1F56 JUMP JUMPDEST CALLER PUSH1 0x0 SWAP1 DUP2 MSTORE PUSH2 0x16E PUSH1 0x20 SWAP1 DUP2 MSTORE PUSH1 0x40 DUP1 DUP4 KECCAK256 DUP10 DUP5 MSTORE SWAP1 SWAP2 MSTORE DUP2 KECCAK256 DUP1 SLOAD PUSH8 0xFFFFFFFFFFFFFFFF NOT AND PUSH1 0x1 PUSH1 0x1 PUSH1 0x40 SHL SUB SWAP4 SWAP1 SWAP4 AND SWAP3 SWAP1 SWAP3 OR SWAP1 SWAP2 SSTORE SWAP1 POP PUSH2 0x10B9 JUMP JUMPDEST PUSH2 0x107B DUP3 PUSH3 0x278D00 PUSH2 0x1F6F JUMP JUMPDEST CALLER PUSH1 0x0 SWAP1 DUP2 MSTORE PUSH2 0x16E PUSH1 0x20 SWAP1 DUP2 MSTORE PUSH1 0x40 DUP1 DUP4 KECCAK256 DUP10 DUP5 MSTORE SWAP1 SWAP2 MSTORE SWAP1 KECCAK256 DUP1 SLOAD PUSH8 0xFFFFFFFFFFFFFFFF NOT AND PUSH1 0x1 PUSH1 0x1 PUSH1 0x40 SHL SUB SWAP3 SWAP1 SWAP3 AND SWAP2 SWAP1 SWAP2 OR SWAP1 SSTORE POP PUSH1 0x2 JUMPDEST PUSH1 0x40 DUP1 MLOAD PUSH1 0x1 DUP1 DUP3 MSTORE DUP2 DUP4 ADD SWAP1 SWAP3 MSTORE PUSH1 0x0 SWAP2 PUSH1 0x20 DUP1 DUP4 ADD SWAP1 DUP1 CALLDATASIZE DUP4 CALLDATACOPY POP POP PUSH1 0x40 DUP1 MLOAD PUSH1 0x1 DUP1 DUP3 MSTORE DUP2 DUP4 ADD SWAP1 SWAP3 MSTORE SWAP3 SWAP4 POP PUSH1 0x0 SWAP3 SWAP2 POP PUSH1 0x20 DUP1 DUP4 ADD SWAP1 DUP1 CALLDATASIZE DUP4 CALLDATACOPY ADD SWAP1 POP POP SWAP1 POP CALLER DUP3 PUSH1 0x0 DUP2 MLOAD DUP2 LT PUSH2 0x1112 JUMPI PUSH2 0x1112 PUSH2 0x1F96 JUMP JUMPDEST PUSH1 0x20 MUL PUSH1 0x20 ADD ADD SWAP1 PUSH1 0x1 PUSH1 0x1 PUSH1 0xA0 SHL SUB AND SWAP1 DUP2 PUSH1 0x1 PUSH1 0x1 PUSH1 0xA0 SHL SUB AND DUP2 MSTORE POP POP DUP4 DUP2 PUSH1 0x0 DUP2 MLOAD DUP2 LT PUSH2 0x1146 JUMPI PUSH2 0x1146 PUSH2 0x1F96 JUMP JUMPDEST PUSH1 0x20 MUL PUSH1 0x20 ADD ADD SWAP1 PUSH1 0x1 PUSH1 0x1 PUSH1 0x40 SHL SUB AND SWAP1 DUP2 PUSH1 0x1 PUSH1 0x1 PUSH1 0x40 SHL SUB AND DUP2 MSTORE POP POP PUSH2 0x1173 DUP7 DUP9 DUP6 DUP6 DUP6 PUSH2 0x175B JUMP JUMPDEST POP POP POP POP POP POP PUSH2 0x8D0 PUSH1 0x1 PUSH2 0x136 SSTORE JUMP JUMPDEST PUSH2 0x118C PUSH2 0x15C4 JUMP JUMPDEST PUSH2 0x168 SLOAD PUSH1 0x40 MLOAD PUSH4 0x31A9108F PUSH1 0xE1 SHL DUP2 MSTORE PUSH1 0x4 DUP2 ADD DUP5 SWAP1 MSTORE CALLER SWAP2 PUSH1 0x1 PUSH1 0x1 PUSH1 0xA0 SHL SUB AND SWAP1 PUSH4 0x6352211E SWAP1 PUSH1 0x24 ADD PUSH1 0x20 PUSH1 0x40 MLOAD DUP1 DUP4 SUB DUP2 DUP7 GAS STATICCALL ISZERO DUP1 ISZERO PUSH2 0x11D6 JUMPI RETURNDATASIZE PUSH1 0x0 DUP1 RETURNDATACOPY RETURNDATASIZE PUSH1 0x0 REVERT JUMPDEST POP POP POP POP PUSH1 0x40 MLOAD RETURNDATASIZE PUSH1 0x1F NOT PUSH1 0x1F DUP3 ADD AND DUP3 ADD DUP1 PUSH1 0x40 MSTORE POP DUP2 ADD SWAP1 PUSH2 0x11FA SWAP2 SWAP1 PUSH2 0x1F23 JUMP JUMPDEST PUSH1 0x1 PUSH1 0x1 PUSH1 0xA0 SHL SUB AND EQ PUSH2 0x1246 JUMPI PUSH1 0x40 MLOAD PUSH3 0x461BCD PUSH1 0xE5 SHL DUP2 MSTORE PUSH1 0x20 PUSH1 0x4 DUP3 ADD MSTORE PUSH1 0x13 PUSH1 0x24 DUP3 ADD MSTORE PUSH19 0x21363AB334B2B6321D103737BA1037BBB732B9 PUSH1 0x69 SHL PUSH1 0x44 DUP3 ADD MSTORE PUSH1 0x64 ADD PUSH2 0xC4F JUMP JUMPDEST DUP3 PUSH2 0x1293 JUMPI PUSH1 0x40 MLOAD PUSH3 0x461BCD PUSH1 0xE5 SHL DUP2 MSTORE PUSH1 0x20 PUSH1 0x4 DUP3 ADD MSTORE PUSH1 0x17 PUSH1 0x24 DUP3 ADD MSTORE PUSH32 0x426C756669656C643A206E616D6520697320656D707479000000000000000000 PUSH1 0x44 DUP3 ADD MSTORE PUSH1 0x64 ADD PUSH2 0xC4F JUMP JUMPDEST CALLER PUSH1 0x0 SWAP1 DUP2 MSTORE PUSH2 0x16A PUSH1 0x20 MSTORE PUSH1 0x40 SWAP1 KECCAK256 SLOAD ISZERO PUSH2 0x12F1 JUMPI PUSH1 0x40 MLOAD PUSH3 0x461BCD PUSH1 0xE5 SHL DUP2 MSTORE PUSH1 0x20 PUSH1 0x4 DUP3 ADD MSTORE PUSH1 0x1C PUSH1 0x24 DUP3 ADD MSTORE PUSH32 0x426C756669656C643A20616C7265616479207265676973746572656400000000 PUSH1 0x44 DUP3 ADD MSTORE PUSH1 0x64 ADD PUSH2 0xC4F JUMP JUMPDEST PUSH2 0x16C DUP5 DUP5 PUSH1 0x40 MLOAD PUSH2 0x1304 SWAP3 SWAP2 SWAP1 PUSH2 0x1FAC JUMP JUMPDEST SWAP1 DUP2 MSTORE PUSH1 0x20 ADD PUSH1 0x40 MLOAD DUP1 SWAP2 SUB SWAP1 KECCAK256 SLOAD PUSH1 0x0 EQ PUSH2 0x1362 JUMPI PUSH1 0x40 MLOAD PUSH3 0x461BCD PUSH1 0xE5 SHL DUP2 MSTORE PUSH1 0x20 PUSH1 0x4 DUP3 ADD MSTORE PUSH1 0x1C PUSH1 0x24 DUP3 ADD MSTORE PUSH32 0x426C756669656C643A206E616D6520616C72656164792074616B656E00000000 PUSH1 0x44 DUP3 ADD MSTORE PUSH1 0x64 ADD PUSH2 0xC4F JUMP JUMPDEST PUSH1 0x0 DUP2 GT PUSH2 0x13B2 JUMPI PUSH1 0x40 MLOAD PUSH3 0x461BCD PUSH1 0xE5 SHL DUP2 MSTORE PUSH1 0x20 PUSH1 0x4 DUP3 ADD MSTORE PUSH1 0x17 PUSH1 0x24 DUP3 ADD MSTORE PUSH32 0x426C756669656C643A207072696365206973207A65726F000000000000000000 PUSH1 0x44 DUP3 ADD MSTORE PUSH1 0x64 ADD PUSH2 0xC4F JUMP JUMPDEST CALLER PUSH1 0x0 SWAP1 DUP2 MSTORE PUSH2 0x16A PUSH1 0x20 SWAP1 DUP2 MSTORE PUSH1 0x40 DUP1 DUP4 KECCAK256 DUP6 SWAP1 SSTORE DUP5 DUP4 MSTORE PUSH2 0x16B SWAP1 SWAP2 MSTORE SWAP1 KECCAK256 PUSH2 0x13DE DUP5 DUP7 DUP4 PUSH2 0x2002 JUMP JUMPDEST POP DUP2 PUSH2 0x16C DUP6 DUP6 PUSH1 0x40 MLOAD PUSH2 0x13F3 SWAP3 SWAP2 SWAP1 PUSH2 0x1FAC JUMP JUMPDEST SWAP1 DUP2 MSTORE PUSH1 0x40 DUP1 MLOAD PUSH1 0x20 SWAP3 DUP2 SWAP1 SUB DUP4 ADD SWAP1 KECCAK256 SWAP3 SWAP1 SWAP3 SSTORE PUSH1 0x0 SWAP4 DUP5 MSTORE PUSH2 0x16D SWAP1 MSTORE SWAP1 SWAP2 KECCAK256 SSTORE POP POP PUSH1 0x1 PUSH2 0x136 SSTORE JUMP JUMPDEST PUSH1 0x0 SLOAD PUSH2 0x100 SWAP1 DIV PUSH1 0xFF AND ISZERO DUP1 DUP1 ISZERO PUSH2 0x1440 JUMPI POP PUSH1 0x0 SLOAD PUSH1 0x1 PUSH1 0xFF SWAP1 SWAP2 AND LT JUMPDEST DUP1 PUSH2 0x145A JUMPI POP ADDRESS EXTCODESIZE ISZERO DUP1 ISZERO PUSH2 0x145A JUMPI POP PUSH1 0x0 SLOAD PUSH1 0xFF AND PUSH1 0x1 EQ JUMPDEST PUSH2 0x14BD JUMPI PUSH1 0x40 MLOAD PUSH3 0x461BCD PUSH1 0xE5 SHL DUP2 MSTORE PUSH1 0x20 PUSH1 0x4 DUP3 ADD MSTORE PUSH1 0x2E PUSH1 0x24 DUP3 ADD MSTORE PUSH32 0x496E697469616C697A61626C653A20636F6E747261637420697320616C726561 PUSH1 0x44 DUP3 ADD MSTORE PUSH14 0x191E481A5B9A5D1A585B1A5E9959 PUSH1 0x92 SHL PUSH1 0x64 DUP3 ADD MSTORE PUSH1 0x84 ADD PUSH2 0xC4F JUMP JUMPDEST PUSH1 0x0 DUP1 SLOAD PUSH1 0xFF NOT AND PUSH1 0x1 OR SWAP1 SSTORE DUP1 ISZERO PUSH2 0x14E0 JUMPI PUSH1 0x0 DUP1 SLOAD PUSH2 0xFF00 NOT AND PUSH2 0x100 OR SWAP1 SSTORE JUMPDEST DUP5 PUSH1 0x1 PUSH1 0x1 PUSH1 0xA0 SHL SUB AND PUSH4 0x77A714AE PUSH1 0x40 MLOAD DUP2 PUSH4 0xFFFFFFFF AND PUSH1 0xE0 SHL DUP2 MSTORE PUSH1 0x4 ADD PUSH1 0x20 PUSH1 0x40 MLOAD DUP1 DUP4 SUB DUP2 DUP7 GAS STATICCALL ISZERO DUP1 ISZERO PUSH2 0x151E JUMPI RETURNDATASIZE PUSH1 0x0 DUP1 RETURNDATACOPY RETURNDATASIZE PUSH1 0x0 REVERT JUMPDEST POP POP POP POP PUSH1 0x40 MLOAD RETURNDATASIZE PUSH1 0x1F NOT PUSH1 0x1F DUP3 ADD AND DUP3 ADD DUP1 PUSH1 0x40 MSTORE POP DUP2 ADD SWAP1 PUSH2 0x1542 SWAP2 SWAP1 PUSH2 0x1F23 JUMP JUMPDEST PUSH2 0x168 DUP1 SLOAD PUSH1 0x1 PUSH1 0x1 PUSH1 0xA0 SHL SUB NOT AND PUSH1 0x1 PUSH1 0x1 PUSH1 0xA0 SHL SUB SWAP3 SWAP1 SWAP3 AND SWAP2 SWAP1 SWAP2 OR SWAP1 SSTORE PUSH2 0x156E DUP5 DUP5 DUP5 PUSH2 0x189D JUMP JUMPDEST PUSH2 0x1577 DUP6 PUSH2 0x191F JUMP JUMPDEST DUP1 ISZERO PUSH2 0x15BD JUMPI PUSH1 0x0 DUP1 SLOAD PUSH2 0xFF00 NOT AND SWAP1 SSTORE PUSH1 0x40 MLOAD PUSH1 0x1 DUP2 MSTORE PUSH32 0x7F26B83FF96E1F2B6A682F133852F6798A09C465DA95921460CEFB3847402498 SWAP1 PUSH1 0x20 ADD PUSH1 0x40 MLOAD DUP1 SWAP2 SUB SWAP1 LOG1 JUMPDEST POP POP POP POP POP JUMP JUMPDEST PUSH1 0x2 PUSH2 0x136 SLOAD SUB PUSH2 0x1617 JUMPI PUSH1 0x40 MLOAD PUSH3 0x461BCD PUSH1 0xE5 SHL DUP2 MSTORE PUSH1 0x20 PUSH1 0x4 DUP3 ADD MSTORE PUSH1 0x1F PUSH1 0x24 DUP3 ADD MSTORE PUSH32 0x5265656E7472616E637947756172643A207265656E7472616E742063616C6C00 PUSH1 0x44 DUP3 ADD MSTORE PUSH1 0x64 ADD PUSH2 0xC4F JUMP JUMPDEST PUSH1 0x2 PUSH2 0x136 SSTORE JUMP JUMPDEST PUSH1 0x1 NOT PUSH1 0xFF DUP6 AND ADD PUSH2 0x1671 JUMPI PUSH2 0x166C DUP6 DUP5 DUP5 DUP5 DUP1 DUP1 PUSH1 0x1F ADD PUSH1 0x20 DUP1 SWAP2 DIV MUL PUSH1 0x20 ADD PUSH1 0x40 MLOAD SWAP1 DUP2 ADD PUSH1 0x40 MSTORE DUP1 SWAP4 SWAP3 SWAP2 SWAP1 DUP2 DUP2 MSTORE PUSH1 0x20 ADD DUP4 DUP4 DUP1 DUP3 DUP5 CALLDATACOPY PUSH1 0x0 SWAP3 ADD SWAP2 SWAP1 SWAP2 MSTORE POP PUSH2 0x1969 SWAP3 POP POP POP JUMP JUMPDEST PUSH2 0x15BD JUMP JUMPDEST PUSH1 0x2 NOT PUSH1 0xFF DUP6 AND ADD PUSH2 0x16BE JUMPI PUSH2 0x166C DUP6 DUP5 DUP5 DUP5 DUP1 DUP1 PUSH1 0x1F ADD PUSH1 0x20 DUP1 SWAP2 DIV MUL PUSH1 0x20 ADD PUSH1 0x40 MLOAD SWAP1 DUP2 ADD PUSH1 0x40 MSTORE DUP1 SWAP4 SWAP3 SWAP2 SWAP1 DUP2 DUP2 MSTORE PUSH1 0x20 ADD DUP4 DUP4 DUP1 DUP3 DUP5 CALLDATACOPY PUSH1 0x0 SWAP3 ADD SWAP2 SWAP1 SWAP2 MSTORE POP PUSH2 0x1969 SWAP3 POP POP POP JUMP JUMPDEST PUSH1 0x3 NOT PUSH1 0xFF DUP6 AND ADD PUSH2 0x170B JUMPI PUSH2 0x166C DUP6 DUP5 DUP5 DUP5 DUP1 DUP1 PUSH1 0x1F ADD PUSH1 0x20 DUP1 SWAP2 DIV MUL PUSH1 0x20 ADD PUSH1 0x40 MLOAD SWAP1 DUP2 ADD PUSH1 0x40 MSTORE DUP1 SWAP4 SWAP3 SWAP2 SWAP1 DUP2 DUP2 MSTORE PUSH1 0x20 ADD DUP4 DUP4 DUP1 DUP3 DUP5 CALLDATACOPY PUSH1 0x0 SWAP3 ADD SWAP2 SWAP1 SWAP2 MSTORE POP PUSH2 0x1969 SWAP3 POP POP POP JUMP JUMPDEST PUSH1 0x40 MLOAD DUP1 PUSH1 0x40 ADD PUSH1 0x40 MSTORE DUP1 PUSH1 0x1 DUP2 MSTORE PUSH1 0x20 ADD PUSH1 0x19 PUSH1 0xF9 SHL DUP2 MSTORE POP PUSH1 0x40 MLOAD PUSH1 0x20 ADD PUSH2 0x1735 SWAP2 SWAP1 PUSH2 0x1EF1 JUMP JUMPDEST PUSH1 0x40 DUP1 MLOAD PUSH1 0x1F NOT DUP2 DUP5 SUB ADD DUP2 MSTORE SWAP1 DUP3 SWAP1 MSTORE PUSH3 0x461BCD PUSH1 0xE5 SHL DUP3 MSTORE PUSH2 0xC4F SWAP2 PUSH1 0x4 ADD PUSH2 0x1AE6 JUMP JUMPDEST PUSH1 0x0 PUSH1 0x40 MLOAD DUP1 PUSH1 0xC0 ADD PUSH1 0x40 MSTORE DUP1 DUP8 PUSH1 0x1 PUSH1 0x1 PUSH1 0xA0 SHL SUB AND DUP2 MSTORE PUSH1 0x20 ADD DUP7 DUP2 MSTORE PUSH1 0x20 ADD DUP6 PUSH1 0x2 DUP2 GT ISZERO PUSH2 0x178F JUMPI PUSH2 0x178F PUSH2 0x1B74 JUMP JUMPDEST DUP2 MSTORE PUSH1 0x20 ADD DUP5 DUP2 MSTORE PUSH1 0x20 ADD PUSH1 0x40 MLOAD DUP1 PUSH1 0x20 ADD PUSH1 0x40 MSTORE DUP1 PUSH1 0x0 DUP2 MSTORE POP DUP2 MSTORE PUSH1 0x20 ADD DUP4 DUP2 MSTORE POP SWAP1 POP PUSH1 0x0 PUSH2 0x17BF PUSH2 0x196E JUMP JUMPDEST SWAP1 POP DUP1 CALLVALUE LT ISZERO PUSH1 0x40 MLOAD DUP1 PUSH1 0x40 ADD PUSH1 0x40 MSTORE DUP1 PUSH1 0x1 DUP2 MSTORE PUSH1 0x20 ADD PUSH1 0x33 PUSH1 0xF8 SHL DUP2 MSTORE POP PUSH1 0x40 MLOAD PUSH1 0x20 ADD PUSH2 0x17EF SWAP2 SWAP1 PUSH2 0x1EF1 JUMP JUMPDEST PUSH1 0x40 MLOAD PUSH1 0x20 DUP2 DUP4 SUB SUB DUP2 MSTORE SWAP1 PUSH1 0x40 MSTORE SWAP1 PUSH2 0x181C JUMPI PUSH1 0x40 MLOAD PUSH3 0x461BCD PUSH1 0xE5 SHL DUP2 MSTORE PUSH1 0x4 ADD PUSH2 0xC4F SWAP2 SWAP1 PUSH2 0x1AE6 JUMP JUMPDEST POP PUSH2 0x103 SLOAD PUSH1 0x40 MLOAD PUSH4 0x2041BBF PUSH1 0xE5 SHL DUP2 MSTORE PUSH1 0x1 PUSH1 0x1 PUSH1 0xA0 SHL SUB SWAP1 SWAP2 AND SWAP1 PUSH4 0x408377E0 SWAP1 CALLVALUE SWAP1 PUSH2 0x1850 SWAP1 DUP7 SWAP1 PUSH1 0x4 ADD PUSH2 0x2105 JUMP JUMPDEST PUSH1 0x20 PUSH1 0x40 MLOAD DUP1 DUP4 SUB DUP2 DUP6 DUP9 GAS CALL ISZERO DUP1 ISZERO PUSH2 0x186E JUMPI RETURNDATASIZE PUSH1 0x0 DUP1 RETURNDATACOPY RETURNDATASIZE PUSH1 0x0 REVERT JUMPDEST POP POP POP POP POP PUSH1 0x40 MLOAD RETURNDATASIZE PUSH1 0x1F NOT PUSH1 0x1F DUP3 ADD AND DUP3 ADD DUP1 PUSH1 0x40 MSTORE POP DUP2 ADD SWAP1 PUSH2 0x1893 SWAP2 SWAP1 PUSH2 0x21BD JUMP JUMPDEST POP POP POP POP POP POP POP POP JUMP JUMPDEST PUSH1 0x0 SLOAD PUSH2 0x100 SWAP1 DIV PUSH1 0xFF AND PUSH2 0x18C4 JUMPI PUSH1 0x40 MLOAD PUSH3 0x461BCD PUSH1 0xE5 SHL DUP2 MSTORE PUSH1 0x4 ADD PUSH2 0xC4F SWAP1 PUSH2 0x21DF JUMP JUMPDEST PUSH1 0x9B DUP1 SLOAD PUSH1 0x1 PUSH1 0x1 PUSH1 0xA0 SHL SUB NOT AND PUSH1 0x1 PUSH1 0x1 PUSH1 0xA0 SHL SUB DUP6 AND OR SWAP1 SSTORE PUSH1 0x9C DUP3 SWAP1 SSTORE PUSH1 0xFF DUP2 AND PUSH1 0x2 DUP2 GT ISZERO PUSH2 0x18F9 JUMPI PUSH2 0x18F9 PUSH2 0x1B74 JUMP JUMPDEST PUSH1 0x9D DUP1 SLOAD PUSH1 0xFF NOT AND PUSH1 0x1 DUP4 PUSH1 0x2 DUP2 GT ISZERO PUSH2 0x1915 JUMPI PUSH2 0x1915 PUSH2 0x1B74 JUMP JUMPDEST MUL OR SWAP1 SSTORE POP POP POP POP JUMP JUMPDEST PUSH1 0x0 SLOAD PUSH2 0x100 SWAP1 DIV PUSH1 0xFF AND PUSH2 0x1946 JUMPI PUSH1 0x40 MLOAD PUSH3 0x461BCD PUSH1 0xE5 SHL DUP2 MSTORE PUSH1 0x4 ADD PUSH2 0xC4F SWAP1 PUSH2 0x21DF JUMP JUMPDEST PUSH2 0x103 DUP1 SLOAD PUSH1 0x1 PUSH1 0x1 PUSH1 0xA0 SHL SUB NOT AND PUSH1 0x1 PUSH1 0x1 PUSH1 0xA0 SHL SUB SWAP3 SWAP1 SWAP3 AND SWAP2 SWAP1 SWAP2 OR SWAP1 SSTORE JUMP JUMPDEST POP POP POP JUMP JUMPDEST PUSH1 0x0 DUP1 PUSH1 0x0 PUSH1 0x9B PUSH1 0x0 SWAP1 SLOAD SWAP1 PUSH2 0x100 EXP SWAP1 DIV PUSH1 0x1 PUSH1 0x1 PUSH1 0xA0 SHL SUB AND PUSH1 0x1 PUSH1 0x1 PUSH1 0xA0 SHL SUB AND PUSH4 0x54912A97 PUSH1 0x40 MLOAD DUP2 PUSH4 0xFFFFFFFF AND PUSH1 0xE0 SHL DUP2 MSTORE PUSH1 0x4 ADD PUSH1 0x40 DUP1 MLOAD DUP1 DUP4 SUB DUP2 PUSH1 0x0 DUP8 GAS CALL ISZERO DUP1 ISZERO PUSH2 0x19C7 JUMPI RETURNDATASIZE PUSH1 0x0 DUP1 RETURNDATACOPY RETURNDATASIZE PUSH1 0x0 REVERT JUMPDEST POP POP POP POP PUSH1 0x40 MLOAD RETURNDATASIZE PUSH1 0x1F NOT PUSH1 0x1F DUP3 ADD AND DUP3 ADD DUP1 PUSH1 0x40 MSTORE POP DUP2 ADD SWAP1 PUSH2 0x19EB SWAP2 SWAP1 PUSH2 0x222A JUMP JUMPDEST SWAP2 POP SWAP2 POP PUSH1 0x0 PUSH1 0x9B PUSH1 0x0 SWAP1 SLOAD SWAP1 PUSH2 0x100 EXP SWAP1 DIV PUSH1 0x1 PUSH1 0x1 PUSH1 0xA0 SHL SUB AND PUSH1 0x1 PUSH1 0x1 PUSH1 0xA0 SHL SUB AND PUSH4 0xBF903247 PUSH1 0x40 MLOAD DUP2 PUSH4 0xFFFFFFFF AND PUSH1 0xE0 SHL DUP2 MSTORE PUSH1 0x4 ADD PUSH1 0x20 PUSH1 0x40 MLOAD DUP1 DUP4 SUB DUP2 PUSH1 0x0 DUP8 GAS CALL ISZERO DUP1 ISZERO PUSH2 0x1A46 JUMPI RETURNDATASIZE PUSH1 0x0 DUP1 RETURNDATACOPY RETURNDATASIZE PUSH1 0x0 REVERT JUMPDEST POP POP POP POP PUSH1 0x40 MLOAD RETURNDATASIZE PUSH1 0x1F NOT PUSH1 0x1F DUP3 ADD AND DUP3 ADD DUP1 PUSH1 0x40 MSTORE POP DUP2 ADD SWAP1 PUSH2 0x1A6A SWAP2 SWAP1 PUSH2 0x224E JUMP JUMPDEST SWAP1 POP DUP1 PUSH1 0x9C SLOAD PUSH2 0x1A7A SWAP2 SWAP1 PUSH2 0x2267 JUMP JUMPDEST PUSH2 0x1A84 DUP4 DUP6 PUSH2 0x1F56 JUMP JUMPDEST PUSH2 0x1A8E SWAP2 SWAP1 PUSH2 0x1F56 JUMP JUMPDEST SWAP4 POP POP POP POP SWAP1 JUMP JUMPDEST PUSH1 0x0 JUMPDEST DUP4 DUP2 LT ISZERO PUSH2 0x1AB1 JUMPI DUP2 DUP2 ADD MLOAD DUP4 DUP3 ADD MSTORE PUSH1 0x20 ADD PUSH2 0x1A99 JUMP JUMPDEST POP POP PUSH1 0x0 SWAP2 ADD MSTORE JUMP JUMPDEST PUSH1 0x0 DUP2 MLOAD DUP1 DUP5 MSTORE PUSH2 0x1AD2 DUP2 PUSH1 0x20 DUP7 ADD PUSH1 0x20 DUP7 ADD PUSH2 0x1A96 JUMP JUMPDEST PUSH1 0x1F ADD PUSH1 0x1F NOT AND SWAP3 SWAP1 SWAP3 ADD PUSH1 0x20 ADD SWAP3 SWAP2 POP POP JUMP JUMPDEST PUSH1 0x20 DUP2 MSTORE PUSH1 0x0 PUSH2 0x1AF9 PUSH1 0x20 DUP4 ADD DUP5 PUSH2 0x1ABA JUMP JUMPDEST SWAP4 SWAP3 POP POP POP JUMP JUMPDEST PUSH1 0x0 PUSH1 0x20 DUP3 DUP5 SUB SLT ISZERO PUSH2 0x1B12 JUMPI PUSH1 0x0 DUP1 REVERT JUMPDEST POP CALLDATALOAD SWAP2 SWAP1 POP JUMP JUMPDEST PUSH1 0x1 DUP1 PUSH1 0xA0 SHL SUB DUP8 AND DUP2 MSTORE PUSH4 0xFFFFFFFF DUP7 AND PUSH1 0x20 DUP3 ADD MSTORE PUSH1 0xFF DUP6 AND PUSH1 0x40 DUP3 ADD MSTORE DUP4 PUSH1 0x60 DUP3 ADD MSTORE PUSH1 0xC0 PUSH1 0x80 DUP3 ADD MSTORE PUSH1 0x0 PUSH2 0x1B55 PUSH1 0xC0 DUP4 ADD DUP6 PUSH2 0x1ABA JUMP JUMPDEST DUP3 DUP2 SUB PUSH1 0xA0 DUP5 ADD MSTORE PUSH2 0x1B67 DUP2 DUP6 PUSH2 0x1ABA JUMP JUMPDEST SWAP10 SWAP9 POP POP POP POP POP POP POP POP POP JUMP JUMPDEST PUSH4 0x4E487B71 PUSH1 0xE0 SHL PUSH1 0x0 MSTORE PUSH1 0x21 PUSH1 0x4 MSTORE PUSH1 0x24 PUSH1 0x0 REVERT JUMPDEST PUSH1 0x3 DUP2 LT PUSH2 0x8D0 JUMPI PUSH4 0x4E487B71 PUSH1 0xE0 SHL PUSH1 0x0 MSTORE PUSH1 0x21 PUSH1 0x4 MSTORE PUSH1 0x24 PUSH1 0x0 REVERT JUMPDEST PUSH1 0x20 DUP2 ADD PUSH2 0x1BB5 DUP4 PUSH2 0x1B8A JUMP JUMPDEST SWAP2 SWAP1 MSTORE SWAP1 JUMP JUMPDEST DUP1 CALLDATALOAD PUSH1 0xFF DUP2 AND DUP2 EQ PUSH2 0x1BCC JUMPI PUSH1 0x0 DUP1 REVERT JUMPDEST SWAP2 SWAP1 POP JUMP JUMPDEST PUSH1 0x0 DUP1 DUP4 PUSH1 0x1F DUP5 ADD SLT PUSH2 0x1BE3 JUMPI PUSH1 0x0 DUP1 REVERT JUMPDEST POP DUP2 CALLDATALOAD PUSH1 0x1 PUSH1 0x1 PUSH1 0x40 SHL SUB DUP2 GT ISZERO PUSH2 0x1BFA JUMPI PUSH1 0x0 DUP1 REVERT JUMPDEST PUSH1 0x20 DUP4 ADD SWAP2 POP DUP4 PUSH1 0x20 DUP3 DUP6 ADD ADD GT ISZERO PUSH2 0x1C12 JUMPI PUSH1 0x0 DUP1 REVERT JUMPDEST SWAP3 POP SWAP3 SWAP1 POP JUMP JUMPDEST PUSH1 0x0 DUP1 PUSH1 0x0 DUP1 PUSH1 0x0 DUP1 PUSH1 0xA0 DUP8 DUP10 SUB SLT ISZERO PUSH2 0x1C32 JUMPI PUSH1 0x0 DUP1 REVERT JUMPDEST DUP7 CALLDATALOAD PUSH4 0xFFFFFFFF DUP2 AND DUP2 EQ PUSH2 0x1C46 JUMPI PUSH1 0x0 DUP1 REVERT JUMPDEST SWAP6 POP PUSH2 0x1C54 PUSH1 0x20 DUP9 ADD PUSH2 0x1BBB JUMP JUMPDEST SWAP5 POP PUSH2 0x1C62 PUSH1 0x40 DUP9 ADD PUSH2 0x1BBB JUMP JUMPDEST SWAP4 POP PUSH1 0x60 DUP8 ADD CALLDATALOAD SWAP3 POP PUSH1 0x80 DUP8 ADD CALLDATALOAD PUSH1 0x1 PUSH1 0x1 PUSH1 0x40 SHL SUB DUP2 GT ISZERO PUSH2 0x1C84 JUMPI PUSH1 0x0 DUP1 REVERT JUMPDEST PUSH2 0x1C90 DUP10 DUP3 DUP11 ADD PUSH2 0x1BD1 JUMP JUMPDEST SWAP8 SWAP11 SWAP7 SWAP10 POP SWAP5 SWAP8 POP SWAP3 SWAP6 SWAP4 SWAP5 SWAP3 POP POP POP JUMP JUMPDEST PUSH1 0x1 PUSH1 0x1 PUSH1 0xA0 SHL SUB DUP2 AND DUP2 EQ PUSH2 0x8D0 JUMPI PUSH1 0x0 DUP1 REVERT JUMPDEST PUSH1 0x0 PUSH1 0x20 DUP3 DUP5 SUB SLT ISZERO PUSH2 0x1CC9 JUMPI PUSH1 0x0 DUP1 REVERT JUMPDEST DUP2 CALLDATALOAD PUSH2 0x1AF9 DUP2 PUSH2 0x1CA2 JUMP JUMPDEST PUSH4 0x4E487B71 PUSH1 0xE0 SHL PUSH1 0x0 MSTORE PUSH1 0x41 PUSH1 0x4 MSTORE PUSH1 0x24 PUSH1 0x0 REVERT JUMPDEST PUSH1 0x0 PUSH1 0x20 DUP3 DUP5 SUB SLT ISZERO PUSH2 0x1CFC JUMPI PUSH1 0x0 DUP1 REVERT JUMPDEST DUP2 CALLDATALOAD PUSH1 0x1 PUSH1 0x1 PUSH1 0x40 SHL SUB DUP1 DUP3 GT ISZERO PUSH2 0x1D13 JUMPI PUSH1 0x0 DUP1 REVERT JUMPDEST DUP2 DUP5 ADD SWAP2 POP DUP5 PUSH1 0x1F DUP4 ADD SLT PUSH2 0x1D27 JUMPI PUSH1 0x0 DUP1 REVERT JUMPDEST DUP2 CALLDATALOAD DUP2 DUP2 GT ISZERO PUSH2 0x1D39 JUMPI PUSH2 0x1D39 PUSH2 0x1CD4 JUMP JUMPDEST PUSH1 0x40 MLOAD PUSH1 0x1F DUP3 ADD PUSH1 0x1F NOT SWAP1 DUP2 AND PUSH1 0x3F ADD AND DUP2 ADD SWAP1 DUP4 DUP3 GT DUP2 DUP4 LT OR ISZERO PUSH2 0x1D61 JUMPI PUSH2 0x1D61 PUSH2 0x1CD4 JUMP JUMPDEST DUP2 PUSH1 0x40 MSTORE DUP3 DUP2 MSTORE DUP8 PUSH1 0x20 DUP5 DUP8 ADD ADD GT ISZERO PUSH2 0x1D7A JUMPI PUSH1 0x0 DUP1 REVERT JUMPDEST DUP3 PUSH1 0x20 DUP7 ADD PUSH1 0x20 DUP4 ADD CALLDATACOPY PUSH1 0x0 SWAP3 DUP2 ADD PUSH1 0x20 ADD SWAP3 SWAP1 SWAP3 MSTORE POP SWAP6 SWAP5 POP POP POP POP POP JUMP JUMPDEST PUSH1 0x0 DUP1 PUSH1 0x40 DUP4 DUP6 SUB SLT ISZERO PUSH2 0x1DAD JUMPI PUSH1 0x0 DUP1 REVERT JUMPDEST DUP3 CALLDATALOAD PUSH2 0x1DB8 DUP2 PUSH2 0x1CA2 JUMP JUMPDEST SWAP5 PUSH1 0x20 SWAP4 SWAP1 SWAP4 ADD CALLDATALOAD SWAP4 POP POP POP JUMP JUMPDEST DUP4 DUP2 MSTORE PUSH1 0x60 PUSH1 0x20 DUP3 ADD MSTORE PUSH1 0x0 PUSH2 0x1DDF PUSH1 0x60 DUP4 ADD DUP6 PUSH2 0x1ABA JUMP JUMPDEST DUP3 DUP2 SUB PUSH1 0x40 DUP5 ADD MSTORE PUSH2 0x1DF1 DUP2 DUP6 PUSH2 0x1ABA JUMP JUMPDEST SWAP7 SWAP6 POP POP POP POP POP POP JUMP JUMPDEST PUSH1 0x0 DUP1 PUSH1 0x0 DUP1 PUSH1 0x60 DUP6 DUP8 SUB SLT ISZERO PUSH2 0x1E11 JUMPI PUSH1 0x0 DUP1 REVERT JUMPDEST DUP5 CALLDATALOAD PUSH1 0x1 PUSH1 0x1 PUSH1 0x40 SHL SUB DUP2 GT ISZERO PUSH2 0x1E27 JUMPI PUSH1 0x0 DUP1 REVERT JUMPDEST PUSH2 0x1E33 DUP8 DUP3 DUP9 ADD PUSH2 0x1BD1 JUMP JUMPDEST SWAP1 SWAP9 SWAP1 SWAP8 POP PUSH1 0x20 DUP8 ADD CALLDATALOAD SWAP7 PUSH1 0x40 ADD CALLDATALOAD SWAP6 POP SWAP4 POP POP POP POP JUMP JUMPDEST PUSH1 0x0 PUSH1 0x20 DUP3 DUP5 SUB SLT ISZERO PUSH2 0x1E5D JUMPI PUSH1 0x0 DUP1 REVERT JUMPDEST PUSH2 0x1AF9 DUP3 PUSH2 0x1BBB JUMP JUMPDEST PUSH1 0x0 DUP1 PUSH1 0x0 DUP1 PUSH1 0x80 DUP6 DUP8 SUB SLT ISZERO PUSH2 0x1E7C JUMPI PUSH1 0x0 DUP1 REVERT JUMPDEST DUP5 CALLDATALOAD PUSH2 0x1E87 DUP2 PUSH2 0x1CA2 JUMP JUMPDEST SWAP4 POP PUSH1 0x20 DUP6 ADD CALLDATALOAD PUSH2 0x1E97 DUP2 PUSH2 0x1CA2 JUMP JUMPDEST SWAP3 POP PUSH1 0x40 DUP6 ADD CALLDATALOAD SWAP2 POP PUSH2 0x1EAC PUSH1 0x60 DUP7 ADD PUSH2 0x1BBB JUMP JUMPDEST SWAP1 POP SWAP3 SWAP6 SWAP2 SWAP5 POP SWAP3 POP JUMP JUMPDEST PUSH1 0x1 DUP2 DUP2 SHR SWAP1 DUP3 AND DUP1 PUSH2 0x1ECB JUMPI PUSH1 0x7F DUP3 AND SWAP2 POP JUMPDEST PUSH1 0x20 DUP3 LT DUP2 SUB PUSH2 0x1EEB JUMPI PUSH4 0x4E487B71 PUSH1 0xE0 SHL PUSH1 0x0 MSTORE PUSH1 0x22 PUSH1 0x4 MSTORE PUSH1 0x24 PUSH1 0x0 REVERT JUMPDEST POP SWAP2 SWAP1 POP JUMP JUMPDEST PUSH10 0x23B937BAB820B8381D1 PUSH1 0xB5 SHL DUP2 MSTORE PUSH1 0x0 DUP3 MLOAD PUSH2 0x1F16 DUP2 PUSH1 0xA DUP6 ADD PUSH1 0x20 DUP8 ADD PUSH2 0x1A96 JUMP JUMPDEST SWAP2 SWAP1 SWAP2 ADD PUSH1 0xA ADD SWAP3 SWAP2 POP POP JUMP JUMPDEST PUSH1 0x0 PUSH1 0x20 DUP3 DUP5 SUB SLT ISZERO PUSH2 0x1F35 JUMPI PUSH1 0x0 DUP1 REVERT JUMPDEST DUP2 MLOAD PUSH2 0x1AF9 DUP2 PUSH2 0x1CA2 JUMP JUMPDEST PUSH4 0x4E487B71 PUSH1 0xE0 SHL PUSH1 0x0 MSTORE PUSH1 0x11 PUSH1 0x4 MSTORE PUSH1 0x24 PUSH1 0x0 REVERT JUMPDEST DUP1 DUP3 ADD DUP1 DUP3 GT ISZERO PUSH2 0x1F69 JUMPI PUSH2 0x1F69 PUSH2 0x1F40 JUMP JUMPDEST SWAP3 SWAP2 POP POP JUMP JUMPDEST PUSH1 0x1 PUSH1 0x1 PUSH1 0x40 SHL SUB DUP2 DUP2 AND DUP4 DUP3 AND ADD SWAP1 DUP1 DUP3 GT ISZERO PUSH2 0x1F8F JUMPI PUSH2 0x1F8F PUSH2 0x1F40 JUMP JUMPDEST POP SWAP3 SWAP2 POP POP JUMP JUMPDEST PUSH4 0x4E487B71 PUSH1 0xE0 SHL PUSH1 0x0 MSTORE PUSH1 0x32 PUSH1 0x4 MSTORE PUSH1 0x24 PUSH1 0x0 REVERT JUMPDEST DUP2 DUP4 DUP3 CALLDATACOPY PUSH1 0x0 SWAP2 ADD SWAP1 DUP2 MSTORE SWAP2 SWAP1 POP JUMP JUMPDEST PUSH1 0x1F DUP3 GT ISZERO PUSH2 0x1969 JUMPI PUSH1 0x0 DUP2 DUP2 MSTORE PUSH1 0x20 DUP2 KECCAK256 PUSH1 0x1F DUP6 ADD PUSH1 0x5 SHR DUP2 ADD PUSH1 0x20 DUP7 LT ISZERO PUSH2 0x1FE3 JUMPI POP DUP1 JUMPDEST PUSH1 0x1F DUP6 ADD PUSH1 0x5 SHR DUP3 ADD SWAP2 POP JUMPDEST DUP2 DUP2 LT ISZERO PUSH2 0xD79 JUMPI DUP3 DUP2 SSTORE PUSH1 0x1 ADD PUSH2 0x1FEF JUMP JUMPDEST PUSH1 0x1 PUSH1 0x1 PUSH1 0x40 SHL SUB DUP4 GT ISZERO PUSH2 0x2019 JUMPI PUSH2 0x2019 PUSH2 0x1CD4 JUMP JUMPDEST PUSH2 0x202D DUP4 PUSH2 0x2027 DUP4 SLOAD PUSH2 0x1EB7 JUMP JUMPDEST DUP4 PUSH2 0x1FBC JUMP JUMPDEST PUSH1 0x0 PUSH1 0x1F DUP5 GT PUSH1 0x1 DUP2 EQ PUSH2 0x2061 JUMPI PUSH1 0x0 DUP6 ISZERO PUSH2 0x2049 JUMPI POP DUP4 DUP3 ADD CALLDATALOAD JUMPDEST PUSH1 0x0 NOT PUSH1 0x3 DUP8 SWAP1 SHL SHR NOT AND PUSH1 0x1 DUP7 SWAP1 SHL OR DUP4 SSTORE PUSH2 0x15BD JUMP JUMPDEST PUSH1 0x0 DUP4 DUP2 MSTORE PUSH1 0x20 SWAP1 KECCAK256 PUSH1 0x1F NOT DUP7 AND SWAP1 DUP4 JUMPDEST DUP3 DUP2 LT ISZERO PUSH2 0x2092 JUMPI DUP7 DUP6 ADD CALLDATALOAD DUP3 SSTORE PUSH1 0x20 SWAP5 DUP6 ADD SWAP5 PUSH1 0x1 SWAP1 SWAP3 ADD SWAP2 ADD PUSH2 0x2072 JUMP JUMPDEST POP DUP7 DUP3 LT ISZERO PUSH2 0x20AF JUMPI PUSH1 0x0 NOT PUSH1 0xF8 DUP9 PUSH1 0x3 SHL AND SHR NOT DUP5 DUP8 ADD CALLDATALOAD AND DUP2 SSTORE JUMPDEST POP POP PUSH1 0x1 DUP6 PUSH1 0x1 SHL ADD DUP4 SSTORE POP POP POP POP POP JUMP JUMPDEST PUSH1 0x0 DUP2 MLOAD DUP1 DUP5 MSTORE PUSH1 0x20 DUP1 DUP6 ADD SWAP5 POP DUP1 DUP5 ADD PUSH1 0x0 JUMPDEST DUP4 DUP2 LT ISZERO PUSH2 0x20FA JUMPI DUP2 MLOAD PUSH1 0x1 PUSH1 0x1 PUSH1 0x40 SHL SUB AND DUP8 MSTORE SWAP6 DUP3 ADD SWAP6 SWAP1 DUP3 ADD SWAP1 PUSH1 0x1 ADD PUSH2 0x20D5 JUMP JUMPDEST POP SWAP5 SWAP6 SWAP5 POP POP POP POP POP JUMP JUMPDEST PUSH1 0x0 PUSH1 0x20 DUP1 DUP4 MSTORE PUSH1 0xE0 DUP4 ADD PUSH1 0x1 DUP1 PUSH1 0xA0 SHL SUB DUP1 DUP7 MLOAD AND DUP4 DUP7 ADD MSTORE DUP3 DUP7 ADD MLOAD PUSH1 0x40 DUP7 ADD MSTORE PUSH1 0x40 DUP7 ADD MLOAD PUSH2 0x2136 DUP2 PUSH2 0x1B8A JUMP JUMPDEST PUSH1 0x60 DUP7 DUP2 ADD SWAP2 SWAP1 SWAP2 MSTORE DUP7 ADD MLOAD PUSH1 0xC0 PUSH1 0x80 DUP8 ADD MSTORE DUP1 MLOAD SWAP3 DUP4 SWAP1 MSTORE DUP4 ADD SWAP2 PUSH1 0x0 SWAP1 PUSH2 0x100 DUP8 ADD SWAP1 JUMPDEST DUP1 DUP4 LT ISZERO PUSH2 0x217E JUMPI DUP5 MLOAD DUP5 AND DUP3 MSTORE SWAP4 DUP6 ADD SWAP4 PUSH1 0x1 SWAP3 SWAP1 SWAP3 ADD SWAP2 SWAP1 DUP6 ADD SWAP1 PUSH2 0x215C JUMP JUMPDEST POP PUSH1 0x80 DUP9 ADD MLOAD SWAP5 POP PUSH1 0x1F NOT SWAP4 POP DUP4 DUP8 DUP3 SUB ADD PUSH1 0xA0 DUP9 ADD MSTORE PUSH2 0x219F DUP2 DUP7 PUSH2 0x1ABA JUMP JUMPDEST SWAP5 POP POP POP POP PUSH1 0xA0 DUP6 ADD MLOAD DUP2 DUP6 DUP5 SUB ADD PUSH1 0xC0 DUP7 ADD MSTORE PUSH2 0x1DF1 DUP4 DUP3 PUSH2 0x20C1 JUMP JUMPDEST PUSH1 0x0 PUSH1 0x20 DUP3 DUP5 SUB SLT ISZERO PUSH2 0x21CF JUMPI PUSH1 0x0 DUP1 REVERT JUMPDEST DUP2 MLOAD DUP1 ISZERO ISZERO DUP2 EQ PUSH2 0x1AF9 JUMPI PUSH1 0x0 DUP1 REVERT JUMPDEST PUSH1 0x20 DUP1 DUP3 MSTORE PUSH1 0x2B SWAP1 DUP3 ADD MSTORE PUSH32 0x496E697469616C697A61626C653A20636F6E7472616374206973206E6F742069 PUSH1 0x40 DUP3 ADD MSTORE PUSH11 0x6E697469616C697A696E67 PUSH1 0xA8 SHL PUSH1 0x60 DUP3 ADD MSTORE PUSH1 0x80 ADD SWAP1 JUMP JUMPDEST PUSH1 0x0 DUP1 PUSH1 0x40 DUP4 DUP6 SUB SLT ISZERO PUSH2 0x223D JUMPI PUSH1 0x0 DUP1 REVERT JUMPDEST POP POP DUP1 MLOAD PUSH1 0x20 SWAP1 SWAP2 ADD MLOAD SWAP1 SWAP3 SWAP1 SWAP2 POP JUMP JUMPDEST PUSH1 0x0 PUSH1 0x20 DUP3 DUP5 SUB SLT ISZERO PUSH2 0x2260 JUMPI PUSH1 0x0 DUP1 REVERT JUMPDEST POP MLOAD SWAP2 SWAP1 POP JUMP JUMPDEST DUP1 DUP3 MUL DUP2 ISZERO DUP3 DUP3 DIV DUP5 EQ OR PUSH2 0x1F69 JUMPI PUSH2 0x1F69 PUSH2 0x1F40 JUMP INVALID LOG2 PUSH5 0x6970667358 0x22 SLT KECCAK256 PUSH14 0x8887C7F2A1C1C7C993DA418B0469 0xEB 0xBB 0xC0 0xDA TIMESTAMP MSTORE8 0xD6 DUP8 CODECOPY PUSH18 0x8362573CB9E5DE64736F6C63430008140033 "},"methodIdentifiers":{"AUTH_CODE_CREATE()":"3a0f4bf8","AUTH_CODE_DELETE()":"5d83a5aa","AUTH_CODE_UPDATE()":"8c3cb902","BUCKET_CHANNEL_ID()":"73f1e3c3","BUCKET_HUB()":"7afffdd2","CROSS_CHAIN()":"557cf477","EMERGENCY_OPERATOR()":"46ab84e5","EMERGENCY_UPGRADE_OPERATOR()":"b8e43b33","ERC1155Token()":"73ee4508","ERC721Token()":"77a714ae","ERROR_INSUFFICIENT_VALUE()":"ce1ddb6c","ERROR_INVALID_CALLER()":"e52a6718","ERROR_INVALID_OPERATION()":"189e8102","ERROR_INVALID_RESOURCE()":"50704a50","GOV_CHANNEL_ID()":"81d91480","GOV_HUB()":"a9dae71c","GROUP_CHANNEL_ID()":"e02e86b0","GROUP_HUB()":"46934fc8","GROUP_TOKEN()":"1a12138f","INIT_MAX_CALLBACK_DATA_LENGTH()":"61bbd6dd","LIGHT_CLIENT()":"e613ae00","MAX_CALLBACK_GAS_LIMIT()":"39c33215","OBJECT_CHANNEL_ID()":"eac78b33","OBJECT_HUB()":"7d2e3084","PROXY_ADMIN()":"ed9bc82a","RELAYER_HUB()":"b9d86913","RESOURCE_GROUP()":"fdd562b8","ROLE_CREATE()":"12629faf","ROLE_DELETE()":"c71f64e4","ROLE_UPDATE()":"feb3a68a","STATUS_FAILED()":"c8b01e6f","STATUS_SUCCESS()":"8855e092","STATUS_UNEXPECTED()":"f2223c02","TOKEN_HUB()":"6d3358a1","TRANSFER_IN_CHANNEL_ID()":"cc12eabc","TRANSFER_OUT_CHANNEL_ID()":"618d569c","TYPE_CREATE()":"edabb0a3","TYPE_DELETE()":"e8449116","TYPE_MIRROR()":"09d1be19","TYPE_UPDATE()":"b32f787b","additional()":"e8ea79c0","callbackGasLimit()":"24f74697","channelId()":"e2cee544","creationFee()":"dce0b4e4","crossChain()":"4917db66","expirationOfUserSubscription(address,uint256)":"8f8ea384","failureHandleStrategy()":"39a25290","fieldIdOfUser(address)":"d271250e","fieldIdToName(uint256)":"5bb58b17","fieldNameToId(string)":"778afbb7","greenfieldCall(uint32,uint8,uint8,uint256,bytes)":"459af3aa","groupHub()":"9142d7fb","initialize(address,address,uint256,uint8)":"c64ca020","maxCallbackDataLength()":"142c2f44","packageMap(bytes32)":"1c60450d","pendingWithdrawals(address)":"f3f43703","registerField(string,uint256,uint256)":"a29be1fa","retryPackage(uint8)":"b4627d35","retryQueue(address)":"4eee7767","skipPackage(uint8)":"cc65cc4a","subscribeField(uint256)":"721c3dd0","subscriptionFee(uint256)":"33a89c40","versionInfo()":"a21d1354","withdraw()":"3ccfd60b"}},"storageLayout":{"storage":[{"astId":1470,"contract":"contracts/Blufield.sol:Blufield","label":"_initialized","offset":0,"slot":"0","type":"t_uint8"},{"astId":1473,"contract":"contracts/Blufield.sol:Blufield","label":"_initializing","offset":1,"slot":"0","type":"t_bool"},{"astId":853,"contract":"contracts/Blufield.sol:Blufield","label":"configSlots","offset":0,"slot":"1","type":"t_array(t_uint256)50_storage"},{"astId":1420,"contract":"contracts/Blufield.sol:Blufield","label":"retryQueue","offset":0,"slot":"51","type":"t_mapping(t_address,t_struct(Bytes32Deque)3607_storage)"},{"astId":1425,"contract":"contracts/Blufield.sol:Blufield","label":"packageMap","offset":0,"slot":"52","type":"t_mapping(t_bytes32,t_struct(RetryPackage)1442_storage)"},{"astId":1462,"contract":"contracts/Blufield.sol:Blufield","label":"__reservedPkgQueueSlots","offset":0,"slot":"53","type":"t_array(t_uint256)50_storage"},{"astId":1190,"contract":"contracts/Blufield.sol:Blufield","label":"reentryLock","offset":0,"slot":"103","type":"t_uint8"},{"astId":1192,"contract":"contracts/Blufield.sol:Blufield","label":"channelId","offset":1,"slot":"103","type":"t_uint8"},{"astId":1194,"contract":"contracts/Blufield.sol:Blufield","label":"ERC721Token","offset":2,"slot":"103","type":"t_address"},{"astId":1196,"contract":"contracts/Blufield.sol:Blufield","label":"additional","offset":0,"slot":"104","type":"t_address"},{"astId":1198,"contract":"contracts/Blufield.sol:Blufield","label":"maxCallbackDataLength","offset":0,"slot":"105","type":"t_uint256"},{"astId":1313,"contract":"contracts/Blufield.sol:Blufield","label":"__reservedCmnStorageSlots","offset":0,"slot":"106","type":"t_array(t_uint256)49_storage"},{"astId":23,"contract":"contracts/Blufield.sol:Blufield","label":"crossChain","offset":0,"slot":"155","type":"t_address"},{"astId":25,"contract":"contracts/Blufield.sol:Blufield","label":"callbackGasLimit","offset":0,"slot":"156","type":"t_uint256"},{"astId":28,"contract":"contracts/Blufield.sol:Blufield","label":"failureHandleStrategy","offset":0,"slot":"157","type":"t_enum(FailureHandleStrategy)1429"},{"astId":165,"contract":"contracts/Blufield.sol:Blufield","label":"__reservedCmnStorageSlots","offset":0,"slot":"158","type":"t_array(t_uint256)50_storage"},{"astId":1332,"contract":"contracts/Blufield.sol:Blufield","label":"ERC1155Token","offset":0,"slot":"208","type":"t_address"},{"astId":1407,"contract":"contracts/Blufield.sol:Blufield","label":"__reservedGroupStorageSlots","offset":0,"slot":"209","type":"t_array(t_uint256)50_storage"},{"astId":180,"contract":"contracts/Blufield.sol:Blufield","label":"groupHub","offset":0,"slot":"259","type":"t_address"},{"astId":761,"contract":"contracts/Blufield.sol:Blufield","label":"__reservedCmnStorageSlots","offset":0,"slot":"260","type":"t_array(t_uint256)50_storage"},{"astId":1646,"contract":"contracts/Blufield.sol:Blufield","label":"_status","offset":0,"slot":"310","type":"t_uint256"},{"astId":1715,"contract":"contracts/Blufield.sol:Blufield","label":"__gap","offset":0,"slot":"311","type":"t_array(t_uint256)49_storage"},{"astId":4135,"contract":"contracts/Blufield.sol:Blufield","label":"GROUP_TOKEN","offset":0,"slot":"360","type":"t_contract(IERC721NonTransferable)1041"},{"astId":4137,"contract":"contracts/Blufield.sol:Blufield","label":"creationFee","offset":0,"slot":"361","type":"t_uint256"},{"astId":4141,"contract":"contracts/Blufield.sol:Blufield","label":"fieldIdOfUser","offset":0,"slot":"362","type":"t_mapping(t_address,t_uint256)"},{"astId":4145,"contract":"contracts/Blufield.sol:Blufield","label":"fieldIdToName","offset":0,"slot":"363","type":"t_mapping(t_uint256,t_string_storage)"},{"astId":4149,"contract":"contracts/Blufield.sol:Blufield","label":"fieldNameToId","offset":0,"slot":"364","type":"t_mapping(t_string_memory_ptr,t_uint256)"},{"astId":4153,"contract":"contracts/Blufield.sol:Blufield","label":"subscriptionFee","offset":0,"slot":"365","type":"t_mapping(t_uint256,t_uint256)"},{"astId":4159,"contract":"contracts/Blufield.sol:Blufield","label":"expirationOfUserSubscription","offset":0,"slot":"366","type":"t_mapping(t_address,t_mapping(t_uint256,t_uint64))"},{"astId":4163,"contract":"contracts/Blufield.sol:Blufield","label":"pendingWithdrawals","offset":0,"slot":"367","type":"t_mapping(t_address,t_uint256)"}],"types":{"t_address":{"encoding":"inplace","label":"address","numberOfBytes":"20"},"t_array(t_uint256)49_storage":{"base":"t_uint256","encoding":"inplace","label":"uint256[49]","numberOfBytes":"1568"},"t_array(t_uint256)50_storage":{"base":"t_uint256","encoding":"inplace","label":"uint256[50]","numberOfBytes":"1600"},"t_bool":{"encoding":"inplace","label":"bool","numberOfBytes":"1"},"t_bytes32":{"encoding":"inplace","label":"bytes32","numberOfBytes":"32"},"t_bytes_storage":{"encoding":"bytes","label":"bytes","numberOfBytes":"32"},"t_contract(IERC721NonTransferable)1041":{"encoding":"inplace","label":"contract IERC721NonTransferable","numberOfBytes":"20"},"t_enum(FailureHandleStrategy)1429":{"encoding":"inplace","label":"enum PackageQueue.FailureHandleStrategy","numberOfBytes":"1"},"t_int128":{"encoding":"inplace","label":"int128","numberOfBytes":"16"},"t_mapping(t_address,t_mapping(t_uint256,t_uint64))":{"encoding":"mapping","key":"t_address","label":"mapping(address => mapping(uint256 => uint64))","numberOfBytes":"32","value":"t_mapping(t_uint256,t_uint64)"},"t_mapping(t_address,t_struct(Bytes32Deque)3607_storage)":{"encoding":"mapping","key":"t_address","label":"mapping(address => struct DoubleEndedQueueUpgradeable.Bytes32Deque)","numberOfBytes":"32","value":"t_struct(Bytes32Deque)3607_storage"},"t_mapping(t_address,t_uint256)":{"encoding":"mapping","key":"t_address","label":"mapping(address => uint256)","numberOfBytes":"32","value":"t_uint256"},"t_mapping(t_bytes32,t_struct(RetryPackage)1442_storage)":{"encoding":"mapping","key":"t_bytes32","label":"mapping(bytes32 => struct PackageQueue.RetryPackage)","numberOfBytes":"32","value":"t_struct(RetryPackage)1442_storage"},"t_mapping(t_int128,t_bytes32)":{"encoding":"mapping","key":"t_int128","label":"mapping(int128 => bytes32)","numberOfBytes":"32","value":"t_bytes32"},"t_mapping(t_string_memory_ptr,t_uint256)":{"encoding":"mapping","key":"t_string_memory_ptr","label":"mapping(string => uint256)","numberOfBytes":"32","value":"t_uint256"},"t_mapping(t_uint256,t_string_storage)":{"encoding":"mapping","key":"t_uint256","label":"mapping(uint256 => string)","numberOfBytes":"32","value":"t_string_storage"},"t_mapping(t_uint256,t_uint256)":{"encoding":"mapping","key":"t_uint256","label":"mapping(uint256 => uint256)","numberOfBytes":"32","value":"t_uint256"},"t_mapping(t_uint256,t_uint64)":{"encoding":"mapping","key":"t_uint256","label":"mapping(uint256 => uint64)","numberOfBytes":"32","value":"t_uint64"},"t_string_memory_ptr":{"encoding":"bytes","label":"string","numberOfBytes":"32"},"t_string_storage":{"encoding":"bytes","label":"string","numberOfBytes":"32"},"t_struct(Bytes32Deque)3607_storage":{"encoding":"inplace","label":"struct DoubleEndedQueueUpgradeable.Bytes32Deque","members":[{"astId":3600,"contract":"contracts/Blufield.sol:Blufield","label":"_begin","offset":0,"slot":"0","type":"t_int128"},{"astId":3602,"contract":"contracts/Blufield.sol:Blufield","label":"_end","offset":16,"slot":"0","type":"t_int128"},{"astId":3606,"contract":"contracts/Blufield.sol:Blufield","label":"_data","offset":0,"slot":"1","type":"t_mapping(t_int128,t_bytes32)"}],"numberOfBytes":"64"},"t_struct(RetryPackage)1442_storage":{"encoding":"inplace","label":"struct PackageQueue.RetryPackage","members":[{"astId":1431,"contract":"contracts/Blufield.sol:Blufield","label":"appAddress","offset":0,"slot":"0","type":"t_address"},{"astId":1433,"contract":"contracts/Blufield.sol:Blufield","label":"status","offset":20,"slot":"0","type":"t_uint32"},{"astId":1435,"contract":"contracts/Blufield.sol:Blufield","label":"operationType","offset":24,"slot":"0","type":"t_uint8"},{"astId":1437,"contract":"contracts/Blufield.sol:Blufield","label":"resourceId","offset":0,"slot":"1","type":"t_uint256"},{"astId":1439,"contract":"contracts/Blufield.sol:Blufield","label":"callbackData","offset":0,"slot":"2","type":"t_bytes_storage"},{"astId":1441,"contract":"contracts/Blufield.sol:Blufield","label":"failReason","offset":0,"slot":"3","type":"t_bytes_storage"}],"numberOfBytes":"128"},"t_uint256":{"encoding":"inplace","label":"uint256","numberOfBytes":"32"},"t_uint32":{"encoding":"inplace","label":"uint32","numberOfBytes":"4"},"t_uint64":{"encoding":"inplace","label":"uint64","numberOfBytes":"8"},"t_uint8":{"encoding":"inplace","label":"uint8","numberOfBytes":"1"}}}}}}