{
  "_format": "hh-sol-artifact-1",
  "contractName": "Blufield",
  "sourceName": "contracts/Blufield.sol",
  "abi": [
    {
      "anonymous": false,
      "inputs": [
        {
          "indexed": true,
          "internalType": "address",
          "name": "appAddress",
          "type": "address"
        },
        {
          "indexed": false,
          "internalType": "bytes32",
          "name": "pkgHash",
          "type": "bytes32"
        },
        {
          "indexed": false,
          "internalType": "bytes",
          "name": "failReason",
          "type": "bytes"
        }
      ],
      "name": "AppHandleAckPkgFailed",
      "type": "event"
    },
    {
      "anonymous": false,
      "inputs": [
        {
          "indexed": true,
          "internalType": "address",
          "name": "appAddress",
          "type": "address"
        },
        {
          "indexed": false,
          "internalType": "bytes32",
          "name": "pkgHash",
          "type": "bytes32"
        },
        {
          "indexed": false,
          "internalType": "bytes",
          "name": "failReason",
          "type": "bytes"
        }
      ],
      "name": "AppHandleFailAckPkgFailed",
      "type": "event"
    },
    {
      "anonymous": false,
      "inputs": [
        {
          "indexed": true,
          "internalType": "address",
          "name": "creator",
          "type": "address"
        },
        {
          "indexed": true,
          "internalType": "uint256",
          "name": "id",
          "type": "uint256"
        }
      ],
      "name": "CreateFailed",
      "type": "event"
    },
    {
      "anonymous": false,
      "inputs": [
        {
          "indexed": false,
          "internalType": "uint32",
          "name": "status",
          "type": "uint32"
        },
        {
          "indexed": false,
          "internalType": "bytes",
          "name": "groupName",
          "type": "bytes"
        }
      ],
      "name": "CreateGroupFailed",
      "type": "event"
    },
    {
      "anonymous": false,
      "inputs": [
        {
          "indexed": false,
          "internalType": "bytes",
          "name": "groupName",
          "type": "bytes"
        },
        {
          "indexed": true,
          "internalType": "uint256",
          "name": "tokenId",
          "type": "uint256"
        }
      ],
      "name": "CreateGroupSuccess",
      "type": "event"
    },
    {
      "anonymous": false,
      "inputs": [
        {
          "indexed": true,
          "internalType": "address",
          "name": "owner",
          "type": "address"
        },
        {
          "indexed": true,
          "internalType": "address",
          "name": "operator",
          "type": "address"
        },
        {
          "indexed": false,
          "internalType": "string",
          "name": "name",
          "type": "string"
        }
      ],
      "name": "CreateSubmitted",
      "type": "event"
    },
    {
      "anonymous": false,
      "inputs": [
        {
          "indexed": true,
          "internalType": "address",
          "name": "creator",
          "type": "address"
        },
        {
          "indexed": true,
          "internalType": "uint256",
          "name": "id",
          "type": "uint256"
        }
      ],
      "name": "CreateSuccess",
      "type": "event"
    },
    {
      "anonymous": false,
      "inputs": [
        {
          "indexed": true,
          "internalType": "uint256",
          "name": "id",
          "type": "uint256"
        }
      ],
      "name": "DeleteFailed",
      "type": "event"
    },
    {
      "anonymous": false,
      "inputs": [
        {
          "indexed": false,
          "internalType": "uint32",
          "name": "status",
          "type": "uint32"
        },
        {
          "indexed": true,
          "internalType": "uint256",
          "name": "tokenId",
          "type": "uint256"
        }
      ],
      "name": "DeleteGroupFailed",
      "type": "event"
    },
    {
      "anonymous": false,
      "inputs": [
        {
          "indexed": true,
          "internalType": "uint256",
          "name": "tokenId",
          "type": "uint256"
        }
      ],
      "name": "DeleteGroupSuccess",
      "type": "event"
    },
    {
      "anonymous": false,
      "inputs": [
        {
          "indexed": true,
          "internalType": "address",
          "name": "owner",
          "type": "address"
        },
        {
          "indexed": true,
          "internalType": "address",
          "name": "operator",
          "type": "address"
        },
        {
          "indexed": true,
          "internalType": "uint256",
          "name": "id",
          "type": "uint256"
        }
      ],
      "name": "DeleteSubmitted",
      "type": "event"
    },
    {
      "anonymous": false,
      "inputs": [
        {
          "indexed": true,
          "internalType": "uint256",
          "name": "id",
          "type": "uint256"
        }
      ],
      "name": "DeleteSuccess",
      "type": "event"
    },
    {
      "anonymous": false,
      "inputs": [
        {
          "indexed": true,
          "internalType": "uint8",
          "name": "channelId",
          "type": "uint8"
        },
        {
          "indexed": false,
          "internalType": "bytes",
          "name": "msgBytes",
          "type": "bytes"
        }
      ],
      "name": "FailAckPkgReceived",
      "type": "event"
    },
    {
      "anonymous": false,
      "inputs": [
        {
          "indexed": false,
          "internalType": "uint8",
          "name": "version",
          "type": "uint8"
        }
      ],
      "name": "Initialized",
      "type": "event"
    },
    {
      "anonymous": false,
      "inputs": [
        {
          "indexed": true,
          "internalType": "uint256",
          "name": "id",
          "type": "uint256"
        },
        {
          "indexed": true,
          "internalType": "address",
          "name": "owner",
          "type": "address"
        },
        {
          "indexed": false,
          "internalType": "bytes",
          "name": "failReason",
          "type": "bytes"
        }
      ],
      "name": "MirrorFailed",
      "type": "event"
    },
    {
      "anonymous": false,
      "inputs": [
        {
          "indexed": true,
          "internalType": "uint256",
          "name": "id",
          "type": "uint256"
        },
        {
          "indexed": true,
          "internalType": "address",
          "name": "owner",
          "type": "address"
        }
      ],
      "name": "MirrorSuccess",
      "type": "event"
    },
    {
      "anonymous": false,
      "inputs": [
        {
          "indexed": false,
          "internalType": "string",
          "name": "key",
          "type": "string"
        },
        {
          "indexed": false,
          "internalType": "bytes",
          "name": "value",
          "type": "bytes"
        }
      ],
      "name": "ParamChange",
      "type": "event"
    },
    {
      "anonymous": false,
      "inputs": [
        {
          "indexed": true,
          "internalType": "uint8",
          "name": "channelId",
          "type": "uint8"
        },
        {
          "indexed": false,
          "internalType": "bytes",
          "name": "msgBytes",
          "type": "bytes"
        }
      ],
      "name": "UnexpectedPackage",
      "type": "event"
    },
    {
      "anonymous": false,
      "inputs": [
        {
          "indexed": true,
          "internalType": "address",
          "name": "operator",
          "type": "address"
        },
        {
          "indexed": true,
          "internalType": "uint256",
          "name": "id",
          "type": "uint256"
        },
        {
          "indexed": false,
          "internalType": "uint8",
          "name": "opType",
          "type": "uint8"
        }
      ],
      "name": "UpdateFailed",
      "type": "event"
    },
    {
      "anonymous": false,
      "inputs": [
        {
          "indexed": false,
          "internalType": "uint32",
          "name": "status",
          "type": "uint32"
        },
        {
          "indexed": true,
          "internalType": "uint256",
          "name": "tokenId",
          "type": "uint256"
        }
      ],
      "name": "UpdateGroupFailed",
      "type": "event"
    },
    {
      "anonymous": false,
      "inputs": [
        {
          "indexed": true,
          "internalType": "uint256",
          "name": "tokenId",
          "type": "uint256"
        }
      ],
      "name": "UpdateGroupSuccess",
      "type": "event"
    },
    {
      "anonymous": false,
      "inputs": [
        {
          "indexed": false,
          "internalType": "address",
          "name": "owner",
          "type": "address"
        },
        {
          "indexed": false,
          "internalType": "address",
          "name": "operator",
          "type": "address"
        },
        {
          "indexed": false,
          "internalType": "uint256",
          "name": "id",
          "type": "uint256"
        },
        {
          "indexed": false,
          "internalType": "uint8",
          "name": "opType",
          "type": "uint8"
        },
        {
          "indexed": false,
          "internalType": "address[]",
          "name": "members",
          "type": "address[]"
        }
      ],
      "name": "UpdateSubmitted",
      "type": "event"
    },
    {
      "anonymous": false,
      "inputs": [
        {
          "indexed": true,
          "internalType": "address",
          "name": "operator",
          "type": "address"
        },
        {
          "indexed": true,
          "internalType": "uint256",
          "name": "id",
          "type": "uint256"
        },
        {
          "indexed": false,
          "internalType": "uint8",
          "name": "opType",
          "type": "uint8"
        }
      ],
      "name": "UpdateSuccess",
      "type": "event"
    },
    {
      "inputs": [],
      "name": "AUTH_CODE_CREATE",
      "outputs": [
        {
          "internalType": "uint32",
          "name": "",
          "type": "uint32"
        }
      ],
      "stateMutability": "view",
      "type": "function"
    },
    {
      "inputs": [],
      "name": "AUTH_CODE_DELETE",
      "outputs": [
        {
          "internalType": "uint32",
          "name": "",
          "type": "uint32"
        }
      ],
      "stateMutability": "view",
      "type": "function"
    },
    {
      "inputs": [],
      "name": "AUTH_CODE_UPDATE",
      "outputs": [
        {
          "internalType": "uint32",
          "name": "",
          "type": "uint32"
        }
      ],
      "stateMutability": "view",
      "type": "function"
    },
    {
      "inputs": [],
      "name": "BUCKET_CHANNEL_ID",
      "outputs": [
        {
          "internalType": "uint8",
          "name": "",
          "type": "uint8"
        }
      ],
      "stateMutability": "view",
      "type": "function"
    },
    {
      "inputs": [],
      "name": "BUCKET_HUB",
      "outputs": [
        {
          "internalType": "address",
          "name": "",
          "type": "address"
        }
      ],
      "stateMutability": "view",
      "type": "function"
    },
    {
      "inputs": [],
      "name": "CROSS_CHAIN",
      "outputs": [
        {
          "internalType": "address",
          "name": "",
          "type": "address"
        }
      ],
      "stateMutability": "view",
      "type": "function"
    },
    {
      "inputs": [],
      "name": "EMERGENCY_OPERATOR",
      "outputs": [
        {
          "internalType": "address",
          "name": "",
          "type": "address"
        }
      ],
      "stateMutability": "view",
      "type": "function"
    },
    {
      "inputs": [],
      "name": "EMERGENCY_UPGRADE_OPERATOR",
      "outputs": [
        {
          "internalType": "address",
          "name": "",
          "type": "address"
        }
      ],
      "stateMutability": "view",
      "type": "function"
    },
    {
      "inputs": [],
      "name": "ERC1155Token",
      "outputs": [
        {
          "internalType": "address",
          "name": "",
          "type": "address"
        }
      ],
      "stateMutability": "view",
      "type": "function"
    },
    {
      "inputs": [],
      "name": "ERC721Token",
      "outputs": [
        {
          "internalType": "address",
          "name": "",
          "type": "address"
        }
      ],
      "stateMutability": "view",
      "type": "function"
    },
    {
      "inputs": [],
      "name": "ERROR_INSUFFICIENT_VALUE",
      "outputs": [
        {
          "internalType": "string",
          "name": "",
          "type": "string"
        }
      ],
      "stateMutability": "view",
      "type": "function"
    },
    {
      "inputs": [],
      "name": "ERROR_INVALID_CALLER",
      "outputs": [
        {
          "internalType": "string",
          "name": "",
          "type": "string"
        }
      ],
      "stateMutability": "view",
      "type": "function"
    },
    {
      "inputs": [],
      "name": "ERROR_INVALID_OPERATION",
      "outputs": [
        {
          "internalType": "string",
          "name": "",
          "type": "string"
        }
      ],
      "stateMutability": "view",
      "type": "function"
    },
    {
      "inputs": [],
      "name": "ERROR_INVALID_RESOURCE",
      "outputs": [
        {
          "internalType": "string",
          "name": "",
          "type": "string"
        }
      ],
      "stateMutability": "view",
      "type": "function"
    },
    {
      "inputs": [],
      "name": "GOV_CHANNEL_ID",
      "outputs": [
        {
          "internalType": "uint8",
          "name": "",
          "type": "uint8"
        }
      ],
      "stateMutability": "view",
      "type": "function"
    },
    {
      "inputs": [],
      "name": "GOV_HUB",
      "outputs": [
        {
          "internalType": "address",
          "name": "",
          "type": "address"
        }
      ],
      "stateMutability": "view",
      "type": "function"
    },
    {
      "inputs": [],
      "name": "GROUP_CHANNEL_ID",
      "outputs": [
        {
          "internalType": "uint8",
          "name": "",
          "type": "uint8"
        }
      ],
      "stateMutability": "view",
      "type": "function"
    },
    {
      "inputs": [],
      "name": "GROUP_HUB",
      "outputs": [
        {
          "internalType": "address",
          "name": "",
          "type": "address"
        }
      ],
      "stateMutability": "view",
      "type": "function"
    },
    {
      "inputs": [],
      "name": "GROUP_TOKEN",
      "outputs": [
        {
          "internalType": "contract IERC721NonTransferable",
          "name": "",
          "type": "address"
        }
      ],
      "stateMutability": "view",
      "type": "function"
    },
    {
      "inputs": [],
      "name": "INIT_MAX_CALLBACK_DATA_LENGTH",
      "outputs": [
        {
          "internalType": "uint256",
          "name": "",
          "type": "uint256"
        }
      ],
      "stateMutability": "view",
      "type": "function"
    },
    {
      "inputs": [],
      "name": "LIGHT_CLIENT",
      "outputs": [
        {
          "internalType": "address",
          "name": "",
          "type": "address"
        }
      ],
      "stateMutability": "view",
      "type": "function"
    },
    {
      "inputs": [],
      "name": "MAX_CALLBACK_GAS_LIMIT",
      "outputs": [
        {
          "internalType": "uint256",
          "name": "",
          "type": "uint256"
        }
      ],
      "stateMutability": "view",
      "type": "function"
    },
    {
      "inputs": [],
      "name": "MEMBER_TOKEN",
      "outputs": [
        {
          "internalType": "contract IERC1155NonTransferable",
          "name": "",
          "type": "address"
        }
      ],
      "stateMutability": "view",
      "type": "function"
    },
    {
      "inputs": [],
      "name": "OBJECT_CHANNEL_ID",
      "outputs": [
        {
          "internalType": "uint8",
          "name": "",
          "type": "uint8"
        }
      ],
      "stateMutability": "view",
      "type": "function"
    },
    {
      "inputs": [],
      "name": "OBJECT_HUB",
      "outputs": [
        {
          "internalType": "address",
          "name": "",
          "type": "address"
        }
      ],
      "stateMutability": "view",
      "type": "function"
    },
    {
      "inputs": [],
      "name": "PROXY_ADMIN",
      "outputs": [
        {
          "internalType": "address",
          "name": "",
          "type": "address"
        }
      ],
      "stateMutability": "view",
      "type": "function"
    },
    {
      "inputs": [],
      "name": "RELAYER_HUB",
      "outputs": [
        {
          "internalType": "address",
          "name": "",
          "type": "address"
        }
      ],
      "stateMutability": "view",
      "type": "function"
    },
    {
      "inputs": [],
      "name": "RESOURCE_GROUP",
      "outputs": [
        {
          "internalType": "uint8",
          "name": "",
          "type": "uint8"
        }
      ],
      "stateMutability": "view",
      "type": "function"
    },
    {
      "inputs": [],
      "name": "ROLE_CREATE",
      "outputs": [
        {
          "internalType": "bytes32",
          "name": "",
          "type": "bytes32"
        }
      ],
      "stateMutability": "view",
      "type": "function"
    },
    {
      "inputs": [],
      "name": "ROLE_DELETE",
      "outputs": [
        {
          "internalType": "bytes32",
          "name": "",
          "type": "bytes32"
        }
      ],
      "stateMutability": "view",
      "type": "function"
    },
    {
      "inputs": [],
      "name": "ROLE_UPDATE",
      "outputs": [
        {
          "internalType": "bytes32",
          "name": "",
          "type": "bytes32"
        }
      ],
      "stateMutability": "view",
      "type": "function"
    },
    {
      "inputs": [],
      "name": "STATUS_FAILED",
      "outputs": [
        {
          "internalType": "uint32",
          "name": "",
          "type": "uint32"
        }
      ],
      "stateMutability": "view",
      "type": "function"
    },
    {
      "inputs": [],
      "name": "STATUS_SUCCESS",
      "outputs": [
        {
          "internalType": "uint32",
          "name": "",
          "type": "uint32"
        }
      ],
      "stateMutability": "view",
      "type": "function"
    },
    {
      "inputs": [],
      "name": "STATUS_UNEXPECTED",
      "outputs": [
        {
          "internalType": "uint32",
          "name": "",
          "type": "uint32"
        }
      ],
      "stateMutability": "view",
      "type": "function"
    },
    {
      "inputs": [],
      "name": "TOKEN_HUB",
      "outputs": [
        {
          "internalType": "address",
          "name": "",
          "type": "address"
        }
      ],
      "stateMutability": "view",
      "type": "function"
    },
    {
      "inputs": [],
      "name": "TRANSFER_IN_CHANNEL_ID",
      "outputs": [
        {
          "internalType": "uint8",
          "name": "",
          "type": "uint8"
        }
      ],
      "stateMutability": "view",
      "type": "function"
    },
    {
      "inputs": [],
      "name": "TRANSFER_OUT_CHANNEL_ID",
      "outputs": [
        {
          "internalType": "uint8",
          "name": "",
          "type": "uint8"
        }
      ],
      "stateMutability": "view",
      "type": "function"
    },
    {
      "inputs": [],
      "name": "TYPE_CREATE",
      "outputs": [
        {
          "internalType": "uint8",
          "name": "",
          "type": "uint8"
        }
      ],
      "stateMutability": "view",
      "type": "function"
    },
    {
      "inputs": [],
      "name": "TYPE_DELETE",
      "outputs": [
        {
          "internalType": "uint8",
          "name": "",
          "type": "uint8"
        }
      ],
      "stateMutability": "view",
      "type": "function"
    },
    {
      "inputs": [],
      "name": "TYPE_MIRROR",
      "outputs": [
        {
          "internalType": "uint8",
          "name": "",
          "type": "uint8"
        }
      ],
      "stateMutability": "view",
      "type": "function"
    },
    {
      "inputs": [],
      "name": "TYPE_UPDATE",
      "outputs": [
        {
          "internalType": "uint8",
          "name": "",
          "type": "uint8"
        }
      ],
      "stateMutability": "view",
      "type": "function"
    },
    {
      "inputs": [],
      "name": "additional",
      "outputs": [
        {
          "internalType": "address",
          "name": "",
          "type": "address"
        }
      ],
      "stateMutability": "view",
      "type": "function"
    },
    {
      "inputs": [],
      "name": "callbackGasLimit",
      "outputs": [
        {
          "internalType": "uint256",
          "name": "",
          "type": "uint256"
        }
      ],
      "stateMutability": "view",
      "type": "function"
    },
    {
      "inputs": [],
      "name": "channelId",
      "outputs": [
        {
          "internalType": "uint8",
          "name": "",
          "type": "uint8"
        }
      ],
      "stateMutability": "view",
      "type": "function"
    },
    {
      "inputs": [],
      "name": "crossChain",
      "outputs": [
        {
          "internalType": "address",
          "name": "",
          "type": "address"
        }
      ],
      "stateMutability": "view",
      "type": "function"
    },
    {
      "inputs": [
        {
          "internalType": "address",
          "name": "",
          "type": "address"
        },
        {
          "internalType": "uint256",
          "name": "",
          "type": "uint256"
        }
      ],
      "name": "expirationOfUserSubscription",
      "outputs": [
        {
          "internalType": "uint64",
          "name": "",
          "type": "uint64"
        }
      ],
      "stateMutability": "view",
      "type": "function"
    },
    {
      "inputs": [],
      "name": "failureHandleStrategy",
      "outputs": [
        {
          "internalType": "enum PackageQueue.FailureHandleStrategy",
          "name": "",
          "type": "uint8"
        }
      ],
      "stateMutability": "view",
      "type": "function"
    },
    {
      "inputs": [
        {
          "internalType": "address",
          "name": "",
          "type": "address"
        }
      ],
      "name": "fieldIdOfUser",
      "outputs": [
        {
          "internalType": "uint256",
          "name": "",
          "type": "uint256"
        }
      ],
      "stateMutability": "view",
      "type": "function"
    },
    {
      "inputs": [
        {
          "internalType": "uint256",
          "name": "",
          "type": "uint256"
        }
      ],
      "name": "fieldIdToName",
      "outputs": [
        {
          "internalType": "string",
          "name": "",
          "type": "string"
        }
      ],
      "stateMutability": "view",
      "type": "function"
    },
    {
      "inputs": [
        {
          "internalType": "string",
          "name": "",
          "type": "string"
        }
      ],
      "name": "fieldNameToId",
      "outputs": [
        {
          "internalType": "uint256",
          "name": "",
          "type": "uint256"
        }
      ],
      "stateMutability": "view",
      "type": "function"
    },
    {
      "inputs": [
        {
          "internalType": "string",
          "name": "name",
          "type": "string"
        }
      ],
      "name": "getFeeByName",
      "outputs": [
        {
          "internalType": "uint256",
          "name": "",
          "type": "uint256"
        }
      ],
      "stateMutability": "view",
      "type": "function"
    },
    {
      "inputs": [
        {
          "internalType": "uint32",
          "name": "status",
          "type": "uint32"
        },
        {
          "internalType": "uint8",
          "name": "resourceType",
          "type": "uint8"
        },
        {
          "internalType": "uint8",
          "name": "operationType",
          "type": "uint8"
        },
        {
          "internalType": "uint256",
          "name": "resourceId",
          "type": "uint256"
        },
        {
          "internalType": "bytes",
          "name": "callbackData",
          "type": "bytes"
        }
      ],
      "name": "greenfieldCall",
      "outputs": [],
      "stateMutability": "nonpayable",
      "type": "function"
    },
    {
      "inputs": [],
      "name": "groupHub",
      "outputs": [
        {
          "internalType": "address",
          "name": "",
          "type": "address"
        }
      ],
      "stateMutability": "view",
      "type": "function"
    },
    {
      "inputs": [
        {
          "internalType": "address",
          "name": "_groupHub",
          "type": "address"
        },
        {
          "internalType": "address",
          "name": "_crossChain",
          "type": "address"
        },
        {
          "internalType": "uint256",
          "name": "_callbackGasLimit",
          "type": "uint256"
        },
        {
          "internalType": "uint8",
          "name": "_failureHandleStrategy",
          "type": "uint8"
        }
      ],
      "name": "initialize",
      "outputs": [],
      "stateMutability": "nonpayable",
      "type": "function"
    },
    {
      "inputs": [
        {
          "internalType": "address",
          "name": "user",
          "type": "address"
        },
        {
          "internalType": "string",
          "name": "name",
          "type": "string"
        }
      ],
      "name": "isSubscribed",
      "outputs": [
        {
          "internalType": "bool",
          "name": "",
          "type": "bool"
        }
      ],
      "stateMutability": "view",
      "type": "function"
    },
    {
      "inputs": [],
      "name": "maxCallbackDataLength",
      "outputs": [
        {
          "internalType": "uint256",
          "name": "",
          "type": "uint256"
        }
      ],
      "stateMutability": "view",
      "type": "function"
    },
    {
      "inputs": [
        {
          "internalType": "bytes32",
          "name": "",
          "type": "bytes32"
        }
      ],
      "name": "packageMap",
      "outputs": [
        {
          "internalType": "address",
          "name": "appAddress",
          "type": "address"
        },
        {
          "internalType": "uint32",
          "name": "status",
          "type": "uint32"
        },
        {
          "internalType": "uint8",
          "name": "operationType",
          "type": "uint8"
        },
        {
          "internalType": "uint256",
          "name": "resourceId",
          "type": "uint256"
        },
        {
          "internalType": "bytes",
          "name": "callbackData",
          "type": "bytes"
        },
        {
          "internalType": "bytes",
          "name": "failReason",
          "type": "bytes"
        }
      ],
      "stateMutability": "view",
      "type": "function"
    },
    {
      "inputs": [
        {
          "internalType": "string",
          "name": "name",
          "type": "string"
        },
        {
          "internalType": "uint256",
          "name": "groupId",
          "type": "uint256"
        },
        {
          "internalType": "uint256",
          "name": "price",
          "type": "uint256"
        }
      ],
      "name": "registerField",
      "outputs": [],
      "stateMutability": "nonpayable",
      "type": "function"
    },
    {
      "inputs": [
        {
          "internalType": "uint8",
          "name": "resourceType",
          "type": "uint8"
        }
      ],
      "name": "retryPackage",
      "outputs": [],
      "stateMutability": "nonpayable",
      "type": "function"
    },
    {
      "inputs": [
        {
          "internalType": "address",
          "name": "",
          "type": "address"
        }
      ],
      "name": "retryQueue",
      "outputs": [
        {
          "internalType": "int128",
          "name": "_begin",
          "type": "int128"
        },
        {
          "internalType": "int128",
          "name": "_end",
          "type": "int128"
        }
      ],
      "stateMutability": "view",
      "type": "function"
    },
    {
      "inputs": [
        {
          "internalType": "uint8",
          "name": "resourceType",
          "type": "uint8"
        }
      ],
      "name": "skipPackage",
      "outputs": [],
      "stateMutability": "nonpayable",
      "type": "function"
    },
    {
      "inputs": [
        {
          "internalType": "string",
          "name": "fieldName",
          "type": "string"
        }
      ],
      "name": "subscribeField",
      "outputs": [],
      "stateMutability": "payable",
      "type": "function"
    },
    {
      "inputs": [
        {
          "internalType": "uint256",
          "name": "",
          "type": "uint256"
        }
      ],
      "name": "subscriptionFee",
      "outputs": [
        {
          "internalType": "uint256",
          "name": "",
          "type": "uint256"
        }
      ],
      "stateMutability": "view",
      "type": "function"
    },
    {
      "inputs": [
        {
          "internalType": "address",
          "name": "",
          "type": "address"
        }
      ],
      "name": "userField",
      "outputs": [
        {
          "internalType": "string",
          "name": "",
          "type": "string"
        }
      ],
      "stateMutability": "view",
      "type": "function"
    },
    {
      "inputs": [
        {
          "internalType": "address",
          "name": "user",
          "type": "address"
        }
      ],
      "name": "userSubscriptions",
      "outputs": [
        {
          "internalType": "string[]",
          "name": "",
          "type": "string[]"
        }
      ],
      "stateMutability": "view",
      "type": "function"
    },
    {
      "inputs": [],
      "name": "versionInfo",
      "outputs": [
        {
          "internalType": "uint256",
          "name": "version",
          "type": "uint256"
        },
        {
          "internalType": "string",
          "name": "name",
          "type": "string"
        },
        {
          "internalType": "string",
          "name": "description",
          "type": "string"
        }
      ],
      "stateMutability": "pure",
      "type": "function"
    }
  ],
  "bytecode": "0x608060405234801561001057600080fd5b506129b1806100206000396000f3fe6080604052600436106103d95760003560e01c806381d91480116101fd578063cc65cc4a11610118578063e613ae00116100ab578063ed9bc82a1161007a578063ed9bc82a1461062a578063edabb0a314610717578063f2223c0214610702578063fdd562b814610a41578063feb3a68a14610ad757600080fd5b8063e613ae001461062a578063e844911614610806578063e8ea79c014610aa2578063eac78b3314610ac257600080fd5b8063d271250e116100e7578063d271250e14610a13578063e02e86b014610a41578063e2cee54414610a56578063e52a671814610a7557600080fd5b8063cc65cc4a14610927578063ce1ddb6c14610999578063cf14b9e4146109c6578063d18e12a6146109f357600080fd5b8063b32f787b11610190578063c64ca0201161015f578063c64ca02014610945578063c71f64e414610965578063c8b01e6f146105e0578063cc12eabc1461044a57600080fd5b8063b32f787b14610762578063b4627d3514610927578063b8e43b331461062a578063b9d869131461062a57600080fd5b80639142d7fb116101cc5780639142d7fb1461089f578063a21d1354146108c0578063a29be1fa14610907578063a9dae71c1461062a57600080fd5b806381d91480146108065780638855e0921461081b5780638c3cb902146108305780638f8ea3841461084557600080fd5b806346ab84e5116102f857806361bbd6dd1161028b578063778afbb71161025a578063778afbb71461077757806377a714ae146107b05780637a1a14f5146107d65780637afffdd21461062a5780637d2e30841461062a57600080fd5b806361bbd6dd1461072c5780636d3358a11461062a57806373ee45081461074257806373f1e3c31461076257600080fd5b8063557cf477116102c7578063557cf4771461062a5780635bb58b17146106e25780635d83a5aa14610702578063618d569c1461071757600080fd5b806346ab84e51461062a5780634917db661461063f5780634eee77671461065f57806350704a50146106b557600080fd5b806324f746971161037057806339c332151161033f57806339c33215146105c85780633a0f4bf8146105e0578063459af3aa1461060a57806346934fc81461062a57600080fd5b806324f74697146105485780632751cc931461055e57806333a89c401461057357806339a25290146105a157600080fd5b8063142c2f44116103ac578063142c2f44146104a5578063189e8102146104bb5780631a12138f146104f55780631c60450d1461051657600080fd5b8063012927c0146103de57806304ade8e11461041c57806309d1be191461044a57806312629faf14610471575b600080fd5b3480156103ea57600080fd5b50610169546103ff906001600160a01b031681565b6040516001600160a01b0390911681526020015b60405180910390f35b34801561042857600080fd5b5061043c6104373660046120c5565b610b0b565b604051908152602001610413565b34801561045657600080fd5b5061045f600181565b60405160ff9091168152602001610413565b34801561047d57600080fd5b5061043c7fa7a925e56b0f4627a3e4910a6e10d23a82143f84f9d73d587c9ef425941ace8e81565b3480156104b157600080fd5b5061043c60695481565b3480156104c757600080fd5b506104e8604051806040016040528060018152602001601960f91b81525081565b6040516104139190612156565b34801561050157600080fd5b50610168546103ff906001600160a01b031681565b34801561052257600080fd5b50610536610531366004612169565b610b5d565b60405161041396959493929190612182565b34801561055457600080fd5b5061043c609c5481565b61057161056c3660046120c5565b610cb9565b005b34801561057f57600080fd5b5061043c61058e366004612169565b61016e6020526000908152604090205481565b3480156105ad57600080fd5b50609d546105bb9060ff1681565b6040516104139190612211565b3480156105d457600080fd5b5061043c6301312d0081565b3480156105ec57600080fd5b506105f5600181565b60405163ffffffff9091168152602001610413565b34801561061657600080fd5b5061057161062536600461223a565b611240565b34801561063657600080fd5b506103ff600081565b34801561064b57600080fd5b50609b546103ff906001600160a01b031681565b34801561066b57600080fd5b5061069b61067a3660046122d8565b603360205260009081526040902054600f81810b91600160801b9004900b82565b60408051600f93840b81529190920b602082015201610413565b3480156106c157600080fd5b506104e8604051806040016040528060018152602001603160f81b81525081565b3480156106ee57600080fd5b506104e86106fd366004612169565b61131e565b34801561070e57600080fd5b506105f5600281565b34801561072357600080fd5b5061045f600281565b34801561073857600080fd5b5061043c61040081565b34801561074e57600080fd5b5060d0546103ff906001600160a01b031681565b34801561076e57600080fd5b5061045f600481565b34801561078357600080fd5b5061043c61079236600461230b565b805160208183018101805161016b8252928201919093012091525481565b3480156107bc57600080fd5b506067546103ff906201000090046001600160a01b031681565b3480156107e257600080fd5b506107f66107f13660046123bb565b6113b9565b6040519015158152602001610413565b34801561081257600080fd5b5061045f600381565b34801561082757600080fd5b506105f5600081565b34801561083c57600080fd5b506105f5600481565b34801561085157600080fd5b5061088761086036600461240f565b61016f6020908152600092835260408084209091529082529020546001600160401b031681565b6040516001600160401b039091168152602001610413565b3480156108ab57600080fd5b50610103546103ff906001600160a01b031681565b3480156108cc57600080fd5b506040805180820182526006815265436f6e66696760d01b60208083019190915282519081018352600080825292516104139392919061243b565b34801561091357600080fd5b50610571610922366004612470565b61142d565b34801561093357600080fd5b506105716109423660046124c0565b50565b34801561095157600080fd5b506105716109603660046124db565b6116e5565b34801561097157600080fd5b5061043c7fe52b0c82d70862ecc57dd0fa972f308948292049a31fa59a5b152ce07497fded81565b3480156109a557600080fd5b506104e8604051806040016040528060018152602001603360f81b81525081565b3480156109d257600080fd5b506109e66109e13660046122d8565b611912565b604051610413919061252c565b3480156109ff57600080fd5b506104e8610a0e3660046122d8565b611af5565b348015610a1f57600080fd5b5061043c610a2e3660046122d8565b61016a6020526000908152604090205481565b348015610a4d57600080fd5b5061045f600681565b348015610a6257600080fd5b5060675461045f90610100900460ff1681565b348015610a8157600080fd5b506104e8604051806040016040528060018152602001600360fc1b81525081565b348015610aae57600080fd5b506068546103ff906001600160a01b031681565b348015610ace57600080fd5b5061045f600581565b348015610ae357600080fd5b5061043c7f757d0265d5de9ff03394896c4c44c92950e6e9565f35923c097aed8e1128e4cb81565b60008061016b8484604051610b2192919061258e565b908152602001604051809103902054905080600003610b44576000915050610b57565b600090815261016e602052604090205490505b92915050565b6034602052600090815260409020805460018201546002830180546001600160a01b03841694600160a01b850463ffffffff1694600160c01b900460ff1693929091610ba89061259e565b80601f0160208091040260200160405190810160405280929190818152602001828054610bd49061259e565b8015610c215780601f10610bf657610100808354040283529160200191610c21565b820191906000526020600020905b815481529060010190602001808311610c0457829003601f168201915b505050505090806003018054610c369061259e565b80601f0160208091040260200160405190810160405280929190818152602001828054610c629061259e565b8015610caf5780601f10610c8457610100808354040283529160200191610caf565b820191906000526020600020905b815481529060010190602001808311610c9257829003601f168201915b5050505050905086565b610cc1611b0f565b600061016b8383604051610cd692919061258e565b908152602001604051809103902054905080600003610d3c5760405162461bcd60e51b815260206004820152601e60248201527f426c756669656c643a206669656c64206e6f742072656769737465726564000060448201526064015b60405180910390fd5b600081815261016c602052604081208054610d569061259e565b905011610da55760405162461bcd60e51b815260206004820152601e60248201527f426c756669656c643a206669656c64206e6f74207265676973746572656400006044820152606401610d33565b610168546040516331a9108f60e11b8152600481018390526000916001600160a01b031690636352211e90602401602060405180830381865afa158015610df0573d6000803e3d6000fd5b505050506040513d601f19601f82011682018060405250810190610e1491906125d8565b90506001600160a01b038116610e7c5760405162461bcd60e51b815260206004820152602760248201527f426c756669656c643a2063616e6e6f742073756273637269626520746f206f776044820152661b88199a595b1960ca1b6064820152608401610d33565b610103546040516347884b1b60e11b81527f757d0265d5de9ff03394896c4c44c92950e6e9565f35923c097aed8e1128e4cb60048201526001600160a01b03838116602483015230604483015290911690638f10963690606401602060405180830381865afa158015610ef3573d6000803e3d6000fd5b505050506040513d601f19601f82011682018060405250810190610f1791906125f5565b610f635760405162461bcd60e51b815260206004820152601a60248201527f426c756669656c643a20726f6c65206e6f74206772616e7465640000000000006044820152606401610d33565b600082815261016e602052604081205490610f7c611b6a565b9050610f88818361262d565b341015610fd75760405162461bcd60e51b815260206004820152601e60248201527f426c756669656c643a20696e73756666696369656e74207061796d656e7400006044820152606401610d33565b61016954604051627eeac760e11b815233600482015260248101869052600091829182916001600160a01b03169062fdd58e90604401602060405180830381865afa15801561102a573d6000803e3d6000fd5b505050506040513d601f19601f8201168201806040525081019061104e9190612640565b905080600003611070576110654262278d0061262d565b9250600091506110ec565b33600090815261016f602090815260408083208a8452909152902054426001600160401b0390911611156110d75733600090815261016f602090815260408083208a84529091529020546110d0906001600160401b031662278d00612659565b92506110e7565b6110e44262278d0061262d565b92505b600291505b604080516001808252818301909252600091602080830190803683375050604080516001808252818301909252929350600092915060208083019080368337019050509050338260008151811061114557611145612680565b60200260200101906001600160a01b031690816001600160a01b031681525050848160008151811061117957611179612680565b6001600160401b03909216602092830291909101909101526111a8888a8685856111a38d34612696565b611c92565b6040516001600160a01b0389169088156108fc029089906000818181858888f193505050501580156111de573d6000803e3d6000fd5b5033600081815261016f602090815260408083208d84528252808320805467ffffffffffffffff19166001600160401b038b16179055928252610170905220611227908a611dd5565b5050505050505050505061123c600161013655565b5050565b6101035460408051808201825260018152600360fc1b60208083019190915291516001600160a01b0390931633149261127992016126a9565b604051602081830303815290604052906112a65760405162461bcd60e51b8152600401610d339190612156565b50600660ff168560ff1614604051806040016040528060018152602001603160f81b8152506040516020016112db91906126a9565b604051602081830303815290604052906113085760405162461bcd60e51b8152600401610d339190612156565b506113168685858585611de1565b505050505050565b61016c60205260009081526040902080546113389061259e565b80601f01602080910402602001604051908101604052809291908181526020018280546113649061259e565b80156113b15780601f10611386576101008083540402835291602001916113b1565b820191906000526020600020905b81548152906001019060200180831161139457829003601f168201915b505050505081565b60008061016b84846040516113cf92919061258e565b9081526020016040518091039020549050806000036113f2576000915050611426565b6001600160a01b038516600090815261016f602090815260408083209383529290522054426001600160401b039091161190505b9392505050565b611435611b0f565b610168546040516331a9108f60e11b81526004810184905233916001600160a01b031690636352211e90602401602060405180830381865afa15801561147f573d6000803e3d6000fd5b505050506040513d601f19601f820116820180604052508101906114a391906125d8565b6001600160a01b0316146114ef5760405162461bcd60e51b815260206004820152601360248201527221363ab334b2b6321d103737ba1037bbb732b960691b6044820152606401610d33565b8261153c5760405162461bcd60e51b815260206004820152601760248201527f426c756669656c643a206e616d6520697320656d7074790000000000000000006044820152606401610d33565b33600090815261016a60205260409020541561159a5760405162461bcd60e51b815260206004820152601c60248201527f426c756669656c643a20616c72656164792072656769737465726564000000006044820152606401610d33565b61016b84846040516115ad92919061258e565b90815260200160405180910390205460001461160b5760405162461bcd60e51b815260206004820152601c60248201527f426c756669656c643a206e616d6520616c72656164792074616b656e000000006044820152606401610d33565b6000811161165b5760405162461bcd60e51b815260206004820152601760248201527f426c756669656c643a207072696365206973207a65726f0000000000000000006044820152606401610d33565b33600090815261016a6020908152604080832085905584835261016c9091529020611687848683612721565b5033600090815261016d602052604090206116a3848683612721565b508161016b85856040516116b892919061258e565b908152604080516020928190038301902092909255600093845261016e9052909120555050600161013655565b600054610100900460ff16158080156117055750600054600160ff909116105b8061171f5750303b15801561171f575060005460ff166001145b6117825760405162461bcd60e51b815260206004820152602e60248201527f496e697469616c697a61626c653a20636f6e747261637420697320616c72656160448201526d191e481a5b9a5d1a585b1a5e995960921b6064820152608401610d33565b6000805460ff1916600117905580156117a5576000805461ff0019166101001790555b846001600160a01b03166377a714ae6040518163ffffffff1660e01b8152600401602060405180830381865afa1580156117e3573d6000803e3d6000fd5b505050506040513d601f19601f8201168201806040525081019061180791906125d8565b61016860006101000a8154816001600160a01b0302191690836001600160a01b03160217905550846001600160a01b03166373ee45086040518163ffffffff1660e01b8152600401602060405180830381865afa15801561186c573d6000803e3d6000fd5b505050506040513d601f19601f8201168201806040525081019061189091906125d8565b61016980546001600160a01b0319166001600160a01b03929092169190911790556118bc848484611f1d565b6118c585611f9f565b801561190b576000805461ff0019169055604051600181527f7f26b83ff96e1f2b6a682f133852f6798a09c465da95921460cefb38474024989060200160405180910390a15b5050505050565b6001600160a01b0381166000908152610170602052604081206060919061193890611fe9565b90506000816001600160401b03811115611954576119546122f5565b60405190808252806020026020018201604052801561198757816020015b60608152602001906001900390816119725790505b50905060005b82811015611aed576001600160a01b0385166000908152610170602052604081206119b89083611ff3565b6001600160a01b038716600090815261016f60209081526040808320848452909152902054909150426001600160401b039091161115611aac57600081815261016c602052604090208054611a0c9061259e565b80601f0160208091040260200160405190810160405280929190818152602001828054611a389061259e565b8015611a855780601f10611a5a57610100808354040283529160200191611a85565b820191906000526020600020905b815481529060010190602001808311611a6857829003601f168201915b5050505050838381518110611a9c57611a9c612680565b6020026020010181905250611ada565b60405180602001604052806000815250838381518110611ace57611ace612680565b60200260200101819052505b5080611ae5816127e0565b91505061198d565b509392505050565b61016d60205260009081526040902080546113389061259e565b60026101365403611b625760405162461bcd60e51b815260206004820152601f60248201527f5265656e7472616e637947756172643a207265656e7472616e742063616c6c006044820152606401610d33565b600261013655565b6000806000609b60009054906101000a90046001600160a01b03166001600160a01b03166354912a976040518163ffffffff1660e01b815260040160408051808303816000875af1158015611bc3573d6000803e3d6000fd5b505050506040513d601f19601f82011682018060405250810190611be791906127f9565b915091506000609b60009054906101000a90046001600160a01b03166001600160a01b031663bf9032476040518163ffffffff1660e01b81526004016020604051808303816000875af1158015611c42573d6000803e3d6000fd5b505050506040513d601f19601f82011682018060405250810190611c669190612640565b905080609c54611c76919061281d565b611c80838561262d565b611c8a919061262d565b935050505090565b60006040518060c00160405280886001600160a01b03168152602001878152602001866002811115611cc657611cc66121dd565b81526020018581526020016040518060200160405280600081525081526020018481525090506000611cf6611b6a565b905080341015604051806040016040528060018152602001603360f81b815250604051602001611d2691906126a9565b60405160208183030381529060405290611d535760405162461bcd60e51b8152600401610d339190612156565b50610103546040516302041bbf60e51b81526001600160a01b039091169063408377e0908590611d87908690600401612878565b60206040518083038185885af1158015611da5573d6000803e3d6000fd5b50505050506040513d601f19601f82011682018060405250810190611dca91906125f5565b505050505050505050565b60006114268383611fff565b60011960ff851601611e3357611e2e858484848080601f01602080910402602001604051908101604052809392919081815260200183838082843760009201919091525061204e92505050565b61190b565b60021960ff851601611e8057611e2e858484848080601f01602080910402602001604051908101604052809392919081815260200183838082843760009201919091525061204e92505050565b60031960ff851601611ecd57611e2e858484848080601f01602080910402602001604051908101604052809392919081815260200183838082843760009201919091525061204e92505050565b604051806040016040528060018152602001601960f91b815250604051602001611ef791906126a9565b60408051601f198184030181529082905262461bcd60e51b8252610d3391600401612156565b600054610100900460ff16611f445760405162461bcd60e51b8152600401610d3390612930565b609b80546001600160a01b0319166001600160a01b038516179055609c82905560ff81166002811115611f7957611f796121dd565b609d805460ff19166001836002811115611f9557611f956121dd565b0217905550505050565b600054610100900460ff16611fc65760405162461bcd60e51b8152600401610d3390612930565b61010380546001600160a01b0319166001600160a01b0392909216919091179055565b6000610b57825490565b60006114268383612053565b600081815260018301602052604081205461204657508154600181810184556000848152602080822090930184905584548482528286019093526040902091909155610b57565b506000610b57565b505050565b600082600001828154811061206a5761206a612680565b9060005260206000200154905092915050565b60008083601f84011261208f57600080fd5b5081356001600160401b038111156120a657600080fd5b6020830191508360208285010111156120be57600080fd5b9250929050565b600080602083850312156120d857600080fd5b82356001600160401b038111156120ee57600080fd5b6120fa8582860161207d565b90969095509350505050565b60005b83811015612121578181015183820152602001612109565b50506000910152565b60008151808452612142816020860160208601612106565b601f01601f19169290920160200192915050565b602081526000611426602083018461212a565b60006020828403121561217b57600080fd5b5035919050565b60018060a01b038716815263ffffffff8616602082015260ff8516604082015283606082015260c0608082015260006121be60c083018561212a565b82810360a08401526121d0818561212a565b9998505050505050505050565b634e487b7160e01b600052602160045260246000fd5b6003811061094257634e487b7160e01b600052602160045260246000fd5b6020810161221e836121f3565b91905290565b803560ff8116811461223557600080fd5b919050565b60008060008060008060a0878903121561225357600080fd5b863563ffffffff8116811461226757600080fd5b955061227560208801612224565b945061228360408801612224565b93506060870135925060808701356001600160401b038111156122a557600080fd5b6122b189828a0161207d565b979a9699509497509295939492505050565b6001600160a01b038116811461094257600080fd5b6000602082840312156122ea57600080fd5b8135611426816122c3565b634e487b7160e01b600052604160045260246000fd5b60006020828403121561231d57600080fd5b81356001600160401b038082111561233457600080fd5b818401915084601f83011261234857600080fd5b81358181111561235a5761235a6122f5565b604051601f8201601f19908116603f01168101908382118183101715612382576123826122f5565b8160405282815287602084870101111561239b57600080fd5b826020860160208301376000928101602001929092525095945050505050565b6000806000604084860312156123d057600080fd5b83356123db816122c3565b925060208401356001600160401b038111156123f657600080fd5b6124028682870161207d565b9497909650939450505050565b6000806040838503121561242257600080fd5b823561242d816122c3565b946020939093013593505050565b838152606060208201526000612454606083018561212a565b8281036040840152612466818561212a565b9695505050505050565b6000806000806060858703121561248657600080fd5b84356001600160401b0381111561249c57600080fd5b6124a88782880161207d565b90989097506020870135966040013595509350505050565b6000602082840312156124d257600080fd5b61142682612224565b600080600080608085870312156124f157600080fd5b84356124fc816122c3565b9350602085013561250c816122c3565b92506040850135915061252160608601612224565b905092959194509250565b6000602080830181845280855180835260408601915060408160051b870101925083870160005b8281101561258157603f1988860301845261256f85835161212a565b94509285019290850190600101612553565b5092979650505050505050565b8183823760009101908152919050565b600181811c908216806125b257607f821691505b6020821081036125d257634e487b7160e01b600052602260045260246000fd5b50919050565b6000602082840312156125ea57600080fd5b8151611426816122c3565b60006020828403121561260757600080fd5b8151801515811461142657600080fd5b634e487b7160e01b600052601160045260246000fd5b80820180821115610b5757610b57612617565b60006020828403121561265257600080fd5b5051919050565b6001600160401b0381811683821601908082111561267957612679612617565b5092915050565b634e487b7160e01b600052603260045260246000fd5b81810381811115610b5757610b57612617565b69023b937bab820b8381d160b51b8152600082516126ce81600a850160208701612106565b91909101600a0192915050565b601f82111561204e57600081815260208120601f850160051c810160208610156127025750805b601f850160051c820191505b818110156113165782815560010161270e565b6001600160401b03831115612738576127386122f5565b61274c83612746835461259e565b836126db565b6000601f84116001811461278057600085156127685750838201355b600019600387901b1c1916600186901b17835561190b565b600083815260209020601f19861690835b828110156127b15786850135825560209485019460019092019101612791565b50868210156127ce5760001960f88860031b161c19848701351681555b505060018560011b0183555050505050565b6000600182016127f2576127f2612617565b5060010190565b6000806040838503121561280c57600080fd5b505080516020909101519092909150565b8082028115828204841417610b5757610b57612617565b600081518084526020808501945080840160005b8381101561286d5781516001600160401b031687529582019590820190600101612848565b509495945050505050565b6000602080835260e0830160018060a01b03808651168386015282860151604086015260408601516128a9816121f3565b60608681019190915286015160c060808701528051928390528301916000906101008701905b808310156128f1578451841682529385019360019290920191908501906128cf565b5060808801519450601f199350838782030160a0880152612912818661212a565b945050505060a0850151818584030160c08601526124668382612834565b6020808252602b908201527f496e697469616c697a61626c653a20636f6e7472616374206973206e6f74206960408201526a6e697469616c697a696e6760a81b60608201526080019056fea26469706673582212205e31d082a87e37cb3504cee1d56568b75f2e0417c01e5335809b42ac181749db64736f6c63430008140033",
  "linkReferences": {},
  "deployedLinkReferences": {}
}