{
  "_format": "hh-sol-artifact-1",
  "contractName": "Blufield",
  "sourceName": "contracts/Blufield.sol",
  "abi": [
    {
      "anonymous": false,
      "inputs": [
        {
          "indexed": true,
          "internalType": "address",
          "name": "appAddress",
          "type": "address"
        },
        {
          "indexed": false,
          "internalType": "bytes32",
          "name": "pkgHash",
          "type": "bytes32"
        },
        {
          "indexed": false,
          "internalType": "bytes",
          "name": "failReason",
          "type": "bytes"
        }
      ],
      "name": "AppHandleAckPkgFailed",
      "type": "event"
    },
    {
      "anonymous": false,
      "inputs": [
        {
          "indexed": true,
          "internalType": "address",
          "name": "appAddress",
          "type": "address"
        },
        {
          "indexed": false,
          "internalType": "bytes32",
          "name": "pkgHash",
          "type": "bytes32"
        },
        {
          "indexed": false,
          "internalType": "bytes",
          "name": "failReason",
          "type": "bytes"
        }
      ],
      "name": "AppHandleFailAckPkgFailed",
      "type": "event"
    },
    {
      "anonymous": false,
      "inputs": [
        {
          "indexed": true,
          "internalType": "address",
          "name": "creator",
          "type": "address"
        },
        {
          "indexed": true,
          "internalType": "uint256",
          "name": "id",
          "type": "uint256"
        }
      ],
      "name": "CreateFailed",
      "type": "event"
    },
    {
      "anonymous": false,
      "inputs": [
        {
          "indexed": false,
          "internalType": "uint32",
          "name": "status",
          "type": "uint32"
        },
        {
          "indexed": false,
          "internalType": "bytes",
          "name": "groupName",
          "type": "bytes"
        }
      ],
      "name": "CreateGroupFailed",
      "type": "event"
    },
    {
      "anonymous": false,
      "inputs": [
        {
          "indexed": false,
          "internalType": "bytes",
          "name": "groupName",
          "type": "bytes"
        },
        {
          "indexed": true,
          "internalType": "uint256",
          "name": "tokenId",
          "type": "uint256"
        }
      ],
      "name": "CreateGroupSuccess",
      "type": "event"
    },
    {
      "anonymous": false,
      "inputs": [
        {
          "indexed": true,
          "internalType": "address",
          "name": "owner",
          "type": "address"
        },
        {
          "indexed": true,
          "internalType": "address",
          "name": "operator",
          "type": "address"
        },
        {
          "indexed": false,
          "internalType": "string",
          "name": "name",
          "type": "string"
        }
      ],
      "name": "CreateSubmitted",
      "type": "event"
    },
    {
      "anonymous": false,
      "inputs": [
        {
          "indexed": true,
          "internalType": "address",
          "name": "creator",
          "type": "address"
        },
        {
          "indexed": true,
          "internalType": "uint256",
          "name": "id",
          "type": "uint256"
        }
      ],
      "name": "CreateSuccess",
      "type": "event"
    },
    {
      "anonymous": false,
      "inputs": [
        {
          "indexed": true,
          "internalType": "uint256",
          "name": "id",
          "type": "uint256"
        }
      ],
      "name": "DeleteFailed",
      "type": "event"
    },
    {
      "anonymous": false,
      "inputs": [
        {
          "indexed": false,
          "internalType": "uint32",
          "name": "status",
          "type": "uint32"
        },
        {
          "indexed": true,
          "internalType": "uint256",
          "name": "tokenId",
          "type": "uint256"
        }
      ],
      "name": "DeleteGroupFailed",
      "type": "event"
    },
    {
      "anonymous": false,
      "inputs": [
        {
          "indexed": true,
          "internalType": "uint256",
          "name": "tokenId",
          "type": "uint256"
        }
      ],
      "name": "DeleteGroupSuccess",
      "type": "event"
    },
    {
      "anonymous": false,
      "inputs": [
        {
          "indexed": true,
          "internalType": "address",
          "name": "owner",
          "type": "address"
        },
        {
          "indexed": true,
          "internalType": "address",
          "name": "operator",
          "type": "address"
        },
        {
          "indexed": true,
          "internalType": "uint256",
          "name": "id",
          "type": "uint256"
        }
      ],
      "name": "DeleteSubmitted",
      "type": "event"
    },
    {
      "anonymous": false,
      "inputs": [
        {
          "indexed": true,
          "internalType": "uint256",
          "name": "id",
          "type": "uint256"
        }
      ],
      "name": "DeleteSuccess",
      "type": "event"
    },
    {
      "anonymous": false,
      "inputs": [
        {
          "indexed": true,
          "internalType": "uint8",
          "name": "channelId",
          "type": "uint8"
        },
        {
          "indexed": false,
          "internalType": "bytes",
          "name": "msgBytes",
          "type": "bytes"
        }
      ],
      "name": "FailAckPkgReceived",
      "type": "event"
    },
    {
      "anonymous": false,
      "inputs": [
        {
          "indexed": false,
          "internalType": "uint8",
          "name": "version",
          "type": "uint8"
        }
      ],
      "name": "Initialized",
      "type": "event"
    },
    {
      "anonymous": false,
      "inputs": [
        {
          "indexed": true,
          "internalType": "uint256",
          "name": "id",
          "type": "uint256"
        },
        {
          "indexed": true,
          "internalType": "address",
          "name": "owner",
          "type": "address"
        },
        {
          "indexed": false,
          "internalType": "bytes",
          "name": "failReason",
          "type": "bytes"
        }
      ],
      "name": "MirrorFailed",
      "type": "event"
    },
    {
      "anonymous": false,
      "inputs": [
        {
          "indexed": true,
          "internalType": "uint256",
          "name": "id",
          "type": "uint256"
        },
        {
          "indexed": true,
          "internalType": "address",
          "name": "owner",
          "type": "address"
        }
      ],
      "name": "MirrorSuccess",
      "type": "event"
    },
    {
      "anonymous": false,
      "inputs": [
        {
          "indexed": false,
          "internalType": "string",
          "name": "key",
          "type": "string"
        },
        {
          "indexed": false,
          "internalType": "bytes",
          "name": "value",
          "type": "bytes"
        }
      ],
      "name": "ParamChange",
      "type": "event"
    },
    {
      "anonymous": false,
      "inputs": [
        {
          "indexed": true,
          "internalType": "uint8",
          "name": "channelId",
          "type": "uint8"
        },
        {
          "indexed": false,
          "internalType": "bytes",
          "name": "msgBytes",
          "type": "bytes"
        }
      ],
      "name": "UnexpectedPackage",
      "type": "event"
    },
    {
      "anonymous": false,
      "inputs": [
        {
          "indexed": true,
          "internalType": "address",
          "name": "operator",
          "type": "address"
        },
        {
          "indexed": true,
          "internalType": "uint256",
          "name": "id",
          "type": "uint256"
        },
        {
          "indexed": false,
          "internalType": "uint8",
          "name": "opType",
          "type": "uint8"
        }
      ],
      "name": "UpdateFailed",
      "type": "event"
    },
    {
      "anonymous": false,
      "inputs": [
        {
          "indexed": false,
          "internalType": "uint32",
          "name": "status",
          "type": "uint32"
        },
        {
          "indexed": true,
          "internalType": "uint256",
          "name": "tokenId",
          "type": "uint256"
        }
      ],
      "name": "UpdateGroupFailed",
      "type": "event"
    },
    {
      "anonymous": false,
      "inputs": [
        {
          "indexed": true,
          "internalType": "uint256",
          "name": "tokenId",
          "type": "uint256"
        }
      ],
      "name": "UpdateGroupSuccess",
      "type": "event"
    },
    {
      "anonymous": false,
      "inputs": [
        {
          "indexed": false,
          "internalType": "address",
          "name": "owner",
          "type": "address"
        },
        {
          "indexed": false,
          "internalType": "address",
          "name": "operator",
          "type": "address"
        },
        {
          "indexed": false,
          "internalType": "uint256",
          "name": "id",
          "type": "uint256"
        },
        {
          "indexed": false,
          "internalType": "uint8",
          "name": "opType",
          "type": "uint8"
        },
        {
          "indexed": false,
          "internalType": "address[]",
          "name": "members",
          "type": "address[]"
        }
      ],
      "name": "UpdateSubmitted",
      "type": "event"
    },
    {
      "anonymous": false,
      "inputs": [
        {
          "indexed": true,
          "internalType": "address",
          "name": "operator",
          "type": "address"
        },
        {
          "indexed": true,
          "internalType": "uint256",
          "name": "id",
          "type": "uint256"
        },
        {
          "indexed": false,
          "internalType": "uint8",
          "name": "opType",
          "type": "uint8"
        }
      ],
      "name": "UpdateSuccess",
      "type": "event"
    },
    {
      "inputs": [],
      "name": "AUTH_CODE_CREATE",
      "outputs": [
        {
          "internalType": "uint32",
          "name": "",
          "type": "uint32"
        }
      ],
      "stateMutability": "view",
      "type": "function"
    },
    {
      "inputs": [],
      "name": "AUTH_CODE_DELETE",
      "outputs": [
        {
          "internalType": "uint32",
          "name": "",
          "type": "uint32"
        }
      ],
      "stateMutability": "view",
      "type": "function"
    },
    {
      "inputs": [],
      "name": "AUTH_CODE_UPDATE",
      "outputs": [
        {
          "internalType": "uint32",
          "name": "",
          "type": "uint32"
        }
      ],
      "stateMutability": "view",
      "type": "function"
    },
    {
      "inputs": [],
      "name": "BUCKET_CHANNEL_ID",
      "outputs": [
        {
          "internalType": "uint8",
          "name": "",
          "type": "uint8"
        }
      ],
      "stateMutability": "view",
      "type": "function"
    },
    {
      "inputs": [],
      "name": "BUCKET_HUB",
      "outputs": [
        {
          "internalType": "address",
          "name": "",
          "type": "address"
        }
      ],
      "stateMutability": "view",
      "type": "function"
    },
    {
      "inputs": [],
      "name": "CROSS_CHAIN",
      "outputs": [
        {
          "internalType": "address",
          "name": "",
          "type": "address"
        }
      ],
      "stateMutability": "view",
      "type": "function"
    },
    {
      "inputs": [],
      "name": "EMERGENCY_OPERATOR",
      "outputs": [
        {
          "internalType": "address",
          "name": "",
          "type": "address"
        }
      ],
      "stateMutability": "view",
      "type": "function"
    },
    {
      "inputs": [],
      "name": "EMERGENCY_UPGRADE_OPERATOR",
      "outputs": [
        {
          "internalType": "address",
          "name": "",
          "type": "address"
        }
      ],
      "stateMutability": "view",
      "type": "function"
    },
    {
      "inputs": [],
      "name": "ERC1155Token",
      "outputs": [
        {
          "internalType": "address",
          "name": "",
          "type": "address"
        }
      ],
      "stateMutability": "view",
      "type": "function"
    },
    {
      "inputs": [],
      "name": "ERC721Token",
      "outputs": [
        {
          "internalType": "address",
          "name": "",
          "type": "address"
        }
      ],
      "stateMutability": "view",
      "type": "function"
    },
    {
      "inputs": [],
      "name": "ERROR_INSUFFICIENT_VALUE",
      "outputs": [
        {
          "internalType": "string",
          "name": "",
          "type": "string"
        }
      ],
      "stateMutability": "view",
      "type": "function"
    },
    {
      "inputs": [],
      "name": "ERROR_INVALID_CALLER",
      "outputs": [
        {
          "internalType": "string",
          "name": "",
          "type": "string"
        }
      ],
      "stateMutability": "view",
      "type": "function"
    },
    {
      "inputs": [],
      "name": "ERROR_INVALID_OPERATION",
      "outputs": [
        {
          "internalType": "string",
          "name": "",
          "type": "string"
        }
      ],
      "stateMutability": "view",
      "type": "function"
    },
    {
      "inputs": [],
      "name": "ERROR_INVALID_RESOURCE",
      "outputs": [
        {
          "internalType": "string",
          "name": "",
          "type": "string"
        }
      ],
      "stateMutability": "view",
      "type": "function"
    },
    {
      "inputs": [],
      "name": "GOV_CHANNEL_ID",
      "outputs": [
        {
          "internalType": "uint8",
          "name": "",
          "type": "uint8"
        }
      ],
      "stateMutability": "view",
      "type": "function"
    },
    {
      "inputs": [],
      "name": "GOV_HUB",
      "outputs": [
        {
          "internalType": "address",
          "name": "",
          "type": "address"
        }
      ],
      "stateMutability": "view",
      "type": "function"
    },
    {
      "inputs": [],
      "name": "GROUP_CHANNEL_ID",
      "outputs": [
        {
          "internalType": "uint8",
          "name": "",
          "type": "uint8"
        }
      ],
      "stateMutability": "view",
      "type": "function"
    },
    {
      "inputs": [],
      "name": "GROUP_HUB",
      "outputs": [
        {
          "internalType": "address",
          "name": "",
          "type": "address"
        }
      ],
      "stateMutability": "view",
      "type": "function"
    },
    {
      "inputs": [],
      "name": "GROUP_TOKEN",
      "outputs": [
        {
          "internalType": "contract IERC721NonTransferable",
          "name": "",
          "type": "address"
        }
      ],
      "stateMutability": "view",
      "type": "function"
    },
    {
      "inputs": [],
      "name": "INIT_MAX_CALLBACK_DATA_LENGTH",
      "outputs": [
        {
          "internalType": "uint256",
          "name": "",
          "type": "uint256"
        }
      ],
      "stateMutability": "view",
      "type": "function"
    },
    {
      "inputs": [],
      "name": "LIGHT_CLIENT",
      "outputs": [
        {
          "internalType": "address",
          "name": "",
          "type": "address"
        }
      ],
      "stateMutability": "view",
      "type": "function"
    },
    {
      "inputs": [],
      "name": "MAX_CALLBACK_GAS_LIMIT",
      "outputs": [
        {
          "internalType": "uint256",
          "name": "",
          "type": "uint256"
        }
      ],
      "stateMutability": "view",
      "type": "function"
    },
    {
      "inputs": [],
      "name": "OBJECT_CHANNEL_ID",
      "outputs": [
        {
          "internalType": "uint8",
          "name": "",
          "type": "uint8"
        }
      ],
      "stateMutability": "view",
      "type": "function"
    },
    {
      "inputs": [],
      "name": "OBJECT_HUB",
      "outputs": [
        {
          "internalType": "address",
          "name": "",
          "type": "address"
        }
      ],
      "stateMutability": "view",
      "type": "function"
    },
    {
      "inputs": [],
      "name": "PROXY_ADMIN",
      "outputs": [
        {
          "internalType": "address",
          "name": "",
          "type": "address"
        }
      ],
      "stateMutability": "view",
      "type": "function"
    },
    {
      "inputs": [],
      "name": "RELAYER_HUB",
      "outputs": [
        {
          "internalType": "address",
          "name": "",
          "type": "address"
        }
      ],
      "stateMutability": "view",
      "type": "function"
    },
    {
      "inputs": [],
      "name": "RESOURCE_GROUP",
      "outputs": [
        {
          "internalType": "uint8",
          "name": "",
          "type": "uint8"
        }
      ],
      "stateMutability": "view",
      "type": "function"
    },
    {
      "inputs": [],
      "name": "ROLE_CREATE",
      "outputs": [
        {
          "internalType": "bytes32",
          "name": "",
          "type": "bytes32"
        }
      ],
      "stateMutability": "view",
      "type": "function"
    },
    {
      "inputs": [],
      "name": "ROLE_DELETE",
      "outputs": [
        {
          "internalType": "bytes32",
          "name": "",
          "type": "bytes32"
        }
      ],
      "stateMutability": "view",
      "type": "function"
    },
    {
      "inputs": [],
      "name": "ROLE_UPDATE",
      "outputs": [
        {
          "internalType": "bytes32",
          "name": "",
          "type": "bytes32"
        }
      ],
      "stateMutability": "view",
      "type": "function"
    },
    {
      "inputs": [],
      "name": "STATUS_FAILED",
      "outputs": [
        {
          "internalType": "uint32",
          "name": "",
          "type": "uint32"
        }
      ],
      "stateMutability": "view",
      "type": "function"
    },
    {
      "inputs": [],
      "name": "STATUS_SUCCESS",
      "outputs": [
        {
          "internalType": "uint32",
          "name": "",
          "type": "uint32"
        }
      ],
      "stateMutability": "view",
      "type": "function"
    },
    {
      "inputs": [],
      "name": "STATUS_UNEXPECTED",
      "outputs": [
        {
          "internalType": "uint32",
          "name": "",
          "type": "uint32"
        }
      ],
      "stateMutability": "view",
      "type": "function"
    },
    {
      "inputs": [],
      "name": "TOKEN_HUB",
      "outputs": [
        {
          "internalType": "address",
          "name": "",
          "type": "address"
        }
      ],
      "stateMutability": "view",
      "type": "function"
    },
    {
      "inputs": [],
      "name": "TRANSFER_IN_CHANNEL_ID",
      "outputs": [
        {
          "internalType": "uint8",
          "name": "",
          "type": "uint8"
        }
      ],
      "stateMutability": "view",
      "type": "function"
    },
    {
      "inputs": [],
      "name": "TRANSFER_OUT_CHANNEL_ID",
      "outputs": [
        {
          "internalType": "uint8",
          "name": "",
          "type": "uint8"
        }
      ],
      "stateMutability": "view",
      "type": "function"
    },
    {
      "inputs": [],
      "name": "TYPE_CREATE",
      "outputs": [
        {
          "internalType": "uint8",
          "name": "",
          "type": "uint8"
        }
      ],
      "stateMutability": "view",
      "type": "function"
    },
    {
      "inputs": [],
      "name": "TYPE_DELETE",
      "outputs": [
        {
          "internalType": "uint8",
          "name": "",
          "type": "uint8"
        }
      ],
      "stateMutability": "view",
      "type": "function"
    },
    {
      "inputs": [],
      "name": "TYPE_MIRROR",
      "outputs": [
        {
          "internalType": "uint8",
          "name": "",
          "type": "uint8"
        }
      ],
      "stateMutability": "view",
      "type": "function"
    },
    {
      "inputs": [],
      "name": "TYPE_UPDATE",
      "outputs": [
        {
          "internalType": "uint8",
          "name": "",
          "type": "uint8"
        }
      ],
      "stateMutability": "view",
      "type": "function"
    },
    {
      "inputs": [],
      "name": "additional",
      "outputs": [
        {
          "internalType": "address",
          "name": "",
          "type": "address"
        }
      ],
      "stateMutability": "view",
      "type": "function"
    },
    {
      "inputs": [],
      "name": "callbackGasLimit",
      "outputs": [
        {
          "internalType": "uint256",
          "name": "",
          "type": "uint256"
        }
      ],
      "stateMutability": "view",
      "type": "function"
    },
    {
      "inputs": [],
      "name": "channelId",
      "outputs": [
        {
          "internalType": "uint8",
          "name": "",
          "type": "uint8"
        }
      ],
      "stateMutability": "view",
      "type": "function"
    },
    {
      "inputs": [],
      "name": "creationFee",
      "outputs": [
        {
          "internalType": "uint256",
          "name": "",
          "type": "uint256"
        }
      ],
      "stateMutability": "view",
      "type": "function"
    },
    {
      "inputs": [],
      "name": "crossChain",
      "outputs": [
        {
          "internalType": "address",
          "name": "",
          "type": "address"
        }
      ],
      "stateMutability": "view",
      "type": "function"
    },
    {
      "inputs": [
        {
          "internalType": "address",
          "name": "",
          "type": "address"
        },
        {
          "internalType": "uint256",
          "name": "",
          "type": "uint256"
        }
      ],
      "name": "expirationOfUserSubscription",
      "outputs": [
        {
          "internalType": "uint64",
          "name": "",
          "type": "uint64"
        }
      ],
      "stateMutability": "view",
      "type": "function"
    },
    {
      "inputs": [],
      "name": "failureHandleStrategy",
      "outputs": [
        {
          "internalType": "enum PackageQueue.FailureHandleStrategy",
          "name": "",
          "type": "uint8"
        }
      ],
      "stateMutability": "view",
      "type": "function"
    },
    {
      "inputs": [
        {
          "internalType": "address",
          "name": "",
          "type": "address"
        }
      ],
      "name": "fieldIdOfUser",
      "outputs": [
        {
          "internalType": "uint256",
          "name": "",
          "type": "uint256"
        }
      ],
      "stateMutability": "view",
      "type": "function"
    },
    {
      "inputs": [
        {
          "internalType": "uint256",
          "name": "",
          "type": "uint256"
        }
      ],
      "name": "fieldIdToName",
      "outputs": [
        {
          "internalType": "string",
          "name": "",
          "type": "string"
        }
      ],
      "stateMutability": "view",
      "type": "function"
    },
    {
      "inputs": [
        {
          "internalType": "string",
          "name": "",
          "type": "string"
        }
      ],
      "name": "fieldNameToId",
      "outputs": [
        {
          "internalType": "uint256",
          "name": "",
          "type": "uint256"
        }
      ],
      "stateMutability": "view",
      "type": "function"
    },
    {
      "inputs": [
        {
          "internalType": "uint32",
          "name": "status",
          "type": "uint32"
        },
        {
          "internalType": "uint8",
          "name": "resourceType",
          "type": "uint8"
        },
        {
          "internalType": "uint8",
          "name": "operationType",
          "type": "uint8"
        },
        {
          "internalType": "uint256",
          "name": "resourceId",
          "type": "uint256"
        },
        {
          "internalType": "bytes",
          "name": "callbackData",
          "type": "bytes"
        }
      ],
      "name": "greenfieldCall",
      "outputs": [],
      "stateMutability": "nonpayable",
      "type": "function"
    },
    {
      "inputs": [],
      "name": "groupHub",
      "outputs": [
        {
          "internalType": "address",
          "name": "",
          "type": "address"
        }
      ],
      "stateMutability": "view",
      "type": "function"
    },
    {
      "inputs": [
        {
          "internalType": "address",
          "name": "_groupHub",
          "type": "address"
        },
        {
          "internalType": "address",
          "name": "_crossChain",
          "type": "address"
        },
        {
          "internalType": "uint256",
          "name": "_callbackGasLimit",
          "type": "uint256"
        },
        {
          "internalType": "uint8",
          "name": "_failureHandleStrategy",
          "type": "uint8"
        }
      ],
      "name": "initialize",
      "outputs": [],
      "stateMutability": "nonpayable",
      "type": "function"
    },
    {
      "inputs": [],
      "name": "maxCallbackDataLength",
      "outputs": [
        {
          "internalType": "uint256",
          "name": "",
          "type": "uint256"
        }
      ],
      "stateMutability": "view",
      "type": "function"
    },
    {
      "inputs": [
        {
          "internalType": "bytes32",
          "name": "",
          "type": "bytes32"
        }
      ],
      "name": "packageMap",
      "outputs": [
        {
          "internalType": "address",
          "name": "appAddress",
          "type": "address"
        },
        {
          "internalType": "uint32",
          "name": "status",
          "type": "uint32"
        },
        {
          "internalType": "uint8",
          "name": "operationType",
          "type": "uint8"
        },
        {
          "internalType": "uint256",
          "name": "resourceId",
          "type": "uint256"
        },
        {
          "internalType": "bytes",
          "name": "callbackData",
          "type": "bytes"
        },
        {
          "internalType": "bytes",
          "name": "failReason",
          "type": "bytes"
        }
      ],
      "stateMutability": "view",
      "type": "function"
    },
    {
      "inputs": [
        {
          "internalType": "address",
          "name": "",
          "type": "address"
        }
      ],
      "name": "pendingWithdrawals",
      "outputs": [
        {
          "internalType": "uint256",
          "name": "",
          "type": "uint256"
        }
      ],
      "stateMutability": "view",
      "type": "function"
    },
    {
      "inputs": [
        {
          "internalType": "string",
          "name": "name",
          "type": "string"
        },
        {
          "internalType": "uint256",
          "name": "groupId",
          "type": "uint256"
        },
        {
          "internalType": "uint256",
          "name": "price",
          "type": "uint256"
        }
      ],
      "name": "registerField",
      "outputs": [],
      "stateMutability": "nonpayable",
      "type": "function"
    },
    {
      "inputs": [
        {
          "internalType": "uint8",
          "name": "resourceType",
          "type": "uint8"
        }
      ],
      "name": "retryPackage",
      "outputs": [],
      "stateMutability": "nonpayable",
      "type": "function"
    },
    {
      "inputs": [
        {
          "internalType": "address",
          "name": "",
          "type": "address"
        }
      ],
      "name": "retryQueue",
      "outputs": [
        {
          "internalType": "int128",
          "name": "_begin",
          "type": "int128"
        },
        {
          "internalType": "int128",
          "name": "_end",
          "type": "int128"
        }
      ],
      "stateMutability": "view",
      "type": "function"
    },
    {
      "inputs": [
        {
          "internalType": "uint8",
          "name": "resourceType",
          "type": "uint8"
        }
      ],
      "name": "skipPackage",
      "outputs": [],
      "stateMutability": "nonpayable",
      "type": "function"
    },
    {
      "inputs": [
        {
          "internalType": "uint256",
          "name": "groupId",
          "type": "uint256"
        }
      ],
      "name": "subscribeField",
      "outputs": [],
      "stateMutability": "payable",
      "type": "function"
    },
    {
      "inputs": [
        {
          "internalType": "uint256",
          "name": "",
          "type": "uint256"
        }
      ],
      "name": "subscriptionFee",
      "outputs": [
        {
          "internalType": "uint256",
          "name": "",
          "type": "uint256"
        }
      ],
      "stateMutability": "view",
      "type": "function"
    },
    {
      "inputs": [],
      "name": "versionInfo",
      "outputs": [
        {
          "internalType": "uint256",
          "name": "version",
          "type": "uint256"
        },
        {
          "internalType": "string",
          "name": "name",
          "type": "string"
        },
        {
          "internalType": "string",
          "name": "description",
          "type": "string"
        }
      ],
      "stateMutability": "pure",
      "type": "function"
    },
    {
      "inputs": [],
      "name": "withdraw",
      "outputs": [],
      "stateMutability": "nonpayable",
      "type": "function"
    }
  ],
  "bytecode": "0x608060405234801561001057600080fd5b506122b4806100206000396000f3fe6080604052600436106103c35760003560e01c80638855e092116101f2578063ce1ddb6c1161010d578063e8ea79c0116100a0578063f2223c021161006f578063f2223c02146106ad578063f3f4370314610a2f578063fdd562b814610999578063feb3a68a14610a5d57600080fd5b8063e8ea79c0146109fa578063eac78b3314610a1a578063ed9bc82a146105d5578063edabb0a3146106c257600080fd5b8063e2cee544116100dc578063e2cee544146109ae578063e52a6718146109cd578063e613ae00146105d5578063e84491161461079457600080fd5b8063ce1ddb6c14610927578063d271250e14610954578063dce0b4e414610982578063e02e86b01461099957600080fd5b8063b4627d3511610185578063c71f64e411610154578063c71f64e4146108f3578063c8b01e6f14610574578063cc12eabc146103c8578063cc65cc4a146108b557600080fd5b8063b4627d35146108b5578063b8e43b33146105d5578063b9d86913146105d5578063c64ca020146108d357600080fd5b8063a21d1354116101c1578063a21d13541461084e578063a29be1fa14610895578063a9dae71c146105d5578063b32f787b1461072057600080fd5b80638855e092146107a95780638c3cb902146107be5780638f8ea384146107d35780639142d7fb1461082d57600080fd5b80634eee7767116102e2578063721c3dd01161027557806377a714ae1161024457806377a714ae1461076e5780637afffdd2146105d55780637d2e3084146105d557806381d914801461079457600080fd5b8063721c3dd0146106ed57806373ee45081461070057806373f1e3c314610720578063778afbb71461073557600080fd5b80635d83a5aa116102b15780635d83a5aa146106ad578063618d569c146106c257806361bbd6dd146106d75780636d3358a1146105d557600080fd5b80634eee77671461060a57806350704a5014610660578063557cf477146105d55780635bb58b171461068d57600080fd5b806339a252901161035a578063459af3aa11610329578063459af3aa146105b557806346934fc8146105d557806346ab84e5146105d55780634917db66146105ea57600080fd5b806339a252901461053557806339c332151461055c5780633a0f4bf8146105745780633ccfd60b1461059e57600080fd5b80631a12138f116103965780631a12138f146104865780631c60450d146104bf57806324f74697146104f157806333a89c401461050757600080fd5b806309d1be19146103c857806312629faf146103f4578063142c2f4414610436578063189e81021461044c575b600080fd5b3480156103d457600080fd5b506103dd600181565b60405160ff90911681526020015b60405180910390f35b34801561040057600080fd5b506104287fa7a925e56b0f4627a3e4910a6e10d23a82143f84f9d73d587c9ef425941ace8e81565b6040519081526020016103eb565b34801561044257600080fd5b5061042860695481565b34801561045857600080fd5b50610479604051806040016040528060018152602001601960f91b81525081565b6040516103eb9190611ae6565b34801561049257600080fd5b50610168546104a7906001600160a01b031681565b6040516001600160a01b0390911681526020016103eb565b3480156104cb57600080fd5b506104df6104da366004611b00565b610a91565b6040516103eb96959493929190611b19565b3480156104fd57600080fd5b50610428609c5481565b34801561051357600080fd5b50610428610522366004611b00565b61016d6020526000908152604090205481565b34801561054157600080fd5b50609d5461054f9060ff1681565b6040516103eb9190611ba8565b34801561056857600080fd5b506104286301312d0081565b34801561058057600080fd5b50610589600181565b60405163ffffffff90911681526020016103eb565b3480156105aa57600080fd5b506105b3610bed565b005b3480156105c157600080fd5b506105b36105d0366004611c19565b610ca3565b3480156105e157600080fd5b506104a7600081565b3480156105f657600080fd5b50609b546104a7906001600160a01b031681565b34801561061657600080fd5b50610646610625366004611cb7565b603360205260009081526040902054600f81810b91600160801b9004900b82565b60408051600f93840b81529190920b6020820152016103eb565b34801561066c57600080fd5b50610479604051806040016040528060018152602001603160f81b81525081565b34801561069957600080fd5b506104796106a8366004611b00565b610d81565b3480156106b957600080fd5b50610589600281565b3480156106ce57600080fd5b506103dd600281565b3480156106e357600080fd5b5061042861040081565b6105b36106fb366004611b00565b610e1c565b34801561070c57600080fd5b5060d0546104a7906001600160a01b031681565b34801561072c57600080fd5b506103dd600481565b34801561074157600080fd5b50610428610750366004611cea565b805160208183018101805161016c8252928201919093012091525481565b34801561077a57600080fd5b506067546104a7906201000090046001600160a01b031681565b3480156107a057600080fd5b506103dd600381565b3480156107b557600080fd5b50610589600081565b3480156107ca57600080fd5b50610589600481565b3480156107df57600080fd5b506108156107ee366004611d9a565b61016e6020908152600092835260408084209091529082529020546001600160401b031681565b6040516001600160401b0390911681526020016103eb565b34801561083957600080fd5b50610103546104a7906001600160a01b031681565b34801561085a57600080fd5b506040805180820182526006815265436f6e66696760d01b60208083019190915282519081018352600080825292516103eb93929190611dc6565b3480156108a157600080fd5b506105b36108b0366004611dfb565b611184565b3480156108c157600080fd5b506105b36108d0366004611e4b565b50565b3480156108df57600080fd5b506105b36108ee366004611e66565b611420565b3480156108ff57600080fd5b506104287fe52b0c82d70862ecc57dd0fa972f308948292049a31fa59a5b152ce07497fded81565b34801561093357600080fd5b50610479604051806040016040528060018152602001603360f81b81525081565b34801561096057600080fd5b5061042861096f366004611cb7565b61016a6020526000908152604090205481565b34801561098e57600080fd5b506104286101695481565b3480156109a557600080fd5b506103dd600681565b3480156109ba57600080fd5b506067546103dd90610100900460ff1681565b3480156109d957600080fd5b50610479604051806040016040528060018152602001600360fc1b81525081565b348015610a0657600080fd5b506068546104a7906001600160a01b031681565b348015610a2657600080fd5b506103dd600581565b348015610a3b57600080fd5b50610428610a4a366004611cb7565b61016f6020526000908152604090205481565b348015610a6957600080fd5b506104287f757d0265d5de9ff03394896c4c44c92950e6e9565f35923c097aed8e1128e4cb81565b6034602052600090815260409020805460018201546002830180546001600160a01b03841694600160a01b850463ffffffff1694600160c01b900460ff1693929091610adc90611eb7565b80601f0160208091040260200160405190810160405280929190818152602001828054610b0890611eb7565b8015610b555780601f10610b2a57610100808354040283529160200191610b55565b820191906000526020600020905b815481529060010190602001808311610b3857829003601f168201915b505050505090806003018054610b6a90611eb7565b80601f0160208091040260200160405190810160405280929190818152602001828054610b9690611eb7565b8015610be35780601f10610bb857610100808354040283529160200191610be3565b820191906000526020600020905b815481529060010190602001808311610bc657829003601f168201915b5050505050905086565b610bf56115c4565b33600090815261016f602052604090205480610c585760405162461bcd60e51b815260206004820181905260248201527f426c756669656c643a206e6f2070656e64696e67207769746864726177616c7360448201526064015b60405180910390fd5b33600081815261016f60205260408082208290555183156108fc0291849190818181858888f19350505050158015610c94573d6000803e3d6000fd5b5050610ca1600161013655565b565b6101035460408051808201825260018152600360fc1b60208083019190915291516001600160a01b03909316331492610cdc9201611ef1565b60405160208183030381529060405290610d095760405162461bcd60e51b8152600401610c4f9190611ae6565b50600660ff168560ff1614604051806040016040528060018152602001603160f81b815250604051602001610d3e9190611ef1565b60405160208183030381529060405290610d6b5760405162461bcd60e51b8152600401610c4f9190611ae6565b50610d79868585858561161f565b505050505050565b61016b6020526000908152604090208054610d9b90611eb7565b80601f0160208091040260200160405190810160405280929190818152602001828054610dc790611eb7565b8015610e145780601f10610de957610100808354040283529160200191610e14565b820191906000526020600020905b815481529060010190602001808311610df757829003601f168201915b505050505081565b610e246115c4565b600081815261016b602052604081208054610e3e90611eb7565b905011610e8d5760405162461bcd60e51b815260206004820152601e60248201527f426c756669656c643a206669656c64206e6f74207265676973746572656400006044820152606401610c4f565b610168546040516331a9108f60e11b8152600481018390526000916001600160a01b031690636352211e90602401602060405180830381865afa158015610ed8573d6000803e3d6000fd5b505050506040513d601f19601f82011682018060405250810190610efc9190611f23565b90506001600160a01b038116610f645760405162461bcd60e51b815260206004820152602760248201527f426c756669656c643a2063616e6e6f742073756273637269626520746f206f776044820152661b88199a595b1960ca1b6064820152608401610c4f565b600082815261016d602052604090205434811115610fc45760405162461bcd60e51b815260206004820152601e60248201527f426c756669656c643a20696e73756666696369656e74207061796d656e7400006044820152606401610c4f565b6001600160a01b038216600090815261016f602052604081208054839290610fed908490611f56565b909155505033600090815261016e602090815260408083208684529091528120546001600160401b03169081810361106e5761102c4262278d00611f56565b33600090815261016e602090815260408083208984529091528120805467ffffffffffffffff19166001600160401b03939093169290921790915590506110b9565b61107b8262278d00611f6f565b33600090815261016e602090815260408083208984529091529020805467ffffffffffffffff19166001600160401b03929092169190911790555060025b604080516001808252818301909252600091602080830190803683375050604080516001808252818301909252929350600092915060208083019080368337019050509050338260008151811061111257611112611f96565b60200260200101906001600160a01b031690816001600160a01b031681525050838160008151811061114657611146611f96565b60200260200101906001600160401b031690816001600160401b031681525050611173868885858561175b565b5050505050506108d0600161013655565b61118c6115c4565b610168546040516331a9108f60e11b81526004810184905233916001600160a01b031690636352211e90602401602060405180830381865afa1580156111d6573d6000803e3d6000fd5b505050506040513d601f19601f820116820180604052508101906111fa9190611f23565b6001600160a01b0316146112465760405162461bcd60e51b815260206004820152601360248201527221363ab334b2b6321d103737ba1037bbb732b960691b6044820152606401610c4f565b826112935760405162461bcd60e51b815260206004820152601760248201527f426c756669656c643a206e616d6520697320656d7074790000000000000000006044820152606401610c4f565b33600090815261016a6020526040902054156112f15760405162461bcd60e51b815260206004820152601c60248201527f426c756669656c643a20616c72656164792072656769737465726564000000006044820152606401610c4f565b61016c8484604051611304929190611fac565b9081526020016040518091039020546000146113625760405162461bcd60e51b815260206004820152601c60248201527f426c756669656c643a206e616d6520616c72656164792074616b656e000000006044820152606401610c4f565b600081116113b25760405162461bcd60e51b815260206004820152601760248201527f426c756669656c643a207072696365206973207a65726f0000000000000000006044820152606401610c4f565b33600090815261016a6020908152604080832085905584835261016b90915290206113de848683612002565b508161016c85856040516113f3929190611fac565b908152604080516020928190038301902092909255600093845261016d9052909120555050600161013655565b600054610100900460ff16158080156114405750600054600160ff909116105b8061145a5750303b15801561145a575060005460ff166001145b6114bd5760405162461bcd60e51b815260206004820152602e60248201527f496e697469616c697a61626c653a20636f6e747261637420697320616c72656160448201526d191e481a5b9a5d1a585b1a5e995960921b6064820152608401610c4f565b6000805460ff1916600117905580156114e0576000805461ff0019166101001790555b846001600160a01b03166377a714ae6040518163ffffffff1660e01b8152600401602060405180830381865afa15801561151e573d6000803e3d6000fd5b505050506040513d601f19601f820116820180604052508101906115429190611f23565b61016880546001600160a01b0319166001600160a01b039290921691909117905561156e84848461189d565b6115778561191f565b80156115bd576000805461ff0019169055604051600181527f7f26b83ff96e1f2b6a682f133852f6798a09c465da95921460cefb38474024989060200160405180910390a15b5050505050565b600261013654036116175760405162461bcd60e51b815260206004820152601f60248201527f5265656e7472616e637947756172643a207265656e7472616e742063616c6c006044820152606401610c4f565b600261013655565b60011960ff8516016116715761166c858484848080601f01602080910402602001604051908101604052809392919081815260200183838082843760009201919091525061196992505050565b6115bd565b60021960ff8516016116be5761166c858484848080601f01602080910402602001604051908101604052809392919081815260200183838082843760009201919091525061196992505050565b60031960ff85160161170b5761166c858484848080601f01602080910402602001604051908101604052809392919081815260200183838082843760009201919091525061196992505050565b604051806040016040528060018152602001601960f91b8152506040516020016117359190611ef1565b60408051601f198184030181529082905262461bcd60e51b8252610c4f91600401611ae6565b60006040518060c00160405280876001600160a01b0316815260200186815260200185600281111561178f5761178f611b74565b815260200184815260200160405180602001604052806000815250815260200183815250905060006117bf61196e565b905080341015604051806040016040528060018152602001603360f81b8152506040516020016117ef9190611ef1565b6040516020818303038152906040529061181c5760405162461bcd60e51b8152600401610c4f9190611ae6565b50610103546040516302041bbf60e51b81526001600160a01b039091169063408377e0903490611850908690600401612105565b60206040518083038185885af115801561186e573d6000803e3d6000fd5b50505050506040513d601f19601f8201168201806040525081019061189391906121bd565b5050505050505050565b600054610100900460ff166118c45760405162461bcd60e51b8152600401610c4f906121df565b609b80546001600160a01b0319166001600160a01b038516179055609c82905560ff811660028111156118f9576118f9611b74565b609d805460ff1916600183600281111561191557611915611b74565b0217905550505050565b600054610100900460ff166119465760405162461bcd60e51b8152600401610c4f906121df565b61010380546001600160a01b0319166001600160a01b0392909216919091179055565b505050565b6000806000609b60009054906101000a90046001600160a01b03166001600160a01b03166354912a976040518163ffffffff1660e01b815260040160408051808303816000875af11580156119c7573d6000803e3d6000fd5b505050506040513d601f19601f820116820180604052508101906119eb919061222a565b915091506000609b60009054906101000a90046001600160a01b03166001600160a01b031663bf9032476040518163ffffffff1660e01b81526004016020604051808303816000875af1158015611a46573d6000803e3d6000fd5b505050506040513d601f19601f82011682018060405250810190611a6a919061224e565b905080609c54611a7a9190612267565b611a848385611f56565b611a8e9190611f56565b935050505090565b60005b83811015611ab1578181015183820152602001611a99565b50506000910152565b60008151808452611ad2816020860160208601611a96565b601f01601f19169290920160200192915050565b602081526000611af96020830184611aba565b9392505050565b600060208284031215611b1257600080fd5b5035919050565b60018060a01b038716815263ffffffff8616602082015260ff8516604082015283606082015260c060808201526000611b5560c0830185611aba565b82810360a0840152611b678185611aba565b9998505050505050505050565b634e487b7160e01b600052602160045260246000fd5b600381106108d057634e487b7160e01b600052602160045260246000fd5b60208101611bb583611b8a565b91905290565b803560ff81168114611bcc57600080fd5b919050565b60008083601f840112611be357600080fd5b5081356001600160401b03811115611bfa57600080fd5b602083019150836020828501011115611c1257600080fd5b9250929050565b60008060008060008060a08789031215611c3257600080fd5b863563ffffffff81168114611c4657600080fd5b9550611c5460208801611bbb565b9450611c6260408801611bbb565b93506060870135925060808701356001600160401b03811115611c8457600080fd5b611c9089828a01611bd1565b979a9699509497509295939492505050565b6001600160a01b03811681146108d057600080fd5b600060208284031215611cc957600080fd5b8135611af981611ca2565b634e487b7160e01b600052604160045260246000fd5b600060208284031215611cfc57600080fd5b81356001600160401b0380821115611d1357600080fd5b818401915084601f830112611d2757600080fd5b813581811115611d3957611d39611cd4565b604051601f8201601f19908116603f01168101908382118183101715611d6157611d61611cd4565b81604052828152876020848701011115611d7a57600080fd5b826020860160208301376000928101602001929092525095945050505050565b60008060408385031215611dad57600080fd5b8235611db881611ca2565b946020939093013593505050565b838152606060208201526000611ddf6060830185611aba565b8281036040840152611df18185611aba565b9695505050505050565b60008060008060608587031215611e1157600080fd5b84356001600160401b03811115611e2757600080fd5b611e3387828801611bd1565b90989097506020870135966040013595509350505050565b600060208284031215611e5d57600080fd5b611af982611bbb565b60008060008060808587031215611e7c57600080fd5b8435611e8781611ca2565b93506020850135611e9781611ca2565b925060408501359150611eac60608601611bbb565b905092959194509250565b600181811c90821680611ecb57607f821691505b602082108103611eeb57634e487b7160e01b600052602260045260246000fd5b50919050565b69023b937bab820b8381d160b51b815260008251611f1681600a850160208701611a96565b91909101600a0192915050565b600060208284031215611f3557600080fd5b8151611af981611ca2565b634e487b7160e01b600052601160045260246000fd5b80820180821115611f6957611f69611f40565b92915050565b6001600160401b03818116838216019080821115611f8f57611f8f611f40565b5092915050565b634e487b7160e01b600052603260045260246000fd5b8183823760009101908152919050565b601f82111561196957600081815260208120601f850160051c81016020861015611fe35750805b601f850160051c820191505b81811015610d7957828155600101611fef565b6001600160401b0383111561201957612019611cd4565b61202d836120278354611eb7565b83611fbc565b6000601f84116001811461206157600085156120495750838201355b600019600387901b1c1916600186901b1783556115bd565b600083815260209020601f19861690835b828110156120925786850135825560209485019460019092019101612072565b50868210156120af5760001960f88860031b161c19848701351681555b505060018560011b0183555050505050565b600081518084526020808501945080840160005b838110156120fa5781516001600160401b0316875295820195908201906001016120d5565b509495945050505050565b6000602080835260e0830160018060a01b038086511683860152828601516040860152604086015161213681611b8a565b60608681019190915286015160c060808701528051928390528301916000906101008701905b8083101561217e5784518416825293850193600192909201919085019061215c565b5060808801519450601f199350838782030160a088015261219f8186611aba565b945050505060a0850151818584030160c0860152611df183826120c1565b6000602082840312156121cf57600080fd5b81518015158114611af957600080fd5b6020808252602b908201527f496e697469616c697a61626c653a20636f6e7472616374206973206e6f74206960408201526a6e697469616c697a696e6760a81b606082015260800190565b6000806040838503121561223d57600080fd5b505080516020909101519092909150565b60006020828403121561226057600080fd5b5051919050565b8082028115828204841417611f6957611f69611f4056fea26469706673582212206d8887c7f2a1c1c7c993da418b0469ebbbc0da4253d68739718362573cb9e5de64736f6c63430008140033",
  "linkReferences": {},
  "deployedLinkReferences": {}
}