{
  "_format": "hh-sol-artifact-1",
  "contractName": "Blufield",
  "sourceName": "contracts/Blufield.sol",
  "abi": [
    {
      "anonymous": false,
      "inputs": [
        {
          "indexed": true,
          "internalType": "address",
          "name": "appAddress",
          "type": "address"
        },
        {
          "indexed": false,
          "internalType": "bytes32",
          "name": "pkgHash",
          "type": "bytes32"
        },
        {
          "indexed": false,
          "internalType": "bytes",
          "name": "failReason",
          "type": "bytes"
        }
      ],
      "name": "AppHandleAckPkgFailed",
      "type": "event"
    },
    {
      "anonymous": false,
      "inputs": [
        {
          "indexed": true,
          "internalType": "address",
          "name": "appAddress",
          "type": "address"
        },
        {
          "indexed": false,
          "internalType": "bytes32",
          "name": "pkgHash",
          "type": "bytes32"
        },
        {
          "indexed": false,
          "internalType": "bytes",
          "name": "failReason",
          "type": "bytes"
        }
      ],
      "name": "AppHandleFailAckPkgFailed",
      "type": "event"
    },
    {
      "anonymous": false,
      "inputs": [
        {
          "indexed": true,
          "internalType": "address",
          "name": "creator",
          "type": "address"
        },
        {
          "indexed": true,
          "internalType": "uint256",
          "name": "id",
          "type": "uint256"
        }
      ],
      "name": "CreateFailed",
      "type": "event"
    },
    {
      "anonymous": false,
      "inputs": [
        {
          "indexed": false,
          "internalType": "uint32",
          "name": "status",
          "type": "uint32"
        },
        {
          "indexed": false,
          "internalType": "bytes",
          "name": "groupName",
          "type": "bytes"
        }
      ],
      "name": "CreateGroupFailed",
      "type": "event"
    },
    {
      "anonymous": false,
      "inputs": [
        {
          "indexed": false,
          "internalType": "bytes",
          "name": "groupName",
          "type": "bytes"
        },
        {
          "indexed": true,
          "internalType": "uint256",
          "name": "tokenId",
          "type": "uint256"
        }
      ],
      "name": "CreateGroupSuccess",
      "type": "event"
    },
    {
      "anonymous": false,
      "inputs": [
        {
          "indexed": true,
          "internalType": "address",
          "name": "owner",
          "type": "address"
        },
        {
          "indexed": true,
          "internalType": "address",
          "name": "operator",
          "type": "address"
        },
        {
          "indexed": false,
          "internalType": "string",
          "name": "name",
          "type": "string"
        }
      ],
      "name": "CreateSubmitted",
      "type": "event"
    },
    {
      "anonymous": false,
      "inputs": [
        {
          "indexed": true,
          "internalType": "address",
          "name": "creator",
          "type": "address"
        },
        {
          "indexed": true,
          "internalType": "uint256",
          "name": "id",
          "type": "uint256"
        }
      ],
      "name": "CreateSuccess",
      "type": "event"
    },
    {
      "anonymous": false,
      "inputs": [
        {
          "indexed": true,
          "internalType": "uint256",
          "name": "id",
          "type": "uint256"
        }
      ],
      "name": "DeleteFailed",
      "type": "event"
    },
    {
      "anonymous": false,
      "inputs": [
        {
          "indexed": false,
          "internalType": "uint32",
          "name": "status",
          "type": "uint32"
        },
        {
          "indexed": true,
          "internalType": "uint256",
          "name": "tokenId",
          "type": "uint256"
        }
      ],
      "name": "DeleteGroupFailed",
      "type": "event"
    },
    {
      "anonymous": false,
      "inputs": [
        {
          "indexed": true,
          "internalType": "uint256",
          "name": "tokenId",
          "type": "uint256"
        }
      ],
      "name": "DeleteGroupSuccess",
      "type": "event"
    },
    {
      "anonymous": false,
      "inputs": [
        {
          "indexed": true,
          "internalType": "address",
          "name": "owner",
          "type": "address"
        },
        {
          "indexed": true,
          "internalType": "address",
          "name": "operator",
          "type": "address"
        },
        {
          "indexed": true,
          "internalType": "uint256",
          "name": "id",
          "type": "uint256"
        }
      ],
      "name": "DeleteSubmitted",
      "type": "event"
    },
    {
      "anonymous": false,
      "inputs": [
        {
          "indexed": true,
          "internalType": "uint256",
          "name": "id",
          "type": "uint256"
        }
      ],
      "name": "DeleteSuccess",
      "type": "event"
    },
    {
      "anonymous": false,
      "inputs": [
        {
          "indexed": true,
          "internalType": "uint8",
          "name": "channelId",
          "type": "uint8"
        },
        {
          "indexed": false,
          "internalType": "bytes",
          "name": "msgBytes",
          "type": "bytes"
        }
      ],
      "name": "FailAckPkgReceived",
      "type": "event"
    },
    {
      "anonymous": false,
      "inputs": [
        {
          "indexed": false,
          "internalType": "uint8",
          "name": "version",
          "type": "uint8"
        }
      ],
      "name": "Initialized",
      "type": "event"
    },
    {
      "anonymous": false,
      "inputs": [
        {
          "indexed": true,
          "internalType": "uint256",
          "name": "id",
          "type": "uint256"
        },
        {
          "indexed": true,
          "internalType": "address",
          "name": "owner",
          "type": "address"
        },
        {
          "indexed": false,
          "internalType": "bytes",
          "name": "failReason",
          "type": "bytes"
        }
      ],
      "name": "MirrorFailed",
      "type": "event"
    },
    {
      "anonymous": false,
      "inputs": [
        {
          "indexed": true,
          "internalType": "uint256",
          "name": "id",
          "type": "uint256"
        },
        {
          "indexed": true,
          "internalType": "address",
          "name": "owner",
          "type": "address"
        }
      ],
      "name": "MirrorSuccess",
      "type": "event"
    },
    {
      "anonymous": false,
      "inputs": [
        {
          "indexed": false,
          "internalType": "string",
          "name": "key",
          "type": "string"
        },
        {
          "indexed": false,
          "internalType": "bytes",
          "name": "value",
          "type": "bytes"
        }
      ],
      "name": "ParamChange",
      "type": "event"
    },
    {
      "anonymous": false,
      "inputs": [
        {
          "indexed": true,
          "internalType": "uint8",
          "name": "channelId",
          "type": "uint8"
        },
        {
          "indexed": false,
          "internalType": "bytes",
          "name": "msgBytes",
          "type": "bytes"
        }
      ],
      "name": "UnexpectedPackage",
      "type": "event"
    },
    {
      "anonymous": false,
      "inputs": [
        {
          "indexed": true,
          "internalType": "address",
          "name": "operator",
          "type": "address"
        },
        {
          "indexed": true,
          "internalType": "uint256",
          "name": "id",
          "type": "uint256"
        },
        {
          "indexed": false,
          "internalType": "uint8",
          "name": "opType",
          "type": "uint8"
        }
      ],
      "name": "UpdateFailed",
      "type": "event"
    },
    {
      "anonymous": false,
      "inputs": [
        {
          "indexed": false,
          "internalType": "uint32",
          "name": "status",
          "type": "uint32"
        },
        {
          "indexed": true,
          "internalType": "uint256",
          "name": "tokenId",
          "type": "uint256"
        }
      ],
      "name": "UpdateGroupFailed",
      "type": "event"
    },
    {
      "anonymous": false,
      "inputs": [
        {
          "indexed": true,
          "internalType": "uint256",
          "name": "tokenId",
          "type": "uint256"
        }
      ],
      "name": "UpdateGroupSuccess",
      "type": "event"
    },
    {
      "anonymous": false,
      "inputs": [
        {
          "indexed": false,
          "internalType": "address",
          "name": "owner",
          "type": "address"
        },
        {
          "indexed": false,
          "internalType": "address",
          "name": "operator",
          "type": "address"
        },
        {
          "indexed": false,
          "internalType": "uint256",
          "name": "id",
          "type": "uint256"
        },
        {
          "indexed": false,
          "internalType": "uint8",
          "name": "opType",
          "type": "uint8"
        },
        {
          "indexed": false,
          "internalType": "address[]",
          "name": "members",
          "type": "address[]"
        }
      ],
      "name": "UpdateSubmitted",
      "type": "event"
    },
    {
      "anonymous": false,
      "inputs": [
        {
          "indexed": true,
          "internalType": "address",
          "name": "operator",
          "type": "address"
        },
        {
          "indexed": true,
          "internalType": "uint256",
          "name": "id",
          "type": "uint256"
        },
        {
          "indexed": false,
          "internalType": "uint8",
          "name": "opType",
          "type": "uint8"
        }
      ],
      "name": "UpdateSuccess",
      "type": "event"
    },
    {
      "inputs": [],
      "name": "AUTH_CODE_CREATE",
      "outputs": [
        {
          "internalType": "uint32",
          "name": "",
          "type": "uint32"
        }
      ],
      "stateMutability": "view",
      "type": "function"
    },
    {
      "inputs": [],
      "name": "AUTH_CODE_DELETE",
      "outputs": [
        {
          "internalType": "uint32",
          "name": "",
          "type": "uint32"
        }
      ],
      "stateMutability": "view",
      "type": "function"
    },
    {
      "inputs": [],
      "name": "AUTH_CODE_UPDATE",
      "outputs": [
        {
          "internalType": "uint32",
          "name": "",
          "type": "uint32"
        }
      ],
      "stateMutability": "view",
      "type": "function"
    },
    {
      "inputs": [],
      "name": "BUCKET_CHANNEL_ID",
      "outputs": [
        {
          "internalType": "uint8",
          "name": "",
          "type": "uint8"
        }
      ],
      "stateMutability": "view",
      "type": "function"
    },
    {
      "inputs": [],
      "name": "BUCKET_HUB",
      "outputs": [
        {
          "internalType": "address",
          "name": "",
          "type": "address"
        }
      ],
      "stateMutability": "view",
      "type": "function"
    },
    {
      "inputs": [],
      "name": "CROSS_CHAIN",
      "outputs": [
        {
          "internalType": "address",
          "name": "",
          "type": "address"
        }
      ],
      "stateMutability": "view",
      "type": "function"
    },
    {
      "inputs": [],
      "name": "EMERGENCY_OPERATOR",
      "outputs": [
        {
          "internalType": "address",
          "name": "",
          "type": "address"
        }
      ],
      "stateMutability": "view",
      "type": "function"
    },
    {
      "inputs": [],
      "name": "EMERGENCY_UPGRADE_OPERATOR",
      "outputs": [
        {
          "internalType": "address",
          "name": "",
          "type": "address"
        }
      ],
      "stateMutability": "view",
      "type": "function"
    },
    {
      "inputs": [],
      "name": "ERC1155Token",
      "outputs": [
        {
          "internalType": "address",
          "name": "",
          "type": "address"
        }
      ],
      "stateMutability": "view",
      "type": "function"
    },
    {
      "inputs": [],
      "name": "ERC721Token",
      "outputs": [
        {
          "internalType": "address",
          "name": "",
          "type": "address"
        }
      ],
      "stateMutability": "view",
      "type": "function"
    },
    {
      "inputs": [],
      "name": "ERROR_INSUFFICIENT_VALUE",
      "outputs": [
        {
          "internalType": "string",
          "name": "",
          "type": "string"
        }
      ],
      "stateMutability": "view",
      "type": "function"
    },
    {
      "inputs": [],
      "name": "ERROR_INVALID_CALLER",
      "outputs": [
        {
          "internalType": "string",
          "name": "",
          "type": "string"
        }
      ],
      "stateMutability": "view",
      "type": "function"
    },
    {
      "inputs": [],
      "name": "ERROR_INVALID_OPERATION",
      "outputs": [
        {
          "internalType": "string",
          "name": "",
          "type": "string"
        }
      ],
      "stateMutability": "view",
      "type": "function"
    },
    {
      "inputs": [],
      "name": "ERROR_INVALID_RESOURCE",
      "outputs": [
        {
          "internalType": "string",
          "name": "",
          "type": "string"
        }
      ],
      "stateMutability": "view",
      "type": "function"
    },
    {
      "inputs": [],
      "name": "GOV_CHANNEL_ID",
      "outputs": [
        {
          "internalType": "uint8",
          "name": "",
          "type": "uint8"
        }
      ],
      "stateMutability": "view",
      "type": "function"
    },
    {
      "inputs": [],
      "name": "GOV_HUB",
      "outputs": [
        {
          "internalType": "address",
          "name": "",
          "type": "address"
        }
      ],
      "stateMutability": "view",
      "type": "function"
    },
    {
      "inputs": [],
      "name": "GROUP_CHANNEL_ID",
      "outputs": [
        {
          "internalType": "uint8",
          "name": "",
          "type": "uint8"
        }
      ],
      "stateMutability": "view",
      "type": "function"
    },
    {
      "inputs": [],
      "name": "GROUP_HUB",
      "outputs": [
        {
          "internalType": "address",
          "name": "",
          "type": "address"
        }
      ],
      "stateMutability": "view",
      "type": "function"
    },
    {
      "inputs": [],
      "name": "GROUP_TOKEN",
      "outputs": [
        {
          "internalType": "contract IERC721NonTransferable",
          "name": "",
          "type": "address"
        }
      ],
      "stateMutability": "view",
      "type": "function"
    },
    {
      "inputs": [],
      "name": "INIT_MAX_CALLBACK_DATA_LENGTH",
      "outputs": [
        {
          "internalType": "uint256",
          "name": "",
          "type": "uint256"
        }
      ],
      "stateMutability": "view",
      "type": "function"
    },
    {
      "inputs": [],
      "name": "LIGHT_CLIENT",
      "outputs": [
        {
          "internalType": "address",
          "name": "",
          "type": "address"
        }
      ],
      "stateMutability": "view",
      "type": "function"
    },
    {
      "inputs": [],
      "name": "MAX_CALLBACK_GAS_LIMIT",
      "outputs": [
        {
          "internalType": "uint256",
          "name": "",
          "type": "uint256"
        }
      ],
      "stateMutability": "view",
      "type": "function"
    },
    {
      "inputs": [],
      "name": "MEMBER_TOKEN",
      "outputs": [
        {
          "internalType": "contract IERC1155NonTransferable",
          "name": "",
          "type": "address"
        }
      ],
      "stateMutability": "view",
      "type": "function"
    },
    {
      "inputs": [],
      "name": "OBJECT_CHANNEL_ID",
      "outputs": [
        {
          "internalType": "uint8",
          "name": "",
          "type": "uint8"
        }
      ],
      "stateMutability": "view",
      "type": "function"
    },
    {
      "inputs": [],
      "name": "OBJECT_HUB",
      "outputs": [
        {
          "internalType": "address",
          "name": "",
          "type": "address"
        }
      ],
      "stateMutability": "view",
      "type": "function"
    },
    {
      "inputs": [],
      "name": "PROXY_ADMIN",
      "outputs": [
        {
          "internalType": "address",
          "name": "",
          "type": "address"
        }
      ],
      "stateMutability": "view",
      "type": "function"
    },
    {
      "inputs": [],
      "name": "RELAYER_HUB",
      "outputs": [
        {
          "internalType": "address",
          "name": "",
          "type": "address"
        }
      ],
      "stateMutability": "view",
      "type": "function"
    },
    {
      "inputs": [],
      "name": "RESOURCE_GROUP",
      "outputs": [
        {
          "internalType": "uint8",
          "name": "",
          "type": "uint8"
        }
      ],
      "stateMutability": "view",
      "type": "function"
    },
    {
      "inputs": [],
      "name": "ROLE_CREATE",
      "outputs": [
        {
          "internalType": "bytes32",
          "name": "",
          "type": "bytes32"
        }
      ],
      "stateMutability": "view",
      "type": "function"
    },
    {
      "inputs": [],
      "name": "ROLE_DELETE",
      "outputs": [
        {
          "internalType": "bytes32",
          "name": "",
          "type": "bytes32"
        }
      ],
      "stateMutability": "view",
      "type": "function"
    },
    {
      "inputs": [],
      "name": "ROLE_UPDATE",
      "outputs": [
        {
          "internalType": "bytes32",
          "name": "",
          "type": "bytes32"
        }
      ],
      "stateMutability": "view",
      "type": "function"
    },
    {
      "inputs": [],
      "name": "STATUS_FAILED",
      "outputs": [
        {
          "internalType": "uint32",
          "name": "",
          "type": "uint32"
        }
      ],
      "stateMutability": "view",
      "type": "function"
    },
    {
      "inputs": [],
      "name": "STATUS_SUCCESS",
      "outputs": [
        {
          "internalType": "uint32",
          "name": "",
          "type": "uint32"
        }
      ],
      "stateMutability": "view",
      "type": "function"
    },
    {
      "inputs": [],
      "name": "STATUS_UNEXPECTED",
      "outputs": [
        {
          "internalType": "uint32",
          "name": "",
          "type": "uint32"
        }
      ],
      "stateMutability": "view",
      "type": "function"
    },
    {
      "inputs": [],
      "name": "TOKEN_HUB",
      "outputs": [
        {
          "internalType": "address",
          "name": "",
          "type": "address"
        }
      ],
      "stateMutability": "view",
      "type": "function"
    },
    {
      "inputs": [],
      "name": "TRANSFER_IN_CHANNEL_ID",
      "outputs": [
        {
          "internalType": "uint8",
          "name": "",
          "type": "uint8"
        }
      ],
      "stateMutability": "view",
      "type": "function"
    },
    {
      "inputs": [],
      "name": "TRANSFER_OUT_CHANNEL_ID",
      "outputs": [
        {
          "internalType": "uint8",
          "name": "",
          "type": "uint8"
        }
      ],
      "stateMutability": "view",
      "type": "function"
    },
    {
      "inputs": [],
      "name": "TYPE_CREATE",
      "outputs": [
        {
          "internalType": "uint8",
          "name": "",
          "type": "uint8"
        }
      ],
      "stateMutability": "view",
      "type": "function"
    },
    {
      "inputs": [],
      "name": "TYPE_DELETE",
      "outputs": [
        {
          "internalType": "uint8",
          "name": "",
          "type": "uint8"
        }
      ],
      "stateMutability": "view",
      "type": "function"
    },
    {
      "inputs": [],
      "name": "TYPE_MIRROR",
      "outputs": [
        {
          "internalType": "uint8",
          "name": "",
          "type": "uint8"
        }
      ],
      "stateMutability": "view",
      "type": "function"
    },
    {
      "inputs": [],
      "name": "TYPE_UPDATE",
      "outputs": [
        {
          "internalType": "uint8",
          "name": "",
          "type": "uint8"
        }
      ],
      "stateMutability": "view",
      "type": "function"
    },
    {
      "inputs": [],
      "name": "additional",
      "outputs": [
        {
          "internalType": "address",
          "name": "",
          "type": "address"
        }
      ],
      "stateMutability": "view",
      "type": "function"
    },
    {
      "inputs": [],
      "name": "callbackGasLimit",
      "outputs": [
        {
          "internalType": "uint256",
          "name": "",
          "type": "uint256"
        }
      ],
      "stateMutability": "view",
      "type": "function"
    },
    {
      "inputs": [],
      "name": "channelId",
      "outputs": [
        {
          "internalType": "uint8",
          "name": "",
          "type": "uint8"
        }
      ],
      "stateMutability": "view",
      "type": "function"
    },
    {
      "inputs": [],
      "name": "creationFee",
      "outputs": [
        {
          "internalType": "uint256",
          "name": "",
          "type": "uint256"
        }
      ],
      "stateMutability": "view",
      "type": "function"
    },
    {
      "inputs": [],
      "name": "crossChain",
      "outputs": [
        {
          "internalType": "address",
          "name": "",
          "type": "address"
        }
      ],
      "stateMutability": "view",
      "type": "function"
    },
    {
      "inputs": [
        {
          "internalType": "address",
          "name": "",
          "type": "address"
        },
        {
          "internalType": "uint256",
          "name": "",
          "type": "uint256"
        }
      ],
      "name": "expirationOfUserSubscription",
      "outputs": [
        {
          "internalType": "uint64",
          "name": "",
          "type": "uint64"
        }
      ],
      "stateMutability": "view",
      "type": "function"
    },
    {
      "inputs": [],
      "name": "failureHandleStrategy",
      "outputs": [
        {
          "internalType": "enum PackageQueue.FailureHandleStrategy",
          "name": "",
          "type": "uint8"
        }
      ],
      "stateMutability": "view",
      "type": "function"
    },
    {
      "inputs": [
        {
          "internalType": "address",
          "name": "",
          "type": "address"
        }
      ],
      "name": "fieldIdOfUser",
      "outputs": [
        {
          "internalType": "uint256",
          "name": "",
          "type": "uint256"
        }
      ],
      "stateMutability": "view",
      "type": "function"
    },
    {
      "inputs": [
        {
          "internalType": "uint256",
          "name": "",
          "type": "uint256"
        }
      ],
      "name": "fieldIdToName",
      "outputs": [
        {
          "internalType": "string",
          "name": "",
          "type": "string"
        }
      ],
      "stateMutability": "view",
      "type": "function"
    },
    {
      "inputs": [
        {
          "internalType": "string",
          "name": "",
          "type": "string"
        }
      ],
      "name": "fieldNameToId",
      "outputs": [
        {
          "internalType": "uint256",
          "name": "",
          "type": "uint256"
        }
      ],
      "stateMutability": "view",
      "type": "function"
    },
    {
      "inputs": [
        {
          "internalType": "uint32",
          "name": "status",
          "type": "uint32"
        },
        {
          "internalType": "uint8",
          "name": "resourceType",
          "type": "uint8"
        },
        {
          "internalType": "uint8",
          "name": "operationType",
          "type": "uint8"
        },
        {
          "internalType": "uint256",
          "name": "resourceId",
          "type": "uint256"
        },
        {
          "internalType": "bytes",
          "name": "callbackData",
          "type": "bytes"
        }
      ],
      "name": "greenfieldCall",
      "outputs": [],
      "stateMutability": "nonpayable",
      "type": "function"
    },
    {
      "inputs": [],
      "name": "groupHub",
      "outputs": [
        {
          "internalType": "address",
          "name": "",
          "type": "address"
        }
      ],
      "stateMutability": "view",
      "type": "function"
    },
    {
      "inputs": [
        {
          "internalType": "address",
          "name": "_groupHub",
          "type": "address"
        },
        {
          "internalType": "address",
          "name": "_crossChain",
          "type": "address"
        },
        {
          "internalType": "uint256",
          "name": "_callbackGasLimit",
          "type": "uint256"
        },
        {
          "internalType": "uint8",
          "name": "_failureHandleStrategy",
          "type": "uint8"
        }
      ],
      "name": "initialize",
      "outputs": [],
      "stateMutability": "nonpayable",
      "type": "function"
    },
    {
      "inputs": [],
      "name": "maxCallbackDataLength",
      "outputs": [
        {
          "internalType": "uint256",
          "name": "",
          "type": "uint256"
        }
      ],
      "stateMutability": "view",
      "type": "function"
    },
    {
      "inputs": [
        {
          "internalType": "bytes32",
          "name": "",
          "type": "bytes32"
        }
      ],
      "name": "packageMap",
      "outputs": [
        {
          "internalType": "address",
          "name": "appAddress",
          "type": "address"
        },
        {
          "internalType": "uint32",
          "name": "status",
          "type": "uint32"
        },
        {
          "internalType": "uint8",
          "name": "operationType",
          "type": "uint8"
        },
        {
          "internalType": "uint256",
          "name": "resourceId",
          "type": "uint256"
        },
        {
          "internalType": "bytes",
          "name": "callbackData",
          "type": "bytes"
        },
        {
          "internalType": "bytes",
          "name": "failReason",
          "type": "bytes"
        }
      ],
      "stateMutability": "view",
      "type": "function"
    },
    {
      "inputs": [
        {
          "internalType": "address",
          "name": "",
          "type": "address"
        }
      ],
      "name": "pendingWithdrawals",
      "outputs": [
        {
          "internalType": "uint256",
          "name": "",
          "type": "uint256"
        }
      ],
      "stateMutability": "view",
      "type": "function"
    },
    {
      "inputs": [
        {
          "internalType": "string",
          "name": "name",
          "type": "string"
        },
        {
          "internalType": "uint256",
          "name": "groupId",
          "type": "uint256"
        },
        {
          "internalType": "uint256",
          "name": "price",
          "type": "uint256"
        }
      ],
      "name": "registerField",
      "outputs": [],
      "stateMutability": "nonpayable",
      "type": "function"
    },
    {
      "inputs": [
        {
          "internalType": "uint8",
          "name": "resourceType",
          "type": "uint8"
        }
      ],
      "name": "retryPackage",
      "outputs": [],
      "stateMutability": "nonpayable",
      "type": "function"
    },
    {
      "inputs": [
        {
          "internalType": "address",
          "name": "",
          "type": "address"
        }
      ],
      "name": "retryQueue",
      "outputs": [
        {
          "internalType": "int128",
          "name": "_begin",
          "type": "int128"
        },
        {
          "internalType": "int128",
          "name": "_end",
          "type": "int128"
        }
      ],
      "stateMutability": "view",
      "type": "function"
    },
    {
      "inputs": [
        {
          "internalType": "uint8",
          "name": "resourceType",
          "type": "uint8"
        }
      ],
      "name": "skipPackage",
      "outputs": [],
      "stateMutability": "nonpayable",
      "type": "function"
    },
    {
      "inputs": [
        {
          "internalType": "uint256",
          "name": "groupId",
          "type": "uint256"
        }
      ],
      "name": "subscribeField",
      "outputs": [],
      "stateMutability": "payable",
      "type": "function"
    },
    {
      "inputs": [
        {
          "internalType": "uint256",
          "name": "",
          "type": "uint256"
        }
      ],
      "name": "subscriptionFee",
      "outputs": [
        {
          "internalType": "uint256",
          "name": "",
          "type": "uint256"
        }
      ],
      "stateMutability": "view",
      "type": "function"
    },
    {
      "inputs": [],
      "name": "versionInfo",
      "outputs": [
        {
          "internalType": "uint256",
          "name": "version",
          "type": "uint256"
        },
        {
          "internalType": "string",
          "name": "name",
          "type": "string"
        },
        {
          "internalType": "string",
          "name": "description",
          "type": "string"
        }
      ],
      "stateMutability": "pure",
      "type": "function"
    },
    {
      "inputs": [],
      "name": "withdraw",
      "outputs": [],
      "stateMutability": "nonpayable",
      "type": "function"
    }
  ],
  "bytecode": "0x608060405234801561001057600080fd5b5061239f806100206000396000f3fe6080604052600436106103ce5760003560e01c806381d91480116101fd578063cc65cc4a11610118578063e8449116116100ab578063edabb0a31161007a578063edabb0a3146106ee578063f2223c02146106d9578063f3f4370314610a5b578063fdd562b8146109c5578063feb3a68a14610a8957600080fd5b8063e8449116146107c0578063e8ea79c014610a26578063eac78b3314610a46578063ed9bc82a1461060157600080fd5b8063e02e86b0116100e7578063e02e86b0146109c5578063e2cee544146109da578063e52a6718146109f9578063e613ae001461060157600080fd5b8063cc65cc4a146108e1578063ce1ddb6c14610953578063d271250e14610980578063dce0b4e4146109ae57600080fd5b8063b32f787b11610190578063c64ca0201161015f578063c64ca020146108ff578063c71f64e41461091f578063c8b01e6f146105a0578063cc12eabc1461041157600080fd5b8063b32f787b1461074c578063b4627d35146108e1578063b8e43b3314610601578063b9d869131461060157600080fd5b80639142d7fb116101cc5780639142d7fb14610859578063a21d13541461087a578063a29be1fa146108c1578063a9dae71c1461060157600080fd5b806381d91480146107c05780638855e092146107d55780638c3cb902146107ea5780638f8ea384146107ff57600080fd5b80634917db66116102ed5780636d3358a111610280578063778afbb71161024f578063778afbb71461076157806377a714ae1461079a5780637afffdd2146106015780637d2e30841461060157600080fd5b80636d3358a114610601578063721c3dd01461071957806373ee45081461072c57806373f1e3c31461074c57600080fd5b80635bb58b17116102bc5780635bb58b17146106b95780635d83a5aa146106d9578063618d569c146106ee57806361bbd6dd1461070357600080fd5b80634917db66146106165780634eee77671461063657806350704a501461068c578063557cf4771461060157600080fd5b806333a89c40116103655780633ccfd60b116103345780633ccfd60b146105ca578063459af3aa146105e157806346934fc81461060157806346ab84e51461060157600080fd5b806333a89c401461053357806339a252901461056157806339c33215146105885780633a0f4bf8146105a057600080fd5b8063189e8102116103a1578063189e8102146104905780631a12138f146104ca5780631c60450d146104eb57806324f746971461051d57600080fd5b8063012927c0146103d357806309d1be191461041157806312629faf14610438578063142c2f441461047a575b600080fd5b3480156103df57600080fd5b50610169546103f4906001600160a01b031681565b6040516001600160a01b0390911681526020015b60405180910390f35b34801561041d57600080fd5b50610426600181565b60405160ff9091168152602001610408565b34801561044457600080fd5b5061046c7fa7a925e56b0f4627a3e4910a6e10d23a82143f84f9d73d587c9ef425941ace8e81565b604051908152602001610408565b34801561048657600080fd5b5061046c60695481565b34801561049c57600080fd5b506104bd604051806040016040528060018152602001601960f91b81525081565b6040516104089190611bd1565b3480156104d657600080fd5b50610168546103f4906001600160a01b031681565b3480156104f757600080fd5b5061050b610506366004611beb565b610abd565b60405161040896959493929190611c04565b34801561052957600080fd5b5061046c609c5481565b34801561053f57600080fd5b5061046c61054e366004611beb565b61016e6020526000908152604090205481565b34801561056d57600080fd5b50609d5461057b9060ff1681565b6040516104089190611c93565b34801561059457600080fd5b5061046c6301312d0081565b3480156105ac57600080fd5b506105b5600181565b60405163ffffffff9091168152602001610408565b3480156105d657600080fd5b506105df610c19565b005b3480156105ed57600080fd5b506105df6105fc366004611d04565b610ccf565b34801561060d57600080fd5b506103f4600081565b34801561062257600080fd5b50609b546103f4906001600160a01b031681565b34801561064257600080fd5b50610672610651366004611da2565b603360205260009081526040902054600f81810b91600160801b9004900b82565b60408051600f93840b81529190920b602082015201610408565b34801561069857600080fd5b506104bd604051806040016040528060018152602001603160f81b81525081565b3480156106c557600080fd5b506104bd6106d4366004611beb565b610dad565b3480156106e557600080fd5b506105b5600281565b3480156106fa57600080fd5b50610426600281565b34801561070f57600080fd5b5061046c61040081565b6105df610727366004611beb565b610e48565b34801561073857600080fd5b5060d0546103f4906001600160a01b031681565b34801561075857600080fd5b50610426600481565b34801561076d57600080fd5b5061046c61077c366004611dd5565b805160208183018101805161016d8252928201919093012091525481565b3480156107a657600080fd5b506067546103f4906201000090046001600160a01b031681565b3480156107cc57600080fd5b50610426600381565b3480156107e157600080fd5b506105b5600081565b3480156107f657600080fd5b506105b5600481565b34801561080b57600080fd5b5061084161081a366004611e85565b61016f6020908152600092835260408084209091529082529020546001600160401b031681565b6040516001600160401b039091168152602001610408565b34801561086557600080fd5b50610103546103f4906001600160a01b031681565b34801561088657600080fd5b506040805180820182526006815265436f6e66696760d01b602080830191909152825190810183526000808252925161040893929190611eb1565b3480156108cd57600080fd5b506105df6108dc366004611ee6565b6111e6565b3480156108ed57600080fd5b506105df6108fc366004611f36565b50565b34801561090b57600080fd5b506105df61091a366004611f51565b611482565b34801561092b57600080fd5b5061046c7fe52b0c82d70862ecc57dd0fa972f308948292049a31fa59a5b152ce07497fded81565b34801561095f57600080fd5b506104bd604051806040016040528060018152602001603360f81b81525081565b34801561098c57600080fd5b5061046c61099b366004611da2565b61016b6020526000908152604090205481565b3480156109ba57600080fd5b5061046c61016a5481565b3480156109d157600080fd5b50610426600681565b3480156109e657600080fd5b5060675461042690610100900460ff1681565b348015610a0557600080fd5b506104bd604051806040016040528060018152602001600360fc1b81525081565b348015610a3257600080fd5b506068546103f4906001600160a01b031681565b348015610a5257600080fd5b50610426600581565b348015610a6757600080fd5b5061046c610a76366004611da2565b6101706020526000908152604090205481565b348015610a9557600080fd5b5061046c7f757d0265d5de9ff03394896c4c44c92950e6e9565f35923c097aed8e1128e4cb81565b6034602052600090815260409020805460018201546002830180546001600160a01b03841694600160a01b850463ffffffff1694600160c01b900460ff1693929091610b0890611fa2565b80601f0160208091040260200160405190810160405280929190818152602001828054610b3490611fa2565b8015610b815780601f10610b5657610100808354040283529160200191610b81565b820191906000526020600020905b815481529060010190602001808311610b6457829003601f168201915b505050505090806003018054610b9690611fa2565b80601f0160208091040260200160405190810160405280929190818152602001828054610bc290611fa2565b8015610c0f5780601f10610be457610100808354040283529160200191610c0f565b820191906000526020600020905b815481529060010190602001808311610bf257829003601f168201915b5050505050905086565b610c216116af565b336000908152610170602052604090205480610c845760405162461bcd60e51b815260206004820181905260248201527f426c756669656c643a206e6f2070656e64696e67207769746864726177616c7360448201526064015b60405180910390fd5b33600081815261017060205260408082208290555183156108fc0291849190818181858888f19350505050158015610cc0573d6000803e3d6000fd5b5050610ccd600161013655565b565b6101035460408051808201825260018152600360fc1b60208083019190915291516001600160a01b03909316331492610d089201611fdc565b60405160208183030381529060405290610d355760405162461bcd60e51b8152600401610c7b9190611bd1565b50600660ff168560ff1614604051806040016040528060018152602001603160f81b815250604051602001610d6a9190611fdc565b60405160208183030381529060405290610d975760405162461bcd60e51b8152600401610c7b9190611bd1565b50610da5868585858561170a565b505050505050565b61016c6020526000908152604090208054610dc790611fa2565b80601f0160208091040260200160405190810160405280929190818152602001828054610df390611fa2565b8015610e405780601f10610e1557610100808354040283529160200191610e40565b820191906000526020600020905b815481529060010190602001808311610e2357829003601f168201915b505050505081565b610e506116af565b600081815261016c602052604081208054610e6a90611fa2565b905011610eb95760405162461bcd60e51b815260206004820152601e60248201527f426c756669656c643a206669656c64206e6f74207265676973746572656400006044820152606401610c7b565b610168546040516331a9108f60e11b8152600481018390526000916001600160a01b031690636352211e90602401602060405180830381865afa158015610f04573d6000803e3d6000fd5b505050506040513d601f19601f82011682018060405250810190610f28919061200e565b90506001600160a01b038116610f905760405162461bcd60e51b815260206004820152602760248201527f426c756669656c643a2063616e6e6f742073756273637269626520746f206f776044820152661b88199a595b1960ca1b6064820152608401610c7b565b600082815261016e602052604081205490610fa9611846565b9050610fb58183612041565b3410156110045760405162461bcd60e51b815260206004820152601e60248201527f426c756669656c643a20696e73756666696369656e74207061796d656e7400006044820152606401610c7b565b61016954604051627eeac760e11b815233600482015260248101869052600091829182916001600160a01b03169062fdd58e90604401602060405180830381865afa158015611057573d6000803e3d6000fd5b505050506040513d601f19601f8201168201806040525081019061107b919061205a565b90508060000361109d576110924262278d00612041565b925060009150611119565b33600090815261016f602090815260408083208a8452909152902054426001600160401b0390911611156111045733600090815261016f602090815260408083208a84529091529020546110fd906001600160401b031662278d00612073565b9250611114565b6111114262278d00612041565b92505b600291505b60408051600180825281830190925260009160208083019080368337505060408051600180825281830190925292935060009291506020808301908036833701905050905033826000815181106111725761117261209a565b60200260200101906001600160a01b031690816001600160a01b03168152505084816000815181106111a6576111a661209a565b60200260200101906001600160401b031690816001600160401b0316815250506111d3888a86858561196e565b50505050505050506108fc600161013655565b6111ee6116af565b610168546040516331a9108f60e11b81526004810184905233916001600160a01b031690636352211e90602401602060405180830381865afa158015611238573d6000803e3d6000fd5b505050506040513d601f19601f8201168201806040525081019061125c919061200e565b6001600160a01b0316146112a85760405162461bcd60e51b815260206004820152601360248201527221363ab334b2b6321d103737ba1037bbb732b960691b6044820152606401610c7b565b826112f55760405162461bcd60e51b815260206004820152601760248201527f426c756669656c643a206e616d6520697320656d7074790000000000000000006044820152606401610c7b565b33600090815261016b6020526040902054156113535760405162461bcd60e51b815260206004820152601c60248201527f426c756669656c643a20616c72656164792072656769737465726564000000006044820152606401610c7b565b61016d84846040516113669291906120b0565b9081526020016040518091039020546000146113c45760405162461bcd60e51b815260206004820152601c60248201527f426c756669656c643a206e616d6520616c72656164792074616b656e000000006044820152606401610c7b565b600081116114145760405162461bcd60e51b815260206004820152601760248201527f426c756669656c643a207072696365206973207a65726f0000000000000000006044820152606401610c7b565b33600090815261016b6020908152604080832085905584835261016c9091529020611440848683612106565b508161016d85856040516114559291906120b0565b908152604080516020928190038301902092909255600093845261016e9052909120555050600161013655565b600054610100900460ff16158080156114a25750600054600160ff909116105b806114bc5750303b1580156114bc575060005460ff166001145b61151f5760405162461bcd60e51b815260206004820152602e60248201527f496e697469616c697a61626c653a20636f6e747261637420697320616c72656160448201526d191e481a5b9a5d1a585b1a5e995960921b6064820152608401610c7b565b6000805460ff191660011790558015611542576000805461ff0019166101001790555b846001600160a01b03166377a714ae6040518163ffffffff1660e01b8152600401602060405180830381865afa158015611580573d6000803e3d6000fd5b505050506040513d601f19601f820116820180604052508101906115a4919061200e565b61016860006101000a8154816001600160a01b0302191690836001600160a01b03160217905550846001600160a01b03166373ee45086040518163ffffffff1660e01b8152600401602060405180830381865afa158015611609573d6000803e3d6000fd5b505050506040513d601f19601f8201168201806040525081019061162d919061200e565b61016980546001600160a01b0319166001600160a01b0392909216919091179055611659848484611ab0565b61166285611b32565b80156116a8576000805461ff0019169055604051600181527f7f26b83ff96e1f2b6a682f133852f6798a09c465da95921460cefb38474024989060200160405180910390a15b5050505050565b600261013654036117025760405162461bcd60e51b815260206004820152601f60248201527f5265656e7472616e637947756172643a207265656e7472616e742063616c6c006044820152606401610c7b565b600261013655565b60011960ff85160161175c57611757858484848080601f016020809104026020016040519081016040528093929190818152602001838380828437600092019190915250611b7c92505050565b6116a8565b60021960ff8516016117a957611757858484848080601f016020809104026020016040519081016040528093929190818152602001838380828437600092019190915250611b7c92505050565b60031960ff8516016117f657611757858484848080601f016020809104026020016040519081016040528093929190818152602001838380828437600092019190915250611b7c92505050565b604051806040016040528060018152602001601960f91b8152506040516020016118209190611fdc565b60408051601f198184030181529082905262461bcd60e51b8252610c7b91600401611bd1565b6000806000609b60009054906101000a90046001600160a01b03166001600160a01b03166354912a976040518163ffffffff1660e01b815260040160408051808303816000875af115801561189f573d6000803e3d6000fd5b505050506040513d601f19601f820116820180604052508101906118c391906121c5565b915091506000609b60009054906101000a90046001600160a01b03166001600160a01b031663bf9032476040518163ffffffff1660e01b81526004016020604051808303816000875af115801561191e573d6000803e3d6000fd5b505050506040513d601f19601f82011682018060405250810190611942919061205a565b905080609c5461195291906121e9565b61195c8385612041565b6119669190612041565b935050505090565b60006040518060c00160405280876001600160a01b031681526020018681526020018560028111156119a2576119a2611c5f565b815260200184815260200160405180602001604052806000815250815260200183815250905060006119d2611846565b905080341015604051806040016040528060018152602001603360f81b815250604051602001611a029190611fdc565b60405160208183030381529060405290611a2f5760405162461bcd60e51b8152600401610c7b9190611bd1565b50610103546040516302041bbf60e51b81526001600160a01b039091169063408377e0903490611a63908690600401612244565b60206040518083038185885af1158015611a81573d6000803e3d6000fd5b50505050506040513d601f19601f82011682018060405250810190611aa691906122fc565b5050505050505050565b600054610100900460ff16611ad75760405162461bcd60e51b8152600401610c7b9061231e565b609b80546001600160a01b0319166001600160a01b038516179055609c82905560ff81166002811115611b0c57611b0c611c5f565b609d805460ff19166001836002811115611b2857611b28611c5f565b0217905550505050565b600054610100900460ff16611b595760405162461bcd60e51b8152600401610c7b9061231e565b61010380546001600160a01b0319166001600160a01b0392909216919091179055565b505050565b60005b83811015611b9c578181015183820152602001611b84565b50506000910152565b60008151808452611bbd816020860160208601611b81565b601f01601f19169290920160200192915050565b602081526000611be46020830184611ba5565b9392505050565b600060208284031215611bfd57600080fd5b5035919050565b60018060a01b038716815263ffffffff8616602082015260ff8516604082015283606082015260c060808201526000611c4060c0830185611ba5565b82810360a0840152611c528185611ba5565b9998505050505050505050565b634e487b7160e01b600052602160045260246000fd5b600381106108fc57634e487b7160e01b600052602160045260246000fd5b60208101611ca083611c75565b91905290565b803560ff81168114611cb757600080fd5b919050565b60008083601f840112611cce57600080fd5b5081356001600160401b03811115611ce557600080fd5b602083019150836020828501011115611cfd57600080fd5b9250929050565b60008060008060008060a08789031215611d1d57600080fd5b863563ffffffff81168114611d3157600080fd5b9550611d3f60208801611ca6565b9450611d4d60408801611ca6565b93506060870135925060808701356001600160401b03811115611d6f57600080fd5b611d7b89828a01611cbc565b979a9699509497509295939492505050565b6001600160a01b03811681146108fc57600080fd5b600060208284031215611db457600080fd5b8135611be481611d8d565b634e487b7160e01b600052604160045260246000fd5b600060208284031215611de757600080fd5b81356001600160401b0380821115611dfe57600080fd5b818401915084601f830112611e1257600080fd5b813581811115611e2457611e24611dbf565b604051601f8201601f19908116603f01168101908382118183101715611e4c57611e4c611dbf565b81604052828152876020848701011115611e6557600080fd5b826020860160208301376000928101602001929092525095945050505050565b60008060408385031215611e9857600080fd5b8235611ea381611d8d565b946020939093013593505050565b838152606060208201526000611eca6060830185611ba5565b8281036040840152611edc8185611ba5565b9695505050505050565b60008060008060608587031215611efc57600080fd5b84356001600160401b03811115611f1257600080fd5b611f1e87828801611cbc565b90989097506020870135966040013595509350505050565b600060208284031215611f4857600080fd5b611be482611ca6565b60008060008060808587031215611f6757600080fd5b8435611f7281611d8d565b93506020850135611f8281611d8d565b925060408501359150611f9760608601611ca6565b905092959194509250565b600181811c90821680611fb657607f821691505b602082108103611fd657634e487b7160e01b600052602260045260246000fd5b50919050565b69023b937bab820b8381d160b51b81526000825161200181600a850160208701611b81565b91909101600a0192915050565b60006020828403121561202057600080fd5b8151611be481611d8d565b634e487b7160e01b600052601160045260246000fd5b808201808211156120545761205461202b565b92915050565b60006020828403121561206c57600080fd5b5051919050565b6001600160401b038181168382160190808211156120935761209361202b565b5092915050565b634e487b7160e01b600052603260045260246000fd5b8183823760009101908152919050565b601f821115611b7c57600081815260208120601f850160051c810160208610156120e75750805b601f850160051c820191505b81811015610da5578281556001016120f3565b6001600160401b0383111561211d5761211d611dbf565b6121318361212b8354611fa2565b836120c0565b6000601f841160018114612165576000851561214d5750838201355b600019600387901b1c1916600186901b1783556116a8565b600083815260209020601f19861690835b828110156121965786850135825560209485019460019092019101612176565b50868210156121b35760001960f88860031b161c19848701351681555b505060018560011b0183555050505050565b600080604083850312156121d857600080fd5b505080516020909101519092909150565b80820281158282048414176120545761205461202b565b600081518084526020808501945080840160005b838110156122395781516001600160401b031687529582019590820190600101612214565b509495945050505050565b6000602080835260e0830160018060a01b038086511683860152828601516040860152604086015161227581611c75565b60608681019190915286015160c060808701528051928390528301916000906101008701905b808310156122bd5784518416825293850193600192909201919085019061229b565b5060808801519450601f199350838782030160a08801526122de8186611ba5565b945050505060a0850151818584030160c0860152611edc8382612200565b60006020828403121561230e57600080fd5b81518015158114611be457600080fd5b6020808252602b908201527f496e697469616c697a61626c653a20636f6e7472616374206973206e6f74206960408201526a6e697469616c697a696e6760a81b60608201526080019056fea2646970667358221220da12d1e0abaf05748aa2ab264cc67612a26f04d997adebe37faf36b1c233e52264736f6c63430008140033",
  "linkReferences": {},
  "deployedLinkReferences": {}
}